:100000000C9440030C9487030C9487030C9487038F
:100010000C9487030C9487030C9487030C94870338
:100020000C9487030C9487030C94BF280C9491299B
:100030000C94D8230C9487030C9487030C948703A7
:100040000C9487030C946F130C9487030C94870310
:100050000C9493130C9431240C9487030C94870311
:100060000C9487030C9487030C9487030C948703E8
:100070000C9487030C9487030C9487030C948703D8
:100080000C9487030C9487030C9487030C948703C8
:100090000C9487030C9487030C9487030C948703B8
:1000A0000C9487030C9487030C948703AD19AD1946
:1000B000DF19DF19261A441A581B581B4F1AE81A61
:1000C000F91AF91AF81BF81B0A1C0A1C011C0A1C55
:1000D0000A1C0A1CF81BF81B061C0A1C0A1C061C1E
:1000E000FE29252A1D2B252A1D2B712A942A1D2B1A
:1000F000EB2AFA2A290014001A000800150017003C
:100100001C0018000C00120013002B000400164500
:10011000074409430A000B000D430E440F45280015
:10012000E1001D001B000600190005001100100071
:100130003600370038000100E000E20000002C71BA
:100140002C7100000100E70001002A0000000000FF
:10015000000000000000000000000000000000009F
:10016000000000000000000000000000000000008F
:10017000000000000000000000000000000000007F
:10018000000000000000000000000000000000006F
:10019000000000000000000000000000000000005F
:1001A000000000000000000000000000000000004F
:1001B000000000000000000000000000000000003F
:1001C000000000000000000000000000000000002F
:1001D000000000000000000000000000000000001F
:1001E000000000000000000000000000000000000F
:1001F00000000000000000000000000035002F009B
:10020000610060005F0030004B004A0052004D006A
:100210004900530033005E005D005C002E004E007C
:10022000500051004F00340001002D005B005A00C7
:100230005900310000000000000000000000010033
:100240006300620000000100010000000100E20004
:1002500001004C0035022F02260225022402300242
:10026000F900F100ED00F200F4003900330223023E
:10027000220221022E02FA00EF00EE00F000F5004B
:1002800000002D0220021F021E023102FB00FD00B1
:10029000FE00FF00FC000100260227020000010012
:1002A00001000000010000000100F300005C4300B9
:1002B0004200410040004600CA5CC55CA900C45C25
:1002C000C65C000044003F003E003D004700CB5CA0
:1002D000AC00AA00AB00C75C000045003C003B003E
:1002E0003A0048000000AE00AD00A8000000010088
:1002F00000000000000001000100000001000000FB
:100300000100C35C1E0F0500047F3F1F64321464AC
:100310003214783C1E1E140A052223252628292A79
:100320002C2D2F3032333536383A3B3D3E40424358
:100330004547494A4C4E5051535557595A5C5E6097
:1003400062646668696B6D6F71737577797B7D7FA9
:1003500081838587898A8C8E90929496989A9C9EA8
:100360009FA1A3A5A7A8AAACAEAFB1B3B4B6B8B9C4
:10037000BBBCBEBFC1C2C3C5C6C7C9CACBCCCDCE2C
:10038000D0D1D2D2D3D4D5D6D7D7D8D9D9DADADB0F
:10039000DBDBDCDCDCDCDCDDDDDDDDDCDCDCDCDC9B
:1003A000DBDBDBDADAD9D9D8D7D7D6D5D4D3D2D2DA
:1003B000D1D0CECDCCCBCAC9C7C6C5C3C2C1BFBEC2
:1003C000BCBBB9B8B6B4B3B1AFAEACAAA8A7A5A32D
:1003D000A19F9E9C9A98969492908E8C8A898785EC
:1003E00083817F7D7B79777573716F6D6B696866CB
:1003F0006462605E5C5A5957555351504E4C4A499D
:1004000047454342403E3D3B3A3836353332302F44
:100410002D2C2A292826252322FFAA7F55400001BA
:1004200001010101010101010202020202020202B4
:100430000203030303030303030404040404040486
:10044000050505050506060606060707070707084A
:10045000080808090909090A0A0A0B0B0B0C0C0CFD
:100460000D0D0D0E0E0E0F0F0F1010111111121297
:1004700013131414151516161717181819191A1A14
:100480001B1B1C1D1D1E1E1F202021222223242475
:10049000252626272829292A2B2C2D2D2E2F3031B1
:1004A0003232333435363738393A3B3C3D3E3F40C3
:1004B0004142434445464748494A4C4D4E4F5051AE
:1004C0005354555658595A5B5D5E5F616264656668
:1004D00068696B6C6D6F7072737577787A7B7D7EEF
:1004E0008082838587888A8C8E8F91939596989A3F
:1004F0009C9EA0A2A3A5A7A9ABADAFB1B3B5B7BA57
:10050000BCBEC0C2C4C6C9CBCDCFD1D4D6D8DBDD2A
:10051000DFE2E4E7E9EBEEF0F3F5F8FAFDFF0C03B8
:100520004400610069007300790000000A034B0079
:1005300054004500430000000403090409023B0085
:10054000020100A0FA0904000001030101000921D1
:10055000110100012240000705810308000A090477
:100560000100010300000009211101000122B60071
:100570000705820320000A12011001000000085044
:100580004BDCD701050102000105010902A101852B
:10059000020901A100050919012908150025019585
:1005A00008750181020501093009311581257F9502
:1005B000027508810609381581257F950175088126
:1005C00006050C0A38021581257F950175088106FC
:1005D000C0C005010980A101850319012AB70015D2
:1005E0000126B700950175108100C0050C0901A115
:1005F00001850419012AA002150126A002950175A2
:10060000108100C005010906A1018505050719E053
:1006100029E71500250195087501810205071900D4
:1006200029EF1500250195F07501810205081901D2
:100630002905950575019102950175039101C00584
:10064000010906A101050719E029E7150025019513
:1006500008750181029501750881010507190029B6
:10066000FF150026FF009506750881000508190191
:100670002905950575019102950175039101C00049
:1006800011241FBECFEFDAE0DEBFCDBF04B603FEFC
:1006900027C08091120390911303A0911403B0918D
:1006A00015038730904BA740B04BD1F41092120342
:1006B00010921303109214031092150314BE84B702
:1006C000877F84BF0FB6F894A895809160008861F9
:1006D00080936000109260000FBEE0E0F8E309959F
:1006E00011E0A0E0B1E0E0E8F9E502C005900D926C
:1006F000A83CB107D9F723E0A8ECB1E001C01D92F6
:10070000A231B207E1F70E94F9250C94BE2C0C949B
:10071000000081E0089581E008950C948B03089512
:100720000C948F031F93CF93DF9300D000D01F92C0
:10073000CDB7DEB749835A836B8330912902898113
:100740009A81311114C0662359F0222349F00E9486
:10075000B420182F682F89819A810E945D2003C0E0
:100760000E948820182F69817A81812F04C00E94FD
:10077000B42069817A810F900F900F900F900F90A5
:10078000DF91CF911F910C947104FC01262F4081C1
:1007900051816281738184810C949203CF93DF93A2
:1007A000EC0160E00E94C503BE01DF91CF910C9483
:1007B00090030E9475060E9465040E943E140C94EA
:1007C000B2060C94AE0608950E94E61B0E94E30355
:1007D0002FEF84E39CE0215080409040E1F700C07F
:1007E00000000C9457240F931F93CF93DF938C0139
:1007F00061E00E94C503EC01B8010E948D038823CB
:1008000009F44BC0B801CE010E943813882309F4C3
:1008100044C0B801CE010E94EC148823F1F1B80164
:10082000CE010E943E158823C1F1B801CE010E947D
:100830006916882391F1B801CE010E947C118823AA
:1008400061F1F8018281882309F1CB358DE5D80764
:10085000C1F050F4C115FCE5DF0781F0CF3DDC4568
:10086000A9F40E94B82219C0CC35EDE5DE0761F08D
:10087000CD35DD4559F40E94472108C00E94E403AC
:100880000CC00E94502102C00E945321C801DF9178
:10089000CF911F910F910C94890380E0DF91CF914C
:1008A0001F910F91089508950C94530481E00895C9
:1008B000CF93C82F0E945604882329F0C1FD02C09F
:1008C000469A01C04698CF9108953E9A469A089557
:1008D000CF93C82F0E9454048C2F0E945804CF91AC
:1008E00008952CE2829FC0011124FC012BE0729F2D
:1008F000E00DF11D1124E60FF11DEE0FFF1FEC506E
:10090000FF4F859194910895CF93DF930E947104D6
:100910000E948605EC01811521E5920708F043C08D
:10092000811540E5940708F08AC0883E910520F5BE
:10093000803E910508F0E6C0883A910570F4853A4A
:10094000910508F074C08130910509F4DBC008F40A
:10095000D7C0049708F0D6C0D3C08F3B910508F0EC
:10096000CFC0C85AD0E0CC0FDD1FC45DDE4F099068
:10097000D881C02DD464C6C0C11580E2D80758F410
:10098000C11521E0D20708F0BDC0CD3ED10508F465
:10099000B7C0D065B7C0C11540E4D40708F4B0C0F3
:1009A000DF70D06AAFC0C11585E5D807A0F4C115C6
:1009B00024E5D20708F08AC0C11543E5D40708F042
:1009C0006FC0C11582E5D80708F054C0DC2FCC27D2
:1009D000C16FD06A97C0C11529E5D207A0F4C1152F
:1009E00048E5D40708F077C0C11586E5D80708F0B8
:1009F00087C08C2F0E941A068F71C82FD0E0DC2F81
:100A0000CC27D0627FC0C1152AE5D20708F468C0A0
:100A1000CE0190568115904208F072C08D2F8F71D3
:100A20000E941A06DD27D0628F71D82B6BC0C55A81
:100A3000D0E0C65ADE4FC881D0E0D06463C074E015
:100A4000969587957A95E1F783709C2F937021E0B6
:100A500030E002C0220F331F9A95E2F73C68382B32
:100A6000CF70C695C69580E2C89FE0011124C22BC5
:100A7000D32B48C0CE018370992721E030E002C01B
:100A8000220F331F8A95E2F78C2F8695869540E2D8
:100A9000849FC0011124E901C82BD92BDC6832C026
:100AA000CE018370992721E030E002C0220F331F6E
:100AB0008A95E2F78C2F8695869540E2849FC00147
:100AC0001124E901C82BD92BDA681CC0DC2FCC27F4
:100AD000C46FD06A17C0DC2FCC27C06FD06A12C099
:100AE0008C2F8F700E941A0694E0D695C7959A9520
:100AF000E1F7CF70D0E0DC2FCC27D069C82B02C043
:100B0000C0E0D0E0CE01DF91CF9108958238910509
:100B100069F1B0F48133910509F46DC048F489326C
:100B2000910509F463C08A32910509F469C00895FA
:100B30008533910509F455C089339105B9F00895BD
:100B4000833E910569F138F4803E9105B1F0823E13
:100B5000910509F10895863E9105A9F1873E910519
:100B6000B9F1843E910509F064C023C02091D102FF
:100B700020FD4FC021FD4DC008958091D10280FD20
:100B800044C08091D20280FF44C08091D10284FD94
:100B900042C083EE4DC08091D10282FF38C0F5CFB4
:100BA0008091D10282FD33C08091D20280FD31C09C
:100BB000ECCF8091D20281FF32C08091D10284FDBE
:100BC0002AC087EE35C08091D10283FF26C0F5CFC1
:100BD0008091D10283FD21C08091D20281FD1FC08E
:100BE000ECCF8091D10285FD1CC01DC08091D10247
:100BF00085FD19C016C08091D10286FD16C017C0B0
:100C00008091D10286FD13C010C089E311C082EE2D
:100C10000FC080EE0DC080E00BC086EE09C084EEF0
:100C200007C089E205C085E303C08AE201C081E311
:100C300090E008959091D10292FF0DC0282F287165
:100C4000283019F4877F846006C0282F247124304F
:100C500011F48B7F886093FF0DC0282F28712831F5
:100C600019F4877E846106C0282F2471243111F481
:100C70008B7E88612091D20220FF0DC0382F387101
:100C8000383019F4877F816006C0382F31713130D8
:100C900011F48E7F886021FF0DC0282F2871283124
:100CA00019F4877E816106C0282F2171213111F44A
:100CB0008E7E886194FD877E08950C940A220E949E
:100CC0000E078FE39CE90197F1F700C000000E9436
:100CD0000E0780E00E94990680FF04C00E945D0616
:100CE0000C94572408950C945F060E9410228111E1
:100CF00002C00E94B8220E941B228093AD020E9473
:100D000023229093D2028093D1020E9473060E9404
:100D10001F22682F70E080E090E00E945F1F6091CA
:100D200080027091810280918202909183020C94E2
:100D3000971FE82FF0E0EE0FFF1FE552FD4F808177
:100D400091810895089580EA8A95F1F7089500C089
:100D500008950C94A30608950C94AB060C94AC066D
:100D60000C94AB060C94B006F894E82FE295EF7063
:100D7000F0E031A1282F2F7081E090E001C0880FB2
:100D80002A95EAF7982F9095932391A392A1892B06
:100D900082A3789408950F931F93CF93DF9382E9F2
:100DA0000E94B40683E90E94B40685E90E94B40655
:100DB00087E30E94B406CDE5D1E008E611E0899111
:100DC0000E94B4060C171D07D1F71092D40210929E
:100DD000D3021092DC021092DB021092D602109223
:100DE000D5021092DE021092DD021092D80210920B
:100DF000D7021092E0021092DF021092DA021092F3
:100E0000D9021092E2021092E10284E00E949C0753
:100E1000DF91CF911F910F910C94D9037F928F9204
:100E20009F92AF92BF92CF92DF92EF92FF920F9379
:100E30001F93CF93DF93C8E6D1E083EDA82E82E025
:100E4000B82E9BEDE92E92E0F92E712C01E010E016
:100E50006E018881F894E82FE295EF70F0E021A10F
:100E60008F70A80102C0440F551F8A95E2F7CA018E
:100E7000922F982B91A392A18095892382A3789495
:100E80000E94A706EDE5F1E020E030E0812C912CF6
:100E90004191A42FA295AF70B0E090968C9190E014
:100EA0004F7002C0959587954A95E2F780FD08C07E
:100EB000C801022E02C0880F991F0A94E2F702C0EF
:100EC00080E090E0882A992A2F5F3F4F2B30310530
:100ED000F9F62196F60180810E94B4060E94A906C7
:100EE000F501808191818816990621F09182808296
:100EF00081E001C080E0782AF2E0AF0EB11CEA1474
:100F0000FB0409F0A5CF272D44E06BED72E083EDE3
:100F100092E00E949D070E94E103872DDF91CF910F
:100F20001F910F91FF90EF90DF90CF90BF90AF9007
:100F30009F908F907F9008950895FF920F931F9335
:100F4000CF93DF93F82E092F162FD72FC42F2223EC
:100F500049F081E08093CC010E940A249093CB0158
:100F60008093CA018091CC018823D9F08091CA0175
:100F70009091CB010E942224069798F0EF2DF02F3C
:100F8000A12FBD2F80E090E04C2F50E084179507F3
:100F900034F4219131912D933D930196F7CF109226
:100FA000CC01DF91CF911F910F91FF900895809117
:100FB000D30180FF0BC06091090185E0689FB001FB
:100FC000112475956795759567952BC081FF09C0AC
:100FD0006091090185E0689FB001112475956795BE
:100FE00020C082FF07C06091090185E0689FB001C1
:100FF000112417C09091D2019923D1F0609108017A
:10100000961788F72091090185E0289F9001112407
:10101000929FA001939F500D112470E0CA010E947D
:10102000812B6038710540F46115710519F406C013
:1010300065E070E0862F08958FE7089581E00895B8
:101040008091D30180FF08C06091050170E0759523
:1010500067957595679521C081FF06C06091050170
:1010600070E07595679519C082FF04C06091050115
:1010700070E010C09091D101992399F06091040122
:101080009617A0F780910501899FC001112470E097
:101090000E94812B6038710540F46115710519F4C7
:1010A00006C061E070E0862F08958FE7089581E023
:1010B00008958D3E21F40E94D707819504C08E3E8D
:1010C00029F40E94D7078093D70108958F3E21F419
:1010D0000E94D707819504C0803F29F40E94D7075A
:1010E0008093D6010895893F19F40E94200805C015
:1010F0008A3F31F40E94200881958093D801089599
:101100008B3F21F40E942008819504C08C3F29F474
:101110000E9420088093D90108959FE0980F98308D
:1011200078F421E030E0A90102C0440F551F9A95E0
:10113000E2F7CA019091D501892B8093D5010895DA
:101140008D3F21F48091D30181600BC08E3F21F44B
:101150008091D301826005C08F3F29F48091D30133
:1011600084608093D30108958D3E39F49091D70126
:1011700097FF35C01092D70159C08E3E29F4909147
:10118000D7011916BCF32BC09091D6018F3E29F4DC
:1011900097FF25C01092D60149C0803F19F4191657
:1011A000CCF31DC09091D801893F29F41916BCF4E5
:1011B0001092D8013BC08A3F19F497FF10C0F8CFB6
:1011C0008B3F39F49091D90197FF09C01092D90152
:1011D0002DC08C3F21F49091D9011916BCF39FE0EA
:1011E000980F983080F421E030E0A90102C0440F4C
:1011F000551F9A95E2F7CA0180959091D5018923F0
:101200008093D50113C08D3F21F48091D3018E7F4F
:101210000BC08E3F21F48091D3018D7F05C08F3F9D
:1012200029F48091D3018B7F8093D3018091D601E3
:10123000811106C08091D701811102C01092D201A4
:101240008091D801811106C08091D901811102C01D
:101250001092D10108950E940A242091D6012111F3
:1012600004C02091D701222321F09093D0018093D4
:10127000CF012091D801211104C02091D90122234E
:1012800021F09093CE018093CD0184ED91E00C94F8
:10129000C516EF92FF920F931F93CF93DF9300D069
:1012A00000D000D0CDB7DEB786E0E4EDF1E0DE019E
:1012B000119601900D928A95E1F7E090D601F09099
:1012C000D7010091D8011091D9011092D601109246
:1012D000D7011092D8011092D901E11003C0FF206C
:1012E00009F45DC08091CF019091D0010E94222429
:1012F000AC019091D201992339F020910A0130E09C
:101300002417350758F04BC020910B018AE0289F25
:10131000900111242417350718F041C09F3F19F0A0
:101320009F5F9093D201EE2061F00E94D7071E14B8
:1013300014F09FEF01C091E0989F902D112490939D
:10134000D601FF2061F00E94D7071F1414F09FEF11
:1013500001C091E0989F902D11249093D701309176
:10136000D6013323E1F02091D7012223C1F045EBD0
:101370003403C0011124992319F09093D60103C0BE
:1013800081E08093D60135EB2303C001112499231A
:1013900019F09093D70103C081E08093D701011128
:1013A00003C0112309F45DC08091CD019091CE015D
:1013B0000E942224AC019091D101992339F020910F
:1013C000060130E02417350758F04BC02091070183
:1013D0008AE0289F900111242417350718F041C096
:1013E0009F3F19F09F5F9093D101002361F00E940D
:1013F0002008101614F09FEF01C091E0989F902DE7
:1014000011249093D801112361F00E942008111635
:1014100014F09FEF01C091E0989F902D11249093BC
:10142000D9013091D8013323E1F02091D901222351
:10143000C1F045EB3403C0011124992319F09093B6
:10144000D80103C081E08093D80135EB2303C001AC
:101450001124992319F09093D90103C081E080935E
:10146000D9018091D60181110BC08091D7018111E2
:1014700007C08091D801811103C08091D9018111E9
:101480000E942B09EB82FC820D831E8386E0FE0105
:101490003196A4EDB1E001900D928A95E1F7269680
:1014A0000FB6F894DEBF0FBECDBFDF91CF911F9175
:1014B0000F91FF90EF900895E4EDF1E086E0DF01F9
:1014C0001D928A95E9F71092D2011092D1011092E3
:1014D000D3010895EF92FF920F931F93CF93DF9361
:1014E0008B01682F11110AC0442329F0E82FF0E086
:1014F000E25EFB4F6491762F862F75C0212F30E07E
:10150000E82FF0E0442321F0E25EFB4FE491F0E0AD
:1015100046E0049FC0011124CFEFD0E0BE010E943D
:101520006D2B4BEA4603C001479F900D1124800F9D
:10153000911D800F911D982F990F890FAE01421BAD
:10154000530B4E9FD0014F9FB00D5E9FB00D1124E5
:101550009B2F189FA0011124452F55278E01041B96
:10156000150B0E9FA0010F9F500D1E9F500D1124B3
:101570007E01E81AF108E29E8001E39E100DF29EC2
:10158000100D1124212F3327C21BD30BCE9F9001A6
:10159000CF9F300DDE9F300D112462307105A9F010
:1015A00048F46115710569F061307105C9F48B2F3C
:1015B000752F0DC06430710581F058F066307105EB
:1015C00079F47E2F8B2F932F0DC0832F7B2F9E2F8F
:1015D00009C08E2F7B2F952F05C08E2F732F02C031
:1015E0007E2F852F692FDF91CF911F910F91FF9053
:1015F000EF90089541E00E946A0A089508950E94BC
:10160000FA0A0895CF93DF93762FE901682F842F8C
:101610000E94FF0A798368838A83DF91CF910895BE
:101620008091E302282F269530E02115310519F429
:101630008170826005C02B32310524F08170846591
:101640008093E302089588E090E00C945F2CCF92A1
:10165000DF92EF92FF926B017C010E94100BB701A9
:10166000A60188E090E0FF90EF90DF90CF900C947F
:101670007D2CE3EEF2E083E0808311828FEF8283A2
:101680008383148260817181828193810C94270B02
:101690008091E30280FF02C08695089580E008955E
:1016A0009091E702933018F49F5F9093E7028823AC
:1016B00051F06091E3027091E4028091E502909113
:1016C000E6020C94270B089581E00C94500B909146
:1016D000E702992319F091509093E702882351F083
:1016E0006091E3027091E4028091E5029091E6023C
:1016F0000C94270B089581E00C94670B70E00C9418
:101700004E14609110018091E30280FF0AC0809125
:101710000F0123E0829FC001112488519D4F0C943A
:101720007E0B8091110190911201891780F7E82FAB
:10173000F0E09F01220F331FE20FF31FE851FD4F2E
:101740001182108212828F5FF0CF9091E30290FF9E
:1017500016C09091110120911201921770F4E92F97
:10176000F0E0DF01AA0FBB1FEA0FFB1FE851FD4F9E
:101770008183608342839F5FF0CF0C94810B089537
:10178000CF93DF9300D01F92CDB7DEB79091E302E5
:1017900090FF0AC09E012F5F3F4F0E94020B4B81BA
:1017A00069818A810E94A50B0F900F900F90DF91A5
:1017B000CF910895CF93DF93EC01EC81F0E0E75EE9
:1017C000FC4F4491E3EEF2E0628181810E94C00B04
:1017D0008C818F5F8C83DF91CF910895CF93DF93BE
:1017E000EC01E3EEF2E0438162818C810E94C00B48
:1017F0008C818F5F8C83DF91CF9108950F931F931E
:10180000CF93DF9300D01F92CDB7DEB78C018091CC
:10181000DA0181110AC09E012F5F3F4F4FEF6FEF3A
:101820000E94020B8A818093DA01F8018481813061
:1018300051F028F0823061F44091DA010AC08091C1
:10184000DA0140E007C06091DA0140E080E003C0C7
:1018500040E080E060E00E94A50BF801848190E008
:10186000019663E070E00E94812B84830F900F90BB
:101870000F90DF91CF911F910F910895AF92BF927A
:10188000CF92DF92EF92FF920F931F93CF93DF934C
:1018900000D01F92CDB7DEB7182FF62E042FE22E00
:1018A0009091E30290FF6DC0E92FE695AE2FB0E076
:1018B000A459BE4F8C9180930C029E7F923061F4AC
:1018C0009E012F5F3F4F812F0E94020B4B81698148
:1018D0008A810E94A50B43C0823019F40091E60270
:1018E0003EC0863019F41091E40239C08930D9F332
:1018F0008931A9F5E9518E2F8170D82EE695F0E057
:10190000E75EFB4FA590B490C12CBB2460911301FE
:10191000C61618F52C2D30E0A29EC001A39E900D96
:10192000B29E900D112470E00E946D2B812FD1107A
:1019300002C0860F01C0861B90911101290F311D35
:10194000A901440F551F240F351F28513D4F402F2B
:101950006F2D0E94020BC394D9CF0E94810B10936C
:10196000E402F092E5020093E602EE2051F060916D
:10197000E3027091E4028091E5029091E6020E94F8
:10198000270B0F900F900F90DF91CF911F910F9128
:10199000FF90EF90DF90CF90BF90AF900895E3EE6F
:1019A000F2E09181282F438162818CE0890F0C94B1
:1019B0003E0C81E00C94CF0CE3EEF2E09181282FF5
:1019C0004381628184EF890F0C943E0C81E00C947A
:1019D000DC0CE3EEF2E0628129E1620F08F46FEFC4
:1019E000282F438181810C943E0C81E00C94E90CFA
:1019F000E3EEF2E0628129E1621B08F460E0282F47
:101A0000438181810C943E0C81E00C94F80CE3EE50
:101A1000F2E043812CE0420F08F44FEF282F62815F
:101A200081810C943E0C81E00C94070DE3EEF2E012
:101A300043812CE0421B08F440E0282F6281818121
:101A40000C943E0C81E00C94160D20E00C943E0C9E
:101A5000FF920F931F93CF93DF93EC01F12C0FEFC5
:101A600010E060911301F616F0F4809111012F2D12
:101A700030E0280F311DC901880F991F280F391F29
:101A800028513D4F70E0C8010E94812B962F8C8118
:101A90004091E6026091E502F99E800D11240E94BA
:101AA000020BF394DECF0E94810B9A818C8190FF10
:101AB00002C08F5F01C081508C83DF91CF911F9155
:101AC0000F91FF900895BF92CF92DF92EF92FF9215
:101AD0000F931F93CF93DF93FC01828180FF02C09D
:101AE0000FEF01C001E010E080911301181708F01A
:101AF00040C080911101C12ED12CE601C80FD11D2B
:101B0000CE01880F991FC80FD91FC851DD4F198208
:101B100018821A8234E0E32EF12CB12C8091DC0182
:101B20008B0D893014F0877005C087FF03C090913A
:101B30001301890F082E000C990BC816D90691F4D1
:101B40008091E6028E9DA0018F9D500D1124559528
:101B50004795559547959E016091E5028091E40275
:101B60000E94020BB00EF1E0EF1AF108B9F61F5F08
:101B7000BBCF0E94810B8091DC01013031F48111D7
:101B800002C080911301815007C090E001966091DE
:101B9000130170E00E94812B8093DC01DF91CF91D3
:101BA0001F910F91FF90EF90DF90CF90BF9008951D
:101BB000CF938091110190911201891770F4E82F51
:101BC000F0E09F01220F331FE20FF31FE851FD4F9A
:101BD0001182108212828F5FF0CFC0E060911301FA
:101BE000C617C0F5EC2FF0E070E0CF010E94812B0A
:101BF00020911101820F2091DB01022E000C330B8A
:101C000090E0E217F307CCF020910E01022E000CB9
:101C1000330B2E173F078CF09C01220F331F820FCE
:101C2000931F9C0128513D4F4091E6026091E502CF
:101C30008091E4020E94020B0BC0FC01EE0FFF1F1B
:101C40008E0F9F1FFC01E851FD4F118210821282FE
:101C5000CF5FC4CF0E94810B20910D018091DB01E9
:101C6000820F8093DB0190910E01920F90930E01F1
:101C700019165CF4082E000C990B4091130150E0EA
:101C800041505109841795071CF0219520930D01AF
:101C9000CF9108958F929F92AF92BF92CF92DF9291
:101CA000EF92FF920F931F93CF93DF938C01FC0170
:101CB0004481C42FD0E09E01DE010E94C52B9B0110
:101CC000AC010E94DB2B6B017C01E0E2F0E0EC1B3D
:101CD000FD0BA5E5B0E09B01AC010E94DB2B4B01A5
:101CE0005C019F01DF010E94BD2B9B01AC010E94A2
:101CF000E62B9B01AC012C0D3D1D4E1D5F1DC5014A
:101D0000B4010E94952BC22FD22F2A3228F4F3E07F
:101D10002F9F900111240DC025E530E02C1B3109C7
:101D2000C901880F991F280F391F37FF02C02F5F85
:101D30003F4F35952795C22FC095F12C85E5E82EAC
:101D4000ED1A80911301F816C8F4F1FC02C08E2D33
:101D500001C08D2F909111012F2D30E0290F311DE1
:101D6000A901440F551F240F351F28513D4F4C2FFB
:101D70006091E5020E94020BF394E3CF0E94810B75
:101D8000F8018481811102C091E003C0803219F40E
:101D90009FEF90930C0190910C01890FF8018483BF
:101DA000DF91CF911F910F91FF90EF90DF90CF9037
:101DB000BF90AF909F908F9008950F931F93CF93F4
:101DC000DF93EC0100E010E080911301282F30E058
:101DD0000217130724F5909111019801290F311D65
:101DE000A901440F551F240F351F28513D4F8695DB
:101DF00090E04C81081719071CF4442331F002C00D
:101E0000411103C04091E60201C040E06091E5024B
:101E10008091E4020E94020B0F5F1F4FD5CF0E94FA
:101E2000810B8C8190E00196817099278C83DF91E2
:101E3000CF911F910F9108957F928F929F92AF92B1
:101E4000BF92CF92DF92EF92FF920F931F93CF93A7
:101E5000DF93FC018280748081E08483E9E1F3E018
:101E60009490E8E9F3E0E491A12CF5E0BF2ECC24B6
:101E7000CA94D12CE9190E2F10E080911301A816F5
:101E800008F0A2C0EA2CF12C22E0281568F0BE9CD4
:101E9000F001BF9CF00D1124E352FE4F8091E4024B
:101EA00080838091E502818371100AC0BE9CF0019D
:101EB000BF9CF00D1124E352FE4F138212826AC0C0
:101EC000BE9CE001BF9CD00D1124C352DE4F8B811C
:101ED0008823F9F081508B832FEF829FC00111245A
:101EE0006C8170E00E946D2BFB01FF27E75EFC4FC9
:101EF0008491E82FE9192FEFE29FC0011124B80166
:101F00000E946D2B8091E602689FB00111247A83B4
:101F100041C00E943A2C2091E6022695215830E0DB
:101F2000A901440F551F322F2227240F351F232FBD
:101F300033278217930774F582E0881588F40E948E
:101F40003A2CB6010E94812B88830E943A2C209162
:101F5000E5022695622F70E00E94812B280F2983CD
:101F6000BE9CF001BF9CF00D1124E352FE4F128283
:101F70008091E602843120F0893C18F088EC01C0A1
:101F800084E1BE9CF001BF9CF00D1124E352FE4F92
:101F900084838383809111019701280F311DC9012A
:101FA000880F991F280F391F28513D4FBE9CF00103
:101FB000BF9CF00D1124E352FE4F4281618180816C
:101FC0000E94020BA39459CFDF91CF911F910F91E3
:101FD000FF90EF90DF90CF90BF90AF909F908F9049
:101FE0007F900C94810BE3EEF2E080818E7F808302
:101FF00060817181828193810E94270B10920D0272
:102000002FEF80E792E0215080409040E1F700C040
:1020100000000C94810B6091E302669570E04BE048
:1020200050E084E191E00E944A2C892B19F481E070
:1020300080930D020E940A24909306028093050269
:1020400008959091E30290FF35C09170811102C014
:10205000926006C08B3210F0946502C0880F982BF6
:102060009093E302662351F06091E3027091E402E1
:102070008091E5029091E6020E94270B6091E302B5
:10208000669570E04BE050E084E191E00E944A2CBC
:10209000892B19F010920D0202C00E940B1081E0F2
:1020A000809308024091E6026091E5028091E4028B
:1020B0000C94250D0895682F9091E302969581E088
:1020C000890F8B3208F081E00C94211081E00C9490
:1020D0005B10682F9091E30296958FEF890F09F4BA
:1020E0008AE20C94211081E00C94691061E00C9458
:1020F0002110E3EEF2E080818160808386950C946C
:1021000076108091E30280FD0C94F30F0C9479100B
:1021100060E00C94211080910B0281112EC00E946E
:102120001022811104C00E94B8220E94390B0E9423
:10213000230B6093E3027093E4028093E502909393
:10214000E6026E7F61F40E94390B0E94230B6093BC
:10215000E3027093E4028093E5029093E6020E940A
:10216000100B10920D028091E30280FF03C0869550
:102170000E94881081E080930B0208950F931F93B3
:10218000CF93DF9380910D02882309F495C080914D
:102190000C02E091E302E695E81BE093070282302F
:1021A00049F4F0E0EB5EFC4FE491CE2FD0E00AED75
:1021B0001BE059C0863049F4F0E0EE5EFC4FE4913C
:1021C000CE2FD0E00EEE1BE04EC0893051F4E695E4
:1021D000F0E0E15FFC4FE491CE2FD0E008E21DE09B
:1021E00042C08F3051F4E695F0E0E45FFC4FE4919B
:1021F000CE2FD0E003E61DE036C0853149F4F0E093
:10220000E75FFC4FE491CE2FD0E008ED1DE02BC03E
:102210008831D9F0833239F4E7E0F3E0C591D49105
:102220000EEF1BE020C08432A9F08532C1F48E2F5E
:1022300063E00E94612BE92FF0E0EC5FFC4FE4913A
:10224000CE2FD0E00CE11FE00EC0C8E2D0E00AE4DF
:102250001EE009C0C4EFD1E00DED1EE004C0C0EDEA
:10226000D7E00EEF1AE080910802882361F0109207
:1022700008020E940A24909306028093050210929D
:102280000A02109209020E940A24E0910502F091CC
:1022900006028E1B9F0B8F3F9F4770F4EC0FFD1FB4
:1022A000F0930602E093050285E092E0F801DF91E9
:1022B000CF911F910F910994DF91CF911F910F91B1
:1022C0000895882311F0FA0101C0FB010994CF930E
:1022D000DF93C82FD62F0E94480B8C1740F00E9426
:1022E000480B8D1720F4DF91CF910C9466108C2F42
:1022F000DF91CF910C9476101F93CF93DF93FB0166
:102300001281112309F4C1C0EC010E94562182728E
:10231000CD3CFCE5DF0709F49BC008F043C0C73C97
:10232000ECE5DE0709F480C0D8F4C43C9CE5D9078D
:1023300009F46DC038F4C33CDC4509F0A7C00E9425
:1023400081106BC0C53C9CE5D90709F468C0C63C48
:10235000DC4509F09BC046EE5CE069ED7CE05BC0CB
:10236000CA3CFCE5DF0709F469C070F4C83CECE541
:10237000DE0709F45EC0C93CDC4509F087C045EFC3
:102380005CE064E07DE047C0CB3C9CE5D90709F404
:102390005AC0CC3CDC4509F079C04BE75BE064E611
:1023A0007BE039C0C23DFCE5DF0709F45EC098F46C
:1023B000CF3C9CE5D90709F452C008F44EC0C03D9B
:1023C000FCE5DF0709F44EC0C13DDC4509F05EC005
:1023D0006EE089E057C0C53D9CE5D90709F44BC0C4
:1023E00058F4C33DFCE5DF0709F442C0C43DDC45B9
:1023F00009F04CC088E143C0C63D9CE5D907F1F126
:10240000CE35DD4509F042C06AE285E23BC043E7D4
:1024100050E166E670E10E94611110E037C046E6C7
:1024200050E163E770E1F7CF49ED5CE066EE7CE0F8
:10243000F2CF44E05DE065EF7CE0EDCF42E25DE0AD
:1024400063E17DE0E8CF43E15DE062E27DE0E3CF80
:1024500044E65BE06BE77BE0DECF81E010C065E047
:1024600082E010C068E086E00DC064E18FE00AC041
:1024700067E185E107C062E289E104C083E20E946E
:102480007610CBCF0E946711C8CF11E0812FDF916A
:10249000CF911F91089586E090E00C94572C682FFF
:1024A00086E090E00C946B2C809100038470816333
:1024B000809300030C944F120E941022811104C0DB
:1024C0000E94B8220E9454120E944B128093000373
:1024D000282F26952695269530E02730310524F0C3
:1024E00087708063809300038091000380FF04C0A5
:1024F00086958695869501C080E00C94BE13209148
:102500000003822F869586958695482F50E04630A9
:10251000510554F48F5F982F990F990F990F822FBF
:102520008770892B809300038091000381608093E2
:1025300000030E944F128091000386958695869530
:102540000C94BE1380910003982F969596959695BE
:10255000A1F0915E990F990F990F8770892B809345
:102560000003887F91E009F490E08091000390FBE4
:1025700080F9809300030E944F128091000386959A
:10258000869586950C94BE138091000380FD13C040
:10259000816080930003813019F489E08093000307
:1025A000809100030E944F128091000386958695CA
:1025B00086950C94BE1308958091000380FF08C097
:1025C0008E7F809300030E944F1280E00C94BE1314
:1025D00008958091000380FD0C94DC120C94C412C9
:1025E00090910003892F8695869586958F5F8F71D0
:1025F0009770873038F4880F880F880F892B809365
:10260000000302C09093000380910003887F91E053
:1026100009F490E08091000390FB80F9809300031F
:102620000E944F12809100038695869586950C94A2
:10263000BE13873008F086E0909100039770282F32
:10264000220F220F220F922B90930003987F21E0FC
:1026500009F420E09091000320FB90F9909300038F
:102660000C94BE130E941913809100030C944F1216
:102670009C01FB018281882349F12E3BFCE53F0749
:10268000C9F040F42C3BECE53E0769F02D3B3C459E
:1026900061F00895203C9CE5390791F070F0213CF1
:1026A0003C4589F0089586E001C080E00E94321325
:1026B00080E008950E94A212FBCF0E947F12F8CF03
:1026C0000E94E912F5CF0E94F012F2CF81E0089546
:1026D000509A58980895589A0895589808951F92B6
:1026E0000F920FB60F9211242F933F934F935F9346
:1026F0006F937F938F939F93AF93BF93EF93FF93CA
:102700000E946D13FF91EF91BF91AF919F918F91B7
:102710007F916F915F914F913F912F910F900FBEDD
:102720000F901F9018951F920F920FB60F921124C1
:102730002F933F934F935F936F937F938F939F93C9
:10274000AF93BF93EF93FF9380918800909189009E
:102750008130914010F00E946B13FF91EF91BF9177
:10276000AF919F918F917F916F915F914F913F9129
:102770002F910F900FBE0F901F901895CF92DF9260
:10278000EF92FF92CF93C82F8730A8F4811114C025
:102790008091880090918900892B51F080916F0081
:1027A0008D7F80936F0080916F008E7F80936F008C
:1027B0000E946D1311C0C6E080918800909189003D
:1027C000892B51F480916F00826080936F0080911B
:1027D0006F00816080936F002C2F30E0AFEFBFEF70
:1027E0000E94C52B26E030E040E050E00E94952B8F
:1027F000B42FA32F922F8827492F5A2F6B2F77277B
:10280000CA014C3724E1520728F469E070E00E94C5
:102810006D2B29C0DB01CA018A50974DAF4FBF4FC6
:102820006627782F892F9A2F25EF38E241E050E074
:102830000E94952B69017A01CA01B9010E94512BAE
:102840009B01AC01C701B6010E94512BBB27A92FE8
:10285000982F872F009721E0A207B10511F0BC0146
:1028600002C06FEF7FEF7093890060938800CF9173
:10287000FF90EF90DF90CF90089508950E94681325
:1028800082E08093800089E1809381008FEF9FEF49
:1028900090938700809386000C945C123F9A28B135
:1028A0002F7738B130684FB7F894FC01CB01880F0F
:1028B000991F680F791F6E0F7F1FE617F70789F0C2
:1028C000819198E038B9000000C087FF28B9880FCF
:1028D000000000C000C000C028B900C09A9591F760
:1028E000ECCF4FBF8FE594E00197F1F700C00000F7
:1028F00008950F931F93CF93DF93C42FD22FFC0122
:1029000082818823C9F0409310020E940A24909388
:102910000F0280930E0280E28C0F883008F057C0BF
:10292000C77081E001C0880FCA95EAF7DF91CF91A7
:102930001F910F910C94681980911002481330C0B8
:1029400080910E0290910F020E942224883C9105F2
:1029500038F510E21D0FCD17B9F080E28C0F8830EA
:1029600040F4C77081E001C0880FCA95EAF70E9461
:102970006F19183028F581E09D2F977001C0880FDE
:102980009A95EAF70E946819802F0E945F19183003
:10299000F0F4D77081E001C0880FDA95EAF70AC039
:1029A00080E28C0F883098F4C77081E001C0880FF6
:1029B000CA95EAF7DF91CF911F910F910C946F198F
:1029C000802FDF91CF911F910F910C945F19DF91B0
:1029D000CF911F910F9108950F939C01CB01243F3C
:1029E0004CE5340731F188F4293DFCE53F07D9F087
:1029F0002A3D4CE5340779F1283D3C45A9F506E22E
:102A000021EE41EE68ED7CE52BC0263FFCE53F075B
:102A1000E1F0A8F0273F3C4539F507E225EE46EE08
:102A200067EF7CE51DC007E225EE45EE69ED7CE52C
:102A300017C006E221EE40EE64EF7CE511C007E22C
:102A400025EE44EE65EF7CE50BC006E221EE42EE9A
:102A500066EF7CE505C008E221E045EE6AED7CE525
:102A60000E94791480E008C0FC018281882319F05B
:102A70001092100201C081E00F910895CF93DF936F
:102A8000EC01FB018281882309F41FC1C230FCE5FF
:102A9000DF0708F41BC1C6319CE5D90738F09E0159
:102AA0002B5F3C452930310508F010C10E942322DC
:102AB0009093D2028093D102C031ECE5DE0709F495
:102AC000C3C008F041C0C8308CE5D80709F49AC0EB
:102AD000F0F4C430ECE5DE0709F487C068F4C230D6
:102AE0008CE5D80709F477C0C330DC4509F0E3C0B2
:102AF0008091D102826076C0C630ECE5DE0709F431
:102B00006EC008F07BC08091D10288606BC0CC3071
:102B10008CE5D80709F485C068F4CA30ECE5DE0717
:102B200009F474C008F079C00E94E61B8091D102BC
:102B3000806858C0CE308CE5D80709F476C008F01C
:102B40007FC08091D1028BC0CC3FECE5DE0709F459
:102B50004FC018F5C3318CE5D80709F47DC078F46F
:102B6000C131ECE5DE0709F473C0C231DC4509F080
:102B7000A2C00E94E61B8091D1028F7733C0C5317D
:102B80008CE5D80709F472C008F486C0CB3FDC4559
:102B900009F091C08091D2023EC0C115FDE5DF076A
:102BA00009F45FC058F4CE3F9CE5D90709F444C04E
:102BB00008F43FC08091D20282602DC0C230FDE592
:102BC000DF0709F475C008F45DC0C330DD4509F0C6
:102BD00072C080E06EC08091D102816003C080919C
:102BE000D10280618093D10266C08091D10211C070
:102BF0008091D20282608093D2025DC08091D10226
:102C00008062F0CF8091D1028064ECCF8091D102BC
:102C100088608460E7CF8160EECF8091D1028E7FA3
:102C2000E1CF8091D1028D7FDDCF8091D102877F6E
:102C3000D9CF8091D20218C08091D2028D7FDBCF94
:102C40008091D1028F7ECECF8091D1028F7DCACF6D
:102C50008091D1028F7BC6CF8091D102877F8B7FFD
:102C6000C1CF8091D2028D7F8E7FC5CF8091D1025E
:102C700082FB222720F991E0922790FB82F990FBBA
:102C800083F9B0CF8091D202982F909591708E7F6A
:102C9000892B90FB81F9AFCF0E94E61B8091D10276
:102CA00087FB222720F991E0922790FB87F99ACFA2
:102CB00081E00E94BA228091D1029091D2020E94BA
:102CC00034220E94E61B80E001C081E0DF91CF91B9
:102CD0000895CF93DF9386319C4541F5EB010E9427
:102CE0005621982F8A8120911F013091200188233D
:102CF00079F09A7A81E009F480E0809311029111D1
:102D000002C069E201C065E3C9010E9455230AC0FF
:102D100080911102811102C069E201C065E3C9011D
:102D20000E9460230E949B2180E001C081E0DF912E
:102D3000CF91089590931702809316020895E09121
:102D40001602F0911702309721F00190F081E02DEA
:102D5000099480E00895E0911602F09117023097EF
:102D600099F020912B01222359F02091D10227FFC5
:102D700007C0DC012C9111962C93119725E02C9320
:102D80000280F381E02D09940895E0911602F091FC
:102D90001702309739F022E0DC012C930480F58192
:102DA000E02D0994089520911402309115022817FE
:102DB000390771F09093150280931402E091160286
:102DC000F0911702309721F00680F781E02D0994E9
:102DD000089520911202309113022817390771F0DB
:102DE0009093130280931202E0911602F091170261
:102DF000309721F00084F185E02D099408950E9418
:102E000016246093250270932602809327029093E4
:102E100028026093210270932202809323029093F0
:102E20002402089585B7806885BF85B7806885BF0F
:102E3000089581E008950C94191708950C941D17B6
:102E40000C941D170C9420170C941D170C94241728
:102E50000C941D170E94121788E092E20E947B24B6
:102E60000E9428170C9426170E941E170C941D17F9
:102E70000E9401240E94CB060E945C120E948B10CB
:102E80000C9422176F927F928F929F92AF92BF9273
:102E9000CF92DF92EF92FF920F931F93CF93DF9326
:102EA000CDB7DEB72A970FB6F894DEBF0FBECDBF01
:102EB0000E940E0781110E94FF1639E1832E32E035
:102EC000932E00E010E0C02E802F0E9499065C0136
:102ED000F401619071904F016826792661147104A4
:102EE000B1F40F5F1F4F0430110569F78FEF89832D
:102EF0008A831B820E940A248160782F9D838C83A1
:102F000049815A816B818D810E94FC173AC0809162
:102F1000AD0281FD0E94A206D12CEE24E394F12C97
:102F2000C3018E219F21892B29F10E941B17882321
:102F3000A9F0DE82CF82AE20BF2081E0AB2809F469
:102F400080E088870E940A248160782F9A87898789
:102F50004E815F8168858A850E94FC17000F111FD2
:102F6000F801E75EFD4F80819181E826F926F18224
:102F7000E08207C0D394EE0CFF1CFBE0DF12D0CF41
:102F8000B0CF0E94BE100E943D140E9449090E94C9
:102F90009F16909118028917D1F00E949F16809376
:102FA00018022A960FB6F894DEBF0FBECDBFDF9190
:102FB000CF911F910F91FF90EF90DF90CF90BF9036
:102FC000AF909F908F907F906F900C9468042A969A
:102FD0000FB6F894DEBF0FBECDBFDF91CF911F912A
:102FE0000F91FF90EF90DF90CF90BF90AF909F90A8
:102FF0008F907F906F900895DF92EF92FF920F93E2
:103000001F93CF93DF93CDB7DEB72B970FB6F8940E
:10301000DEBF0FBECDBFF42E052F162FE72ED82E04
:1030200061110E947621FE01319686E0DF011D923A
:103030008A95E9F77E2D4F2D502F612F8D2D9E8182
:103040000E949F1E2B960FB6F894DEBF0FBECDBF19
:10305000DF91CF911F910F91FF90EF90DF90089536
:10306000FC01808191810E94F6200895CF938823EE
:1030700009F4A4C0C82F8238C1F40E949F1681FDB4
:103080009DC069E380911F01909120010E9455230A
:103090000E949B212FEF81EE94E0215080409040D0
:1030A000E1F700C0000069E319C0833801F50E9410
:1030B0009F1680FD83C063E580911F0190912001E0
:1030C0000E9455230E949B212FEF81EE94E0215016
:1030D00080409040E1F700C0000063E580911F014F
:1030E000909120010E946023CF910C949B21843801
:1030F000C1F40E949F1682FD61C067E480911F01A8
:10310000909120010E9455230E949B212FEF81EE78
:1031100094E0215080409040E1F700C0000067E457
:10312000DDCF8CEF8C0F813AD0F46C2F80911F0192
:10313000909120010E94D522882349F06C2F809124
:103140001F01909120010E9460230E949B216C2FFF
:1031500080911F01909120010E945523C5CF80E2EC
:103160008C0F883048F4C77081E001C0880FCA9581
:10317000EAF70E945921B8CFEBE5EC0FE33040F4B9
:10318000F0E0EB53FE4F808190E0CF910C94D3168A
:10319000E8E5EC0FE73150F4F0E0EE0FFF1FE956E1
:1031A000FE4F80819181CF910C94E916CD3E30F095
:1031B0008C2F0E945908CF910C942B09CF91089520
:1031C000882309F464C0823879F40E949F1681FF35
:1031D0005EC069E380911F01909120010E945523F8
:1031E0000E949B2169E310C08338B1F40E949F16AE
:1031F00080FF4DC063E580911F01909120010E94E6
:1032000055230E949B2163E580911F01909120012D
:103210000E9460230C949B21843879F40E949F16AD
:1032200082FF35C067E480911F01909120010E94C8
:1032300055230E949B2167E4E7CF9CEF980F913ABA
:1032400010F4682FE1CF90E2980F983050F4877017
:1032500091E001C0990F8A95EAF7892F0E945F21BA
:10326000D9CF9BE5980F933020F480E090E00C9448
:10327000D31698E5980F973120F480E090E00C94F5
:10328000E9168D3E20F00E94B4080C942B09089595
:103290001F93CF93DF93182FEB010E9436182097CE
:1032A00041F08FE99FE00197F1F700C000002197FE
:1032B000F6CF812FDF91CF911F910C94E0188933C5
:1032C00019F060E070E002C060E570E00C9448190D
:1032D000882321F00E9459210C949B210895882372
:1032E00021F00E945F210C949B210895CF92DF92E0
:1032F000EF92FF920F931F93CF93DF937C01D62F12
:10330000C72FFC011281058102950F700E942E21AA
:10331000882399F0112389F08C2F807F803421F04D
:1033200080E28D0F883048F082E00E94EB210E94FD
:103330002E2191E0D82ED92601C0D12CCC2EC294BA
:103340008FE0C8228C2D90E08C30910508F0B0C140
:10335000FC01EA5AFF4F0C94B72B8C2F807FCF7063
:10336000882311F0C295C07F112399F0CC2309F472
:103370008BC180E28D0F883010F0D11104C08C2FEA
:103380000E94592103C08C2F0E9469210E949B2119
:103390007BC18D2F0E94E018CC2309F489C180E203
:1033A0008D0F883010F0D11104C08C2F0E945F2146
:1033B00003C08C2F0E946F210E949B2179C18C2F0A
:1033C000807FCF70803211F0C295C07FDD2319F06D
:1033D000D130C9F025C0112371F0002341F0013034
:1033E00031F40E947C218C2B0E94842161C10E94B7
:1033F0007C218C2B0EC0002319F0013009F458C138
:103400000E9491211FC0112339F0063008F050C1ED
:103410008C2F0E9468194CC1053008F049C112C0B8
:10342000112319F00023A1F32FC1002359F0D93340
:1034300009F03BC1FFEF07EE13E0F15000401040F0
:10344000E1F731C18C2F0E946F1932C18C2F869504
:103450008695837019F0813061F02AC1112321F023
:103460008D2F9C2F937002C080E090E00E94D316B5
:1034700027C1112321F08D2F9C2F937002C080E073
:1034800090E00E94E9161CC18D2F112319F00E94B3
:10349000590802C00E94B4080E942B0911C18C2F48
:1034A000837009F047C0111107C12D2F2295269571
:1034B0002770220F220F6D2F6F70862F90E0A0E0F3
:1034C000B0E0022E04C0880F991FAA1FBB1F0A94E8
:1034D000D2F7D4FF10C04FE050E060E070E004C0CD
:1034E000440F551F661F771F2A95D2F740955095B8
:1034F0006095709503C040E050E0BA01C695C6954E
:10350000C3708A019B01082B192B2A2B3B2BC90165
:10351000B801C23049F058F4C13019F00E94731F4D
:10352000CBC00E94611FC8C00E94851FC5C00E94F9
:103530005F1FC2C0112319F08C2F817001C08695C6
:10354000882309F4B9C02D2F229526952770220FC4
:10355000220F6D2F6F70862F90E0A0E0B0E0022E5A
:1035600004C0880F991FAA1FBB1F0A94D2F7D4FF6B
:1035700010C04FE050E060E070E004C0440F551F01
:10358000661F771F2A95D2F74095509560957095E4
:1035900003C040E050E0BA01C695C695C3708A01E9
:1035A0009B01082B192B2A2B3B2BC901B801C230D8
:1035B00049F058F4C13019F00E9438207DC00E94B3
:1035C00026207AC00E944A2077C00E94991F74C0AA
:1035D000CF70112339F08C2F0E94BF1F8D2F0E94B6
:1035E00068196AC08D2F0E946F198C2F0E94E01FEE
:1035F00063C0D23F01F128F4D03F41F0D13FA1F0A8
:103600003FC0D33FF9F0D43F39F13AC0112341F024
:10361000053008F04DC08C2F8F710E94052048C0E6
:10362000063008F045C0F7CF112339F08C2F8F7189
:103630000E94BF1F3DC01123C9F38C2F8F710E94C0
:10364000E01F36C0112329F08C2F8F710E94AA1F12
:103650002FC00E94A51F2CC0112349F0CF718C2FC1
:103660000E94BF1F63E08C2F0E94D02121C081E007
:103670000E94EB210230E0F082E00E94EB2118C0B2
:10368000112331F0002391F28D2F0E94361810C0C3
:10369000002399F2D93349F41FEF27EE33E011509C
:1036A00020403040E1F700C000008D2F0E94E0185C
:1036B00088EF8C0D843020F40E949F160E946804CD
:1036C000DD20C9F00E942A2180FD15C0F701128279
:1036D0000E9424210E94BF1FC7010E949C1B0E94C0
:1036E0002421DF91CF911F910F91FF90EF90DF90F8
:1036F000CF900C94E01FDF91CF911F910F91FF901D
:10370000EF90DF90CF9008950F931F93CF93DF93A7
:10371000EC01688179818A810E9401218C010E94DB
:103720005C200E944D1FB801CE010E947619DF91E6
:10373000CF911F910F910895CF93DF93EC01988162
:1037400089812B813C81232B31F08F3F31F481E043
:103750009F3F19F403C081E001C080E080FD19C0E3
:10376000CE010E94F30381110CC00E942E218823F8
:1037700081F08A81882369F082E0DF91CF910C94F7
:10378000EB21CE010E94841BCE01DF91CF910C94DE
:10379000CE03DF91CF91089580E090E00E94D31690
:1037A00080E090E00E94E9160E9476210E94792133
:1037B0000E949B210E945C0A0C942B0980911F019E
:1037C000909120010E946B230C94CC1B0E946621D7
:1037D0000C94DE1BE92FE295EF704E2F50E0FA01BA
:1037E0003297EE30F105B0F4EE59FF4F0C94B72B41
:1037F000803F91F018F4883E68F40EC0843F51F485
:103800000BC0883E48F0813F29F406C093FB88270F
:1038100080F9089580E0089581E008950E94F620DF
:103820000E94EA1B0895CF93DF9300D000D01F922F
:10383000CDB7DEB70F900F900F900F900F90DF91E4
:10384000CF910895CF93DF9300D000D000D0CDB7B3
:10385000DEB726960FB6F894DEBF0FBECDBFDF9160
:10386000CF9108951F93CF93DF93C0912A0216E062
:1038700080912B02C81799F0D0E01C9FF0011D9F8A
:10388000F00D1124E45DFD4F40815181628173810F
:10389000848195810E94221C2196C770E9CFDF9117
:1038A000CF911F91089540915C0250915D0260910B
:1038B0005E0270915F0280916002909161020C94AF
:1038C000221C0F931F93CF93DF9380916102829507
:1038D0008F7009F05DC080915E02882309F458C0A2
:1038E00080912A0210912B0260915C0270915D021E
:1038F000C0915F02D091600291E06F3F09F090E0CB
:10390000292F06E0811709F443C0209721F07F3F5B
:1039100021F030E003C031E001C0322F90E030FDF3
:1039200034C0089FF001099FF00D1124DF01A45D50
:10393000BD4F11963C911197371327C03C91361318
:1039400024C012963C91129731111FC013964D91CD
:103950005C9114974C1B5D0B483C5105B0F4809171
:1039600061028F70806180936102EF5CFD4F808106
:103970008F70806180838CE592E00E949C1BDF91B8
:10398000CF911F910F910C94321C01968770BACF82
:10399000DF91CF911F910F9108959F92AF92BF92A7
:1039A000CF92DF92EF92FF920F931F93CF93DF930B
:1039B000CDB7DEB761970FB6F894DEBF0FBECDBFAF
:1039C0008C0185E0F801DE011D9601900D928A952B
:1039D000E1F7F80140815181E28090915C026091B1
:1039E0005D0220915F02309160022115310531F0B6
:1039F0006F3F31F481E09F3F19F403C081E001C0C3
:103A000080E0F82FF1709F2E80FD46C1F801A38061
:103A1000B4808CE5C82E82E0D82EF0905E02F501CD
:103A2000E21BF30BFF2009F4DFC080916102E83C48
:103A3000F10508F09BC0282F207F09F052C05613D3
:103A400013C0491311C0FE2CE1100EC08F708061AD
:103A5000809361020E94531CC6010E949C1B8091AE
:103A60006102F801858358C1AB2831F05F3F31F422
:103A700081E04F3F19F403C081E001C080E080FD88
:103A800003C081E08E2502C080E090E0F82FF17045
:103A9000FF2E80FF1CC080912A0220912B0236E06D
:103AA000821709F417C190E0389FF001399FF00D9B
:103AB0001124E45DFD4F6181561306C060814613F9
:103AC00003C06281E61203C001968770E9CFFE2C25
:103AD000EE2009F421C1809161028160809361022E
:103AE0005AC0561306C0491304C0E11002C0F801C1
:103AF0009FC04D875E878D859E850E940E1C882302
:103B000079F1EE2069F120916102822F82958F7008
:103B100090E0029774F080915C0290915D0298872A
:103B20008F831986BB86AA862C87CE0107960E94B2
:103B30009C1B86E0F801ACE5B2E001900D928A95FD
:103B4000E1F70E94611C0E94531C0DC0561729F119
:103B50004D875E878D859E850E940E1C81112CC02D
:103B6000C8010E949C1BFF24F394D6C0282F207FFD
:103B700069F77A2DB98AA88A6E2D89890E94131C4B
:103B80008CE592E00E949C1B86E0F60111928A95DA
:103B9000E9F70E94531CF12CBFC04913D9CFE110A3
:103BA000D7CFF8018583C8010E949C1B86E0F601EF
:103BB00011928A95E9F7B0C0EE2091F2209161024E
:103BC000822F82958F7090E002970CF4B2CF809193
:103BD0005C0290915D029A8389831B82BD82AC82D4
:103BE0002E83CE010196A3CFE83CF10508F047C033
:103BF000FE2CEE2009F4B4CF561330C049132EC06A
:103C00002091610220FD21C0822F82958F70482F64
:103C100050E041155105C9F0F80125834F30510599
:103C200041F08F5F982F9295907F822F8F70892B14
:103C30008583C8010E949C1B86E0F801ACE5B2E0D8
:103C400001900D928A95E1F742C086E0F801ACE55B
:103C5000B2E001900D928A95E1F75EC04D875E87D4
:103C60008D859E850E940E1C811163CF809161021B
:103C7000816080936102C8010E949C1B4DC07A2D17
:103C8000B98AA88A6E2D89890E94131C86E0F601E4
:103C900011928A95E9F71BC0EE2009F461CF4D8798
:103CA0005E878D859E850E940E1CF82E882309F460
:103CB00057CF86E0F801ACE5B2E001900D928A950D
:103CC000E1F78CE592E00E9430180E94611C0E948E
:103CD000531C22C04D875E878D859E850E94F620ED
:103CE000292F22952F70223028F49F7039F08111EE
:103CF00005C00BC0243028F49F7049F4805E8830E2
:103D000020F0C8010E949C1B9F2CF92C05C0F801D3
:103D10009581907F99F7F9CF8F2D61960FB6F89422
:103D2000DEBF0FBECDBFDF91CF911F910F91FF90EE
:103D3000EF90DF90CF90BF90AF909F9008951F932A
:103D4000CF93DF93CDB7DEB72C970FB6F894DEBFD5
:103D50000FBECDBF4F83588769877A878B879C8733
:103D6000CE0107960E94CD1C8823D1F09F818885C3
:103D70002A853B85232B31F08F3F31F481E09F3F33
:103D800019F403C081E001C080E080FD47C04F818D
:103D9000588569857A858B859C850E94221C3EC04A
:103DA00086E0FE013796DE01119601900D928A950C
:103DB000E1F7FF81E8856A857B856115710531F042
:103DC000EF3F31F481E0FF3F19F403C081E001C00F
:103DD00080E080FD23C020912B0230E0C9010196D4
:103DE0008770992740912A0250E084179507F1F1D6
:103DF000F983EA837D836C8396E0929FD001939F41
:103E0000B00D1124A45DBD4FFE01319601900D92BD
:103E10009A95E1F780932B020E94321C16E0809164
:103E20002A0290912B02891771F1189FC001112469
:103E3000845D9D4F0E94CD1C882329F1E0912A02C8
:103E40001E9FF0011124E45DFD4F4081518162818C
:103E50007381848195810E94221C80912A0290E0C6
:103E600001968770992780932A02D9CF0E94E61B7A
:103E700010922B0210922A02ECE5F2E086E0DF01BC
:103E80001D928A95E9F72C960FB6F894DEBF0FBE07
:103E9000CDBFDF91CF911F910895089508950C949F
:103EA0004E1F0C944F1F0E94511F60938402709309
:103EB000850280938602909387020C94CC1B0C940D
:103EC000531F0F931F93009184021091850220913C
:103ED000860230918702602B712B822B932B1F91CE
:103EE0000F910C94531F0F931F9300918402109114
:103EF00085022091860230918702602371238223FC
:103F000093231F910F910C94531F0F931F930091B4
:103F100084021091850220918602309187026027E9
:103F20007127822793271F910F910C94531F0C9494
:103F30004E1F0E94971F60938002709381028093AE
:103F40008202909383020C94CC1B60E070E0CB0162
:103F50000C94991F0F931F9341E050E060E070E0D4
:103F60008A019B0104C0000F111F221F331F8A9575
:103F7000D2F7C901B8011F910F910C94991F0F93AB
:103F80001F9341E050E060E070E004C0440F551F13
:103F9000661F771F8A95D2F78091800290918102E7
:103FA000A0918202B09183028A019B01082B192BF8
:103FB0002A2B3B2BC901B8011F910F910C94991F1B
:103FC0000F931F9341E050E060E070E004C0440FA5
:103FD000551F661F771F8A95D2F7409550956095BB
:103FE00070958091800290918102A0918202B0919F
:103FF00083028A019B01082319232A233B23C90139
:10400000B8011F910F910C94991F0F931F9341E0DA
:1040100050E060E070E004C0440F551F661F771F3A
:104020008A95D2F78091800290918102A0918202BC
:10403000B09183028A019B01082719272A273B2771
:10404000C901B8011F910F910C94991F0F931F93F1
:1040500000918002109181022091820230918302AE
:10406000602B712B822B932B1F910F910C94991F16
:104070000F931F9300918002109181022091820280
:104080003091830260237123822393231F910F9128
:104090000C94991F0F931F9300918002109181023D
:1040A0002091820230918302602771278227932713
:1040B0001F910F910C94991F08952BE0929F800DF2
:1040C0001124E82FE695E695E695877051E001C04A
:1040D000550F8A95EAF785E0E89FF0011124EE5923
:1040E000FD4F20E030E070E04081CB01022E02C0A5
:1040F000969587950A94E2F78170819584278523A8
:10410000842781932F5F3F4F2530310569F708954C
:104110002BE0929F800D1124682F66956695669519
:10412000982F977085E0689FB001112440E050E01F
:1041300080E0FB01E40FF51FEE59FD4F208130E0D8
:10414000092E02C0369527950A94E2F7217033278D
:10415000042E01C0220F0A94EAF7822B4F5F5F4FB3
:104160004530510531F70895BF92CF92DF92EF921B
:10417000FF920F931F93CF93DF938C01C090800227
:10418000D0908102E0908202F090830280918402BC
:1041900090918502A0918602B0918702C82AD92AFF
:1041A000EA2AFB2ACFE1D0E0D701C6010C2E04C0D9
:1041B000B695A795979587950A94D2F780FD04C088
:1041C000219790F7B12C07C0BC2EB8018C2F0E940C
:1041D00084040197A9F38B2DDF91CF911F910F914B
:1041E000FF90EF90DF90CF90BF900895CF93DF9333
:1041F000EC010E94B420BE010E948404DF91CF91A3
:1042000008951F93CF93DF93EB0190912902992397
:1042100021F0CB010E94F62013C0882349F0CB0186
:104220000E94B420182F682FCE010E945D2004C088
:10423000CB010E948820182FBE01812F0E94840488
:10424000DF91CF911F910895809188028595859582
:1042500085950895809188028770089590918802CD
:10426000977081E009F480E008959091D20292FB6A
:10427000222720F9281751F080FB92F99093D2025F
:104280008091D1029091D2020C94342208958091B1
:10429000D20282FB882780F991E089270C9435218E
:1042A00081E00C94352180E00C9435218091AC02A2
:1042B00008959091AC02892B8093AC02089580956B
:1042C0009091AC0289238093AC0208951092AC02C5
:1042D00008959091AB02892B8093AB02089580954D
:1042E0009091AB0289238093AB0208951092AB02A8
:1042F00008951092AA020895809189020895089560
:104300000C947F210C9480219091D20292FD08C0E0
:1043100090918902981721F0809389020C94822150
:10432000089580918902882329F01092890280E003
:104330000C9482210895E0911F01F0912001809159
:10434000AC028083E0911F01F09120019081809167
:10435000AB02892B8083E0911F01F09120019081B5
:104360008091AA02892B808380918902882381F021
:10437000E0911F01F09120019081892B8083809131
:104380001F01909120010E94BF2281110E94912162
:1043900080911F01909120010C94AB160C947F2109
:1043A0009091D20292FD10C098E0899F9001112453
:1043B000262B209388020E94BF1F8091880285953A
:1043C000859585950C94CE210C94BF1F1092880280
:1043D00080E00C94CE2120918802809582238093E6
:1043E0008802982F977041F430E0482F082E000C77
:1043F000550B2417350721F49091D20292FF07C084
:104400008595859585950E94E01F0C94E621089579
:1044100080E008956FEF7FEF80E090E00C94892CAE
:1044200080E090E00E94652C21E08A3E9E4F09F0DA
:1044300020E0822F089582E090E00C94572C83E0D6
:1044400090E00C94572CCF9384E090E00E94572C7E
:10445000C82F82E290E00E94572C2C2F30E0A90157
:10446000582BCA01CF910895CF93C92F682F84E0AC
:1044700090E00E946B2C6C2F82E290E0CF910C9424
:104480006B2CAB01BC018FE090E00C947D2CAB0158
:10449000BC0183E190E00C947D2C60E070E0CB01E6
:1044A0000C94472260E070E0CB010E9441220C9402
:1044B0004D226AEE7EEF80E090E00E94892C60E061
:1044C00082E090E00E946B2C60E083E090E00E942C
:1044D0006B2C109284021092850210928602109228
:1044E000870260E084E090E00E946B2C60E082E252
:1044F00090E00E946B2C60E085E090E00E946B2CC5
:1045000060E086E090E00E946B2C6FEF87E090E027
:104510000E946B2C40E050E0BA0188E090E00E94DD
:104520007D2C60E08DE090E00E946B2C40E050E03C
:10453000BA0188E190E00E947D2C60E087E190E084
:104540000E946B2C40E050E0BA018CE190E00E94A8
:104550007D2C60E070E080E290E00E94892C40E0D9
:1045600050E0BA0188E190E00E947D2C0C94522228
:104570000C945922682F8EE090E00C946B2CFC0177
:10458000329680912B01882331F08091D10287FFF0
:1045900002C09EE101C096E080E0915028F0219198
:1045A0002223D9F38F5FF9CF0895662351F120912B
:1045B0002B012223E9F02091D10227FF19C0462FB9
:1045C0004695469546954E31E0F4677021E030E01F
:1045D00002C0220F331F6A95E2F7FC01E40FF11DC0
:1045E000828190E02823392381E0232B69F409C0DC
:1045F000FC01329608962191621729F0E817F90715
:10460000D1F780E0089581E008959C01FC01329685
:104610009FEF80E04191461789F09F3F19F44111C7
:1046200001C0982F8F5F8630A9F79F3F39F0F901BD
:10463000E90FF11D97FDFA956283089508959C0195
:104640002A5F3F4FFC014281461301C0128201964E
:1046500082179307B9F70895262F26952695269554
:104660002E3168F4FC01E20FF11D677021E030E0AB
:1046700001C0220F6A95EAF78281282B22830895D0
:10468000262F2695269526952E3170F4FC01E20FF3
:10469000F11D677021E030E001C0220F6A95EAF752
:1046A0002095828128232283089520912B012223A3
:1046B00029F02091D10227FD0C942C230C94052382
:1046C00020912B01222329F02091D10227FD0C9467
:1046D00040230C941F2320912B01FC0132962223AE
:1046E00031F08091D10287FF02C08EE101C086E0E7
:1046F000DF011D928A95E9F7089508950C947D23B2
:104700000C947D23CF930E9480230E940E070E9469
:104710007E23C0E08C2F0E949906892B29F4CF5F5D
:10472000C430C1F780E001C081E0CF9108950C94BE
:104730007D230C94972380910903843061F10E94BA
:10474000992380E00E94BE1380E00E9468041092CA
:10475000AE0220E488E190E00FB6F894A89580932B
:1047600060000FBE2093600083B7817F846083BFA9
:1047700083B7816083BF7894889583B78E7F83BF2A
:104780000FB6F894A89580916000886180936000CE
:10479000109260000FBE08950C947D230E94E61BCA
:1047A0000E945C120E949F160E9468040C94CC2305
:1047B0001F920F920FB60F9211248F939F93AF9376
:1047C000BF938091AE02811113C08091010390913B
:1047D0000203A0910303B09104034196A11DB11DF2
:1047E0008093010390930203A0930303B093040307
:1047F000BF91AF919F918F910F900FBE0F901F901F
:10480000189582E084BD93E095BD9AEF97BD8093A3
:104810006E0008952FB7F8948091010390910203E0
:10482000A0910303B09104032FBF08952FB7F8940C
:10483000609101037091020380910303909104033E
:104840002FBF08959C014FB7F89480910103909178
:104850000203A0910303B09104034FBF821B930B8B
:10486000089578941F920F920FB60F9211248F9390
:104870009F93AF93BF938091010390910203A09106
:104880000303B09104030196A11DB11D80930103A0
:1048900090930203A0930303B0930403BF91AF91DD
:1048A0009F918F910F900FBE0F901F90189581E0F0
:1048B0008093E00080E28093D8001092C9008FE1DD
:1048C0009EE40197F1F700C0000087E090EBDC0167
:1048D0008093120390931303A0931403B0931503D2
:1048E0009CE088E10FB6F894A895809360000FBE15
:1048F00090936000FFCF9093C9018093C801089501
:104900008091CF020895CF93DF9300D01F92CDB74F
:10491000DEB790910903943019F589837B836A830C
:1049200082E08093E9008FEF9091E800815095FD3F
:1049300006C095ED9A95F1F700008111F5CF8091B1
:10494000E80085FF0DC040E050E063E070E0CE017C
:1049500001960E94B3268091E8008E778093E8004C
:104960000F900F900F90DF91CF910895BC0184E0DC
:104970000C948324BC0183E00C94832422E02093D4
:10498000E9002FEF3091E800215035FD06C035EDEC
:104990003A95F1F700002111F5CF2091E80025FFAD
:1049A0000BC040E050E066E070E00E94B3268091CA
:1049B000E8008E778093E8000895CF93DF932091ED
:1049C0002B01222339F02091D10227FF03C060E29E
:1049D00022E002C068E021E02093E9002FEF30914F
:1049E000E800215035FD06C035ED3A95F1F700009D
:1049F0002111F5CF2091E80025FF1DC0EC01809129
:104A00002B01811105C040E050E068E070E003C078
:104A100070E040E050E0CE010E94B3268091E800B3
:104A20008E778093E80080E2FE01AFEAB2E0019069
:104A30000D928A95E1F7DF91CF9108958091080357
:104A4000811109C00E9444280E94A1288091E2009F
:104A500084608093E20008951092080308950895F9
:104A60000895089542E061EC81E00E94BD2742E292
:104A700061EC82E00C94BD2780910B03833009F434
:104A800060C030F4813071F0823009F499C008952B
:104A90008A3009F485C08B3009F46BC0893009F085
:104AA000A7C020C080910A03813A09F0A1C080917B
:104AB000E800877F8093E80080910E0390910F03B8
:104AC000892B21F460E28FEA92E003C060E080E08D
:104AD00090E070E00E94FE268091E8008B77809342
:104AE000E800089580910A03813209F081C0809125
:104AF0000E0390910F03029708F07AC08091E800AE
:104B0000877F8093E8008091E80082FD05C0809156
:104B100009038111F8CF6CC02091F3008091F2005D
:104B200090E0922B029729F48091F1008B7F8130E5
:104B300021F48091F1008093CF028091E8008B777F
:104B400053C080910A03813A09F052C080910E034C
:104B500090910F03892B09F04BC08091E800877F6B
:104B60008093E8008091E80080FFFCCF80912B01CA
:104B700036C080910A038132D9F580910E0390915D
:104B80000F03892BA9F58091E800877F8093E800C7
:104B90000E94F22780910C0380932B010C94E61B5A
:104BA00080910A03813221F58091E800877F80930C
:104BB000E8000E94F22780910D038093D0020895AF
:104BC00080910A03813AA1F48091E800877F809365
:104BD000E8008091E80080FFFCCF8091D0028093B4
:104BE000F1008091E8008E778093E8000C94F22722
:104BF000089584B7877F84BF0FB6F894A8958091F5
:104C00006000886180936000109260000FBE90E0A9
:104C100080E80FB6F89480936100909361000FBE16
:104C20000E942A170E9444280E94A1288091E20035
:104C300084608093E20078940E94362B0E9438179B
:104C400081E291E00E949A16809109038530A9F4CF
:104C500080910903853079F40E949B23809107039A
:104C60008823B1F30E948223882391F30E949D261A
:104C70000E94E61BEDCF0E94CE230E9442170E94A5
:104C80003417E2CF0C944426292F332723303105E3
:104C9000C9F060F42130310581F02230310509F08E
:104CA00044C08BE390E02CE335E043C02132310572
:104CB000E1F02232310549F138C082E190E027E786
:104CC00035E037C099278130910549F028F00297E7
:104CD00061F5EEE1F5E005C0E8E3F5E002C0ECE2E5
:104CE000F5E0849190E09F0124C06115710541F0C9
:104CF00061307105D1F489E090E027E635E019C014
:104D000089E090E02EE435E014C06115710541F0B2
:104D10006130710551F486EB90E029E835E009C077
:104D200080E490E02FE336E004C080E090E020E0F3
:104D300030E0FA0131832083089580E189BD82E16A
:104D400089BD09B400FEFDCF8091D8008F7D80938E
:104D5000D8008091E00082608093E0008091E000C4
:104D600081FDFCCF0895CF92DF92EF92FF920F93D7
:104D70001F93CF93DF93EC018B017A010E941128DE
:104D8000811133C0E114F10439F0F7018081918180
:104D9000081B190BC80FD91FC12CD12C01151105E7
:104DA00019F18091E80085FD16C08091E8008E77AA
:104DB0008093E800E114F10449F0F70180819181CA
:104DC000C80ED91ED182C08285E00FC00E94112872
:104DD000882321F30AC089918093F10001501109C1
:104DE000FFEFCF1ADF0ADACF80E0DF91CF911F917A
:104DF0000F91FF90EF90DF90CF90089520911003D6
:104E0000309111032617370748F06115710539F401
:104E10002091E8002E772093E80001C0B901FC0141
:104E200020E06115710579F1809109038823F1F182
:104E30008530F1F18091E80083FD3CC08091E8006D
:104E400082FD2EC08091E80080FFEBCF2091F3001F
:104E50008091F20090E0922B6115710551F088303D
:104E6000910538F421912093F10061507109019668
:104E7000F3CF21E0089709F020E08091E8008E77D9
:104E80008093E800CECF2111CFCF0AC080910903D3
:104E9000882361F0853061F08091E80083FD0AC0CD
:104EA0008091E80082FFF2CF80E0089582E00895CB
:104EB00083E0089581E0089520911003309111035B
:104EC0002617370748F06115710539F42091E8007D
:104ED0002E772093E80001C0B901FC0120E06115A4
:104EE000710591F180910903882309F440C0853050
:104EF00009F43FC08091E80083FD3DC08091E80047
:104F000082FD2FC08091E80080FFE9CF2091F3005F
:104F10008091F20090E0922B6115710559F0883074
:104F2000910540F424912093F1003196615071096C
:104F30000196F2CF21E0089709F020E08091E80087
:104F40008E778093E800CBCF2111CCCF0AC080911F
:104F50000903882361F0853061F08091E80083FDCA
:104F60000AC08091E80082FFF2CF80E0089582E0DD
:104F7000089583E0089581E00895982F973068F5AB
:104F80009093E900981739F07091EC002091ED00B2
:104F90005091F00003C0242F762F50E021FD02C075
:104FA0009F5FECCF3091EB003E7F3093EB00309170
:104FB000ED003D7F3093ED003091EB003160309398
:104FC000EB007093EC002093ED005093F0002091E3
:104FD000EE0027FDE5CF80E008958F708093E90013
:104FE00081E0089580910A0387FF11C08091E80055
:104FF00082FD05C0809109038111F8CF11C0809115
:10500000E8008B770BC080910903882349F08091D9
:10501000E80080FFF8CF8091E8008E778093E80069
:1050200008952091E4003091E50095E64091EC0070
:10503000842F817040FF23C08091E80080FD1DC057
:1050400080910903882399F0853099F08091EB00D5
:1050500085FD11C04091E4005091E500241735070B
:1050600029F3915011F09A01E1CF84E0089582E094
:10507000089583E0089581E0089580E008954091C7
:10508000E80042FFDDCF08950E94B2280E94BA28AE
:10509000E0EEF0E0808181608083E8EDF0E08081E7
:1050A0008F77808319BCA7EDB0E08C918E7F8C93B5
:1050B00080818F7E80831092080308950F931F9341
:1050C000CF93DF930E94B2280E94BA28C8EDD0E0A7
:1050D00088818F77888388818068888388818F7DA5
:1050E000888319BC109209031092050310920703DC
:1050F0001092060300EE10E0F80180818B7F808320
:1051000088818160888342E060E080E00E94BD2762
:10511000E1EEF0E080818E7F8083E2EEF0E080813E
:1051200081608083808188608083F80180818E7FA8
:105130008083888180618883DF91CF911F910F9157
:105140000895E8EDF0E080818F7E8083E7EDF0E068
:1051500080818160808384E082BF81E08093080346
:105160000C945E28E8EDF0E080818E7F80831092C1
:10517000E20008951092DA001092E10008951F9263
:105180000F920FB60F9211242F933F934F935F937B
:105190006F937F938F939F93AF93BF93EF93FF93FF
:1051A0008091E10082FF0BC08091E20082FF07C086
:1051B0008091E1008B7F8093E1000E94352B8091EC
:1051C000DA0080FF1FC08091D80080FF1BC0809153
:1051D000DA008E7F8093DA008091D90080FF0DC0C5
:1051E00080E189BD82E189BD09B400FEFDCF81E087
:1051F000809309030E941E2505C019BC1092090363
:105200000E942C258091E10080FF19C08091E2006E
:1052100080FF15C08091E2008E7F8093E200809134
:10522000E20080618093E2008091D80080628093E8
:10523000D80019BC85E0809309030E943025809135
:10524000E10084FF30C08091E20084FF2CC080E147
:1052500089BD82E189BD09B400FEFDCF8091D800EF
:105260008F7D8093D8008091E1008F7E8093E10054
:105270008091E2008F7E8093E2008091E200816065
:105280008093E20080910503882311F084E007C039
:105290008091E30087FD02C081E001C083E080933C
:1052A00009030E9431258091E10083FF29C080918C
:1052B000E20083FF25C08091E100877F8093E100B9
:1052C00082E080930903109205038091E1008E7FB4
:1052D0008093E1008091E2008E7F8093E2008091D4
:1052E000E20080618093E20042E060E080E00E94A2
:1052F000BD278091F00088608093F0000E942F25E8
:10530000FF91EF91BF91AF919F918F917F916F919D
:105310005F914F913F912F910F900FBE0F901F9073
:1053200018951F920F920FB60F9211242F933F934F
:105330004F935F936F937F938F939F93AF93BF939D
:10534000CF93DF93EF93FF93C091E900CF708091EB
:10535000EC00D82FD17080FDD0E81092E900809148
:10536000F000877F8093F00078940E94D5291092F6
:10537000E9008091F00088608093F000CD2BCF7021
:10538000C093E900FF91EF91DF91CF91BF91AF9171
:105390009F918F917F916F915F914F913F912F914D
:1053A0000F900FBE0F901F9018951F93CF93DF9310
:1053B000CDB7DEB7AA970FB6F894DEBF0FBECDBF4C
:1053C000EAE0F3E08091F100819323E0E231F2071B
:1053D000C9F70E943C258091E80083FF2EC180918F
:1053E0000A0390910B03492F50E04A30510508F011
:1053F00024C1FA01E059FF4F0C94B72B803821F0FB
:10540000823809F01AC108C0809106039091070301
:10541000992389F082600FC080910E038F708730CE
:1054200008F00BC18093E9008091EB0085FB882791
:1054300080F91092E9009091E800977F9093E8003E
:105440008093F1001092F100D1C0282F2D7F09F038
:10545000F4C0882319F0823061F0EFC080910C0312
:10546000813009F0EAC0933009F080E080930703AF
:105470002EC080910C0381112AC080910E038F7081
:105480002FEF280F263008F0D8C08093E900209134
:10549000EB0020FF1CC0933021F48091EB00806270
:1054A00014C09091EB0090619093EB0021E030E00C
:1054B000A90102C0440F551F8A95E2F74093EA0004
:1054C0001092EA008091EB0088608093EB001092CC
:1054D000E9008091E800877F8093E8000E94F2272E
:1054E000ACC08111AAC010910C031F778091E3001A
:1054F0008078812B8093E3008091E800877F809300
:10550000E8000E94F2278091E80080FFFCCF8091A4
:10551000E30080688093E300111102C082E001C0C3
:1055200083E08093090389C08058823008F085C0E9
:1055300080910C0390910D038C3D53E0950779F514
:1055400083E08A838AE289834FB7F894DE01139659
:1055500020E03EE051E2E32FF0E050935700E49169
:1055600020FF03C0E295EF703F5FEF708E2F90E059
:10557000EA3010F0C79601C0C0968D939D932F5FBF
:10558000243149F74FBF8091E800877F8093E8007E
:105590006AE270E0CE0101960E94FE2616C060917C
:1055A0000E0370910F03AE014F5F5F4F0E944226C2
:1055B000BC01892B09F441C09091E800977F90933A
:1055C000E80089819A810E945C278091E8008B77AE
:1055D0008093E80032C0803881F58091E800877FB1
:1055E0008093E800809105038093F1008091E800AA
:1055F0008E7772CF811121C080910C0390910D03A1
:1056000099270297D4F48091E800877F8093E8007F
:1056100080910C03809305030E94F227809105037B
:10562000811106C08091E30087FD02C081E001C0C6
:1056300084E0809309030E9432258091E80083FF73
:105640000AC08091E800877F8093E8008091EB009A
:1056500080628093EB00AA960FB6F894DEBF0FBE6F
:10566000CDBFDF91CF911F9108950895CF93809181
:1056700009038823A1F0C091E900CF709091EC005C
:10568000892F817090FD80E8C82B1092E9008091ED
:10569000E80083FD0E94D529CF70C093E900CF9127
:1056A0000895DB018F939F930E94DB2BBF91AF91F5
:1056B000A29F800D911DA39F900DB29F900D11246C
:1056C0000895991B79E004C0991F961708F0961B5E
:1056D000881F7A95C9F780950895AA1BBB1B51E1D5
:1056E00007C0AA1FBB1FA617B70710F0A61BB70B52
:1056F000881F991F5A95A9F780959095BC01CD01F7
:10570000089597FB072E16F4009407D077FD09D073
:105710000E946D2B07FC05D03EF4909581959F4F1C
:105720000895709561957F4F0895A1E21A2EAA1BE6
:10573000BB1BFD010DC0AA1FBB1FEE1FFF1FA21741
:10574000B307E407F50720F0A21BB30BE40BF50B3E
:10575000661F771F881F991F1A9469F760957095C7
:10576000809590959B01AC01BD01CF010895EE0F8E
:10577000FF1F0590F491E02D09940E94C52B33235F
:1057800012F48A1B9B0B0C94D62BA29FB001B39FE3
:10579000C001A39F700D811D1124911DB29F700D3A
:1057A000811D1124911D08950E94C52BB7FF0895F6
:1057B000821B930B08950E94C52BA59F900DB49F4B
:1057C000900DA49F800D911D11240895B7FF0C9496
:1057D000DB2B0E94DB2B821B930B08958F929F92F1
:1057E000AF92BF92CF92DF92EF92FF92CF93DF936F
:1057F000EC01688179818A819B8161157105810540
:10580000910521F464E279ED8BE597E02DE133EF2A
:1058100041E050E00E949F2C49015A019B01AC01DC
:10582000A7EAB1E40E94DB2B6B017C01ACEEB4EF84
:10583000A50194010E94E92BDC01CB018C0D9D1D7B
:10584000AE1DBF1DB7FF03C00197A109B0488883F3
:105850009983AA83BB839F77DF91CF91FF90EF90CD
:10586000DF90CF90BF90AF909F908F9008950E944F
:10587000EE2B089580E091E00E94EE2B0895A0E0C9
:10588000B0E08093000190930101A0930201B093D6
:1058900003010895FC014150504030F0019006167C
:1058A000D1F73197CF010895882799270895F9995D
:1058B000FECF92BD81BDF89A992780B50895A6E1E3
:1058C000B0E044E050E00C94912CA8E1B0E042E05C
:1058D00050E00C94912C262FF999FECF92BD81BDFA
:1058E000F89A019700B4021639F01FBA20BD0FB61E
:1058F000F894FA9AF99A0FBE08950396272F0E94FA
:105900006C2C0E946B2C252F0E946C2C242F0C9445
:105910006C2C0196272F0E946C2C0C946B2CDC01B4
:10592000CB01FC01F999FECF06C0F2BDE1BDF89AAA
:10593000319600B40D9241505040B8F70895052EAD
:1059400097FB1EF400940E94B62C57FD07D00E94CE
:10595000952B07FC03D04EF40C94B62C5095409533
:10596000309521953F4F4F4F5F4F0895909580950B
:10597000709561957F4F8F4F9F4F0895F894FFCF9B
:10598000010000002808641E140A321E01010200F2
:105990000800080801191A1B1C1D1E1F2021228A3D
:1059A000028024DD24BE24BA24B62401E200E900EA
:1059B000EA00B500B600B700CD008301CC008A0133
:1059C00092019401210223022402250226022702C9
:1059D0002A02B300B4006F007000818283F0F1F4FA
:1059E000F5F6F73635349796929395370001020213
:1059F00002020606060909090909090F0F0F0F0F10
:105A00000F15151518191919191919191919192313
:105A100024252525252525E200E900EA00B500B664
:105A200000B700CD008301CC008A019201940121CE
:105A300002230224022502260227022A02B300B40E
:085A4000006F007000818283F9
:00000001FF
