:100000000C94C6020C940D030C940D030C940D0378
:100010000C940D030C940D030C940D030C940D0320
:100020000C940D030C940D030C942B1E0C94FD1ECC
:100030000C94A9160C940D030C940D030C940D0351
:100040000C940D030C940D030C940D030C940D03F0
:100050000C940D030C94F6160C940D030C940D03E4
:100060000C940D030C940D030C940D030C940D03D0
:100070000C940D030C940D030C940D030C940D03C0
:100080000C940D030C940D030C940D030C940D03B0
:100090000C940D030C940D030C940D030C940D03A0
:1000A0000C940D030C940D030C940D03960C960CFC
:1000B000C80CC80C150D350D5E0E5E0E400DDD0D25
:1000C000EE0DEE0D4E0E5E0E5E0E570EFA0EFA0E91
:1000D0000C0F0C0F030F0C0F0C0F0C0FFA0EFA0E77
:1000E000080F0C0F0C0F080F6A1F911F8320911F20
:1000F0008320DD1F00208320562065200103E101BD
:1001000003E2000102E10102E2001E0000000F080C
:10011000AE00A800AA00A900000000000000000036
:100120000000290014001A000800150017001C0028
:1001300018000C00120013002A002B0004001644C3
:10014000074309420A000B000D420E430F443400DE
:100150002800E1001D001B00060019000500110029
:1001600010003600370038001150E000E300E200D4
:1001700000000000000000002C6100005000510051
:100180004F001E0000001F0020002100220023005D
:10019000000000000000000000000100010001005C
:1001A0000100010001000100010001000100010047
:1001B0000100010001001600070009000100010014
:1001C0000D000E000F000100010001000100010000
:1001D00001000100010001000100010001005200C6
:1001E00010500100010001000000000000000000AC
:1001F0002C0000000100010001001E0000001F0093
:100200002000210022002300000000000000000068
:10021000000034002F00610060005F0030004B00E0
:100220004A0052004D0049004C00530033005E006C
:100230005D005C002E004E00500051004F00010098
:10024000000001002D005B005A005900640000000E
:1002500000000000000052000000E20063006200A5
:1002600000000000000000000100000050005100EC
:100270004F00240000002500260027002602270248
:100280000000000000000000000035022F022602DE
:10029000250224023002F900F400F000F500F70016
:1002A000F600390033022302220221022E02FA0054
:1002B000F200F100F300F800000001002D0220021E
:1002C0001F021E023102FB00FD00FE00FF00FC00C9
:1002D00000000100260227020000000000000000CC
:1002E000010000000000000000000000000000000D
:1002F00000000000000000000000000000000000FE
:100300000000005C43004200410040004600C95C20
:10031000C45CA900C35CC55CC25C000044003F0033
:100320003E003D004700CA5CAC00AA00AB00C65CC2
:100330000000010045003C003B003A00480001007D
:10034000AE00AD00A80000000000000000000000AA
:10035000000000000000000001000000000000009C
:10036000000000000000000000002A2B2800000010
:100370000000000000000000000000000029000054
:1003800000002C1E3420212224342627252E362D31
:100390003738271E1F202122232425263333362ECB
:1003A00037381F0405060708090A0B0C0D0E0F103D
:1003B0001112131415161718191A1B1C1D2F313082
:1003C000232D350405060708090A0B0C0D0E0F1026
:1003D0001112131415161718191A1B1C1D2F313062
:1003E000354C00000000000000000000000000008C
:1003F0000000000000007E0F00D4FFFFFFC70000D8
:1004000000780403300000001003560034004E0052
:100410003400470030004E00000022035400680002
:100420006500560061006E0020004B0065007900F9
:1004300062006F006100720064007300000004033A
:10044000090409023B00020100A032090400000176
:10045000030101000921110100012240000705816B
:100460000308000A0904010001030000000921112A
:1004700001000122BC000705820320000A120110BE
:100480000100000008AEFE478801000102030105DB
:10049000010902A10185020901A10005091901292B
:1004A00005150025019505750181029501750381EA
:1004B000010501093009311581257F9502750881F3
:1004C0000609381581257F950175088106050C0AF6
:1004D00038021581257F950175088106C0C0050188
:1004E0000980A101850319012AB700150126B7006B
:1004F000950175108100C0050C0901A10185041941
:10050000012AA002150126A002950175108100C0E4
:1005100005010906A1018505050719E029E7150070
:1005200025019508750181020507190029EF1500BD
:10053000250195F075018102050819012905950528
:1005400075019102950175039101C005010906A18C
:1005500001050719E029E7150025019508750181B6
:10056000029501750881010507190029FF1500266C
:10057000FF009506750881000508190129059505F4
:1005800075019102950175039101C00011241FBEF0
:10059000CFEFDAE0DEBFCDBF04B603FE27C0809107
:1005A000860290918702A0918802B09189028730DB
:1005B000904BA740B04BD1F4109286021092870264
:1005C000109288021092890214BE84B7877F84BF7C
:1005D0000FB6F894A89580916000886180936000C0
:1005E000109260000FBEE0E0F8E3099511E0A0E092
:1005F000B1E0E2E5F2E402C005900D92A838B1073F
:10060000D9F722E0A8E8B1E001C01D92A638B207F0
:10061000E1F70E948A1B0C9427210C940000A1E2B0
:10062000B1E041E050E025E02A0F8D91E82FE295FE
:10063000EF70F0E031A18F70BA0102C0660F771F32
:100640008A95E2F7CB01962F9095932391A392A1DF
:10065000892B82A32A13E9CFA5E1B1E041E050E064
:100660002CE02A0F8D91E82FE295EF70F0E031A198
:100670008F70BA0102C0660F771F8A95E2F7CB012F
:10068000962F9095932391A392A1892B82A32A134D
:10069000E9CF08956F927F928F929F92AF92BF920F
:1006A000CF92DF92EF92FF920F931F93CF93DF933E
:1006B0001F92CDB7DEB76C0131E2E32E31E0F32EAD
:1006C00080E0AA24A394B12C55E0852E8E0CF7016E
:1006D00091917F01692E62942FE06222712CF301C7
:1006E00021A19F70850101C0000F9A95EAF7922F12
:1006F000902B91A392A1902E9094992192A38983FB
:100700000E94AF07E5E1F1E060E070E040E050E01A
:1007100089819191A92FA295AF70B0E090962C910C
:1007200030E09F7002C0359527959A95E2F720FD3D
:1007300008C09501062E02C0220F331F0A94E2F76B
:1007400002C020E030E0422B532B6F5F7F4F6C30B4
:100750007105F9F6F30191A1992291A292A1092BB9
:1007600002A3F601219131916F012417350729F079
:1007700032975183408391E001C090E0892B8E1025
:10078000A6CF0F90DF91CF911F910F91FF90EF9027
:10079000DF90CF90BF90AF909F908F907F906F90A1
:1007A00008950C94A3070C94A4070C94D9030C94FB
:1007B0000F04CF93FB01C281CC2349F088329D45C1
:1007C00079F483E091E00E943405C0E009C08832EA
:1007D0009D4529F48CEF90E00E94340501C0C1E0F2
:1007E0008C2FCF91089541FF02C02D9A01C02D9802
:1007F00061FF02C02C9A08952C980895269A2E9A8B
:10080000259A249A0E94520A482F60910102709101
:10081000020280910302909104020C94F3030E945F
:10082000520A482F609101027091020280910302E6
:10083000909104020C94F303CF92DF92EF92FF9217
:100840006B017C010E94520A482FC701B6010E9429
:10085000F303C701B601FF90EF90DF90CF900895AA
:1008600081E0089508950C9432041F93CF93DF9391
:1008700000D000D01F92CDB7DEB749835A833091A4
:10088000A00189819A81311114C0662359F0222375
:1008900049F00E940714182F682F89819A810E94BD
:1008A000AC1303C00E94DB13182F69817A81812F5A
:1008B00004C00E94071469817A810F900F900F90F5
:1008C0000F900F90DF91CF911F910C949F05FC0129
:1008D000262F408151816281738184810C9435047B
:1008E000CF93DF93EC0160E00E946704BE01DF91CB
:1008F000CF910C943304FF920F931F93CF93DF9308
:10090000E82FF0E0EE59FC4FF490C82FC695C6953D
:10091000C695D0E0FE01EE50FC4F0491877010E0C8
:10092000082E02C0159507950A94E2F70170112769
:10093000FE01EE51FC4FC491D0E002C0D595C795A1
:100940008A95E2F7C170DD270115110519F081EED6
:100950000E94B50B209719F086EE0E94B50B8F2DE3
:100960000E943F0CCD2B19F086EE0E940B0C012B40
:1009700041F081EEDF91CF911F910F91FF900C9488
:100980000B0CDF91CF911F910F91FF900895EF9283
:10099000FF920F931F93CF93DF938C01F62E8AE083
:1009A000E82EF8018491882309F457C0813009F0BA
:1009B00042C0E8012196FE018491813031F42196F4
:1009C000FE0184910E943F0C39C0823039F4E80165
:1009D0002296FE0184910E94B50B30C0833039F419
:1009E000E8012296FE0184910E940B0C27C08430FE
:1009F00029F5E8012296FE01249180E090E030E0A4
:100A0000205331092A30310560F4E89EA001E99EA7
:100A1000500D1124CA01820F931F2196FE012491CB
:100A2000EECF009759F0EFE9FFE03197F1F700C002
:100A300000000197F6CF0E947B04E8018E010F5F52
:100A40001F4F8F2D882309F4ACCFEFE9FFE03197DA
:100A5000F1F700C000008150F5CFDF91CF911F91D9
:100A60000F91FF90EF90089560E00C94C7040E94EE
:100A70003715811102C00E94D7150C94D1030C9434
:100A8000D30381E008950C944105CF93C82F0E94B1
:100A9000D7038C2F0E944305CF91089508950E949B
:100AA000EA0E0E944E052FEF84E39CE02150804027
:100AB0009040E1F700C000000C941C170F931F93A7
:100AC000CF93DF93EC0161E00E9467048C01BE01CB
:100AD0000E94D503882349F1BE01C8010E949F08E6
:100AE000882319F1BE01C8010E94F1088823E9F0AA
:100AF000BE01C8010E941C0A8823B9F08A8188239C
:100B000069F001158CE5180731F00E3D1C4531F4F4
:100B10000E94D7150AC00E944F0507C0CE01DF9181
:100B2000CF911F910F910C94300480E0DF91CF9111
:100B30001F910F91089580E090E0089508959CE042
:100B4000799FF00111249CE3899FE00DF11D112490
:100B5000E60FF11DEE0FFF1FE65FFE4F85919491AA
:100B60000895880F991FFC01EE5FFB4F85919491CA
:100B70000895CF93DF930E949F050E94CC06EC015D
:100B8000811520E59207F0F5811530E4930708F010
:100B9000CDC0883E910500F5803E910508F0F8C073
:100BA000883A910570F4853A910508F09FC081302C
:100BB000910509F4EDC008F4E9C0049708F0E8C015
:100BC000E5C08F3B910508F499C0803C910508F47D
:100BD000DDC0805C91099DC0811540E2940758F406
:100BE000C11581E0D80708F0D3C0C03FD10508F493
:100BF000CDC0D065CDC0811520E3920708F08DC02F
:100C00009F7087C0811535E5930708F044C08115B2
:100C100044E5940708F0A1C0C11582E5D80708F59E
:100C2000C11521E5D20708F084C08C2F837021E024
:100C300030E002C0220F331F8A95E2F73C68CE01F4
:100C400074E0969587957A95E1F78370382BCF708D
:100C5000C695C69580E2C89FE0011124C22BD32B14
:100C600097C02C2F26952695CE0183709927C11504
:100C7000D34508F063C040E2249F90011124C1E0F5
:100C8000D0E002C0CC0FDD1F8A95E2F72C2B3D2B64
:100C9000E901DC687DC0811549E59407A0F4C11520
:100CA00088E5D80708F05EC0C11526E5D20708F030
:100CB0006DC08C2F0E9460078F71C82FD0E0DC2F91
:100CC000CC27D06265C081153AE5930708F44FC080
:100CD00090568115904208F059C08D2F8F710E9457
:100CE0006007DD27D0628F71D82B52C0C55AD0E083
:100CF000CC5ADE4FC881D0E0D0644AC0C85AD0E098
:100D0000CC0FDD1FCA5DDE4F0990D881C02DD464A1
:100D10003FC00E94B105EC013BC09927D3FF03C03F
:100D2000EC01D86C35C0EC01D06C32C0DF70D06AF9
:100D30002FC0DC2FCC27C16FD06A2AC040E2249F8D
:100D400090011124C1E0D0E002C0CC0FDD1F8A95D4
:100D5000E2F7C22BD32BDA681BC0D82FCC27C46F85
:100D6000D06A16C0DC2FCC27C06FD06A11C08F703C
:100D70000E94600794E0D695C7959A95E1F7CF70E9
:100D8000D0E0DC2FCC27D069C82B02C0C0E0D0E077
:100D9000CE01DF91CF9108958238910569F1B0F4C9
:100DA0008133910509F46DC048F48932910509F445
:100DB00063C08A32910509F469C0089585339105AD
:100DC00009F455C089339105B9F00895833E910522
:100DD00069F138F4803E9105B1F0823E910509F148
:100DE0000895863E9105A9F1873E9105B9F1843EAB
:100DF000910509F064C023C02091770220FD4FC007
:100E000021FD4DC008958091770280FD44C08091FE
:100E1000780280FF44C08091770284FD42C083EE57
:100E20004DC08091770282FF38C0F5CF8091770264
:100E300082FD33C08091780280FD31C0ECCF80917B
:100E4000780281FF32C08091770284FD2AC087EE4C
:100E500035C08091770283FF26C0F5CF809177025D
:100E600083FD21C08091780281FD1FC0ECCF80916D
:100E7000770285FD1CC01DC08091770285FD19C0D9
:100E800016C08091770286FD16C017C08091770248
:100E900086FD13C010C089E311C082EE0FC080EE42
:100EA0000DC080E00BC086EE09C084EE07C089E269
:100EB00005C085E303C08AE201C081E390E00895A4
:100EC0009091770292FF0DC0282F2871283019F4D5
:100ED000877F846006C0282F2471243011F48B7F13
:100EE000886093FF0DC0282F2871283119F4877E60
:100EF000846106C0282F2471243111F48B7E88610F
:100F00002091780220FF0DC0382F3871383019F445
:100F1000877F816006C0382F3171313011F48E7FA8
:100F2000886021FF0DC0282F2871283119F4877E91
:100F3000816106C0282F2171213111F48E7E8861D4
:100F400094FD877E089508950895E82FF0E0EE0F50
:100F5000FF1FE759FD4F808191810895089580EA30
:100F60008A95F1F708950E940F03EFE5F2E0A9E6F4
:100F7000B2E0119211921D921D9282E0E936F807BB
:100F8000C1F785E00E94D9070C943705CF938FE510
:100F900092E00E944A03C82F282F45E069E672E0DC
:100FA0008FE592E00E94DA070E943F058C2FCF91D7
:100FB00008950895FF920F931F93CF93DF93F82E18
:100FC000092F162FD72FC42F222349F081E08093B9
:100FD0008A010E94DB169093890180938801809199
:100FE0008A018823D9F080918801909189010E941B
:100FF000E716069798F0EF2DF02FA12FBD2F80E078
:1010000090E04C2F50E08417950734F421913191F2
:101010002D933D930196F7CF10928A01DF91CF91E6
:101020001F910F91FF900895AF92BF92CF92DF92E0
:10103000EF92FF920F931F93CF93DF937C015B019D
:10104000C42FD22FFC0182818823F9F040938D01B7
:101050000E94DB1690938C0180938B0180E28C0FB1
:10106000883008F061C0C77081E001C0880FCA9560
:10107000EAF7DF91CF911F910F91FF90EF90DF90F2
:10108000CF90BF90AF900C94520C10918D0114131F
:1010900035C080918B0190918C010E94E7166C0104
:1010A000B701C5010E947A11C816D90638F5C0E209
:1010B000CD0F1D17B9F080E2810F883040F4177012
:1010C00081E001C0880F1A95EAF70E94590CC830D8
:1010D00048F481E09D2F977001C0880F9A95EAF738
:1010E0000E94520C802F0E943F0CC830E8F4D77049
:1010F00081E001C0880FDA95EAF70AC080E28C0F20
:10110000883090F4C77081E001C0880FCA95EAF773
:10111000DF91CF911F910F91FF90EF90DF90CF90D3
:10112000BF90AF900C94590CDF91CF911F910F910C
:10113000FF90EF90DF90CF90BF90AF9008950F9306
:101140009C01CB01233F4CE5340731F188F4283D65
:10115000FCE53F07D9F0293D4CE5340779F1273DFF
:101160003C45A9F506E221EE41EE67ED7CE52BC09A
:10117000253FFCE53F07E1F0A8F0263F3C4539F567
:1011800007E225EE46EE66EF7CE51DC007E225EEA0
:1011900045EE68ED7CE517C006E221EE40EE63EF18
:1011A0007CE511C007E225EE44EE64EF7CE50BC060
:1011B00006E221EE42EE65EF7CE505C008E221E0A3
:1011C00045EE69ED7CE50E94140880E008C0FC0152
:1011D0008281882319F010928D0101C081E00F9166
:1011E0000895CF93DF93EC01FB018281882309F4FA
:1011F0001FC1C230FCE5DF0708F41BC1C6319CE506
:10120000D90738F09E012A5F3C452930310508F0A6
:1012100010C10E944A159093780280937702C031E2
:10122000ECE5DE0709F4C3C008F041C0C8308CE526
:10123000D80709F49AC0F0F4C430ECE5DE0709F4ED
:1012400087C068F4C2308CE5D80709F477C0C33092
:10125000DC4509F0E3C080917702826076C0C63039
:10126000ECE5DE0709F46EC008F07BC080917702E0
:1012700088606BC0CC308CE5D80709F485C068F471
:10128000CA30ECE5DE0709F474C008F079C00E94AA
:10129000EA0E80917702806858C0CE308CE5D8077E
:1012A00009F476C008F07FC0809177028BC0CB3FF5
:1012B000ECE5DE0709F44FC018F5C3318CE5D8071B
:1012C00009F47DC078F4C131ECE5DE0709F473C0A0
:1012D000C231DC4509F0A2C00E94EA0E809177027B
:1012E0008F7733C0C5318CE5D80709F472C008F494
:1012F00086C0CA3FDC4509F091C0809178023EC0AB
:10130000CF3FFCE5DF0709F45FC058F4CD3F9CE513
:10131000D90709F444C008F43FC080917802826084
:101320002DC0C130FDE5DF0709F475C008F45DC0CC
:10133000C230DD4509F072C080E06EC08091770256
:10134000816003C08091770280618093770266C0DC
:101350008091770211C08091780282608093780238
:101360005DC0809177028062F0CF809177028064C7
:10137000ECCF8091770288608460E7CF8160EECF08
:10138000809177028E7FE1CF809177028D7FDDCFD4
:1013900080917702877FD9CF8091780218C08091A1
:1013A00078028D7FDBCF809177028F7ECECF8091C8
:1013B00077028F7DCACF809177028F7BC6CF8091D5
:1013C0007702877F8B7FC1CF809178028D7F8E7F60
:1013D000C5CF8091770282FB222720F991E09227E6
:1013E00090FB82F990FB83F9B0CF80917802982F1F
:1013F000909591708E7F892B90FB81F9AFCF0E94E1
:10140000EA0E8091770287FB222720F991E092274C
:1014100090FB87F99ACF81E00E94D91580917702DD
:10142000909178020E945B150E94EA0E80E001C054
:1014300081E0DF91CF910895CF93DF9386319C4572
:1014400041F5EB010E948714282F8A814091000109
:1014500050910101882379F02A7A91E009F490E013
:1014600090938E01911102C069E201C065E3CA0147
:101470000E9476160AC080918E01811102C069E235
:1014800001C065E3CA010E9481160E94D31480E066
:1014900001C081E0DF91CF910895909394018093F2
:1014A00093010895E0919301F0919401309721F018
:1014B0000190F081E02D099480E00895E09193017E
:1014C000F0919401309799F020911401222359F062
:1014D0002091770227FF07C0DC012C9111962C93F5
:1014E000119725E02C930280F381E02D0994089553
:1014F000E0919301F0919401309739F022E0DC0102
:101500002C930480F581E02D099408952091910198
:10151000309192018217930771F09093920180931A
:101520009101E0919301F0919401309721F00680B0
:10153000F781E02D0994089520918F013091900159
:101540008217930771F09093900180938F01E0913F
:101550009301F0919401309721F00084F185E02D02
:101560000994089585B7806885BF85B7806885BF71
:101570000895089508950C94BA0A0C94FE030E94ED
:10158000B20A0E94B90A0C94BB0A81E008950C9437
:10159000C50A0E94D2160E94B3070E9440170C94FD
:1015A000BD0A7F928F929F92AF92BF92CF92DF92AD
:1015B000EF92FF920F931F93CF93DF93CDB7DEB7D8
:1015C0002A970FB6F894DEBF0FBECDBF0E94C607A4
:1015D0000E94C70A811111C08FEF89838A831B8201
:1015E0000E94DB168160782F9D838C8349815A810C
:1015F0006B818D810E94810B4FC036E9832E31E0D3
:10160000932E00E010E0702E802F0E94A5076C0141
:10161000F401A190B1904F01A826B926A114B104FC
:1016200031F40F5F1F4F0530110569F7D5CF809159
:101630002E0281FD0E94AE0790E0EE24E394F12C8F
:1016400097012A213B21232B09F19E837F82CE2003
:10165000DF2091E0CD2809F490E098870E94DB1606
:101660008160782F9A8789874E815F8168858A8516
:101670000E94810B000F111FF801EA56FE4F808176
:101680009181E826F926F182E08206C09F5FEE0C88
:10169000FF1C9C30A9F6C5CF0E94EF181091950150
:1016A0000E94520A1817C9F00E94520A80939501AD
:1016B0002A960FB6F894DEBF0FBECDBFDF91CF9153
:1016C0001F910F91FF90EF90DF90CF90BF90AF9060
:1016D0009F908F907F900C9445052A960FB6F894B2
:1016E000DEBF0FBECDBFDF91CF911F910F91FF9055
:1016F000EF90DF90CF90BF90AF909F908F907F90B2
:101700000895CF93DF93CDB7DEB72B970FB6F8943C
:10171000DEBF0FBECDBF4F83588769877A878B871F
:10172000DE01119686E0FD0111928A95E9F785E0C8
:10173000FE01379601900D928A95E1F749815A8111
:101740006B817C818D819E810E947D112B960FB6CD
:10175000F894DEBF0FBECDBFDF91CF910895FC019D
:10176000808191810E9448140895CF93882309F4C1
:1017700050C0C82F8CEF8C0F813AD0F46C2F809121
:101780000001909101010E94F415882349F06C2F0B
:1017900080910001909101010E9481160E94D31452
:1017A0006C2F80910001909101010E9476160CC06F
:1017B00080E28C0F883058F4C77081E001C0880F38
:1017C000CA95EAF70E948A14CF910C94D314EBE5E2
:1017D000EC0FE33040F4F0E0EB57FE4F808190E0F7
:1017E000CF910C94860AE8E5EC0FE73150F4F0E075
:1017F000EE0FFF1FE95AFE4F80819181CF910C942B
:101800009C0AC03F30F08C2F0E94E417CF910C94BB
:10181000D118CF910895882389F19CEF980F913AC0
:1018200040F4682F80910001909101010E9481167F
:101830000DC090E2980F983058F4877091E001C085
:10184000990F8A95EAF7892F0E9490140C94D3146B
:101850009BE5980F933020F480E090E00C94860A8A
:1018600098E5980F973120F480E090E00C949C0A62
:10187000803F20F00E944C180C94D1180895CF930B
:10188000C82F0E94B50BC93349F42FEF87EE93E0C0
:10189000215080409040E1F700C000008C2FCF9194
:1018A0000C940B0C882321F00E948A140C94D314FE
:1018B0000895882321F00E9490140C94D314089565
:1018C000BF92CF92DF92EF92FF920F931F93CF932D
:1018D000DF937C01062FC72FFC01158112951F7025
:1018E000D281D1110E94A7140E948014882399F0FC
:1018F000DD2389F08C2F807F803421F080E2800FFF
:10190000883048F082E00E941E150E94801491E009
:10191000B82EB92601C0B12CCC2EC2948FE0C822BB
:10192000D12CF601EA5AFF4F0C94CB208C2F807FEC
:10193000CF70882311F0C295C07FDD2399F0CC23AE
:1019400009F497C180E2800F883010F0011104C0C3
:101950008C2F0E948A1403C08C2F0E949A140E941C
:10196000D31487C1802F0E940B0CCC2309F4A6C18D
:1019700080E2800F883010F0011104C08C2F0E948B
:10198000901403C08C2F0E94A0140E94D31496C1FF
:101990008C2F807FCF70803211F0C295C07F0023E2
:1019A00019F00130C9F022C0DD2371F0112341F09C
:1019B000113031F40E94BA148C2B0E94C0147EC1E5
:1019C0000E94BA148C2B1DC0112319F0113009F498
:1019D00075C10E94C91425C0DD2321F0163008F01E
:1019E0006DC10EC0153008F069C11BC0DD2361F068
:1019F000112331F0F701858180FF3BC18F70858312
:101A00008C2F0E94520C5AC1112359F0093309F04E
:101A100041C1FFEF27EE83E0F15020408040E1F725
:101A200037C18C2F0E94590C49C18C2F8695869501
:101A3000837090E0009719F0019761F03FC1DD23BA
:101A400021F0802F9C2F937002C080E090E00E94D4
:101A5000860A3FC1DD2321F0802F9C2F937002C0A6
:101A600080E090E00E949C0A34C1802FDD2319F0B1
:101A70000E94E41702C00E944C180E94D11829C18C
:101A80008C2F837009F049C0D1111FC1402F42959E
:101A900046954770440F440F602F6F70862F90E07B
:101AA000A0E0B0E0042E04C0880F991FAA1FBB1F3E
:101AB0000A94D2F704FF10C00FE010E020E030E0FD
:101AC00004C0000F111F221F331F4A95D2F7009543
:101AD00010952095309503C000E010E09801C69560
:101AE000C695C370D0E0BC01CD01602B712B822B59
:101AF000932BC230D10559F0C330D10559F021974D
:101B000019F00E94C212E1C00E94B012DEC00E9411
:101B1000D412DBC00E94AE12D8C0DD2319F08C2F86
:101B2000817001C08695882309F4CFC0402F42956B
:101B300046954770440F440F602F6F70862F90E0DA
:101B4000A0E0B0E0042E04C0880F991FAA1FBB1F9D
:101B50000A94D2F704FF10C00FE010E020E030E05C
:101B600004C0000F111F221F331F4A95D2F70095A2
:101B700010952095309503C000E010E09801C695BF
:101B8000C695C370D0E0BC01CD01602B712B822BB8
:101B9000932BC230D10559F0C330D10559F02197AC
:101BA00019F00E94871391C00E9475138EC00E9485
:101BB00099138BC00E94E81288C0CF70DD2339F0E2
:101BC0008C2F0E940E13802F0E94520C7EC0802FFB
:101BD0000E94590C8C2F0E942F1377C0023F01F1F5
:101BE00028F4003F41F0013FA1F03FC0033FF9F06E
:101BF000043F39F13AC0DD2341F0153008F05EC0F2
:101C00008C2F8F710E94541359C0163008F056C0A3
:101C1000F7CFDD2339F08C2F8F710E940E134EC049
:101C2000DD23C9F38C2F8F710E942F1347C0DD2352
:101C300029F08C2F8F710E94F91240C00E94F4127B
:101C40003DC0DD2349F0CF718C2F0E940E1363E05D
:101C50008C2F0E94091532C081E00E941E1512309F
:101C600068F182E00E941E1529C0DD2331F01123A6
:101C700091F2802F0E94B50B21C0112399F20933F4
:101C800049F49FEFE7EEF3E09150E040F040E1F7D8
:101C900000C00000802F0E940B0C10C04C2F4F7012
:101CA000602FC7010E949B050E94211212C04C2F79
:101CB0004F70602FC7010E949E050BC028E0C21A1A
:101CC000D10884E0C816D10420F40E94520A0E9470
:101CD0004505BB20D1F00E947C1480FD16C0F701A1
:101CE00012820E9476140E940E13C7010E94A70E52
:101CF0000E947614DF91CF911F910F91FF90EF908A
:101D0000DF90CF90BF900C942F13DF91CF911F9154
:101D10000F91FF90EF90DF90CF90BF9008950F93B9
:101D20001F93CF93DF93EC01688179818A810E94B0
:101D300053148C010E94AB130E94AD12B801CE0166
:101D40000E94600CDF91CF911F910F910895CF9366
:101D5000DF93EC01888199812B813C81232BE9F071
:101D60009F3F11F48F3FC9F0CE010E945E058111A3
:101D70000CC00E948014882381F08A81882369F036
:101D800082E0DF91CF910C941E15CE010E948F0E40
:101D9000CE01DF91CF910C947004DF91CF91089523
:101DA0000E94A7140E94B7140E94D3140E94021A22
:101DB0000E94D11880E090E00E94860A80E090E0C6
:101DC0000C949C0A80910001909101010E948C1654
:101DD0000C94D00E0E9497140C94E20EE92FE29519
:101DE000EF70F0E03297EE30F105B0F4EA59FF4FB2
:101DF0000C94CB20803F91F018F4883E68F40EC01C
:101E0000843F51F40BC0883E48F0813F29F406C05E
:101E100093FB882780F9089580E0089581E0089574
:101E20000E9448140E94EE0E0895CF93DF9300D0D5
:101E300000D01F92CDB7DEB70F900F900F900F908C
:101E40000F90DF91CF910895CF93DF9300D000D012
:101E500000D0CDB7DEB726960FB6F894DEBF0FBE22
:101E6000CDBFDF91CF9108951F93CF93DF93C091A2
:101E7000A10116E08091A201C81799F0D0E01C9F43
:101E8000F0011D9FF00D1124ED55FE4F4081518151
:101E900062817381848195810E94240F2196C7708D
:101EA000E9CFDF91CF911F9108954091D3015091D7
:101EB000D4016091D5017091D6018091D7019091A4
:101EC000D8010C94240FCF93DF938091D801829591
:101ED0008F7009F051C08091D501882309F44CC05E
:101EE0008091A101C091A2014091D3015091D401F0
:101EF0006091D6017091D701D6E08C17E9F190E09E
:101F000061157105B1F15F3F11F44F3F91F1D89F19
:101F1000F001D99FF00D1124DF01AD55BE4F119690
:101F20002C911197521325C02C91421322C0129666
:101F30002C91129721111DC013962D913C9114974D
:101F4000261B370B2F3A3105A0F48091D8018F70F2
:101F500080618093D801E855FE4F80818F70806149
:101F6000808383ED91E00E94A70EDF91CF910C94C6
:101F7000340F01968770C1CFDF91CF910895AF9252
:101F8000BF92CF92DF92FF920F931F93CF93DF9375
:101F9000CDB7DEB762970FB6F894DEBF0FBECDBFE8
:101FA0008C0185E0F801DE011D9601900D928A9565
:101FB000E1F7D8014C9111965C91119712966C91B2
:101FC00012971396AD90BC9014979091D3012091E5
:101FD000D401E091D601F091D701309709F435C1D1
:101FE0002F3F19F49F3F09F430C183EDC82E81E0E3
:101FF000D82EF090D501D501AE1BBF0BFF2009F400
:10200000D2C08091D801382F307FAF3AB10508F0A7
:102010008FC0311144C0251312C0941310C0611138
:102020000EC08F7080618093D8010E94550FC60149
:102030000E94A70E8091D801F80185832EC0AB289D
:1020400019F15F3F11F44F3FF9F0D62E61111CC01A
:102050008091A1012091A20136E0821709F413C1F9
:1020600090E0389FF001399FF00D1124ED55FE4F9F
:102070007181571306C07081471303C072817111BB
:1020800003C001968770E9CFF62E662309F421C1BB
:102090008091D80181608093D801F12C1AC1251359
:1020A00006C0941304C0611102C0F8019BC04D87A3
:1020B0005E878D859E856A8B0E94100F6A898823B2
:1020C00089F1662379F12091D801822F82958F7052
:1020D00090E0029774F08091D3019091D401988799
:1020E0008F831986BB86AA862C87CE0107960E940D
:1020F000A70E86E0F801A3EDB1E001900D928A955C
:10210000E1F70E94630F0E94550F0FC0251721F1C0
:102110004D875E878D859E856A8B0E94100F6A8928
:10212000811129C0C8010E94A70EFF24F394D1C0D9
:102130003111ECCF7A2DB98AA88A89890E94150FAE
:1021400083ED91E00E94A70E86E0D6011D928A954C
:10215000E9F70E94550FA1CF9413DACF6111D8CFC0
:10216000F8018583C8010E94A70E86E0D6011D9262
:102170008A95E9F7AEC06623A9F22091D801822F93
:1021800082958F7090E002970CF4B3CF8091D301C9
:102190009091D4019A8389831B82BD82AC822E8365
:1021A000CE010196A4CFAF3AB10508F042C0F62E99
:1021B000662309F4B7CF25132BC0941329C02091AF
:1021C000D80120FD1CC0822F82958F70C1F0F801CC
:1021D00025838F3041F08F5F982F9295907F822FCB
:1021E0008F70892B8583C8010E94A70E86E0F801B5
:1021F000A3EDB1E001900D928A95E1F741C086E030
:10220000F801A3EDB1E001900D928A95E1F761C06C
:102210004D875E878D859E850E94100F811169CF45
:102220008091D80181608093D801C8010E94A70ED7
:1022300050C07A2DB98AA88A89890E94150F86E034
:10224000D6011D928A95E9F71BC0662309F46ACF6F
:102250004D875E878D859E850E94100FF82E8823FE
:1022600009F460CF86E0F801A3EDB1E001900D9292
:102270008A95E1F783ED91E00E94AF0B0E94630F16
:102280000E94550F26C04D875E878D859E850E94D2
:102290004814292F22952F7030E0223031052CF47C
:1022A0009F7041F0811106C00CC0243031052CF420
:1022B0009F7049F4805E883020F0C8010E94A70E0C
:1022C000DF2CFD2C06C0D80115969C91907F91F7CC
:1022D000F8CF8F2D62960FB6F894DEBF0FBECDBF3C
:1022E000DF91CF911F910F91FF90DF90CF90BF9022
:1022F000AF9008958FEA90E008951F93CF93DF93F6
:10230000CDB7DEB72C970FB6F894DEBF0FBECDBFAA
:102310004F83588769877A878B879C87CE0107967A
:102320000E94BF0F882369F08F8198852A853B859D
:10233000232BF1F19F3F09F063C08F3F09F060C08C
:1023400037C086E0FE013796DE01119601900D92AE
:102350008A95E1F76F817885EA85FB85309741F1B1
:102360007F3F11F46F3F21F12091A20130E0C901BC
:102370000196877099274091A10150E08417950735
:1023800009F447C069837A83FD83EC8396E0929FCA
:10239000D001939FB00D1124AD55BE4FFE01319673
:1023A00001900D929A95E1F78093A2010E94340F5B
:1023B00016E08091A1019091A2018917C1F1189FA7
:1023C000C00111248D559E4F0E94BF0F882379F1C3
:1023D000E091A1011E9FF0011124ED55FE4F4081B7
:1023E000518162817381848195810E94240F809143
:1023F000A10190E00196877099278093A101D9CF20
:102400004F81588569857A858B859C850E94240F2C
:10241000CFCF0E94EA0E1092A2011092A101E3ED2B
:10242000F1E086E0DF011D928A95E9F7C1CF2C9695
:102430000FB6F894DEBF0FBECDBFDF91CF911F91D5
:102440000895EF92FF920F931F93CF93DF938C0128
:10245000892B09F46CC0F12CEE24E394E801219659
:10246000F8018491843740F4843008F051C0813001
:1024700081F0823019F15BC0853709F444C0A8F1BE
:102480009CE7980F903708F052C08F770E940B0C92
:1024900041C00E5F1F4FFE01C49180E28C0F883057
:1024A00048F4C7708E2D01C0880FCA95EAF70E94C4
:1024B000AA1414C08C2F0E94B50B2DC00E5F1F4FA5
:1024C000FE01C49180E28C0F883058F4C7708E2DC5
:1024D00001C0880FCA95EAF70E94B0140E94D31475
:1024E0001AC08C2F0E940B0C16C00E5F1F4FFE01EE
:1024F000C491CC2381F08FE99FE00197F1F700C0F0
:102500000000C150F6CF0E5F1F4FFE01F49003C0D4
:102510000E94B50B8E018F2D882309F49FCFEFE920
:10252000FFE03197F1F700C000008150F5CFDF9157
:10253000CF911F910F91FF90EF90089508950C9403
:102540009E120E949F126093050270930602809370
:102550000702909308020C94D00E08950C94A112D7
:102560000F931F930091050210910602209107021C
:1025700030910802602B712B822B932B1F910F91AE
:102580000C94A1120F931F93009105021091060263
:102590002091070230910802602371238223932344
:1025A0001F910F910C94A1120F931F93009105029C
:1025B00010910602209107023091080260277127CE
:1025C000822793271F910F910C94A1120C941C0445
:1025D0000E94E6126093010270930202809303024C
:1025E000909304020C94D00E60E070E0CB010C9448
:1025F000E8120F931F9341E050E060E070E08A0121
:102600009B0104C0000F111F221F331F8A95D2F7B0
:10261000C901B8011F910F910C94E8120F931F93F9
:1026200041E050E060E070E004C0440F551F661FB9
:10263000771F8A95D2F78091010290910202A091B2
:102640000302B09104028A019B01082B192B2A2B4B
:102650003B2BC901B8011F910F910C94E8120F9305
:102660001F9341E050E060E070E004C0440F551F4C
:10267000661F771F8A95D2F74095509560957095A3
:102680008091010290910202A0910302B091040294
:102690008A019B01082319232A233B23C901B8017E
:1026A0001F910F910C94E8120F931F9341E050E09B
:1026B00060E070E004C0440F551F661F771F8A95C5
:1026C000D2F78091010290910202A0910302B09191
:1026D00004028A019B01082719272A273B27C901E1
:1026E000B8011F910F910C94E8120F931F93009162
:1026F0000102109102022091030230910402602B2A
:10270000712B822B932B1F910F910C94E8120F9336
:102710001F93009101021091020220910302309157
:10272000040260237123822393231F910F910C9441
:10273000E8120F931F930091010210910202209161
:1027400003023091040260277127822793271F918B
:102750000F910C94E81208952CE0929F800D1124A3
:10276000A82FA695A695A695877051E001C0550F94
:102770008A95EAF785E0A89FD001112420E030E097
:1027800070E0F901EA0FFB1FE752FE4F4081CB01D9
:10279000022E02C0969587950A94E2F781709927D8
:1027A000819584278523842780832F5F3F4F2530A1
:1027B000310539F708952CE0929F800D1124682F80
:1027C000669566956695982F977085E0689FB0012D
:1027D000112440E050E080E0FA01E60FF71FE752D5
:1027E000FE4F208130E0092E02C0369527950A94CD
:1027F000E2F721703327042E01C0220F0A94EAF772
:10280000822B4F5F5F4F4530510531F70895BF92DE
:10281000CF92DF92EF92FF920F931F93CF93DF93AC
:102820008C01C0900502D0900602E0900702F09063
:1028300008028091010290910202A0910302B091DE
:102840000402C82AD92AEA2AFB2ACFE1D0E0D7011C
:10285000C6010C2E04C0B695A795979587950A9446
:10286000D2F780FF07C0BC2EB8018C2F0E94B9059B
:10287000019719F4219758F7B12C8B2DDF91CF9147
:102880001F910F91FF90EF90DF90CF90BF90089530
:10289000CF93DF93EC010E940714BE010E94B9059B
:1028A000DF91CF9108951F93CF93DF93EB01909128
:1028B000A001992321F0CB010E94481413C0882362
:1028C00049F0CB010E940714182F682FCE010E94F7
:1028D000AC1304C0CB010E94DB13182FBE01812F63
:1028E0000E94B905DF91CF911F910895809109024F
:1028F000859585958595089580910902877008953D
:1029000090910902977081E009F480E00895809128
:102910002D02089590912D02892B80932D02089508
:10292000809590912D02892380932D020895109215
:102930002D02089590912C02892B80932C020895EA
:10294000809590912C02892380932C0208951092F7
:102950002C02089590912B02892B80932B020895CD
:10296000809590912B02892380932B0208951092D9
:102970002B02089580910A02089508950C94BD14C5
:1029800090910A02981721F080930A020C94BE14C9
:10299000089580910A02882329F010920A0280E0AB
:1029A0000C94BE140895E0910001F0910101809112
:1029B0002D028083E0910001F091010190818091CE
:1029C0002C02892B8083E0910001F091010190811C
:1029D00080912B02892B808380910A02882381F0C9
:1029E000E0910001F09101019081892B8083809119
:1029F0000001909101010E94DE1581110E94C9140D
:102A000080910001909101010C945E0A08950C944C
:102A1000061598E0899F90011124262B2093090226
:102A20000E940E13809109028595859585950C94D9
:102A300007151092090280E00C94071520910902F5
:102A40008095822380930902982F977079F430E063
:102A5000482F082E000C550B2417350739F08595A3
:102A6000859585950E942F130C941915089580E083
:102A700090E00E94ED2021E08C3E9E4F09F020E086
:102A8000822F089582E090E00C94E52083E090E0AE
:102A90000C94E520CF9384E090E00E94E520C82FBD
:102AA00081E290E00E94E5202C2F30E0A901582B14
:102AB000CA01CF910895CF93C92F682F84E090E089
:102AC0000E94F3206C2F81E290E0CF910C94F320D0
:102AD000AB01BC018FE090E00C940521AB01BC017F
:102AE00083E190E00C94052160E070E0CB010C9450
:102AF0006E1560E070E0CB010E9468150C947415AF
:102B00006CEE7EEF80E090E00E94112160E082E0B8
:102B100090E00E94F32060E083E090E00E94F320C8
:102B200010920502109206021092070210920802FB
:102B300060E084E090E00E94F32060E081E290E0B9
:102B40000E94F32060E085E090E00E94F32060E0C6
:102B500086E090E00E94F3206FEF87E090E00E9413
:102B6000F32040E050E0BA0188E090E00E940521A7
:102B700060E08DE090E00E94F32040E050E0BA0178
:102B800088E190E00E94052160E087E190E00E94EA
:102B9000F32040E050E0BA018CE190E00E94052172
:102BA00060E080E290E00E94F3200C9479150C9490
:102BB0008015682F8EE090E00C94F320FC01329693
:102BC00080911401882331F08091770287FF02C041
:102BD0009EE101C096E080E0915028F021912223EF
:102BE000D9F38F5FF9CF0895662369F1209114011D
:102BF000222321F02091770227FD04C0FC013296A8
:102C000008961DC0262F2695269526952E31D8F498
:102C1000FC01E20FF11D2281822F90E0677021E01C
:102C200030E002C0220F331F6A95E2F728233923D0
:102C300081E0232B59F407C0E817F90721F021910F
:102C40002613FACF02C080E0089581E008959C0128
:102C5000FC0132969FEF80E04191461789F09F3F3B
:102C600019F4411101C0982F8F5F8630A9F79F3F5B
:102C700039F0F901E90FF11D97FDFA956283089586
:102C80000895FC01329608962081261301C0108217
:102C90003196E817F907C1F70895262F269526954E
:102CA00026952E3168F4FC01E20FF11D677021E0DA
:102CB00030E001C0220F6A95EAF78281282B228337
:102CC0000895262F2695269526952E3170F4FC0121
:102CD000E20FF11D677021E030E001C0220F6A951C
:102CE000EAF72095828128232283089520911401F8
:102CF000222329F02091770227FD0C944D160C9485
:102D0000271620911401222329F02091770227FD14
:102D10000C9461160C94411620911401FC0132961A
:102D2000222331F08091770287FF02C08EE101C03B
:102D300086E0DF011D928A95E9F7089508950C94C5
:102D40009E160E94EA0E0E94520A0E9445050C94AB
:102D50009F161F920F920FB60F9211248F939F937D
:102D6000AF93BF9380912F02811113C080917302A2
:102D700090917402A0917502B09176024196A11DC6
:102D8000B11D8093730290937402A0937502B09367
:102D90007602BF91AF919F918F910F900FBE0F90D0
:102DA0001F90189582E084BD93E095BD9AEF97BD82
:102DB00080936E0008952FB7F894809173029091DC
:102DC0007402A0917502B09176022FBF08959C0104
:102DD0004FB7F8948091730290917402A09175029C
:102DE000B09176024FBF821B930B089578941F9287
:102DF0000F920FB60F9211248F939F93AF93BF93AF
:102E00008091730290917402A0917502B091760244
:102E10000196A11DB11D8093730290937402A0933B
:102E20007502B0937602BF91AF919F918F910F90F1
:102E30000FBE0F901F90189581E08093E00080E214
:102E40008093D8001092C9008FE19EE40197F1F7BA
:102E500000C0000087E090EBDC0180938602909335
:102E60008702A0938802B09389029CE088E10FB6A4
:102E7000F894A895809360000FBE90936000FFCFF8
:102E80000E943715811102C00E94D7150E94421579
:102E900080932E020E944A159093780280937702C5
:102EA0000E944615682F70E080E090E00E94AE120C
:102EB00060910102709102028091030290910402DC
:102EC0000C94E6128091360280FF0BC060910701DE
:102ED00085E0689FB0011124759567957595679594
:102EE0002BC081FF09C06091070185E0689FB00198
:102EF00011247595679520C082FF07C06091070176
:102F000085E0689FB001112417C090913502992384
:102F1000D1F060910601961788F72091070185E0AE
:102F2000289F90011124929FA001939F500D11247E
:102F300070E0CA010E94B7206038710540F4611545
:102F4000710539F002C065E070E0862F08958FE7C3
:102F5000089581E008958091360280FF08C0609155
:102F6000030170E0759567957595679521C081FFA0
:102F700006C06091030170E07595679519C082FFE6
:102F800004C06091030170E010C090913402992355
:102F9000C1F0609102019617A0F780910301899F0B
:102FA000C001112470E00E94B7206038710528F438
:102FB0006115710521F0862F08958FE7089581E04E
:102FC000089561E070E0F4CF803F21F40E94621721
:102FD000819504C0813F29F40E94621780933A02D0
:102FE0000895823F21F40E946217819504C0833FB7
:102FF00029F40E946217809339020895893F19F4D9
:103000000E94AB1705C08A3F31F40E94AB1781952F
:1030100080933B0208958B3F21F40E94AB1781956A
:1030200004C08C3F29F40E94AB1780933C020895A2
:10303000843F21F480913802816017C0853F21F4DC
:1030400080913802826011C0863F21F4809138025D
:1030500084600BC0873F21F480913802886005C0EE
:10306000883F31F48091380280618093380208955E
:103070008D3F21F48091360281600BC08E3F21F498
:1030800080913602826005C08F3F29F4809136021C
:103090008460809336020895803F39F480913A022B
:1030A00087FF6AC010923A0267C0813F29F480917D
:1030B0003A021816BCF360C090913902823F29F49D
:1030C00097FF5AC01092390257C0833F19F419165E
:1030D000CCF352C090913B02893F31F419160CF0A9
:1030E0004BC010923B0248C08A3F19F497FF44C07E
:1030F000F8CF8B3F39F480913C0287FF3DC010929E
:103100003C023AC08C3F29F480913C021816BCF373
:1031100033C0843F21F4809138028E7F17C0853FF1
:1031200021F4809138028D7F11C0863F21F4809177
:1031300038028B7F0BC0873F21F480913802877F54
:1031400005C0883F31F4809138028F7E8093380229
:1031500013C08D3F21F4809136028E7F0BC08E3FCD
:1031600021F4809136028D7F05C08F3F29F4809134
:1031700036028B7F8093360280913902811106C01E
:1031800080913A02811102C01092350280913B0277
:10319000811106C080913C02811102C0109234025C
:1031A00008950E94DB1620913902211104C020915C
:1031B0003A02222321F0909333028093320220912D
:1031C0003B02211104C020913C02222321F0909364
:1031D00031028093300287E392E00C94780AEF92F8
:1031E000FF920F931F93CF93DF9300D000D000D0B6
:1031F000CDB7DEB786E0E7E3F2E0DE01119601909D
:103200000D928A95E1F7E0903902F0903A02009130
:103210003B0210913C021092390210923A02109235
:103220003B0210923C02E11003C0FF2009F45DC094
:1032300080913202909133020E94E716AC01909186
:103240003502992339F02091080130E02417350721
:1032500058F04BC0209109018AE0289F9001112469
:103260002417350718F041C09F3F19F09F5F9093D6
:103270003502EE2061F00E9462171E1414F09FEFD9
:1032800001C091E0989F902D112490933902FF2066
:1032900061F00E9462171F1414F09FEF01C091E0CB
:1032A000989F902D112490933A0230913902332344
:1032B000E1F020913A022223C1F045EB3403C00132
:1032C0001124892F990F990B009709F481E08093BD
:1032D000390235EB2303C0011124892F990F990B73
:1032E000009709F481E080933A02011103C0112391
:1032F00009F45DC080913002909131020E94E7167E
:10330000AC0190913402992339F02091040130E00E
:103310002417350758F04BC0209105018AE0289FFB
:10332000900111242417350718F041C09F3F19F070
:103330009F5F90933402002361F00E94AB17101638
:1033400014F09FEF01C091E0989F902D112490936D
:103350003B02112361F00E94AB17111614F09FEF8E
:1033600001C091E0989F902D112490933C023091E0
:103370003B023323E1F020913C022223C1F045EBD4
:103380003403C0011124892F990F990B009709F478
:1033900081E080933B0235EB2303C0011124892F88
:1033A000990F990B009709F481E080933C0280917A
:1033B000390281110BC080913A02811107C08091BE
:1033C0003B02811103C080913C0281110E94D118FF
:1033D000EB82FC820D831E8386E0FE013196A7E31B
:1033E000B2E001900D928A95E1F726960FB6F89417
:1033F000DEBF0FBECDBFDF91CF911F910F91FF9028
:10340000EF900895E7E3F2E086E0DF011D928A95F0
:10341000E9F71092350210923402109236020895A4
:1034200080915D020895CF93DF9300D01F92CDB7B6
:10343000DEB790917D02943019F589837B836A838E
:1034400082E08093E9008FEF9091E800815095FD34
:1034500006C095ED9A95F1F700008111F5CF8091A6
:10346000E80085FF0DC040E050E063E070E0CE0171
:1034700001960E941B1C8091E8008E778093E800E3
:103480000F900F900F90DF91CF910895BC0184E0D1
:103490000C94131ABC0183E00C94131A22E02093BD
:1034A000E9002FEF3091E800215035FD06C035EDE1
:1034B0003A95F1F700002111F5CF2091E80025FFA2
:1034C0000BC040E050E066E070E00E941B1C809161
:1034D000E8008E778093E8000895CF93DF932091E2
:1034E0001401222339F02091770227FF03C060E204
:1034F00022E002C068E021E02093E9002FEF309144
:10350000E800215035FD06C035ED3A95F1F7000091
:103510002111F5CF2091E80025FF1DC0EC0180911D
:103520001401811105C040E050E068E070E003C084
:1035300070E040E050E0CE010E941B1C8091E8004A
:103540008E778093E80080E2FE01ADE3B2E0019067
:103550000D928A95E1F7DF91CF91089580917C02D9
:10356000811109C00E94B01D0E940D1E8091E200D1
:1035700084608093E200089510927C02089508957B
:1035800008950C94A11642E061EC81E00E942A1D8E
:1035900042E261EC82E00C942A1D80917F0283302C
:1035A00009F460C030F4813071F0823009F499C0C0
:1035B00008958A3009F485C08B3009F46BC08930D6
:1035C00009F0A7C020C080917E02813A09F0A1C015
:1035D0008091E800877F8093E8008091820290913B
:1035E0008302892B21F460E28DE392E003C060E066
:1035F00080E090E070E00E94661C8091E8008B778C
:103600008093E800089580917E02813209F081C0A4
:103610008091820290918302029708F07AC0809193
:10362000E800877F8093E8008091E80082FD05C074
:1036300080917D028111F8CF6CC02091F3008091C0
:10364000F20090E0922B029729F48091F1008B7F99
:10365000813021F48091F10080935D028091E80037
:103660008B7753C080917E02813A09F052C08091DD
:10367000820290918302892B09F04BC08091E8006F
:10368000877F8093E8008091E80080FFFCCF8091E5
:10369000140136C080917E028132D9F58091820278
:1036A00090918302892BA9F58091E800877F809310
:1036B000E8000E945F1D80918002809314010C94A9
:1036C000EA0E80917E02813221F58091E800877FA9
:1036D0008093E8000E945F1D8091810280935E02CA
:1036E000089580917E02813AA1F48091E800877F5D
:1036F0008093E8008091E80080FFFCCF80915E021B
:103700008093F1008091E8008E778093E8000C941C
:103710005F1D089584B7877F84BF0FB6F894A8957E
:1037200080916000886180936000109260000FBEFD
:1037300090E080E80FB6F894809361009093610068
:103740000FBE0E94BF0A0E94B01D0E940D1E8091F4
:10375000E20084608093E20078940E949C200E94A2
:10376000C90A8AE091E00E944D0A0E94D10AFDCF69
:103770000C94BA1B292F332723303105C9F064F488
:103780002130310581F02230310509F04CC08BE346
:1037900090E022E434E04BC02132310521F12232A5
:1037A000310589F140C082E190E02DE734E03FC06F
:1037B00099278130910571F02CF4892BA1F5EEE366
:1037C000F4E00DC08230910541F0039761F5E2E02D
:1037D000F4E005C0EAE1F4E002C0E8E0F4E084913E
:1037E00090E09F0124C06115710541F061307105C1
:1037F000D1F489E090E02DE634E019C089E090E052
:1038000024E534E014C06115710541F061307105A3
:1038100051F48CEB90E02FE834E009C080E490E0B4
:103820002BE435E004C080E090E020E030E0FA01D5
:10383000318320830895CF92DF92EF92FF920F930E
:103840001F93CF93DF93EC018B016A010E947E1DD1
:10385000811133C0C114D10439F0F6018081918106
:10386000081B190BC80FD91FE12CF12C01151105EC
:1038700019F18091E80085FD16C08091E8008E77EF
:103880008093E800C114D10449F0F6018081918150
:10389000E80EF91EF182E08285E00FC00E947E1DD5
:1038A000882321F30AC089918093F1000150110906
:1038B000FFEFEF1AFF0ADACF80E0DF91CF911F917F
:1038C0000F91FF90EF90DF90CF90089520918402A8
:1038D000309185022617370748F06115710539F4D4
:1038E0002091E8002E772093E80001C0B90140E064
:1038F00061157105A9F120917D02222309F443C0CD
:10390000253009F442C02091E80023FD40C02091F9
:10391000E80022FD32C02091E80020FFE9CF40916D
:10392000F3002091F20030E0342BFC01CF0161154F
:10393000710559F02830310540F481918093F100F0
:10394000615071092F5F3F4FF1CF41E028303105C1
:1039500009F040E02091E8002E772093E800C8CFDE
:103960004111C9CF0AC080917D02882361F0853062
:1039700061F08091E80083FD0AC08091E80082FF39
:10398000F2CF80E0089582E0089583E0089581E019
:10399000089520918402309185022617370748F058
:1039A0006115710539F42091E8002E772093E80025
:1039B00001C0B901FC0120E06115710591F1809110
:1039C0007D02882309F440C0853009F43FC080910E
:1039D000E80083FD3DC08091E80082FD2FC080910A
:1039E000E80080FFE9CF2091F3008091F20090E0A1
:1039F000922B6115710559F08830910540F424919E
:103A00002093F1003196615071090196F2CF21E0C7
:103A1000089709F020E08091E8008E778093E80015
:103A2000CBCF2111CCCF0AC080917D02882361F0D9
:103A3000853061F08091E80083FD0AC08091E80044
:103A400082FFF2CF80E0089582E0089583E0089538
:103A500081E00895982F973058F59093E9009817D2
:103A600039F07091EC002091ED005091F00003C00E
:103A7000242F762F50E021FF19C03091EB003E7FBC
:103A80003093EB003091ED003D7F3093ED003091AD
:103A9000EB0031603093EB007093EC002093ED006D
:103AA0005093F0002091EE0027FF07C09F5FD3CF17
:103AB0008F708093E90081E0089580E008958091FF
:103AC0007E0287FF11C08091E80082FD05C08091D1
:103AD0007D028111F8CF11C08091E8008B770BC077
:103AE00080917D02882349F08091E80080FFF8CF23
:103AF0008091E8008E778093E80008952091E4009B
:103B00003091E50095E64091EC00842F817040FFF4
:103B100022C08091E80080FD1CC080917D02882336
:103B200091F0853091F08091EB0085FD10C04091BF
:103B3000E4005091E5004217530729F39A01915090
:103B400011F784E0089582E0089583E0089581E00C
:103B5000089580E008954091E80042FFDECF089587
:103B60000E941E1E0E94261EE0EEF0E08081816011
:103B70008083E8EDF0E080818F77808319BCA7ED2A
:103B8000B0E08C918E7F8C9380818F7E80831092A9
:103B90007C0208950F931F93CF93DF930E941E1E04
:103BA0000E94261EC8EDD0E088818F7788838881A7
:103BB0008068888388818F7D888319BC10927D02FC
:103BC0001092790210927B0210927A0200EE10E0BD
:103BD000F80180818B7F808388818160888342E0C7
:103BE00060E080E00E942A1DE1EEF0E080818E7F9F
:103BF0008083E2EEF0E08081816080838081886054
:103C00008083F80180818E7F8083888180618883B2
:103C1000DF91CF911F910F910895E8EDF0E0808141
:103C20008F7E8083E7EDF0E080818160808384E097
:103C300082BF81E080937C020C94CA1DE8EDF0E025
:103C400080818E7F80831092E20008951092DA00C6
:103C50001092E10008951F920F920FB60F92112457
:103C60002F933F934F935F936F937F938F939F9384
:103C7000AF93BF93EF93FF938091E10082FF0BC05E
:103C80008091E20082FF07C08091E1008B7F8093EA
:103C9000E1000E949B208091DA0080FF1FC080918C
:103CA000D80080FF1BC08091DA008E7F8093DA00FD
:103CB0008091D90080FF0DC080E189BD82E189BD7E
:103CC00009B400FEFDCF81E080937D020E94AE1A10
:103CD00005C019BC10927D020E94BC1A8091E100BF
:103CE00080FF19C08091E20080FF15C08091E20042
:103CF0008E7F8093E2008091E20080618093E200F9
:103D00008091D80080628093D80019BC85E08093B0
:103D10007D020E94C01A8091E10084FF30C0809132
:103D2000E20084FF2CC080E189BD82E189BD09B435
:103D300000FEFDCF8091D8008F7D8093D8008091C8
:103D4000E1008F7E8093E1008091E2008F7E80937E
:103D5000E2008091E20081608093E200809179022C
:103D6000882311F084E007C08091E30087FD02C042
:103D700081E001C083E080937D020E94C11A80919E
:103D8000E10083FF29C08091E20083FF25C080917C
:103D9000E100877F8093E10082E080937D021092B2
:103DA00079028091E1008E7F8093E1008091E200B2
:103DB0008E7F8093E2008091E20080618093E20038
:103DC00042E060E080E00E942A1D8091F00088605F
:103DD0008093F0000E94BF1AFF91EF91BF91AF91C5
:103DE0009F918F917F916F915F914F913F912F9113
:103DF0000F900FBE0F901F9018951F920F920FB645
:103E00000F9211242F933F934F935F936F937F9360
:103E10008F939F93AF93BF93CF93DF93EF93FF93D2
:103E2000C091E900CF708091EC00D82FD17080FD57
:103E3000D0E81092E9008091F000877F8093F00035
:103E400078940E94411F1092E9008091F0008860F0
:103E50008093F000CD2BCF70C093E900FF91EF91DC
:103E6000DF91CF91BF91AF919F918F917F916F9192
:103E70005F914F913F912F910F900FBE0F901F9028
:103E800018951F93CF93DF93CDB7DEB7AA970FB6E0
:103E9000F894DEBF0FBECDBFEEE7F2E088E08E0FF4
:103EA0009091F10091938E13FBCF0E94CD1A8091D7
:103EB000E80083FF28C180917E0290917F02492F04
:103EC00050E04A30510508F01EC1FA01EC58FF4F8E
:103ED0000C94CB20803821F0823809F014C108C03E
:103EE00080917A0290917B02992389F082600FC0C1
:103EF000809182028F70873008F005C18093E900BD
:103F00008091EB0085FB882780F91092E900909161
:103F1000E800977F9093E8008093F1001092F10001
:103F2000D0C0282F2D7F09F0EEC0882319F08230F1
:103F300061F0E9C080918002813009F0E4C09330E3
:103F400009F080E080937B022EC080918002811175
:103F50002AC0809182028F702FEF280F263008F040
:103F6000D2C08093E9002091EB0020FF1CC0933069
:103F700021F48091EB00806214C09091EB0090617D
:103F80009093EB0021E030E0A90102C0440F551FDF
:103F90008A95E2F74093EA001092EA008091EB00E4
:103FA00088608093EB001092E9008091E800877FA1
:103FB0008093E8000E945F1DA6C08111A4C01091EB
:103FC00080021F778091E3008078812B8093E3004B
:103FD0008091E800877F8093E8000E945F1D8091B8
:103FE000E80080FFFCCF8091E30080688093E300CD
:103FF000111102C082E001C083E080937D0283C082
:104000008058823008F07FC08091800290918102B8
:104010008C3D53E0950779F583E08A838AE28983B2
:104020004FB7F894DE01139620E03EE051E2E32F13
:10403000F0E050935700E49120FF03C0E295EF7049
:104040003F5FEF708E2F90E0EA3010F0C79601C00E
:10405000C0968D939D932F5F243149F74FBF809178
:10406000E800877F8093E8006AE270E0CE01019665
:104070000E94661C15C06091820270918302AE019D
:104080004F5F5F4F0E94B81BBC01892BE1F19091FB
:10409000E800977F9093E80089819A810E94C91C6B
:1040A0008091E8008B778093E8002DC0803859F527
:1040B0008091E800877F8093E80080917902809367
:1040C000F1008091E8008E7773CF81111CC0909130
:1040D00080029230C0F48091E800877F8093E800EE
:1040E000909379020E945F1D80917902811106C030
:1040F0008091E30087FD02C081E001C084E08093ED
:104100007D020E94C31A8091E80083FF0AC080915B
:10411000E800877F8093E8008091EB0080628093C5
:10412000EB00AA960FB6F894DEBF0FBECDBFDF91AD
:10413000CF911F9108950895CF9380917D02882398
:10414000A1F0C091E900CF709091EC00892F8170AF
:1041500090FD80E8C82B1092E9008091E80083FD73
:104160000E94411FCF70C093E900CF91089597FB43
:10417000072E16F4009407D077FD09D00E94D120B5
:1041800007FC05D03EF4909581959F4F089570955A
:1041900061957F4F0895EE0FFF1F0590F491E02D7C
:1041A0000994AA1BBB1B51E107C0AA1FBB1FA6177E
:1041B000B70710F0A61BB70B881F991F5A95A9F7D0
:1041C00080959095BC01CD010895F999FECF92BDDF
:1041D00081BDF89A992780B50895A8E1B0E042E042
:1041E00050E00C941921262FF999FECF92BD81BD84
:1041F000F89A019700B4021639F01FBA20BD0FB625
:10420000F894FA9AF99A0FBE08950396272F0E9400
:10421000F4200E94F320252F0E94F420242F0C94D8
:10422000F4200196272F0E94F4200C94F320DC0147
:10423000CB01FC01F999FECF06C0F2BDE1BDF89AB1
:10424000319600B40D9241505040B8F70895F8945B
:02425000FFCF9E
:104252000B022808641E140A321E101A6D1A4E1A16
:104262004A1A461A01F530313233379293959496B1
:1042720097F0F1F4F6F7E200E900EA00B500B600C3
:10428200B700CD008301CC008A0192019401210282
:10429200230224022502260227022A02B300B400C6
:1042A2006F007000818283E200E900EA00B500B687
:1042B20000B700CD008301CC008A01920194012154
:1042C20002230224022502260227022A02B300B494
:0842D200006F0070008182837F
:00000001FF
