:100000000C94CA020C9411030C9411030C94110368
:100010000C9411030C9411030C9411030C94110310
:100020000C9411030C9411030C94BC1E0C948E1FA1
:100030000C94031A0C9411030C9411030C941103E7
:100040000C9411030C9411030C9411030C941103E0
:100050000C9411030C945C1A0C9411030C9411036E
:100060000C9411030C9411030C9411030C941103C0
:100070000C9411030C9411030C9411030C941103B0
:100080000C9411030C9411030C9411030C941103A0
:100090000C9411030C9411030C9411030C94110390
:1000A0000C9411030C9411030C941103970F970FE8
:1000B000C90FC90F10102E104F114F113910CE104B
:1000C000DF10DF103F114F114F114811EF11EF11E9
:1000D00001120112F811011201120112EF11EF11B8
:1000E000FD1101120112FD11FB1F22201A212220F5
:1000F0001A216E2091201A21E820F7200102E00148
:1001000002E201024C0103E00103E201034C005F43
:100110005D00000F08AE00A800AA00A900000000C2
:1001200000000000000000290014001A000800155B
:100130000017001C0018000C00120013002A002BEE
:100140000004001644074309420A000B000D420E4A
:10015000430F4434002800E1001D001B0006001975
:10016000000500110010003600370038000153E090
:1001700000E300E20000000000000000002C71001D
:1001800000500051004F001E0000001F0020002101
:100190000022002300000000000000000000000119
:1001A0000001000100010001000100010001000147
:1001B0000001000100010001000100160007000914
:1001C00000010001000D000E000F00010001000100
:1001D0000001000100010001000100010001000117
:1001E00000010052000100010001000100010001B6
:1001F00000000000002C0001000100010001001EB1
:100200000000001F00200021002200230000000049
:100210000000000000000035022F00610060005F58
:100220000030004B004A0052004D0049004C005382
:100230000033005E005D005C002E004E0050005157
:10024000004F000100000001002D005B005A005922
:10025000003100000000000000000052000000E239
:1002600000630062000000000000000000010000C8
:1002700000010001000100240000002500260027E5
:1002800000260227020000000000000000000035E8
:10029000022F022602250224023002F900F100EDAD
:1002A00000F200F400F3003900330223022202219D
:1002B000025700FA00EF00EE00F000F50000000128
:1002C000002D0220021F021E023102FB00FD00FE73
:1002D00000FF00FC000000010026022702000000D1
:1002E000000000000001000000000000000000000D
:1002F00000000000000000000000000000000000FE
:1003000000000000000000005C430042004100408B
:10031000004600CA5CC55CA900C45CC65CC35C0046
:100320000044003F003E003D004700CB5CAC00AA0B
:1003300000AB00C75C0000010045003C003B003AF8
:100340000048000000AE00AD00A800000000000062
:10035000000000000000000000000000000100009C
:100360000000000000000000000000000000002A63
:100370002B2800000000000000000000000000002A
:10038000000029000000002C1E34202122243426E5
:1003900027252E362D3738271E1F202122232425DE
:1003A000263333362E37381F0405060708090A0B93
:1003B0000C0D0E0F101112131415161718191A1B05
:1003C0001C1D2F3130232D350405060708090A0BA3
:1003D0000C0D0E0F101112131415161718191A1BE5
:1003E0001C1D2F3130354C000000000000000000C3
:1003F00000000000000000000000000000000000FD
:1004000000000000000000000000007E0F00D4FF8C
:10041000FFFFC7000000781003560034004E003480
:1004200000470030004E00000022035400680065C1
:1004300000560061006E0020004B006500790062EC
:10044000006F006100720064007300000004030983
:100450000409023B00020100A0320904000001036C
:10046000010100092111010001224000070581035B
:1004700008000A090401000103000000092111011C
:10048000000122B6000705820320000A12011001B4
:1004900000000008AEFE47880100010200010501CE
:1004A0000902A10185020901A10005091901290814
:1004B00015002501950875018102050109300931F2
:1004C0001581257F95027508810609381581257FDC
:1004D000950175088106050C0A38021581257F955E
:1004E0000175088106C0C005010980A101850319B5
:1004F000012AB700150126B700950175108100C0CB
:10050000050C0901A101850419012AA00215012683
:10051000A002950175108100C005010906A10185A1
:1005200005050719E029E7150025019508750181E2
:10053000020507190029EF1500250195F0750181C5
:1005400002050819012905950575019102950175A6
:10055000039101C005010906A101050719E029E77A
:100560001500250195087501810295017508810125
:100570000507190029FF150026FF0095067508815B
:100580000005081901290595057501910295017568
:10059000039101C011241FBECFEFDAE0DEBFCDBF53
:1005A00004B603FE27C08091900290919102A09121
:1005B0009202B09193028730904BA740B04BD1F498
:1005C0001092900210929102109292021092930255
:1005D00014BE84B7877F84BF0FB6F894A895809126
:1005E0006000886180936000109260000FBEE0E0C0
:1005F000F8E3099511E0A0E0B1E0E0E8F3E402C01F
:1006000005900D92A838B107D9F722E0A8E8B1E02B
:1006100001C01D92A039B207E1F70E94251C0C947D
:10062000BE210C940000CF93DF93A1E2B1E046E23B
:1006300051E061E070E08D91E82FE295EF70F0E01D
:1006400021A18F70EB0102C0CC0FDD1F8A95E2F76C
:10065000CE019C2F9095922391A392A1892B82A3E6
:100660004A175B0741F7A5E1B1E041E251E061E0E3
:1006700070E08D91E82FE295EF70F0E021A18F708E
:10068000EB0102C0CC0FDD1F8A95E2F7CE019C2F53
:100690009095922391A392A1892B82A34A175B077D
:1006A00041F7DF91CF9108956F927F928F929F9241
:1006B000AF92BF92CF92DF92EF92FF920F931F9370
:1006C000CF93DF9321E2C22E21E0D22E8C015C0178
:1006D0008AE0A80EB11C712C88248394912CF60119
:1006E00081916F01C82FC295CF70D0E099A18F7012
:1006F000740101C0EE0C8A95EAF7892F8E2989A32F
:100700008AA16E2C609486218AA30E94F807E5E1F5
:10071000F1E040E050E020E030E06191A62FA295AA
:10072000AF70B0E090968C9190E06F7002C095959C
:1007300087956A95E2F780FD08C0C401042E02C0C7
:10074000880F991F0A94E2F702C080E090E0282BFE
:10075000392B4F5F5F4F4C305105F9F689A1682264
:1007600069A28AA1E82AEAA2F8018081918128176A
:10077000390721F03183208381E001C080E0782AAD
:100780000E5F1F4FA016B10609F0A9CF872DDF918C
:10079000CF911F910F91FF90EF90DF90CF90BF907E
:1007A000AF909F908F907F906F9008958F359D456B
:1007B00041F4FB018281882321F08CEF90E00E94BC
:1007C000A90581E0089541FF02C02D9A01C02D982E
:1007D00061FF02C02C9A08952C980895269A2E9AAB
:1007E000259A249A0E941F0D482F6091180270913B
:1007F000190280911A0290911B020C94E3030E944B
:100800001F0D482F609118027091190280911A02F1
:1008100090911B020C94E303CF92DF92EF92FF9230
:100820006B017C010E941F0D482FC701B6010E9479
:10083000E303C701B601FF90EF90DF90CF900895DA
:1008400081E008950C94D60308950C9424041F931A
:10085000CF93DF9300D000D01F92CDB7DEB749838E
:100860005A836B833091B70189819A81311114C009
:10087000662359F0222349F00E942817182F682F69
:1008800089819A810E94D11603C00E94FC16182FFC
:1008900069817A81812F04C00E94281769817A8139
:1008A0000F900F900F900F900F90DF91CF911F91AD
:1008B0000C94BF05FC01262F408151816281738118
:1008C00084810C942704CF93DF93EC0160E00E94B5
:1008D0005A04BE01DF91CF910C9425040E94CA07EF
:1008E0000C9403080C94FF0708950E94DD110E94E8
:1008F00074042FEF84E39CE0215080409040E1F7A6
:1009000000C000000C94821A0F931F93CF93DF93C3
:100910008C0161E00E945A04EC01B8010E9422049B
:100920008823F1F1B801CE010E946C0B8823C1F13C
:10093000B801CE010E94BE0B882391F1B801CE010F
:100940000E94E90C882361F1F8018281882309F172
:10095000CB358DE5D807C1F050F4C115FCE5DF07B4
:1009600081F0CF3DDC45A9F40E94331919C0CC3584
:10097000EDE5DE0761F0CD35DD4559F40E94BB178A
:1009800008C00E9475040CC00E94C41702C00E94D7
:10099000C717C801DF91CF911F910F910C942004CC
:1009A00080E0DF91CF911F910F910895DF92EF9238
:1009B000FF920F931F93CF93DF93E82FF0E0E95955
:1009C000FC4FD490282F26952695269530E0F901E6
:1009D000E95FFB4F0491877010E0082E02C0159567
:1009E00007950A94E2F701701127F901E950FC4FCD
:1009F000E490F12C082E02C0F594E7940A94E2F7F3
:100A000091E0E922FF24F901E951FC4FC491D0E0C3
:100A100002C0D595C7958A95E2F7C170DD2701150B
:100A2000110519F081EE0E94AC0EE114F10419F0E9
:100A300086EE0E94AC0E8D2D0E944D0FEF2819F00E
:100A400086EE0E94020F012B19F081EE0E94020F28
:100A5000CD2B51F08CE2DF91CF911F910F91FF9040
:100A6000EF90DF900C944D0FDF91CF911F910F917C
:100A7000FF90EF90DF900895EF92FF920F931F93F6
:100A8000CF93DF938C01F62E8AE0E82EF801849153
:100A9000882309F457C0813009F042C0E80121964B
:100AA000FE018491813031F42196FE0184910E94EF
:100AB0004D0F39C0823039F4E8012296FE0184914D
:100AC0000E94AC0E30C0833039F4E8012296FE015A
:100AD00084910E94020F27C0843029F5E8012296F4
:100AE000FE01249180E090E030E0205331092A306B
:100AF000310560F4E89EA001E99E500D1124C90162
:100B0000840F951F2196FE012491EECF009759F096
:100B1000EFE9FFE03197F1F700C000000197F6CF51
:100B20000E94D604E8018E010F5F1F4F8F2D88238E
:100B300009F4ACCFEFE9FFE03197F1F700C0000016
:100B40008150F5CFDF91CF911F910F91FF90EF90E2
:100B5000089560E00C943C050C94FF0381E0089537
:100B60000C94AE05CF93C82F0E94AC058C2F0E9429
:100B7000B005CF91089580E090E0089508952CE3AA
:100B8000829FC0011124FC012CE0729FE00DF11D39
:100B90001124E60FF11DEE0FFF1FE15FFE4F85915F
:100BA00094910895880F991FFC01E95EFB4F859190
:100BB00094910895CF93DF930E94BF050E94F2069F
:100BC000EC018115904508F041C0C11580E4D807BB
:100BD00008F0D1C0C83ED10510F5C03ED10508F0DF
:100BE000FDC0C83AD10578F4C53AD10508F0A2C0D5
:100BF000C130D10509F4F2C008F4EEC0C430D1050B
:100C000008F0ECC0E9C0CF3BD10508F49BC0C03C64
:100C1000D10508F4E1C0CE01805C91099EC0C115E8
:100C200090E2D90758F4C11521E0D20708F0D6C0E8
:100C3000CD3ED10508F4D0C0D065D0C0C11580E349
:100C4000D80708F08EC0CE019F7087C0C11595E50A
:100C5000D90708F043C0C11524E5D20708F0A2C0A7
:100C6000C11582E5D80708F5C11591E5D90708F047
:100C700085C0CE0174E0969587957A95E1F78370EB
:100C80009C2F937021E030E002C0220F331F9A9511
:100C9000E2F73C68382BCF70C695C69580E2C89FB6
:100CA000E0011124C22BD32B99C09E01237033275E
:100CB0008C2F86958695C115D34508F064C0C1E098
:100CC000D0E002C0CC0FDD1F2A95E2F720E2829F20
:100CD000C0011124C82BD92BDC6880C0C11529E5BF
:100CE000D207A0F4C11588E5D80708F060C0C11587
:100CF00096E5D90708F070C08C2F0E9486078F7187
:100D0000C82FD0E0DC2FCC27D06268C0C1152AE5FF
:100D1000D20708F451C0CE0190568115904208F0D8
:100D20005BC08D2F8F710E948607DD27D0628F7187
:100D3000D82B54C0C55AD0E0CC5ADE4FC881D0E081
:100D4000D0644CC0C85AD0E0CC0FDD1FCA5DDE4F66
:100D50000990D881C02DD46441C00E94D205EC0115
:100D60003DC0CE019927D3FF03C0EC01D86C36C03B
:100D7000EC01D06C33C0DF70D06A30C0DC2FCC27E0
:100D8000C16FD06A2BC0C1E0D0E002C0CC0FDD1F24
:100D90002A95E2F720E2829FC0011124C82BD92BAB
:100DA000DA681CC0DC2FCC27C46FD06A17C0DC2FD8
:100DB000CC27C06FD06A12C08C2F8F700E9486071C
:100DC00094E0D695C7959A95E1F7CF70D0E0DC2FE7
:100DD000CC27D069C82B02C0C0E0D0E0CE01DF91A3
:100DE000CF9108958238910569F1B0F4813391056E
:100DF00009F46DC048F48932910509F463C08A3260
:100E0000910509F469C008958533910509F455C029
:100E100089339105B9F00895833E910569F138F45D
:100E2000803E9105B1F0823E910509F10895863E1C
:100E30009105A9F1873E9105B9F1843E910509F02C
:100E400064C023C02091690220FD4FC021FD4DC028
:100E500008958091690280FD44C080916A0280FFFC
:100E600044C08091690284FD42C083EE4DC08091F0
:100E7000690282FF38C0F5CF8091690282FD33C0DC
:100E800080916A0280FD31C0ECCF80916A0281FFBF
:100E900032C08091690284FD2AC087EE35C08091FE
:100EA000690283FF26C0F5CF8091690283FD21C0CE
:100EB00080916A0281FD1FC0ECCF8091690285FD9F
:100EC0001CC01DC08091690285FD19C016C08091AB
:100ED000690286FD16C017C08091690286FD13C0A5
:100EE00010C089E311C082EE0FC080EE0DC080E01B
:100EF0000BC086EE09C084EE07C089E205C085E319
:100F000003C08AE201C081E390E0089590916902F4
:100F100092FF0DC0282F2871283019F4877F846034
:100F200006C0282F2471243011F48B7F886093FF32
:100F30000DC0282F2871283119F4877E846106C0DE
:100F4000282F2471243111F48B7E886120916A024C
:100F500020FF0DC0382F3871383019F4877F816039
:100F600006C0382F3171313011F48E7F886021FF37
:100F70000DC0282F2871283119F4877E816106C0A1
:100F8000282F2171213111F48E7E886194FD877E96
:100F9000089508950E948B18811102C00E94331990
:100FA0000E949618809345020E949E1890936A02B0
:100FB000809369020E94C9070E949A18682F70E006
:100FC00080E090E00E94D3156091180270911902A0
:100FD00080911A0290911B020C940B16E82FF0E0FE
:100FE000EE0FFF1FEB58FD4F80819181089508950A
:100FF00080EA8A95F1F7089508950C94FC070C9403
:10100000FD070C94FC070C9401080E941303EBE607
:10101000F2E0A5E7B2E0119211921D921D9282E0DA
:10102000E537F807C1F785E00E942B080C946E04A1
:10103000CF938BE692E00E945403C82F282F45E0FF
:1010400065E772E08BE692E00E942C080E94720431
:101050008C2FCF9108950895FF920F931F93CF93F4
:10106000DF93F82E092F162FD72FC42F222349F0F4
:1010700081E080938C010E94351A90938B018093BC
:101080008A0180918C018823D9F080918A01909106
:101090008B010E944D1A069798F0EF2DF02FA12F8B
:1010A000BD2F80E090E04C2F50E08417950734F47A
:1010B000219131912D933D930196F7CF10928C01A0
:1010C000DF91CF911F910F91FF900895809193012F
:1010D00080FF0BC06091050185E0689FB00111247D
:1010E00075956795759567952BC081FF09C06091CF
:1010F000050185E0689FB00111247595679520C0B2
:1011000082FF07C06091050185E0689FB00111244E
:1011100017C0909192019923D1F060910401961724
:1011200088F72091050185E0289F90011124929F66
:10113000A001939F500D112470E0CA010E944E211E
:101140006038710540F46115710519F406C065E059
:1011500070E0862F08958FE7089581E008958091CB
:10116000930180FF08C06091010170E0759567955B
:101170007595679521C081FF06C06091010170E0FF
:101180007595679519C082FF04C06091010170E0F8
:1011900010C090919101992399F0609100019617E8
:1011A000A0F780910101899FC001112470E00E9485
:1011B0004E216038710540F46115710519F406C0BF
:1011C00061E070E0862F08958FE7089581E008952B
:1011D0008D3E21F40E946608819504C08E3E29F45C
:1011E0000E9466088093970108958F3E21F40E9423
:1011F0006608819504C0803F29F40E9466088093A8
:1012000096010895893F19F40E94AF0805C08A3FEE
:1012100031F40E94AF0881958093980108958B3F27
:1012200021F40E94AF08819504C08C3F29F40E94EC
:10123000AF088093990108959FE0980F983078F453
:1012400021E030E0A90102C0440F551F9A95E2F752
:10125000CA0190919501892B8093950108958D3F46
:1012600021F48091930181600BC08E3F21F4809125
:101270009301826005C08F3F29F4809193018460BF
:101280008093930108958D3E39F49091970197FFD3
:1012900035C01092970159C08E3E29F49091970164
:1012A0001916BCF32BC0909196018F3E29F497FF3D
:1012B00025C01092960149C0803F19F41916CCF34D
:1012C0001DC090919801893F29F41916BCF4109221
:1012D00098013BC08A3F19F497FF10C0F8CF8B3FAD
:1012E00039F49091990197FF09C0109299012DC08E
:1012F0008C3F21F4909199011916BCF39FE0980F4F
:10130000983080F421E030E0A90102C0440F551F5D
:101310009A95E2F7CA01809590919501892380936F
:10132000950113C08D3F21F4809193018E7F0BC0F6
:101330008E3F21F4809193018D7F05C08F3F29F46A
:10134000809193018B7F809393018091960181110D
:1013500006C080919701811102C010929201809184
:101360009801811106C080919901811102C01092EB
:10137000910108950E94351A20919601211104C00F
:1013800020919701222321F09093900180938F0167
:1013900020919801211104C020919901222321F06C
:1013A00090938E0180938D0184E991E00C94450D1A
:1013B000EF92FF920F931F93CF93DF9300D000D053
:1013C00000D0CDB7DEB786E0E4E9F1E0DE011196AA
:1013D00001900D928A95E1F7E0909601F0909701C7
:1013E0000091980110919901109296011092970125
:1013F0001092980110929901E11003C0FF2009F4A6
:101400005DC080918F01909190010E944D1AAC01B6
:1014100090919201992339F02091060130E0241730
:10142000350758F04BC0209107018AE0289F9001B2
:1014300011242417350718F041C09F3F19F09F5F12
:1014400090939201EE2061F00E9466081E1414F041
:101450009FEF01C091E0989F902D112490939601E9
:10146000FF2061F00E9466081F1414F09FEF01C076
:1014700091E0989F902D11249093970130919601BF
:101480003323E1F0209197012223C1F045EB34038F
:10149000C0011124992319F09093960103C081E0B3
:1014A0008093960135EB2303C0011124992319F091
:1014B0009093970103C081E080939701011103C0CD
:1014C000112309F45DC080918D0190918E010E94DD
:1014D0004D1AAC0190919101992339F020910201AC
:1014E00030E02417350758F04BC0209103018AE003
:1014F000289F900111242417350718F041C09F3F01
:1015000019F09F5F90939101002361F00E94AF0852
:10151000101614F09FEF01C091E0989F902D1124B8
:1015200090939801112361F00E94AF08111614F0F6
:101530009FEF01C091E0989F902D11249093990105
:10154000309198013323E1F0209199012223C1F0D9
:1015500045EB3403C0011124992319F090939801AD
:1015600003C081E08093980135EB2303C00111246F
:10157000992319F09093990103C081E08093990118
:101580008091960181110BC080919701811107C054
:1015900080919801811103C08091990181110E946D
:1015A000BA09EB82FC820D831E8386E0FE01319630
:1015B000A4E9B1E001900D928A95E1F726960FB665
:1015C000F894DEBF0FBECDBFDF91CF911F910F9179
:1015D000FF90EF900895E4E9F1E086E0DF011D92CD
:1015E0008A95E9F71092920110929101109293015D
:1015F00008950F931F93CF93DF93C42FD22FFC0135
:1016000082818823C9F040939C010E94351A9093EF
:101610009B0180939A0180E28C0F883008F057C0BC
:10162000C77081E001C0880FCA95EAF7DF91CF91BA
:101630001F910F910C94560F80919C01481330C05C
:1016400080919A0190919B010E944D1A883C9105CE
:1016500038F510E21D0FCD17B9F080E28C0F8830FD
:1016600040F4C77081E001C0880FCA95EAF70E9474
:101670005D0F183028F581E09D2F977001C0880F0D
:101680009A95EAF70E94560F802F0E944D0F18304E
:10169000F0F4D77081E001C0880FDA95EAF70AC04C
:1016A00080E28C0F883098F4C77081E001C0880F09
:1016B000CA95EAF7DF91CF911F910F910C945D0FBE
:1016C000802FDF91CF911F910F910C944D0FDF91DF
:1016D000CF911F910F9108950F939C01CB01243F4F
:1016E0004CE5340731F188F4293DFCE53F07D9F09A
:1016F0002A3D4CE5340779F1283D3C45A9F506E241
:1017000021EE41EE68ED7CE52BC0263FFCE53F076E
:10171000E1F0A8F0273F3C4539F507E225EE46EE1B
:1017200067EF7CE51DC007E225EE45EE69ED7CE53F
:1017300017C006E221EE40EE64EF7CE511C007E23F
:1017400025EE44EE65EF7CE50BC006E221EE42EEAD
:1017500066EF7CE505C008E221E045EE6AED7CE538
:101760000E94F90A80E008C0FC018281882319F0F8
:1017700010929C0101C081E00F910895CF93DF93F7
:10178000EC01FB018281882309F41FC1C230FCE512
:10179000DF0708F41BC1C6319CE5D90738F09E016C
:1017A0002B5F3C452930310508F010C10E949E187E
:1017B00090936A0280936902C031ECE5DE0709F478
:1017C000C3C008F041C0C8308CE5D80709F49AC0FE
:1017D000F0F4C430ECE5DE0709F487C068F4C230E9
:1017E0008CE5D80709F477C0C330DC4509F0E3C0C5
:1017F00080916902826076C0C630ECE5DE0709F4AC
:101800006EC008F07BC08091690288606BC0CC30EC
:101810008CE5D80709F485C068F4CA30ECE5DE072A
:1018200009F474C008F079C00E94DD11809169024A
:10183000806858C0CE308CE5D80709F476C008F02F
:101840007FC0809169028BC0CC3FECE5DE0709F4D4
:101850004FC018F5C3318CE5D80709F47DC078F482
:10186000C131ECE5DE0709F473C0C231DC4509F093
:10187000A2C00E94DD11809169028F7733C0C5310B
:101880008CE5D80709F472C008F486C0CB3FDC456C
:1018900009F091C080916A023EC0C115FDE5DF07E5
:1018A00009F45FC058F4CE3F9CE5D90709F444C061
:1018B00008F43FC080916A0282602DC0C230FDE50D
:1018C000DF0709F475C008F45DC0C330DD4509F0D9
:1018D00072C080E06EC080916902816003C0809117
:1018E000690280618093690266C08091690211C0BB
:1018F00080916A02826080936A025DC08091690271
:101900008062F0CF809169028064ECCF809169029F
:1019100088608460E7CF8160EECF809169028E7F1E
:10192000E1CF809169028D7FDDCF80916902877F51
:10193000D9CF80916A0218C080916A028D7FDBCF77
:10194000809169028F7ECECF809169028F7DCACF50
:10195000809169028F7BC6CF80916902877F8B7FE0
:10196000C1CF80916A028D7F8E7FC5CF8091690241
:1019700082FB222720F991E0922790FB82F990FBCD
:1019800083F9B0CF80916A02982F909591708E7FE5
:10199000892B90FB81F9AFCF0E94DD118091690204
:1019A00087FB222720F991E0922790FB87F99ACFB5
:1019B00081E00E9435198091690290916A020E942B
:1019C000AF180E94DD1180E001C081E0DF91CF916E
:1019D0000895CF93DF9386319C4541F5EB010E943A
:1019E000CA17982F8A812091080130910901882314
:1019F00079F09A7A81E009F480E080939D01911159
:101A000002C069E201C065E3C9010E94D0190AC0A1
:101A100080919D01811102C069E201C065E3C901A5
:101A20000E94DB190E941C1880E001C081E0DF9158
:101A3000CF9108959093A3018093A2010895E0911E
:101A4000A201F091A301309721F00190F081E02DE7
:101A5000099480E00895E091A201F091A3013097EC
:101A600099F020911401222359F02091690227FF57
:101A700007C0DC012C9111962C93119725E02C9333
:101A80000280F381E02D09940895E091A201F09184
:101A9000A301309739F022E0DC012C930480F5811A
:101AA000E02D099408952091A0013091A1012817FB
:101AB000390771F09093A1018093A001E091A201F8
:101AC000F091A301309721F00680F781E02D099471
:101AD000089520919E0130919F012817390771F0D8
:101AE00090939F0180939E01E091A201F091A30148
:101AF000309721F00084F185E02D099408950E942B
:101B0000411A6093B3017093B4018093B50190932F
:101B1000B6016093AF017093B0018093B1019093CF
:101B2000B201089585B7806885BF85B7806885BF95
:101B3000089581E008950C94990D08950C949D0DDD
:101B40000C94EE030C949D0D0C94A20D0C949D0D21
:101B50000E94920D89E898E10E94A61A0E94A60DA3
:101B60000C94A40D0E949E0D0C949D0D0E942C1AA5
:101B70000E9405080C94A00D6F927F928F929F9205
:101B8000AF92BF92CF92DF92EF92FF920F931F938B
:101B9000CF93DF93CDB7DEB72A970FB6F894DEBFA9
:101BA0000FBECDBF0E94180881110E947F0D35EA3B
:101BB000832E31E0932E00E010E0C02E802F0E9493
:101BC000EE075C01F401619071904F01682679265F
:101BD00061147104B1F40F5F1F4F0530110569F7EF
:101BE0008FEF89838A831B820E94351A8160782F48
:101BF0009D838C8349815A816B818D810E94720EF5
:101C00003AC08091450281FD0E94F707D12CEE2455
:101C1000E394F12CC3018E219F21892B29F10E948D
:101C20009B0D8823A9F0DE82CF82AE20BF2081E009
:101C3000AB2809F480E088870E94351A8160782FEC
:101C40009A8789874E815F8168858A850E94720E96
:101C5000000F111FF801EB55FE4F80819181E8269E
:101C6000F926F182E08207C0D394EE0CFF1CFCE061
:101C7000DF12D0CFB0CF0E94D8090E941F0D9091E3
:101C8000A4018917D1F00E941F0D8093A4012A9608
:101C90000FB6F894DEBF0FBECDBFDF91CF911F917D
:101CA0000F91FF90EF90DF90CF90BF90AF909F90FB
:101CB0008F907F906F900C94B2052A960FB6F8948F
:101CC000DEBF0FBECDBFDF91CF911F910F91FF906F
:101CD000EF90DF90CF90BF90AF909F908F907F90CC
:101CE0006F900895DF92EF92FF920F931F93CF931F
:101CF000DF93CDB7DEB72B970FB6F894DEBF0FBEDC
:101D0000CDBFF42E052F162FE72ED82E61110E947D
:101D1000EA17FE01319686E0DF011D928A95E9F708
:101D20007E2D4F2D502F612F8D2D9E810E94961458
:101D30002B960FB6F894DEBF0FBECDBFDF91CF91CB
:101D40001F910F91FF90EF90DF900895FC0180812B
:101D500091810E946A170895CF93882309F450C097
:101D6000C82F8CEF8C0F813AD0F46C2F8091080132
:101D7000909109010E945019882349F06C2F80919D
:101D80000801909109010E94DB190E941C186C2F18
:101D900080910801909109010E94D0190CC080E245
:101DA0008C0F883058F4C77081E001C0880FCA9545
:101DB000EAF70E94CD17CF910C941C18EBE5EC0FBD
:101DC000E33040F4F0E0EB57FE4F808190E0CF919C
:101DD0000C94530DE8E5EC0FE73150F4F0E0EE0F12
:101DE000FF1FE95AFE4F80819181CF910C94690DBC
:101DF000CD3E30F08C2F0E94E808CF910C94BA09A8
:101E0000CF910895882389F19CEF980F913A40F47F
:101E1000682F80910801909109010E94DB190DC083
:101E200090E2980F983058F4877091E001C0990FB4
:101E30008A95EAF7892F0E94D3170C941C189BE50A
:101E4000980F933020F480E090E00C94530D98E5C7
:101E5000980F973120F480E090E00C94690D8D3E4E
:101E600020F00E9443090C94BA0908951F93CF9360
:101E7000DF93182FEB010E94AC0E209741F08FE901
:101E80009FE00197F1F700C000002197F6CF812F66
:101E9000DF91CF911F910C94020F893319F060E00C
:101EA00070E002C060E570E00C94360F882321F0EA
:101EB0000E94CD170C941C180895882321F00E94CD
:101EC000D3170C941C180895CF92DF92EF92FF92D3
:101ED0000F931F93CF93DF937C01062FC72FFC0135
:101EE000D281158112951F700E94A217882399F044
:101EF000DD2389F08C2F807F803421F080E2800FF9
:101F0000883048F082E00E946C180E94A21791E08D
:101F1000D82ED92601C0D12CCC2EC2948FE0C82255
:101F20008C2D90E0FC01EA5AFF4F0C9462218C2F1B
:101F3000807FCF70882311F0C295C07FDD2399F098
:101F4000CC2309F487C180E2800F883010F00111A2
:101F500004C08C2F0E94CD1703C08C2F0E94DD1768
:101F60000E941C1877C1802F0E94020FCC2309F415
:101F700096C180E2800F883010F0011104C08C2FD0
:101F80000E94D31703C08C2F0E94E3170E941C18D5
:101F900086C18C2F807FCF70803211F0C295C07FB8
:101FA000002319F00130C9F025C0DD2371F01123A1
:101FB00041F0113031F40E94FD178C2B0E9405185E
:101FC0006EC10E94FD178C2B0EC0112319F0113029
:101FD00009F465C10E9412181FC0DD2339F01630C4
:101FE00008F05DC18C2F0E94560F59C1153008F0C2
:101FF00056C112C0DD2319F01123A1F32BC1112307
:1020000059F0093309F037C1FFEF27EE83E0F150B3
:1020100020408040E1F72DC18C2F0E945D0F3FC111
:102020008C2F86958695837019F0813061F037C1C9
:10203000DD2321F0802F9C2F937002C080E090E080
:102040000E94530D34C1DD2321F0802F9C2F93700B
:1020500002C080E090E00E94690D29C1802FDD233D
:1020600019F00E94E80802C00E9443090E94BA09C0
:102070001EC18C2F837009F045C0D11114C1402FAF
:10208000429546954770440F440F602F6F70862F1E
:1020900090E0A0E0B0E0042E04C0880F991FAA1FB2
:1020A000BB1F0A94D2F704FF10C00FE010E020E03D
:1020B00030E004C0000F111F221F331F4A95D2F7D2
:1020C000009510952095309503C000E010E0980130
:1020D000C695C695C370BC01CD01602B712B822BB8
:1020E000932BC23049F058F4C13019F00E94E71523
:1020F000DAC00E94D515D7C00E94F915D4C00E943D
:10210000D315D1C0DD2319F08C2F817001C08695C5
:10211000882309F4C8C0402F429546954770440F64
:10212000440F602F6F70862F90E0A0E0B0E0042E87
:1021300004C0880F991FAA1FBB1F0A94D2F704FF7F
:1021400010C00FE010E020E030E004C0000F111FCD
:10215000221F331F4A95D2F7009510952095309590
:1021600003C000E010E09801C695C695C370BC019D
:10217000CD01602B712B822B932BC23049F058F488
:10218000C13019F00E94AC168EC00E949A168BC006
:102190000E94BE1688C00E940D1685C0CF70DD2338
:1021A00039F08C2F0E943316802F0E94560F7BC06F
:1021B000802F0E945D0F8C2F0E94541674C0023F26
:1021C00001F128F4003F41F0013FA1F03FC0033F7F
:1021D000F9F0043F39F13AC0DD2341F0153008F041
:1021E0005EC08C2F8F710E94791659C0163008F08E
:1021F00056C0F7CFDD2339F08C2F8F710E94331634
:102200004EC0DD23C9F38C2F8F710E94541647C036
:10221000DD2329F08C2F8F710E941E1640C00E9472
:1022200019163DC0DD2349F0CF718C2F0E94331663
:1022300063E08C2F0E94511832C081E00E946C181C
:10224000123068F182E00E946C1829C0DD2331F061
:10225000112391F2802F0E94AC0E21C0112399F21C
:10226000093349F49FEFE7EEF3E09150E040F0408E
:10227000E1F700C00000802F0E94020F10C04C2F19
:102280004F70602FC7010E94BB050E9444150FC00C
:102290004C2F4F70602FC7010E94BE0508C088EF09
:1022A0008C0D843020F40E941F0D0E94B205DD20A9
:1022B000C9F00E949E1780FD15C0F70112820E948E
:1022C00098170E943316C7010E9493110E94981715
:1022D000DF91CF911F910F91FF90EF90DF90CF9002
:1022E0000C945416DF91CF911F910F91FF90EF90B6
:1022F000DF90CF9008950F931F93CF93DF93EC015E
:10230000688179818A810E9475178C010E94D0169C
:102310000E94C115B801CE010E94640FDF91CF91D8
:102320001F910F910895CF93DF93EC0198818981DC
:102330002B813C81232B31F08F3F31F481E09F3F93
:1023400019F403C081E001C080E080FD19C0CE0116
:102350000E94840481110CC00E94A217882381F07E
:102360008A81882369F082E0DF91CF910C946C1808
:10237000CE010E947B11CE01DF91CF910C946304BA
:10238000DF91CF91089580E090E00E94530D80E0AE
:1023900090E00E94690D0E94EA170E94FA170E94BD
:1023A0001C180E94EB0A0C94BA09809108019091C4
:1023B00009010E94E6190C94C3110E94DA170C94CB
:1023C000D511E92FE295EF704E2F50E0FA013297C8
:1023D000EE30F105B0F4EA59FF4F0C946221803FD2
:1023E00091F018F4883E68F40EC0843F51F40BC09D
:1023F000883E48F0813F29F406C093FB882780F986
:10240000089580E0089581E008950E946A170E946F
:10241000E1110895CF93DF9300D000D01F92CDB784
:10242000DEB70F900F900F900F900F90DF91CF912C
:102430000895CF93DF9300D000D000D0CDB7DEB7A2
:1024400026960FB6F894DEBF0FBECDBFDF91CF91B9
:1024500008951F93CF93DF93C091B80116E0809148
:10246000B901C81799F0D0E01C9FF0011D9FF00D35
:102470001124E654FE4F4081518162817381848131
:1024800095810E9419122196C770E9CFDF91CF91F3
:102490001F9108954091EA015091EB016091EC0188
:1024A0007091ED018091EE019091EF010C94191261
:1024B0000F931F93CF93DF938091EF0182958F70DD
:1024C00009F05DC08091EC01882309F458C0809127
:1024D000B8011091B9016091EA017091EB01C091CE
:1024E000ED01D091EE0191E06F3F09F090E0292FCE
:1024F00006E0811709F443C0209721F07F3F21F0C7
:1025000030E003C031E001C0322F90E030FD34C034
:10251000089FF001099FF00D1124DF01A654BE4F62
:1025200011963C911197371327C03C91361324C064
:1025300012963C91129731111FC013964D915C91E8
:1025400014974C1B5D0B483C5105B0F48091EF0192
:102550008F7080618093EF01E154FE4F80818F7016
:10256000806180838AEE91E00E949311DF91CF9188
:102570001F910F910C94291201968770BACFDF91A9
:10258000CF911F910F9108959F92AF92BF92CF92DA
:10259000DF92EF92FF920F931F93CF93DF93CDB70C
:1025A000DEB761970FB6F894DEBF0FBECDBF8C01CA
:1025B00085E0F801DE011D9601900D928A95E1F704
:1025C000F80140815181E2809091EA016091EB0134
:1025D0002091ED013091EE012115310531F06F3F71
:1025E00031F481E09F3F19F403C081E001C080E035
:1025F000F82FF1709F2E80FD46C1F801A380B480B2
:102600008AEEC82E81E0D82EF090EC01F501E21B95
:10261000F30BFF2009F4DFC08091EF01E83CF105E6
:1026200008F09BC0282F207F09F052C0561313C01A
:10263000491311C0FE2CE1100EC08F708061809391
:10264000EF010E944A12C6010E9493118091EF018E
:10265000F801858358C1AB2831F05F3F31F481E048
:102660004F3F19F403C081E001C080E080FD03C04A
:1026700081E08E2502C080E090E0F82FF170FF2EFF
:1026800080FF1CC08091B8012091B90136E082170B
:1026900009F417C190E0389FF001399FF00D112423
:1026A000E654FE4F6181561306C06081461303C095
:1026B0006281E61203C001968770E9CFFE2CEE20FE
:1026C00009F421C18091EF0181608093EF015AC02C
:1026D000561306C0491304C0E11002C0F8019FC0A0
:1026E0004D875E878D859E850E940512882379F12E
:1026F000EE2069F12091EF01822F82958F7090E09A
:10270000029774F08091EA019091EB0198878F8392
:102710001986BB86AA862C87CE0107960E94931144
:1027200086E0F801AAEEB1E001900D928A95E1F7FA
:102730000E9458120E944A120DC0561729F14D8767
:102740005E878D859E850E94051281112CC0C8016F
:102750000E949311FF24F394D6C0282F207F69F79D
:102760007A2DB98AA88A6E2D89890E940A128AEE6A
:1027700091E00E94931186E0F60111928A95E9F7A3
:102780000E944A12F12CBFC04913D9CFE110D7CF14
:10279000F8018583C8010E94931186E0F601119229
:1027A0008A95E9F7B0C0EE2091F22091EF01822FD7
:1027B00082958F7090E002970CF4B2CF8091EA017D
:1027C0009091EB019A8389831B82BD82AC822E8318
:1027D000CE010196A3CFE83CF10508F047C0FE2CDE
:1027E000EE2009F4B4CF561330C049132EC0209107
:1027F000EF0120FD21C0822F82958F70482F50E07D
:1028000041155105C9F0F80125834F30510541F0BC
:102810008F5F982F9295907F822F8F70892B858361
:10282000C8010E94931186E0F801AAEEB1E0019080
:102830000D928A95E1F742C086E0F801AAEEB1E078
:1028400001900D928A95E1F75EC04D875E878D8578
:102850009E850E940512811163CF8091EF018160F6
:102860008093EF01C8010E9493114DC07A2DB98A5F
:10287000A88A6E2D89890E940A1286E0F6011192BB
:102880008A95E9F71BC0EE2009F461CF4D875E877A
:102890008D859E850E940512F82E882309F457CF56
:1028A00086E0F801AAEEB1E001900D928A95E1F779
:1028B0008AEE91E00E94A60E0E9458120E944A12CF
:1028C00022C04D875E878D859E850E946A17292FBD
:1028D00022952F70223028F49F7039F0811105C0A5
:1028E0000BC0243028F49F7049F4805E883020F0BB
:1028F000C8010E9493119F2CF92C05C0F801958105
:10290000907F99F7F9CF8F2D61960FB6F894DEBFBF
:102910000FBECDBFDF91CF911F910F91FF90EF9030
:10292000DF90CF90BF90AF909F9008951F93CF936B
:10293000DF93CDB7DEB72C970FB6F894DEBF0FBE8E
:10294000CDBF4F83588769877A878B879C87CE0155
:1029500007960E94C4128823D1F09F8188852A851A
:102960003B85232B31F08F3F31F481E09F3F19F4F9
:1029700003C081E001C080E080FD47C04F815885E1
:1029800069857A858B859C850E9419123EC086E0F8
:10299000FE013796DE01119601900D928A95E1F7BE
:1029A000FF81E8856A857B856115710531F0EF3F10
:1029B00031F481E0FF3F19F403C081E001C080E001
:1029C00080FD23C02091B90130E0C90101968770D4
:1029D00099274091B80150E084179507F1F1F983E8
:1029E000EA837D836C8396E0929FD001939FB00D24
:1029F0001124A654BE4FFE01319601900D929A9576
:102A0000E1F78093B9010E94291216E08091B80184
:102A10009091B901891771F1189FC0011124865452
:102A20009E4F0E94C412882329F1E091B8011E9F95
:102A3000F0011124E654FE4F40815181628173817F
:102A4000848195810E9419128091B80190E00196CD
:102A5000877099278093B801D9CF0E94DD11109219
:102A6000B9011092B801EAEEF1E086E0DF011D92B3
:102A70008A95E9F72C960FB6F894DEBF0FBECDBF4E
:102A8000DF91CF911F910895EF92FF920F931F93C3
:102A9000CF93DF938C01892B09F46CC0F12CEE24C9
:102AA000E394E8012196F8018491843740F484305E
:102AB00008F051C0813081F0823019F15BC0853758
:102AC00009F444C0A8F19CE7980F903708F052C071
:102AD0008F770E94020F41C00E5F1F4FFE0184914D
:102AE00090E2980F983050F48770FE2D01C0FF0FD0
:102AF0008A95EAF78F2F0E94ED1714C00E94AC0E42
:102B00002DC00E5F1F4FFE01849190E2980F983008
:102B100060F48770FE2D01C0FF0F8A95EAF78F2FB2
:102B20000E94F3170E941C1819C00E94020F16C0C1
:102B30000E5F1F4FFE01C491CC2381F08FE99FE00F
:102B40000197F1F700C00000C150F6CF0E5F1F4F94
:102B5000FE01F49003C00E94AC0E8E018F2D8823DD
:102B600009F49FCFEFE9FFE03197F1F700C00000D3
:102B70008150F5CFDF91CF911F910F91FF90EF9092
:102B80000895089508950C94C2150C94C3150E94DD
:102B9000C51560931C0270931D0280931E029093D2
:102BA0001F020C94C3110C94C7150F931F9300912F
:102BB0001C0210911D0220911E0230911F02602BF9
:102BC000712B822B932B1F910F910C94C7150F9390
:102BD0001F9300911C0210911D0220911E02309142
:102BE0001F0260237123822393231F910F910C9462
:102BF000C7150F931F9300911C0210911D02209185
:102C00001E0230911F0260277127822793271F9190
:102C10000F910C94C7150C940C040E940B16609332
:102C200018027093190280931A0290931B020C945D
:102C3000C31160E070E0CB010C940D160F931F934D
:102C400041E050E060E070E08A019B0104C0000FA9
:102C5000111F221F331F8A95D2F7C901B8011F9196
:102C60000F910C940D160F931F9341E050E060E01C
:102C700070E004C0440F551F661F771F8A95D2F776
:102C80008091180290911902A0911A02B0911B0232
:102C90008A019B01082B192B2A2B3B2BC901B80158
:102CA0001F910F910C940D160F931F9341E050E06C
:102CB00060E070E004C0440F551F661F771F8A95BF
:102CC000D2F740955095609570958091180290913B
:102CD0001902A0911A02B0911B028A019B010823DC
:102CE00019232A233B23C901B8011F910F910C948A
:102CF0000D160F931F9341E050E060E070E004C0B8
:102D0000440F551F661F771F8A95D2F780911802CE
:102D100090911902A0911A02B0911B028A019B01A5
:102D2000082719272A273B27C901B8011F910F91AE
:102D30000C940D160F931F93009118021091190215
:102D400020911A0230911B02602B712B822B932B46
:102D50001F910F910C940D160F931F930091180261
:102D60001091190220911A0230911B0260237123E5
:102D7000822393231F910F910C940D160F931F9391
:102D8000009118021091190220911A0230911B0231
:102D900060277127822793271F910F910C940D169E
:102DA00008952CE0929F800D1124E82FE695E6957A
:102DB000E695877051E001C0550F8A95EAF785E0E6
:102DC000E89FF0011124E051FE4F20E030E070E078
:102DD0004081CB01022E02C0969587950A94E2F7B6
:102DE0008170819584278523842781932F5F3F4FAE
:102DF0002530310569F708952CE0929F800D11244C
:102E0000682F669566956695982F977085E0689F00
:102E1000B001112440E050E080E0FB01E40FF51F19
:102E2000E051FE4F208130E0092E02C036952795F3
:102E30000A94E2F721703327042E01C0220F0A946E
:102E4000EAF7822B4F5F5F4F4530510531F7089508
:102E5000BF92CF92DF92EF92FF920F931F93CF9387
:102E6000DF938C01C0901802D0901902E0901A02F2
:102E7000F0901B0280911C0290911D02A0911E02F5
:102E8000B0911F02C82AD92AEA2AFB2ACFE1D0E052
:102E9000D701C6010C2E04C0B695A79597958795C6
:102EA0000A94D2F780FD04C0219790F7B12C07C097
:102EB000BC2EB8018C2F0E94DA050197A9F38B2D47
:102EC000DF91CF911F910F91FF90EF90DF90CF9006
:102ED000BF900895CF93DF93EC010E942817BE01A5
:102EE0000E94DA05DF91CF9108951F93CF93DF936E
:102EF000EB019091B701992321F0CB010E946A1751
:102F000013C0882349F0CB010E942817182F682F7F
:102F1000CE010E94D11604C0CB010E94FC16182FCE
:102F2000BE01812F0E94DA05DF91CF911F91089594
:102F30008091200285958595859508958091200240
:102F40008770089590912002977081E009F480E0E5
:102F5000089590916A0292FB222720F9281751F0D8
:102F600080FB92F990936A028091690290916A02C3
:102F70000C94AF18089580916A0282FB882780F92B
:102F800091E089270C94A91781E00C94A91780E09F
:102F90000C94A91780914402089590914402892BC2
:102FA00080934402089580959091440289238093F0
:102FB0004402089510924402089590914302892B8F
:102FC00080934302089580959091430289238093D2
:102FD0004302089510924302089590914202892B72
:102FE00080934202089580959091420289238093B4
:102FF000420208951092420208958091210208959C
:1030000008950C9400180C94011890916A0292FD96
:1030100008C090912102981721F0809321020C940E
:103020000318089580912102882329F0109221022B
:1030300080E00C9403180895E0910801F0910901D3
:10304000809144028083E0910801F0910901908110
:1030500080914302892B8083E0910801F09109015E
:10306000908180914202892B808380912102882364
:1030700081F0E0910801F09109019081892B808312
:1030800080910801909109010E943A1981110E94D2
:10309000121880910801909109010C942B0D0C9449
:1030A000001890916A0292FD10C098E0899F9001EB
:1030B0001124262B209320020E9433168091200297
:1030C0008595859585950C944F180C943316109220
:1030D000200280E00C944F182091200280958223DA
:1030E00080932002982F977041F430E0482F082EEB
:1030F000000C550B2417350721F490916A0292FFBA
:1031000007C08595859585950E9454160C9467187F
:10311000089580E0089580E090E00E94842121E0FD
:103120008A3E9E4F09F020E0822F089582E090E0D1
:103130000C947C2183E090E00C947C21CF9384E07C
:1031400090E00E947C21C82F82E290E00E947C21C6
:103150002C2F30E0A901582BCA01CF910895CF93AD
:10316000C92F682F84E090E00E948A216C2F82E2B0
:1031700090E0CF910C948A21AB01BC018FE090E0EC
:103180000C949C21AB01BC0183E190E00C949C2148
:1031900060E070E0CB010C94C21860E070E0CB01FD
:1031A0000E94BC180C94C8186AEE7EEF80E090E094
:1031B0000E94A82160E082E090E00E948A2160E005
:1031C00083E090E00E948A2110921C0210921D025E
:1031D00010921E0210921F0260E084E090E00E94B4
:1031E0008A2160E082E290E00E948A2160E085E02E
:1031F00090E00E948A2160E086E090E00E948A21AF
:103200006FEF87E090E00E948A2140E050E0BA0131
:1032100088E090E00E949C2160E08DE090E00E94B8
:103220008A2140E050E0BA0188E190E00E949C21B0
:1032300060E087E190E00E948A2140E050E0BA011E
:103240008CE190E00E949C2160E070E080E290E0E0
:103250000E94A82140E050E0BA0188E190E00E947D
:103260009C210C94CD180C94D418682F8EE090E01B
:103270000C948A21FC01329680911401882331F04C
:103280008091690287FF02C09EE101C096E080E064
:10329000915028F021912223D9F38F5FF9CF08951F
:1032A000662351F1209114012223E9F02091690253
:1032B00027FF19C0462F4695469546954E31E0F4B6
:1032C000677021E030E002C0220F331F6A95E2F7F9
:1032D000FC01E40FF11D828190E02823392381E075
:1032E000232B69F409C0FC013296089621916217DC
:1032F00029F0E817F907D1F780E0089581E00895F3
:103300009C01FC0132969FEF80E04191461789F0C5
:103310009F3F19F4411101C0982F8F5F8630A9F7A4
:103320009F3F39F0F901E90FF11D97FDFA9562838E
:10333000089508959C012A5F3F4FFC014281461386
:1033400001C01282019682179307B9F70895262FBC
:103350002695269526952E3168F4FC01E20FF11D85
:10336000677021E030E001C0220F6A95EAF78281A0
:10337000282B22830895262F2695269526952E31D3
:1033800070F4FC01E20FF11D677021E030E001C034
:10339000220F6A95EAF720958281282322830895D7
:1033A00020911401222329F02091690227FD0C9419
:1033B000A7190C94801920911401222329F020913F
:1033C000690227FD0C94BB190C949A1920911401E1
:1033D000FC013296222331F08091690287FF02C0FE
:1033E0008EE101C086E0DF011D928A95E9F708951C
:1033F00008950C94F8190E94DD110E941F0D0E947F
:10340000B2050C94F9191F920F920FB60F92112466
:103410008F939F93AF93BF9380914602811113C006
:1034200080917F0290918002A0918102B0918202EE
:103430004196A11DB11D80937F0290938002A093BD
:103440008102B0938202BF91AF919F918F910F90B3
:103450000FBE0F901F90189582E084BD93E095BD3C
:103460009AEF97BD80936E0008952FB7F8948091DE
:103470007F0290918002A0918102B09182022FBFC1
:1034800008952FB7F89460917F0270918002809127
:103490008102909182022FBF08959C014FB7F8944A
:1034A00080917F0290918002A0918102B09182026E
:1034B0004FBF821B930B089578941F920F920FB603
:1034C0000F9211248F939F93AF93BF9380917F02AC
:1034D00090918002A0918102B09182020196A11D7B
:1034E000B11D80937F0290938002A0938102B093DC
:1034F0008202BF91AF919F918F910F900FBE0F905D
:103500001F90189581E08093E00080E28093D800BE
:103510001092C9008FE19EE40197F1F700C000000E
:1035200087E090EBDC018093900290939102A0934E
:103530009202B09393029CE088E10FB6F894A895AC
:10354000809360000FBE90936000FFCF909389013D
:10355000809388010895809167020895CF93DF9347
:1035600000D01F92CDB7DEB790918702943019F545
:1035700089837B836A8382E08093E9008FEF909157
:10358000E800815095FD06C095ED9A95F1F7000091
:103590008111F5CF8091E80085FF0DC040E050E03B
:1035A00063E070E0CE0101960E94B01C8091E800BB
:1035B0008E778093E8000F900F900F90DF91CF915E
:1035C0000895BC0184E00C94AE1ABC0183E00C9415
:1035D000AE1A22E02093E9002FEF3091E80021504D
:1035E00035FD06C035ED3A95F1F700002111F5CF14
:1035F0002091E80025FF0BC040E050E066E070E05D
:103600000E94B01C8091E8008E778093E8000895B6
:10361000CF93DF9320911401222339F02091690286
:1036200027FF03C060E222E002C068E021E02093AF
:10363000E9002FEF3091E800215035FD06C035ED4F
:103640003A95F1F700002111F5CF2091E80025FF10
:103650001DC0EC0180911401811105C040E050E0D3
:1036600068E070E003C070E040E050E0CE010E94EE
:10367000B01C8091E8008E778093E80080E2FE0124
:10368000A7E4B2E001900D928A95E1F7DF91CF9126
:10369000089580918602811109C00E94411E0E94F6
:1036A0009E1E8091E20084608093E2000895109253
:1036B00086020895089508950C94FB1942E061EC88
:1036C00081E00E94BA1D42E261EC82E00C94BA1DD6
:1036D00080918902833009F460C030F4813071F048
:1036E000823009F499C008958A3009F485C08B307E
:1036F00009F46BC0893009F0A7C020C0809188020E
:10370000813A09F0A1C08091E800877F8093E800AA
:1037100080918C0290918D02892B21F460E287E4E4
:1037200092E003C060E080E090E070E00E94FB1C4B
:103730008091E8008B778093E8000895809188025B
:10374000813209F081C080918C0290918D020297A4
:1037500008F07AC08091E800877F8093E80080912C
:10376000E80082FD05C0809187028111F8CF6CC00E
:103770002091F3008091F20090E0922B029729F4BF
:103780008091F1008B7F813021F48091F100809352
:1037900067028091E8008B7753C080918802813A5C
:1037A00009F052C080918C0290918D02892B09F012
:1037B0004BC08091E800877F8093E8008091E8000B
:1037C00080FFFCCF8091140136C080918802813245
:1037D000D9F580918C0290918D02892BA9F5809169
:1037E000E800877F8093E8000E94EF1D80918A02A5
:1037F000809314010C94DD1180918802813221F5AF
:103800008091E800877F8093E8000E94EF1D8091FF
:103810008B0280936802089580918802813AA1F416
:103820008091E800877F8093E8008091E80080FF26
:10383000FCCF809168028093F1008091E8008E7740
:103840008093E8000C94EF1D089584B7877F84BFB0
:103850000FB6F894A895809160008861809360000D
:10386000109260000FBE90E080E80FB6F89480934D
:103870006100909361000FBE0E94A80D0E94411E3E
:103880000E949E1E8091E20084608093E200789402
:103890000E9433210E94B60D8AE091E00E941A0D29
:1038A0000E94BC0D0E94B20DFBCF0C94571C292F17
:1038B000332723303105C9F060F42130310581F020
:1038C0002230310509F044C08BE390E021E534E07B
:1038D00043C021323105E1F02232310549F138C0CF
:1038E00082E190E02CE834E037C0992781309105DF
:1038F00049F028F0029761F5E7E1F4E005C0EDE456
:10390000F4E002C0E9E2F4E0849190E09F0124C079
:103910006115710541F061307105D1F489E090E0E5
:103920002CE734E019C089E090E023E634E014C0CD
:103930006115710541F06130710551F486EB90E03D
:103940002EE934E009C080E490E024E535E004C0CD
:1039500080E090E020E030E0FA0131832083089598
:10396000CF92DF92EF92FF920F931F93CF93DF934B
:10397000EC018B017A010E940E1E811133C0E1140B
:10398000F10439F0F70180819181081B190BC80FF0
:10399000D91FC12CD12C0115110519F18091E80016
:1039A00085FD16C08091E8008E778093E800E114D1
:1039B000F10449F0F70180819181C80ED91ED182AE
:1039C000C08285E00FC00E940E1E882321F30AC02A
:1039D00089918093F10001501109FFEFCF1ADF0A9E
:1039E000DACF80E0DF91CF911F910F91FF90EF90A0
:1039F000DF90CF90089520918E0230918F0226178C
:103A0000370748F06115710539F42091E8002E77E9
:103A10002093E80001C0B901FC0120E061157105A7
:103A200079F1809187028823F1F18530F1F180915D
:103A3000E80083FD3CC08091E80082FD2EC08091AB
:103A4000E80080FFEBCF2091F3008091F20090E03E
:103A5000922B6115710551F08830910538F4219150
:103A60002093F100615071090196F3CF21E008978E
:103A700009F020E08091E8008E778093E800CECFB7
:103A80002111CFCF0AC080918702882361F0853051
:103A900061F08091E80083FD0AC08091E80082FF18
:103AA000F2CF80E0089582E0089583E0089581E0F8
:103AB000089520918E0230918F022617370748F023
:103AC0006115710539F42091E8002E772093E80004
:103AD00001C0B901FC0120E06115710591F18091EF
:103AE0008702882309F440C0853009F43FC08091E3
:103AF000E80083FD3DC08091E80082FD2FC08091E9
:103B0000E80080FFE9CF2091F3008091F20090E07F
:103B1000922B6115710559F08830910540F424917C
:103B20002093F1003196615071090196F2CF21E0A6
:103B3000089709F020E08091E8008E778093E800F4
:103B4000CBCF2111CCCF0AC080918702882361F0AE
:103B5000853061F08091E80083FD0AC08091E80023
:103B600082FFF2CF80E0089582E0089583E0089517
:103B700081E00895982F973068F59093E9009817A1
:103B800039F07091EC002091ED005091F00003C0ED
:103B9000242F762F50E021FD02C09F5FECCF3091A3
:103BA000EB003E7F3093EB003091ED003D7F309392
:103BB000ED003091EB0031603093EB007093EC003E
:103BC0002093ED005093F0002091EE0027FDE5CF0B
:103BD00080E008958F708093E90081E008958091DE
:103BE000880287FF11C08091E80082FD05C08091A6
:103BF00087028111F8CF11C08091E8008B770BC04C
:103C000080918702882349F08091E80080FFF8CFF7
:103C10008091E8008E778093E80008952091E40079
:103C20003091E50095E64091EC00842F817040FFD3
:103C300023C08091E80080FD1DC080918702882309
:103C400099F0853099F08091EB0085FD11C040918D
:103C5000E4005091E5002417350729F3915011F045
:103C60009A01E1CF84E0089582E0089583E0089509
:103C700081E0089580E008954091E80042FFDDCFA3
:103C800008950E94AF1E0E94B71EE0EEF0E0808112
:103C900081608083E8EDF0E080818F77808319BCBC
:103CA000A7EDB0E08C918E7F8C9380818F7E808396
:103CB0001092860208950F931F93CF93DF930E9473
:103CC000AF1E0E94B71EC8EDD0E088818F77888331
:103CD00088818068888388818F7D888319BC109251
:103CE000870210928302109285021092840200EEE5
:103CF00010E0F80180818B7F8083888181608883D8
:103D000042E060E080E00E94BA1DE1EEF0E08081D8
:103D10008E7F8083E2EEF0E080818160808380810D
:103D200088608083F80180818E7F808388818061B4
:103D30008883DF91CF911F910F910895E8EDF0E016
:103D400080818F7E8083E7EDF0E0808181608083D9
:103D500084E082BF81E0809386020C945B1EE8EDD4
:103D6000F0E080818E7F80831092E20008951092AF
:103D7000DA001092E10008951F920F920FB60F9291
:103D800011242F933F934F935F936F937F938F9360
:103D90009F93AF93BF93EF93FF938091E10082FFD6
:103DA0000BC08091E20082FF07C08091E1008B7F11
:103DB0008093E1000E9432218091DA0080FF1FC0D1
:103DC0008091D80080FF1BC08091DA008E7F8093A5
:103DD000DA008091D90080FF0DC080E189BD82E1C9
:103DE00089BD09B400FEFDCF81E0809387020E9467
:103DF000491B05C019BC109287020E94571B809175
:103E0000E10080FF19C08091E20080FF15C0809121
:103E1000E2008E7F8093E2008091E20080618093D7
:103E2000E2008091D80080628093D80019BC85E0C0
:103E3000809387020E945B1B8091E10084FF30C069
:103E40008091E20084FF2CC080E189BD82E189BDC0
:103E500009B400FEFDCF8091D8008F7D8093D800FB
:103E60008091E1008F7E8093E1008091E2008F7E5F
:103E70008093E2008091E20081608093E200809173
:103E80008302882311F084E007C08091E30087FD5E
:103E900002C081E001C083E0809387020E945C1B26
:103EA0008091E10083FF29C08091E20083FF25C05B
:103EB0008091E100877F8093E10082E08093870218
:103EC000109283028091E1008E7F8093E1008091C7
:103ED000E2008E7F8093E2008091E2008061809317
:103EE000E20042E060E080E00E94BA1D8091F000B4
:103EF00088608093F0000E945A1BFF91EF91BF9160
:103F0000AF919F918F917F916F915F914F913F9171
:103F10002F910F900FBE0F901F9018951F920F9228
:103F20000FB60F9211242F933F934F935F936F938C
:103F30007F938F939F93AF93BF93CF93DF93EF9331
:103F4000FF93C091E900CF708091EC00D82FD17021
:103F500080FDD0E81092E9008091F000877F809387
:103F6000F00078940E94D21F1092E9008091F00036
:103F700088608093F000CD2BCF70C093E900FF9153
:103F8000EF91DF91CF91BF91AF919F918F917F91F1
:103F90006F915F914F913F912F910F900FBE0F90B6
:103FA0001F9018951F93CF93DF93CDB7DEB7AA97D5
:103FB0000FB6F894DEBF0FBECDBFE8E8F2E0809107
:103FC000F100819322E0E039F207C9F70E94681BF3
:103FD0008091E80083FF2EC1809188029091890230
:103FE000492F50E04A30510508F024C1FA01EC583D
:103FF000FF4F0C946221803821F0823809F01AC1F9
:1040000008C08091840290918502992389F0826092
:104010000FC080918C028F70873008F00BC18093A5
:10402000E9008091EB0085FB882780F91092E90078
:104030009091E800977F9093E8008093F1001092B0
:10404000F100D1C0282F2D7F09F0F4C0882319F08A
:10405000823061F0EFC080918A02813009F0EAC0BD
:10406000933009F080E0809385022EC080918A020F
:1040700081112AC080918C028F702FEF280F26307B
:1040800008F0D8C08093E9002091EB0020FF1CC00D
:10409000933021F48091EB00806214C09091EB008A
:1040A00090619093EB0021E030E0A90102C0440F41
:1040B000551F8A95E2F74093EA001092EA0080913A
:1040C000EB0088608093EB001092E9008091E8009B
:1040D000877F8093E8000E94EF1DACC08111AAC0C9
:1040E00010918A021F778091E3008078812B809362
:1040F000E3008091E800877F8093E8000E94EF1D35
:104100008091E80080FFFCCF8091E300806880937D
:10411000E300111102C082E001C083E080938702B6
:1041200089C08058823008F085C080918A029091C1
:104130008B028C3D53E0950779F583E08A838AE210
:1041400089834FB7F894DE01139620E03EE051E2F8
:10415000E32FF0E050935700E49120FF03C0E29575
:10416000EF703F5FEF708E2F90E0EA3010F0C7964F
:1041700001C0C0968D939D932F5F243149F74FBFA7
:104180008091E800877F8093E8006AE270E0CE01CA
:1041900001960E94FB1C16C060918C0270918D02EA
:1041A000AE014F5F5F4F0E94551CBC01892B09F483
:1041B00041C09091E800977F9093E80089819A81AF
:1041C0000E94591D8091E8008B778093E80032C0EF
:1041D000803881F58091E800877F8093E8008091A6
:1041E00083028093F1008091E8008E7772CF811175
:1041F00021C080918A0290918B0299270297D4F472
:104200008091E800877F8093E80080918A02809304
:1042100083020E94EF1D80918302811106C080916C
:10422000E30087FD02C081E001C084E08093870243
:104230000E945E1B8091E80083FF0AC08091E80025
:10424000877F8093E8008091EB0080628093EB0091
:10425000AA960FB6F894DEBF0FBECDBFDF91CF9107
:104260001F9108950895CF93809187028823A1F02C
:10427000C091E900CF709091EC00892F817090FD82
:1042800080E8C82B1092E9008091E80083FD0E942D
:10429000D21FCF70C093E900CF91089597FB072EEE
:1042A00016F4009407D077FD09D00E94682107FC1E
:1042B00005D03EF4909581959F4F08957095619536
:1042C0007F4F0895EE0FFF1F0590F491E02D0994A4
:1042D000AA1BBB1B51E107C0AA1FBB1FA617B7072C
:1042E00010F0A61BB70B881F991F5A95A9F7809548
:1042F0009095BC01CD010895F999FECF92BD81BD85
:10430000F89A992780B50895A8E1B0E042E050E01E
:104310000C94B021262FF999FECF92BD81BDF89A59
:10432000019700B4021639F01FBA20BD0FB6F894F9
:10433000FA9AF99A0FBE08950396272F0E948B21AF
:104340000E948A21252F0E948B21242F0C948B21DF
:104350000196272F0E948B210C948A21DC01CB012E
:10436000FC01F999FECF06C0F2BDE1BDF89A319685
:1043700000B40D9241505040B8F70895F894FFCF23
:104380002808641E140A321E2202AB1A081BE91AFE
:10439000E51AE11A01F5303132333792939594964C
:1043A00097F0F1F4F6F7E200E900EA00B500B60094
:1043B000B700CD008301CC008A0192019401210253
:1043C000230224022502260227022A02B300B40097
:1043D0006F007000818283E200E900EA00B500B658
:1043E00000B700CD008301CC008A01920194012125
:1043F00002230224022502260227022A02B300B465
:08440000006F0070008182834F
:00000001FF
