:100000000C940A050C9451050C9451050C940C1594
:100010000C9451050C9451050C9451050C94510508
:100020000C9451050C9451050C9454270C942628DB
:100030000C94AA220C9451050C9451050C94510572
:100040000C9451050C9451050C9451050C945105D8
:100050000C9451050C9403230C9451050C945105F8
:100060000C9451050C9451050C9451050C945105B8
:100070000C9451050C9451050C9451050C945105A8
:100080000C9451050C9451050C9451050C94510598
:100090000C9451050C9451050C9451050C94510588
:1000A0000C9451050C9451050C945105BB07CC07D9
:1000B000BF07CC07C307CC07CC07CC07C707CC07C3
:1000C000C707CC07C707CC07C707531953198519AA
:1000D0008519E61AD219E61AE61ADD19761A871A70
:1000E000871A8C1B8C1B9E1B9E1B951B9E1B9E1B8D
:1000F0009E1B8C1B8C1B9A1B9E1B9E1B9A1B932862
:10010000BA28B229BA28B22906292929B229802970
:100110008F29808182838485868788898A8B8C8DCC
:100120008E8F9091929394A0A1A2A3A4A5A6A7A814
:10013000A9AAABACADAEAFB0B1B2B3B4C0C1C2C38B
:10014000C4C5C6C7C8C9CACBCCCDCECFD0D1D2D3F7
:10015000D40041646A757374005261697365004C20
:100160006F7765720044656661756C74004C6179E7
:1001700065723A2000290014001A000800150017C3
:10018000002B0004001645074409430A0000571DD0
:10019000001B000600190005000000000000004CD4
:1001A000642A6229614C00130012000C0018001C24
:1001B00000280034000F450E440D430B0002573851
:1001C0000037003600100011000000000000002879
:1001D000782C712B742B000100010001000100013B
:1001E00000E10001001600070009000100015701AD
:1001F0000001000100010001000000000000002CCF
:10020000000100E2420100010001000100010001C3
:1002100000010001000F000E000D000100010001AF
:1002200000010001000100010000000000000001C9
:10023000000100010001001E0052001F002000010B
:10024000000100500051004F002100010001002278
:10025000002300240025002600000000000000010B
:100260000001000100010001000100010001000186
:1002700000010001000100010001000100E7000190
:100280000001000100010001000000000000000169
:100290000001000100005C2F00610060005F003081
:1002A00000530033005E005D005C002E000000354E
:1002B000005B005A0059003100000000000000639C
:1002C0000062002D002A0049004D0052004A004BF8
:1002D0000000004C004F00510050004E0000000094
:1002E000000000000000000000000000000000010D
:1002F000000100010000002F022602250224023026
:1003000002390033022302220221022E02000035AC
:100310000220021F021E023102000000000000261F
:100320000227022D022A00F400F200ED00F100F98C
:1003300000F300F500F000EE00EF00FA000000FC12
:1003400000FF00FE00FD00FB0000000000000001B7
:10035000000100010000004300420041004000464F
:1003600000000044003F003E003D00470000004503
:10037000003C003B003A0048000000000000000084
:10038000000000000000000000C45CA900C55CCAB9
:100390005C00000000AB00AA00AC00CB5CC35C00BA
:1003A000000000000000000000000000000000ADA0
:1003B00000AE00A80000AE00AF00DA0281FFD9F164
:1003C000DB20A4A62EAF00A0C000A1C800AED5803F
:1003D000A81FD300408D1420000000000000003E44
:1003E0005B4F5B3E003E6B4F6B3E001C3E7C3E1CF9
:1003F00000183C7E3C18001C577D571C001C5E7F7B
:100400005E1C0000183C180000FFE7C3E7FF000077
:100410001824180000FFE7DBE7FF0030483A060E1B
:1004200000262979292600407F05050700407F0521
:10043000253F005A3CE73C5A007F3E1C1C08000840
:100440001C1C3E7F0014227F2214005F5F005F5F50
:100450000006097F017F00006689956A0060606080
:1004600060600094A2FFA2940008047E04080010BB
:10047000207E20100008082A1C0800081C2A0808F2
:10048000001E10101010000C1E0C1E0C0030383E08
:10049000383000060E3E0E0600000000000000008E
:1004A000005F000000000700070000147F147F14A5
:1004B00000242A7F2A12002313086462003649565A
:1004C000205000000807030000001C22410000002B
:1004D00041221C00002A1C7F1C2A0008083E080834
:1004E0000000807030000008080808080000006064
:1004F0006000002010080402003E5149453E000003
:10050000427F4000007249494946002141494D332C
:10051000001814127F10002745454539003C4A4910
:100520004931004121110907003649494936004641
:100530004949291E0000001400000000403400005A
:100540000000081422410014141414140000412265
:100550001408000201590906003E415D594E007C15
:100560001211127C007F49494936003E4141412227
:10057000007F4141413E007F49494941007F0909CF
:100580000901003E41415173007F0808087F0000C7
:10059000417F4100002040413F01007F081422417B
:1005A000007F40404040007F021C027F007F040823
:1005B000107F003E4141413E007F09090906003E8F
:1005C0004151215E007F09192946002649494932D7
:1005D0000003017F0103003F4040403F001F2040D7
:1005E000201F003F4038403F00631408146300039D
:1005F00004780403006159494D4300007F414141A3
:1006000000020408102000004141417F0004020163
:100610000204004040404040000003070800002062
:1006200054547840007F28444438003844444428D7
:1006300000384444287F0038545454180000087E81
:100640000902001824241C78007F080404780000A4
:10065000447D4000002040403D00007F10284400C1
:100660000000417F4000007C04780478007C08048E
:100670000478003844444438007C182424180018B6
:100680002424187C007C0804040800485454542492
:100690000004043F4424003C4040207C001C2040D7
:1006A000201C003C4030403C004428102844004CB2
:1006B0009090907C004464544C4400000836410003
:1006C000000000770000000041360800000201022F
:1006D0000402003C2623263C00000000000000002D
:1006E000000000000000000000C0E0F0F8F8180072
:1006F000C0F0FCFEFFFFFFFFFFFFFF7E00000000D9
:10070000000000000080C0E0E0E0E0E0E0E0E0C0E9
:10071000800000000080C0E0E0E0E0E0E0E0E0C059
:1007200080000000E0E0C0C0E0E0E0E00000E0E0C9
:10073000C0C0E0E0E0E0E0C0800000000080C0E079
:10074000E0E0E0E0E0E0E0C0800000000000000049
:1007500000000000000000E0F0F0F0E0ECEEF7F345
:100760007020007C7C7C7E007E7E7E7F7F7F000010
:1007700080C0E07E5B4F5BFEC00000C000DCD7DEC7
:10078000DEDED7DC00C0000000000000000000003A
:100790000000000000000000000000000000000059
:1007A0000000F8FCFEFFE000FFFFFFFFFFFF80FFFF
:1007B000FFFFFFFFFFFFFFFF1F070100000000001A
:1007C00000000000FFFFFF8100000000000081C367
:1007D000C3C30000FFFFFF8100000000000081FF95
:1007E000FFFF0000FFFFFF01000000000000FFFF0F
:1007F000FF010000000001FFFFFF0000FFFFFF9D61
:100800001C1C1C1C1C1C9DDFDFDF00000000000006
:10081000000000000000000F1F3F7F7F7F7F7F3FB1
:100820001E0C001F1F1F3F003F3F3F7F7F7F003098
:100830007B7F7830202030787F3B0003000F7F0FD4
:100840000F0F7F0F000300000000000000000000F9
:100850000000000000000000000000000000000098
:100860000000030F1F3F3F3F3F1F1F3F3F7F7F7F22
:100870003F3F1F3F7F7F7F7F7C7878381C0F0000D1
:100880000000000000010307070707070707070329
:100890000100000000010307070707070707070318
:1008A0000100000007070700000000000000070724
:1008B0000700000000000007070700000001030711
:1008C00007070707070707030100000000000000F3
:1008D0000000000000000000000000000000000018
:1008E0000000000000000000000000000000000008
:1008F00000000000000000000000000000000000F8
:1009000000000000000000000000000000000000E7
:100910000000000000000000000C0343006F0072A4
:10092000006E0065000000100366006F006F00732A
:1009300000740061006E0000000403090409023B1A
:1009400000020100A0FA09040000010301010009EE
:1009500021110100012240000705810308000A0956
:1009600004010001030000000921110100012249D6
:10097000000705820320000A120110010000000890
:100980005346010001000102000105010902A10115
:1009900085020901A1000509190129081500250191
:1009A0009508750181020501093009311581257FFE
:1009B00095027508810609381581257F950175080E
:1009C0008106050C0A38021581257F95017508817D
:1009D00006C0C005010906A101050719E029E715B0
:1009E00000250195087501810295017508810105B1
:1009F00007190029FF150026FF00950675088100DC
:100A000005081901290595057501910295017503E0
:100A10009101C00011241FBECFEFDAE0DEBFCDBFD1
:100A200004B603FE27C08091110590911205A09194
:100A30001305B09114058730904BA740B04BD1F40B
:100A400010921105109212051092130510921405C0
:100A500014BE84B7877F84BF0FB6F894A8958091A1
:100A60006000886180936000109260000FBEE0E03B
:100A7000F8E3099511E0A0E0B1E0E4EEFAE502C088
:100A800005900D92AC3EB107D9F725E0ACEEB1E090
:100A900001C01D92A131B207E1F70E948C240C9491
:100AA000702D0C940000CF93DF93AEE8B1E042E9E3
:100AB00051E061E070E08D91E82FE295EF70F0E099
:100AC00021A18F70EB0102C0CC0FDD1F8A95E2F7E8
:100AD000CE019C2F9095922391A392A1892B82A362
:100AE0004A175B0741F7DF91CF91089508950C9461
:100AF00076050C947605209A559A289A5D9A089561
:100B00005D9808955D9A089528980895289A089503
:100B10000E9444070E945305A8E8B1E041E050E07C
:100B20008D91E82FE295EF70F0E021A18F70BA016E
:100B300002C0660F771F8A95E2F7CB01962F90953A
:100B4000922391A392A1892B82A371E0AE38B707BB
:100B500039F70E947B05E6EFF1E0AEEEB1E01192CD
:100B60001D9281E0EE3FF807D1F70E9425078093A0
:100B7000FE010C94C4088F929F92AF92BF92CF92C5
:100B8000DF92EF92FF920F931F93CF93DF938091A9
:100B90000101811103C0C4E0D0E002C0C0E0D0E098
:100BA000AE0142515E4F7A018EE8C82E81E0D82E08
:100BB0008A01912CAA24A394B12C25E0822EF2E97B
:100BC000CF16F1E0DF0609F44CC0F60181916F0108
:100BD000E82FE295EF70F0E021A18F70A50102C02F
:100BE000440F551F8A95E2F7CA01922F982B91A3C3
:100BF00092A18095892382A350EA5A95F1F7E8E8FB
:100C0000F1E020E040E050E03191A32FA295AF70D9
:100C1000B0E090968C9190E03F7002C095958795DA
:100C20003A95E2F780FD07C0C501042E01C0880F88
:100C30000A94EAF702C080E090E0282B4F5F5F4FF4
:100C40004630510509F7F8018081821729F0208389
:100C500080920001992493940E9453050F5F1F4FC7
:100C6000AECF809100018823B1F0815080930001C4
:100C7000811103C0CA50DE4F07C08FE99FE0019782
:100C8000F1F700C0000007C0F70191917F0199932F
:100C90008F5F8430C9F7892DDF91CF911F910F911C
:100CA000FF90EF90DF90CF90BF90AF909F908F908C
:100CB0000895CF93DF9320910101211103C0C0E07B
:100CC000D0E002C0C4E0D0E00E945F07009729F0A6
:100CD0000297B1F40E94840513C00E948605CA5091
:100CE000DE4F80910A0290910B02A0910C02B0910C
:100CF0000D0288839983AA83BB8380E090E002C0C1
:100D000081E090E0DF91CF9108950E94BB05909122
:100D10000101911103C0E4E0F0E002C0E0E0F0E086
:100D2000EA50FE4F20E030E090E0D901A65FBD4FD1
:100D30005C914191541391E04C932F5F3F4F2430CD
:100D4000310599F720910302920F909303020895C1
:100D50001F93CF93DF938091FE01882309F449C04C
:100D60000E94BB05182F80910101811103C0C4E0CE
:100D7000D0E002C0C0E0D0E0CA50DE4F44E050E016
:100D8000BE0186E092E00E94292A488159816A8149
:100D90007B81409306025093070260930802709390
:100DA00009020E945906892BC9F00E948005809192
:100DB000FF018F5F8093FF018630A0F080910101D9
:100DC000811103C0E0E0F0E002C0E4E0F0E0EA50AE
:100DD000FE4F108211821282138204C00E9482058B
:100DE0001092FF010E94CC08C1E0111122C0C0E0A6
:100DF00020C00E948506C1E0811101C0C0E0809141
:100E00000101811103C080E090E002C084E090E025
:100E1000FC01EA50FE4F409106025091070260919A
:100E200008027091090240835183628373830E9498
:100E3000CC088C2FDF91CF911F910895E82FF0E01F
:100E4000EA50FE4F8081089508958091000281113B
:100E500012C08091D80080618093D8008AE18A9581
:100E6000F1F700C08091D90080FD02C082E001C08E
:100E700081E08093000281E090910002913009F0BE
:100E800080E008950C9425070E9442078093010199
:100E90000E942507882319F00E94530702C00E9470
:100EA00059077894089563E070E082E091E00C9433
:100EB000BA1463E070E082E091E00C94C3140F93E5
:100EC0001F93CF93DF938C0190911B0180911A01A6
:100ED000981761F082E090E00E949C15EC01892B4C
:100EE00039F480911A0180931B0102C0C0E0D0E068
:100EF000012B49F48091010290910202892B19F48F
:100F000080E090E002C081E090E00E949C15892B77
:100F100049F48091030280931A0110920202109208
:100F2000010206C081E090E09093020280930102EA
:100F3000CE01DF91CF911F910F9108950C94770509
:100F40009091FE01911101C082E0089560E08DE66C
:100F500091E00E94100F8091D7029091D802A09149
:100F6000D902B091DA028F309105B0F4FC01EA5A4F
:100F7000FF4F0C941A2A60E085E691E00BC060E018
:100F80008FE591E007C060E089E591E003C060E093
:100F900082E591E00C94220F08959C0130562115B2
:100FA00040E2340720F0305E2115304108F49927E3
:100FB0008C33910528F4FC01E955FE4F208101C0D6
:100FC00020E21F922F939F938F93FB0180811F92AA
:100FD0008F9381811F928F9386E991E09F938F93E6
:100FE0001F9288E18F938EE092E09F938F930E94EF
:100FF000362A8DB79EB70E960FB6F8949EBF0FBED9
:101000008DBF089560E08EE092E00C94F40E60E0F5
:1010100082E191E00C94100F8091FE01882321F071
:101020000E94A6070C9402080C940708FB01228179
:1010300021110E94CD0781E008959C013A95211568
:101040003F4138F5DC01AA27B270AC014427547047
:101050009C012227387094FF0FC090FF02C080E1EE
:1010600001C080E0AB2B09F08062452B09F0806461
:10107000232B69F080680BC0892F8170AB2B09F09E
:101080008260452B09F08460232B09F08860FB0106
:1010900009940895CF93DF93EC01805E910908973E
:1010A00010F0209719F46EE079E102C06AE57BE167
:1010B000CE010E941D088C2FDF91CF910C947F18D8
:1010C000CF93DF93EC010E94BA18CE01805E9109A4
:1010D000089710F0209719F465E179E102C061E604
:1010E0007BE1CE01DF91CF910C941D0881E0089542
:1010F0000C94160808950C947A081F93CF93DF93ED
:1011000000D000D01F92CDB7DEB749835A836B83DE
:101110003091800289819A81311114C0662359F07F
:10112000222349F00E943020182F682F89819A814C
:101130000E94D71F03C00E940320182F69817A8163
:10114000812F04C00E94302069817A810F900F9016
:101150000F900F900F90DF91CF911F910C94370952
:10116000FC01262F408151816281738184810C941E
:101170007D08CF93DF93EC0160E00E94B008BE01D0
:10118000DF91CF910C947B080E945A21811102C0FB
:101190000E9401220C949E070E9407140C9479056A
:1011A00008950E947A1B0E94D0082FEF84E39CE0F0
:1011B000215080409040E1F700C000000C942923AA
:1011C0000F931F93CF93DF93EC0161E00E94B0086F
:1011D0008C01BE010E946413BE01C8010E94780800
:1011E000882379F1BE01C8010E94AB13882349F11D
:1011F000BE01C8010E940611882319F1BE01C80171
:101200000E9458118823E9F0BE01C8010E94831290
:101210008823B9F08A81882369F001158CE51807C5
:1012200031F00F3D1C4531F40E9401220AC00E949A
:10123000D10807C0CE01DF91CF911F910F910C947F
:10124000760880E0DF91CF911F910F910895089566
:101250000C94270981E008950C942A09CF93C82F94
:101260000E9428098C2F0E942C09CF91089520E319
:10127000829FC0011124FC0126E0729FE00DF11D48
:101280001124E60FF11DEE0FFF1FEB58FE4F859165
:1012900094910895CF93DF930E9437090E94270A03
:1012A000EC018115924580F5C11581E5D80708F05C
:1012B00095C0CF3FD10509F0B8F4CD3ED10508F077
:1012C0006CC0C53AD10548F4C430D10508F0BBC0A4
:1012D000C130D10509F4B7C0B4C0CE01805E910918
:1012E000089708F4B0C0ADC0C11590E5D90708F063
:1012F00059C0C11520E4D20708F051C0C11580E2E1
:10130000D80708F4A0C09DC0C11596E5D90718F507
:10131000C11525E5D20708F07AC0C11584E5D807C4
:1013200008F070C09E01237033278C2F8695869518
:10133000C115D34508F057C0C1E0D0E002C0CC0FC2
:10134000DD1F2A95E2F720E2829FC0011124C82BFD
:10135000D92BDC6878C0C1152AE5D20778F4C1150D
:1013600089E5D80708F05DC0C11598E5D90708F4EC
:1013700068C0DC2FCC27C06FD06A65C0CE01905604
:101380008115904208F05DC08D2F8F710E94BB0ABD
:10139000DD27D0628F71D82B56C0D06554C0DF7066
:1013A000D06A51C0CE0174E0969587957A95E1F7A1
:1013B00083709C2F937021E030E002C0220F331F16
:1013C0009A95E2F73C68382BCF70C695C69580E2B7
:1013D000C89FE0011124C22BD32B35C0DC2FCC27B2
:1013E000C16FD06A30C0C1E0D0E002C0CC0FDD1FB9
:1013F0002A95E2F720E2829FC0011124C82BD92B45
:10140000DA6821C0DC2FCC27C46FD06A1CC08C2FB7
:101410000E94BB0A8F71C82FD0E0DC2FCC27D0628E
:1014200012C08C2F8F700E94BB0A94E0D695C7958E
:101430009A95E1F7CF70D0E0DC2FCC27D069C82B8C
:1014400002C0C0E0D0E0CE01DF91CF910895823894
:10145000910569F1B0F48133910509F46DC048F448
:101460008932910509F463C08A32910509F469C093
:1014700008958533910509F455C089339105B9F074
:101480000895833E910569F138F4803E9105B1F0ED
:10149000823E910509F10895863E9105A9F1873EA6
:1014A0009105B9F1843E910509F064C023C02091F3
:1014B000020520FD4FC021FD4DC008958091020519
:1014C00080FD44C08091030580FF44C080910205E7
:1014D00084FD42C083EE4DC08091020582FF38C07A
:1014E000F5CF8091020582FD33C08091030580FD18
:1014F00031C0ECCF8091030581FF32C0809102059D
:1015000084FD2AC087EE35C08091020583FF26C086
:10151000F5CF8091020583FD21C08091030581FDF7
:101520001FC0ECCF8091020585FD1CC01DC08091BD
:10153000020585FD19C016C08091020586FD16C002
:1015400017C08091020586FD13C010C089E311C049
:1015500082EE0FC080EE0DC080E00BC086EE09C0A9
:1015600084EE07C089E205C085E303C08AE201C0BA
:1015700081E390E008959091020592FF0DC0282F1D
:101580002871283019F4877F846006C0282F2471C1
:10159000243011F48B7F886093FF0DC0282F2871B1
:1015A000283119F4877E846106C0282F24712431E4
:1015B00011F48B7E88612091030520FF0DC0382F28
:1015C0003871383019F4877F816006C0382F317147
:1015D000313011F48E7F886021FF0DC0282F2871D3
:1015E000283119F4877E816106C0282F21712131AD
:1015F00011F48E7E886194FD877E089580912C027F
:1016000080FF0BC06091700185E0689FB0011124DC
:1016100075956795759567952BC081FF09C0609199
:10162000700185E0689FB00111247595679520C011
:1016300082FF07C06091700185E0689FB0011124AE
:1016400017C090912B029923D1F060916F019617EA
:1016500088F72091700185E0289F90011124929FC6
:10166000A001939F500D112470E0CA010E94062A28
:101670006038710540F46115710519F406C065E024
:1016800070E0862F08958FE7089581E00895809196
:101690002C0280FF08C060916C0170E07595679521
:1016A0007595679521C081FF06C060916C0170E05F
:1016B0007595679519C082FF04C060916C0170E058
:1016C00010C090912A02992399F060916B019617AE
:1016D000A0F780916C01899FC001112470E00E94E5
:1016E000062A6038710540F46115710519F406C0C9
:1016F00061E070E0862F08958FE7089581E00895F6
:101700008D3E21F40E94FE0A819504C08E3E29F48C
:101710000E94FE0A8093300208958F3E21F40E94B9
:10172000FE0A819504C0803F29F40E94FE0A80933E
:101730002F020895893F19F40E94470B05C08A3F84
:1017400031F40E94470B81958093310208958B3FBD
:1017500021F40E94470B819504C08C3F29F40E941C
:10176000470B8093320208959FE0980F983078F4E9
:1017700021E030E0A90102C0440F551F9A95E2F71D
:10178000CA0190912E02892B80932E0208958D3FDD
:1017900021F480912C0281600BC08E3F21F4809156
:1017A0002C02826005C08F3F29F480912C02846056
:1017B00080932C0208958D3E39F49091300297FF6A
:1017C00035C01092300259C08E3E29F490913002FB
:1017D0001916BCF32BC090912F028F3E29F497FF6E
:1017E00025C010922F0249C0803F19F41916CCF37E
:1017F0001DC090913102893F29F41916BCF4109252
:1018000031023BC08A3F19F497FF10C0F8CF8B3FDD
:1018100039F49091320297FF09C0109232022DC024
:101820008C3F21F4909132021916BCF39FE0980F7F
:10183000983080F421E030E0A90102C0440F551F28
:101840009A95E2F7CA01809590912E0289238093A0
:101850002E0213C08D3F21F480912C028E7F0BC08D
:101860008E3F21F480912C028D7F05C08F3F29F49B
:1018700080912C028B7F80932C0280912F0281110A
:1018800006C080913002811102C010922B0280911B
:101890003102811106C080913202811102C0109282
:1018A0002A0208950E94DC2220912F02211104C0F7
:1018B00020913002222321F0909329028093280264
:1018C00020913102211104C020913202222321F003
:1018D00090932702809326028DE292E00C942017C9
:1018E000EF92FF920F931F93CF93DF9300D000D01E
:1018F00000D0CDB7DEB786E0EDE2F2E0DE01119672
:1019000001900D928A95E1F7E0902F02F09030025D
:10191000009131021091320210922F021092300287
:101920001092310210923202E11003C0FF2009F43C
:101930005DC080912802909129020E94F422AC019E
:1019400090912B02992339F02091710130E02417F6
:10195000350758F04BC0209172018AE0289F900112
:1019600011242417350718F041C09F3F19F09F5FDD
:1019700090932B02EE2061F00E94FE0A1E1414F0D8
:101980009FEF01C091E0989F902D112490932F021A
:10199000FF2061F00E94FE0A1F1414F09FEF01C0A7
:1019A00091E0989F902D11249093300230912F0256
:1019B0003323E1F0209130022223C1F045EB3403C0
:1019C000C0011124992319F090932F0203C081E0E4
:1019D00080932F0235EB2303C0011124992319F0C2
:1019E0009093300203C081E080933002011103C064
:1019F000112309F45DC080912602909127020E9474
:101A0000F422AC0190912A02992339F020916D01C2
:101A100030E02417350758F04BC020916E018AE062
:101A2000289F900111242417350718F041C09F3FCB
:101A300019F09F5F90932A02002361F00E94470BE8
:101A4000101614F09FEF01C091E0989F902D112483
:101A500090933102112361F00E94470B111614F08C
:101A60009FEF01C091E0989F902D11249093320236
:101A7000309131023323E1F0209132022223C1F070
:101A800045EB3403C0011124992319F090933102DE
:101A900003C081E08093310235EB2303C0011124A0
:101AA000992319F09093320203C081E080933202AF
:101AB00080912F0281110BC080913002811107C0EB
:101AC00080913102811103C08091320281110E9404
:101AD000520CEB82FC820D831E8386E0FE01319660
:101AE000ADE2B2E001900D928A95E1F726960FB62D
:101AF000F894DEBF0FBECDBFDF91CF911F910F9144
:101B0000FF90EF900895EDE2F2E086E0DF011D9294
:101B10008A95E9F710922B0210922A0210922C0259
:101B20000895EF92FF920F931F93CF93DF93EC01F1
:101B30007B0164E670E088E70E9425168C01EC0EBC
:101B4000FD1ECE15DF0561F017FD0AC0FE01849170
:101B500064E670E00E947C168C012196892B89F343
:101B60000E940017C801DF91CF911F910F91FF9044
:101B7000EF900895E8EFF2E080E092E0DF019C0151
:101B80001D9221503040E1F7F093FD04E093FC04F6
:101B90008FEF9FEF90935F0280935E0208950E9403
:101BA000A00780935A0280FD02C080E801C080E255
:101BB000809359020E941F166DE070E08CEC93E058
:101BC0000E94910D892B11F080E0089580915A02B6
:101BD00063E070E081FD03C089EC93E002C086EC15
:101BE00093E00E94910D892B79F76DE070E089EB0D
:101BF00093E00E94910D892B39F70E94E822DC01C5
:101C0000CB01805A9541AF4FBF4F8093F80490931A
:101C1000F904A093FA04B093FB040E94BA0D81E08A
:101C200080935D0280935C0210925B020895209184
:101C3000590236E0839FC0011124629F800D911DDF
:101C40001124811522E0920714F080E090E0885082
:101C50009D4F9093FD048093FC0408952091FC0413
:101C60003091FD04225F324040915902642F70E0B0
:101C7000C9010E94F229481B463010F4240F311D7F
:101C8000211582E0380710F020E030E028503D4F69
:101C90003093FD042093FC040895CF93DF938A30A2
:101CA00011F481E003C08D3029F480E0DF91CF9101
:101CB0000C94C30EC62F682F8091FC049091FD04F4
:101CC00026E0FC01A3E3B2E001900D922A95E1F732
:101CD000603E30F026E0FC0111922A95E9F70AC037
:101CE000F6E06F9FB001112467527C4F46E050E050
:101CF0000E94202AC11135C0C091FC04D091FD047E
:101D000046E050E0BE0183E392E00E94292A892B3D
:101D1000B1F1C85FD2409E0185E0369527958A953E
:101D2000E1F781E090E0AC0102C0440F551F2A9515
:101D3000E2F720915E0230915F02242B352B25962D
:101D400045E0D695C7954A95E1F702C0880F991FDF
:101D5000CA95E2F7822B932B90935F0280935E02E9
:101D60000EC0E091FC04F091FD049F012A5F3F4FFB
:101D70002E173F0709F2808180958193F9CFDF917B
:101D8000CF910C942E0ECF93E82F2091FC0430912C
:101D9000FD04285F324040915902642F70E0C90170
:101DA0000E94F229481B842FEE2359F066E00E941E
:101DB000E629C82FC150B0F060E080E20E944D0ECD
:101DC000F9CFA901480F511D4115524018F080E08C
:101DD00020E030E0280F311D28503D4F3093FD04A6
:101DE0002093FC04CF910895FF920F931F93CF93FC
:101DF000DF93EC01F62EFC0101900020E9F78F0142
:101E000001501109C017D10728F46F2D89910E9444
:101E10004D0EF8CFDF91CF911F910F91FF90089554
:101E20001F93CF93DF93EC01162FFE01849188233B
:101E300029F0612F0E944D0E2196F7CFDF91CF91AF
:101E40001F9108950E94100F81E00C94C30E8091A1
:101E50005D028823F9F00E94E822DC01CB01805A60
:101E60009541AF4FBF4F8093F8049093F904A0932E
:101E7000FA04B093FB0480915C0281110BC062E014
:101E800070E087EB93E00E94910D892B19F481E0BB
:101E900080935C0280915C0208956F927F928F9292
:101EA0009F92AF92BF92CF92DF92EF92FF920F93E9
:101EB0001F93CF93DF9380915D02882309F4DCC0E8
:101EC00020915E0230915F022115310509F4D4C0E2
:101ED00080915B028111D0C061E070E0082F10E0BA
:101EE0003B01082E02C0660C771C0A94E2F7A90198
:101EF00046215721452B11F48F5FF0CF90915A0264
:101F0000980165E0220F331F6A95E1F790FD12C03A
:101F10008295880F807680937501220F232F221FD0
:101F2000330B319520937801815E80937601109276
:101F3000790112C045E0369527954A95E1F7220FC1
:101F4000220F220F2093750110927801295F2093B0
:101F5000760183E08093790124E630E047E050E0A9
:101F600063E771E088E70E94AC16892B09F084C012
:101F700080915A0280FD23C0A80195E0440F551FAF
:101F80009A95E1F748505D4F04E610E020E230E01A
:101F900060E488E70E94D316892B09F06DC00E9487
:101FA000270FE301C095D09580915E0290915F026A
:101FB000C823D923D0935F02C0935E025DC080E244
:101FC000E9E3F2E0DF011D928A95E9F785E0000F71
:101FD000111F8A95E1F7A7EEB1E043EE51E0992495
:101FE00093942D91EA018991AE01B801680F711D9A
:101FF00068507D4F30E0275C3D4FF90197E07F014D
:10200000E21AF30AA92C01C0AA0CEA94EAF77B01B0
:10201000B12CE70189917E018A21892E8B18D82D58
:10202000D770CD2E0D2E000CDD08C82F01C0CC0FAF
:10203000DA95EAF7D194C194D108D7E0CD22DD2416
:1020400001C08695CA94EAF78C2BD0808D298083B5
:10205000B39488E0B812DDCF915031969F3F79F666
:10206000C1E0AB3EBC0709F0BCCF04E610E020E2C3
:1020700030E049E352E08CCFDF91CF911F910F9177
:10208000FF90EF90DF90CF90BF90AF909F908F9098
:102090007F906F90089580915D0290915C028823FB
:1020A00089F0992369F062E070E085EB93E00E948B
:1020B000910D892B19F080915C02089510925C02B9
:1020C00090915C0281E0892708950F931F9380917E
:1020D0005D02882329F160E080E00E94170E0E94D3
:1020E0000C080E944D0F80915C028823C9F00E9469
:1020F000E8220091F8041091F9042091FA0430913B
:10210000FB04DC01CB01801B910BA20BB30B8F3FB7
:102110009F4FAF4FBF4720F41F910F910C944B106E
:102120001F910F9108950F931F93CF93DF93C42FA7
:10213000D22FFC0182818823C9F0409362020E9461
:10214000DC22909361028093600280E28C0F8830E1
:1021500008F057C0C77081E001C0880FCA95EAF740
:10216000DF91CF911F910F910C940E198091620213
:10217000481330C080916002909161020E94F42265
:102180008436910538F510E21D0FCD17B9F080E2C5
:102190008C0F883040F4C77081E001C0880FCA9569
:1021A000EAF70E941519183028F581E09D2F9770E5
:1021B00001C0880F9A95EAF70E940E19802F0E949D
:1021C00005191830F0F4D77081E001C0880FDA9556
:1021D000EAF70AC080E28C0F883098F4C77081E07B
:1021E00001C0880FCA95EAF7DF91CF911F910F9137
:1021F0000C941519802FDF91CF911F910F910C94A2
:102200000519DF91CF911F910F9108950F939C01B4
:10221000CB01243F4CE5340731F188F4293DFCE53E
:102220003F07D9F02A3D4CE5340779F1283D3C457C
:10223000A9F506E221EE41EE68ED7CE52BC0263FD4
:10224000FCE53F07E1F0A8F0273F3C4539F507E200
:1022500025EE46EE67EF7CE51DC007E225EE45EE74
:1022600069ED7CE517C006E221EE40EE64EF7CE507
:1022700011C007E225EE44EE65EF7CE50BC006E2F7
:1022800021EE42EE66EF7CE505C008E221E045EE76
:102290006AED7CE50E94931080E008C0FC01828119
:1022A000882319F01092620201C081E00F91089515
:1022B000CF93DF93EC01FB018281882309F41FC1D6
:1022C000C230FCE5DF0708F41BC1C6319CE5D90725
:1022D00038F09E012B5F3C452930310508F010C1D4
:1022E0000E946D219093030580930205C031ECE5B7
:1022F000DE0709F4C3C008F041C0C8308CE5D80738
:1023000009F49AC0F0F4C430ECE5DE0709F487C0A4
:1023100068F4C2308CE5D80709F477C0C330DC45D7
:1023200009F0E3C080910205826076C0C630ECE51A
:10233000DE0709F46EC008F07BC08091020588605A
:102340006BC0CC308CE5D80709F485C068F4CA307E
:10235000ECE5DE0709F474C008F079C00E947A1B2E
:1023600080910205806858C0CE308CE5D80709F40A
:1023700076C008F07FC0809102058BC0CC3FECE5B1
:10238000DE0709F44FC018F5C3318CE5D80709F40E
:102390007DC078F4C131ECE5DE0709F473C0C231C9
:1023A000DC4509F0A2C00E947A1B809102058F775C
:1023B00033C0C5318CE5D80709F472C008F486C073
:1023C000CB3FDC4509F091C0809103053EC0C115AB
:1023D000FDE5DF0709F45FC058F4CE3F9CE5D9075F
:1023E00009F444C008F43FC08091030582602DC009
:1023F000C230FDE5DF0709F475C008F45DC0C330E5
:10240000DD4509F072C080E06EC0809102058160F8
:1024100003C08091020580618093020566C08091AF
:10242000020511C0809103058260809303055DC0A1
:10243000809102058062F0CF809102058064ECCF2C
:102440008091020588608460E7CF8160EECF809143
:1024500002058E7FE1CF809102058D7FDDCF8091D7
:102460000205877FD9CF8091030518C080910305AD
:102470008D7FDBCF809102058F7ECECF80910205CC
:102480008F7DCACF809102058F7BC6CF80910205D8
:10249000877F8B7FC1CF809103058D7F8E7FC5CFD6
:1024A0008091020582FB222720F991E0922790FB80
:1024B00082F990FB83F9B0CF80910305982F909516
:1024C00091708E7F892B90FB81F9AFCF0E947A1B90
:1024D0008091020587FB222720F991E0922790FB4B
:1024E00087F99ACF81E00E940322809102059091A2
:1024F00003050E947E210E947A1B80E001C081E0DA
:10250000DF91CF910895CF93DF9386319C4541F5BC
:10251000EB010E94B120982F8A8120917B0130919C
:102520007C01882379F09A7A81E009F480E0809335
:102530006302911102C069E201C065E3C9010E9412
:102540004A220AC080916302811102C069E201C07F
:1025500065E3C9010E944C220E94F52080E001C081
:1025600081E0DF91CF910895CF93DF93EC0181E07B
:10257000898B8F810E94B42088850E94C7200E9489
:10258000F520EA81FB81CE010696309729F06C890F
:102590007D89DF91CF910994DF91CF910895CF93F9
:1025A000DF93FC012081223041F4FB01EC018281A8
:1025B00093810E944A0881E08B87DF91CF91089533
:1025C000FC018081813021F4FB018081918105C073
:1025D000823029F4FB01828193810C944A0808958A
:1025E000FC018081813021F4FB018081918105C053
:1025F000823029F4FB01828193810C946008089554
:10260000DB01FC018081813021F48D919C910C943F
:102610004A08823039F41396ED91FC911497129682
:102620008C9109940895FC018081813029F4FB018B
:10263000808191810C9460080895EF92FF920F932E
:102640001F93CF93DF93FC012285211136C0EC014B
:10265000E380F480F7E5FF1A26E12E9DC0012F9D4F
:10266000900D1124DC01A45EBE4F1496ED91FC91F7
:1026700015978E5D9E4F309729F054966D917C9101
:102680005597099586E18E9D80018F9D100D11242F
:10269000045E1E4FF80187810E94BA20F8018085F0
:1026A0000E94CD200E94F520188219861B861E826A
:1026B0001D821092650210926402DF91CF911F91EA
:1026C0000F91FF90EF900895DF92EF92FF920F939A
:1026D0001F93CF93DF93FB0122812223A1F120914D
:1026E0007A012F3F81F18C01CCE1D1E0E12CF12C7A
:1026F000DD24D39480917A01082E000C990B8E155D
:102700009F050CF18E818823C9F089859A858017F1
:10271000910739F4809164029091650208171907B6
:1027200069F0DF861C870B878989811103C0CE0180
:102730000E94B412CE0106960E941D13FFEFEF1AFD
:10274000FF0A6696D7CFDF91CF911F910F91FF902F
:10275000EF90DF900895EF92FF920F931F93CF9326
:10276000DF939C0137552F3F310511F008F047C02A
:1027700040917A01042E000C550B4217530714F4B4
:1027800020937A01FB017C01828196E1929F800176
:10279000939F100D1124E801C45EDE4F888B928157
:1027A0008E81992311F1FA86E9868F5F8E830E94CC
:1027B000DC229E878D870E94DA208F830E94B120C1
:1027C00088870E94C4209885892B8887E881F981B1
:1027D000C8018E5D9E4F309719F06C897D890995EF
:1027E000F0926502E09264020AC0882341F0898970
:1027F000882329F0C8018E5D9E4F0E941D1381E041
:10280000DF91CF911F910F91FF90EF900895CF929C
:10281000DF92EF92FF920F931F93CF93DF938091FC
:102820007A018F3FF1F1F12C96E1E92E0F2D10E0A6
:1028300080917A01082E000C990B801791078CF17A
:10284000E09EF001E19EF00D1124E45EFE4FC2888F
:10285000D388C114D10419F484E6C82ED12CE09E8B
:10286000E001E19ED00D1124C45EDE4F8E818823ED
:10287000B1F08D859E850E94F422C816D90678F4A1
:102880008989811103C0CE010E94B412E09EC0016B
:10289000E19E900D11248E5D9E4F0E941D13F394B6
:1028A000C5CFDF91CF911F910F91FF90EF90DF90F7
:1028B000CF9008958EE14A9B02C08150E1F74A9B78
:1028C000FECF08955A9880E28A95F1F75A9A0895B2
:1028D000FC012AE02A95F1F790E020E080E031E069
:1028E000261779F040E14A95F1F7880F4A9B02C01C
:1028F0008160932700C0000040E14A95F1F72F5F07
:10290000EFCF20E12A95F1F729B100C0000030E1B6
:102910003A95F1F722FB222720F992272081920F86
:1029200090830895EF92FF920F931F93CF93DF93BD
:102930001F92CDB7DEB719828C017C01E60EF11C27
:102940000E151F0559F00E945A1468E0CE01019639
:102950000E946814F80181938F01F2CF81E0998180
:10296000911180E00F90DF91CF911F910F91FF9017
:10297000EF900895909368028093670260936602D7
:10298000529A5A9A089590936802809367026093CE
:10299000660252985A9AEA9AE9E6F0E080818F7CC2
:1029A00080830895615091E001C0990F6A95EAF71C
:1029B00020E031E0992361F0492F482319F05A9A19
:1029C000232701C05A9840E24A95F1F79695F2CF35
:1029D000222311F05A9A01C05A9880E28A95F1F7A1
:1029E0005A980895FF920F931F93CF93DF93EC01B2
:1029F0008C01060F111DC017D10741F0F9900E94FC
:102A0000621468E08F2D0E94D214F5CFDF91CF9130
:102A10001F910F91FF9008951F920F920FB60F9282
:102A200011240F931F932F933F934F935F936F93B3
:102A30007F938F939F93AF93BF93EF93FF93CF9326
:102A4000DF931F92CDB7DEB719820E945A1467E058
:102A5000CE0101960E946814382F3695369536952A
:102A6000932F96959570232F2570920F292F237001
:102A7000969596958770920F891348C08981811128
:102A800045C080916602831708F440C080E18A95B2
:102A9000F1F75A9A529AA2E0AA95F1F700C0009174
:102AA000670210916802B8E03B9F000D111D1124D0
:102AB0005A98F8016581662321F0868197810E94EA
:102AC000F2140E946214F0E1FA95F1F75A985298C4
:102AD0005A9A80E18A95F1F7D80112966C91129773
:102AE000662369F013968D919C9114970E9492141D
:102AF000D801ED91FC91811105C082E004C0D8019C
:102B0000ED91FC9188E080830E945A140F90DF9130
:102B1000CF91FF91EF91BF91AF919F918F917F9155
:102B20006F915F914F913F912F911F910F910F9056
:102B30000FBE0F901F9018950F931F93CF93DF93A5
:102B40002091660230E0281739070CF471C09C010F
:102B500093E0220F331F9A95E1F7C0916702D0915D
:102B60006802C20FD31FF894529A5A9845E04A95CA
:102B7000F1F70000982F969595708570890F982F22
:102B8000937086958695890F8901082B0E9462149F
:102B900084E08A95F1F700C067E0802F0E94D2148C
:102BA00040E14A95F1F752985A9A4A9902C000C0FA
:102BB000FCCF87E090E04A9B0EC0019751F4529AF7
:102BC0005A9AE881F98181E08083789481E090E0ED
:102BD00031C000C0F0CF6D81662381F08E819F816E
:102BE0000E94921481110AC0529A5A9AE881F9817E
:102BF00082E08083789482E090E01CC00E945A14A6
:102C000080E28A95F1F75A98529A40E14A95F1F795
:102C10006A81662321F08B819C810E94F2140E94BC
:102C20006214E881F9811082789480E090E002C01B
:102C300084E090E0DF91CF911F910F910895109261
:102C4000B9008CE08093B8000895EF92FF920F9343
:102C50001F93CF93DF93182FEB011092BC0084EAEF
:102C60008093BC000E94DC227C018091BC0087FD27
:102C70000EC0CF3F8FEFD807C1F30E94DC228E1920
:102C80009F098C179D0788F38EEF9FEF2EC08091D0
:102C9000B900887F883041F08091B900887F803109
:102CA00019F08FEF9FEF21C01093BB0084E8809351
:102CB000BC000E94DC228C018091BC0087FD0CC00E
:102CC000CF3F8FEFD807C1F30E94DC22801B910B0E
:102CD0008C179D0788F3D8CF8091B900887F883101
:102CE00011F08034F1F680E090E0DF91CF911F91F8
:102CF0000F91FF90EF9008950F931F93CF93DF9361
:102D0000EB018093BB0084E88093BC000E94DC222E
:102D10008C018091BC0087FD0EC0CF3F8FEFD8079C
:102D2000C1F30E94DC22801B910B8C179D0788F356
:102D30008EEF9FEF0CC02091B900287F81E090E0DA
:102D4000283211F480E090E0919581959109DF910E
:102D5000CF911F910F910895CF92DF92EF92FF9242
:102D60000F931F93CF93DF936B018A017901B90110
:102D70000E942516E6010C0D1D1DC017D10761F438
:102D800024E92093BC00DF91CF911F910F91FF9018
:102D9000EF90DF90CF90089597FDF2CFB701899122
:102DA0000E947C16EACFCF92DF92EF92FF920F93B0
:102DB0001F93CF93DF93C62F6A017901B8010E9458
:102DC000251697FD11C0B8018C2F0E947C16E601D4
:102DD000EC0CFD1CCE15DF0539F097FD05C0B801E0
:102DE00089910E947C16F6CF24E92093BC00DF91E4
:102DF000CF911F910F91FF90EF90DF90CF900895AA
:102E000084E98093BC00089590936E0280936D02D4
:102E10000895E0916D02F0916E02309721F00190DB
:102E2000F081E02D099480E00895E0916D02F09129
:102E30006E02309721F00280F381E02D099408950D
:102E4000E0916D02F0916E02309739F022E0DC01E2
:102E50002C930480F581E02D0994089520916B0254
:102E600030916C022817390771F090936C028093AF
:102E70006B02E0916D02F0916E02309721F00680B6
:102E8000F781E02D099408952091690230916A023A
:102E90002817390771F090936A0280936902E091D4
:102EA0006D02F0916E02309721F00084F185E02DE3
:102EB000099408950E94E82260937C0270937D0239
:102EC00080937E0290937F026093780270937902E0
:102ED00080937A0290937B02089585B7806885BFBE
:102EE00085B7806885BF089581E008950C947417B4
:102EF00008950C9478170C9478170C947B170C9405
:102F000078170C947F170C9478170E946D1788E53A
:102F100091E20E943A230E9483170C9481170E9429
:102F2000D3220E94880580E00E94CF0D0E943F239B
:102F30000C947D178F929F92AF92BF92CF92DF92A7
:102F4000EF92FF920F931F93CF93DF93CDB7DEB72E
:102F50002A970FB6F894DEBF0FBECDBF0E94791737
:102F60000E9478170E94A806982E81110E945A1775
:102F700080E7A82E82E0B82E00E010E0802E802F9F
:102F80000E941E07D82EF501C1905F01C826B1F43A
:102F90000F5F1F4F0830110589F78FEF89838A83F0
:102FA0001B820E94DC228160782F9D838C83498163
:102FB0005A816B818D810E9445182FC08091EC024F
:102FC00081FD0E942407E12CFF24F3948C2D8F2196
:102FD000F1F00E947617882399F0EE828F82DF202D
:102FE00081E009F480E088870E94DC228160782FEC
:102FF0009A8789874E815F8168858A850E944518F6
:10300000F801E059FD4F8081F826F08206C0E39474
:10301000FF0CF6E0EF12DACFBBCF0E9465109110E3
:103020000E94270F0E94700C0E94091790916F0256
:103030008917C1F00E94091780936F022A960FB674
:10304000F894DEBF0FBECDBFDF91CF911F910F91DE
:10305000FF90EF90DF90CF90BF90AF909F908F90B8
:103060000C942E092A960FB6F894DEBF0FBECDBF82
:10307000DF91CF911F910F91FF90EF90DF90CF9054
:10308000BF90AF909F908F900895DF92EF92FF9244
:103090000F931F93CF93DF93CDB7DEB72B970FB668
:1030A000F894DEBF0FBECDBFF42E052F162FE72EEE
:1030B000D82E61110E94D420FE01319686E0DF01F6
:1030C0001D928A95E9F77E2D4F2D502F612F8D2D62
:1030D0009E810E94191E2B960FB6F894DEBF0FBE7C
:1030E000CDBFDF91CF911F910F91FF90EF90DF90B7
:1030F0000895FC01808191810E9472200895CF93F0
:103100008823B1F1C82F8CEF8C0F813AD0F46C2F4B
:1031100080917B0190917C010E941422882349F0C8
:103120006C2F80917B0190917C010E944C220E9427
:10313000F5206C2F80917B0190917C010E944A22A6
:103140000CC080E28C0F883058F4C77081E001C059
:10315000880FCA95EAF70E94B420CF910C94F5200D
:10316000CD3E30F08C2F0E94800BCF910C94520CEE
:10317000CF910895882389F19CEF980F913A40F4FC
:10318000682F80917B0190917C010E944C220DC0A0
:1031900090E2980F983058F4877091E001C0990F31
:1031A0008A95EAF7892F0E94BA200C94F5209BE5B6
:1031B000980F933020F480E090E00C942E1798E55F
:1031C000980F973120F480E090E00C9444178D3EE6
:1031D00020F00E94DB0B0C94520C08951F93CF93A8
:1031E000DF93182FEB010E947F18209741F08FE9A1
:1031F0009FE00197F1F700C000002197F6CF812FE3
:10320000DF91CF911F910C94BA18893319F060E0C7
:1032100070E002C060E570E00C94EE18882321F0A5
:103220000E94B4200C94F5200895882321F00E9478
:10323000BA200C94F5200895CF92DF92EF92FF927E
:103240000F931F93CF93DF937C01D62FC72FFC01E1
:103250000281158112951F700E94AA20882399F07F
:10326000002389F08C2F807F803421F080E28D0F45
:10327000883048F082E00E943F210E94AA2091E01D
:10328000D82ED92601C0D12CCC2EC2948FE0C822D2
:103290008C2D90E08C30910508F098C1FC01EB5921
:1032A000FF4F0C941A2A8C2F807FCF70882311F047
:1032B000C295C07F002399F0CC2309F473C180E24A
:1032C0008D0F883010F0D11104C08C2F0E94B420D3
:1032D00003C08C2F0E94C7200E94F52063C18D2F50
:1032E0000E94BA18CC2309F471C180E28D0F883096
:1032F00010F0D11104C08C2F0E94BA2003C08C2F73
:103300000E94CD200E94F52061C18C2F807FCF705C
:10331000803211F0C295C07FDD2319F0D130C9F0A1
:1033200022C0002371F0112341F0113031F40E94CA
:10333000DA208C2B0E94E22049C10E94DA208C2BDB
:103340001DC0112319F0113009F440C10E94EB2077
:1033500025C0002321F0163008F038C10EC015300A
:1033600008F034C11BC0002361F0112331F0F701D4
:10337000858180FF17C18F7085838C2F0E940E1965
:1033800025C1112359F0D93309F01DC1FFEF07EE14
:1033900013E0F15000401040E1F713C18C2F0E9460
:1033A000151914C18D2F002319F00E94800B02C043
:1033B0000E94DB0B0E94520C11C18C2F837009F00C
:1033C00047C0011107C12D2F229526952770220F86
:1033D000220F6D2F6F70862F90E0A0E0B0E0022EDC
:1033E00004C0880F991FAA1FBB1F0A94D2F7D4FFED
:1033F00010C04FE050E060E070E004C0440F551F83
:10340000661F771F2A95D2F7409550956095709565
:1034100003C040E050E0BA01C695C695C3708A016A
:103420009B01082B192B2A2B3B2BC901B801C23059
:1034300049F058F4C13019F00E94ED1ECBC00E9433
:10344000DB1EC8C00E94FF1EC5C00E94D91EC2C09C
:10345000002319F08C2F817001C08695882309F410
:10346000B9C02D2F229526952770220F220F6D2F80
:103470006F70862F90E0A0E0B0E0022E04C0880FAD
:10348000991FAA1FBB1F0A94D2F7D4FF10C04FE0A8
:1034900050E060E070E004C0440F551F661F771FC6
:1034A0002A95D2F7409550956095709503C040E0FD
:1034B00050E0BA01C695C695C3708A019B01082BDE
:1034C000192B2A2B3B2BC901B801C23049F058F403
:1034D000C13019F00E94B21F7DC00E94A01F7AC0A7
:1034E0000E94C41F77C00E94131F74C0CF700023B6
:1034F00039F08C2F0E94391F8D2F0E940E196AC03F
:103500008D2F0E9415198C2F0E945A1F63C0D23F25
:1035100001F128F4D03F41F0D13FA1F03FC0D33FAB
:10352000F9F0D43F39F13AC0002341F0153008F0EA
:103530004DC08C2F8F710E947F1F48C0163008F03D
:1035400045C0F7CF002339F08C2F8F710E94391FAF
:103550003DC00023C9F38C2F8F710E945A1F36C0C3
:10356000002329F08C2F8F710E94241F2FC00E94EE
:103570001F1F2CC0002349F0CF718C2F0E94391FD0
:1035800063E08C2F0E942A2121C081E00E943F210C
:103590001230E0F082E00E943F2118C0002331F099
:1035A000112391F28D2F0E947F1810C0112399F2E0
:1035B000D93349F41FEF27EE33E01150204030405B
:1035C000E1F700C000008D2F0E94BA1888EF8C0D23
:1035D000843020F40E9409170E942E09DD20C9F0D2
:1035E0000E94A62080FD15C0F70112820E94A02033
:1035F0000E94391FC7010E942A1B0E94A020DF9150
:10360000CF911F910F91FF90EF90DF90CF900C948E
:103610005A1FDF91CF911F910F91FF90EF90DF9094
:10362000CF9008950F931F93CF93DF93EC016881A0
:1036300079818A810E947D208C010E94D61F0E9480
:10364000C71EB801CE010E941C19DF91CF911F91B6
:103650000F910895CF93DF93EC01988189812B819D
:103660003C81232B31F08F3F31F481E09F3F19F4EF
:1036700003C081E001C080E080FD19C0CE010E943E
:10368000E00881110CC00E94AA20882381F08A8161
:10369000882369F082E0DF91CF910C943F21CE0125
:1036A0000E94121BCE01DF91CF910C94B908DF91DB
:1036B000CF910895882321F00E94C7200C94F52013
:1036C0000895882321F00E94CD200C94F5200895C0
:1036D0000E94D4200E94D7200E94F5200E94830DD2
:1036E0000C94520C80917B0190917C010E944E229F
:1036F0000C94681B0E94C1200C94721BE92FE29568
:10370000EF704E2F50E0FA013297EE30F105B0F431
:10371000EF58FF4F0C941A2A803F91F018F4883E1E
:1037200068F40EC0843F51F40BC0883E48F0813FDE
:1037300029F406C093FB882780F9089580E0089556
:1037400081E008950E9472200E947E1B0895CF930D
:10375000DF9300D000D01F92CDB7DEB70F900F904F
:103760000F900F900F90DF91CF910895CF93DF933B
:1037700000D000D000D0CDB7DEB726960FB6F894B3
:10378000DEBF0FBECDBFDF91CF9108951F93CF93C2
:10379000DF93C091810216E080918202C81799F0F0
:1037A000D0E01C9FF0011D9FF00D1124ED57FD4F3F
:1037B0004081518162817381848195810E94B61B11
:1037C0002196C770E9CFDF91CF911F910895409165
:1037D000B3025091B4026091B5027091B60280912B
:1037E000B7029091B8020C94B61B0F931F93CF931E
:1037F000DF938091B80282958F7009F05DC080914F
:10380000B502882309F458C0809181021091820288
:103810006091B3027091B402C091B602D091B70228
:1038200091E06F3F09F090E0292F06E0811709F43D
:1038300043C0209721F07F3F21F030E003C031E00A
:1038400001C0322F90E030FD34C0089FF001099F85
:10385000F00D1124DF01AD57BD4F11963C9111972A
:10386000371327C03C91361324C012963C9112970F
:1038700031111FC013964D915C9114974C1B5D0B39
:1038800044365105B0F48091B8028F708061809306
:10389000B802E857FD4F80818F708061808383EB91
:1038A00092E00E942A1BDF91CF911F910F910C94FF
:1038B000C61B01968770BACFDF91CF911F910F91F0
:1038C00008959F92AF92BF92CF92DF92EF92FF92B4
:1038D0000F931F93CF93DF93CDB7DEB761970FB6EA
:1038E000F894DEBF0FBECDBF8C0185E0F801DE018C
:1038F0001D9601900D928A95E1F7F8014081518162
:10390000E2809091B3026091B4022091B6023091AE
:10391000B7022115310531F06F3F31F481E09F3F4F
:1039200019F403C081E001C080E0F82FF1709F2EF0
:1039300080FD2CC1F801A380B48083EBC82E82E007
:10394000D82EF090B502F501E21BF30BFF2009F42D
:10395000EBC08091B802E436F10508F0A7C0282F2B
:10396000207F09F052C0561313C0491311C0FE2C1A
:10397000E1100EC08F7080618093B8020E94E71B37
:10398000C6010E942A1B8091B802F80185833EC1BE
:10399000AB2831F05F3F31F481E04F3F19F403C0B1
:1039A00081E001C080E080FD03C081E08E2502C07F
:1039B00080E090E0F82FF170FF2E80FF1CC0809116
:1039C00081022091820236E0821709F4FDC090E066
:1039D000389FF001399FF00D1124ED57FD4F6181A3
:1039E000561306C06081461303C06281E61203C00D
:1039F00001968770E9CFFE2CEE2009F407C1809173
:103A0000B80281608093B80266C0561312C0491391
:103A100010C0E1100EC0F8018583C8010E942A1B66
:103A200086E0F801A3EBB2E001900D928A95E1F7F0
:103A3000C8C04D875E878D859E850E94A21B882306
:103A400079F1EE2069F12091B802822F82958F7072
:103A500090E0029774F08091B3029091B40298873D
:103A60008F831986BB86AA862C87CE0107960E9473
:103A70002A1B86E0F801A3EBB2E001900D928A9533
:103A8000E1F70E94F51B0E94E71B0DC0561729F1B4
:103A90004D875E878D859E850E94A21B81112CC05B
:103AA000C8010E942A1BFF24F394B0C0282F207F56
:103AB00069F77A2DB98AA88A6E2D89890E94A71B79
:103AC00083EB92E00E942A1B86E0F60111928A9510
:103AD000E9F70E94E71BF12C99C04913D9CFE110F7
:103AE000D7CFF8018583C8010E942A1B86E0F60122
:103AF00011928A95E9F78AC0EE2091F22091B802DE
:103B0000822F82958F7090E002970CF4B2CF809153
:103B1000B3029091B4029A8389831B82BD82AC82E6
:103B20002E83CE010196A3CFE436F10510F5FE2CCD
:103B3000EE2009F4B5CF56130BC0491309C086E037
:103B4000F801A3EBB2E001900D928A95E1F75EC017
:103B50004D875E878D859E850E94A21B811189CF2E
:103B60008091B80281608093B802C8010E942A1B2C
:103B70004DC07A2DB98AA88A6E2D89890E94A71B0B
:103B800086E0F60111928A95E9F71BC0EE2009F450
:103B900087CF4D875E878D859E850E94A21BF82E5C
:103BA000882309F47DCF86E0F801A3EBB2E0019011
:103BB0000D928A95E1F783EB92E00E9479180E94BA
:103BC000F51B0E94E71B22C04D875E878D859E8571
:103BD0000E947220292F22952F70223028F49F7086
:103BE00039F0811105C00BC0243028F49F7049F4CE
:103BF000805E883020F0C8010E942A1B9F2CF92C7F
:103C000005C0F8019581907F99F7F9CF8F2D6196C6
:103C10000FB6F894DEBF0FBECDBFDF91CF911F91DD
:103C20000F91FF90EF90DF90CF90BF90AF909F905B
:103C300008951F93CF93DF93CDB7DEB72C970FB6C0
:103C4000F894DEBF0FBECDBF4F83588769877A8750
:103C50008B879C87CE0107960E94611C8823D1F038
:103C60009F8188852A853B85232B31F08F3F31F456
:103C700081E09F3F19F403C081E001C080E080FD36
:103C800047C04F81588569857A858B859C850E94C0
:103C9000B61B3EC086E0FE013796DE01119601900C
:103CA0000D928A95E1F7FF81E8856A857B8561152C
:103CB000710531F0EF3F31F481E0FF3F19F403C0AB
:103CC00081E001C080E080FD23C02091820230E0CD
:103CD000C9010196877099274091810250E08417AD
:103CE0009507F1F1F983EA837D836C8396E0929FD7
:103CF000D001939FB00D1124AD57BD4FFE013196F9
:103D000001900D929A95E1F7809382020E94C61B62
:103D100016E08091810290918202891771F1189FBB
:103D2000C00111248D579D4F0E94611C882329F1E9
:103D3000E09181021E9FF0011124ED57FD4F40815B
:103D4000518162817381848195810E94B61B80912B
:103D5000810290E001968770992780938102D9CFE4
:103D60000E947A1B1092820210928102E3EBF2E031
:103D700086E0DF011D928A95E9F72C960FB6F8943C
:103D8000DEBF0FBECDBFDF91CF911F910895089583
:103D900008950C94C81E0C94C91E0E94CB1E6093FB
:103DA000DB027093DC028093DD029093DE020C94C0
:103DB000681B0C94CD1E0F931F930091DB02109192
:103DC000DC022091DD023091DE02602B712B822B10
:103DD000932B1F910F910C94CD1E0F931F93009165
:103DE000DB021091DC022091DD023091DE026023C3
:103DF0007123822393231F910F910C94CD1E0F9357
:103E00001F930091DB021091DC022091DD023091C2
:103E1000DE0260277127822793271F910F910C9450
:103E2000CD1E0C94C81E0E94111F6093D702709380
:103E3000D8028093D9029093DA020C94681B60E058
:103E400070E0CB010C94131F0F931F9341E050E0DF
:103E500060E070E08A019B0104C0000F111F221F67
:103E6000331F8A95D2F7C901B8011F910F910C94A5
:103E7000131F0F931F9341E050E060E070E004C017
:103E8000440F551F661F771F8A95D2F78091D7027E
:103E90009091D802A091D902B091DA028A019B01D7
:103EA000082B192B2A2B3B2BC901B8011F910F910D
:103EB0000C94131F0F931F9341E050E060E070E0FB
:103EC00004C0440F551F661F771F8A95D2F740958F
:103ED0005095609570958091D7029091D802A091ED
:103EE000D902B091DA028A019B01082319232A23FF
:103EF0003B23C901B8011F910F910C94131F0F931D
:103F00001F9341E050E060E070E004C0440F551F93
:103F1000661F771F8A95D2F78091D7029091D802B9
:103F2000A091D902B091DA028A019B0108271927D2
:103F30002A273B27C901B8011F910F910C94131F29
:103F40000F931F930091D7021091D8022091D902AC
:103F50003091DA02602B712B822B932B1F910F91E2
:103F60000C94131F0F931F930091D7021091D80246
:103F70002091D9023091DA026023712382239323A6
:103F80001F910F910C94131F0F931F930091D70251
:103F90001091D8022091D9023091DA02602771275E
:103FA000822793271F910F910C94131F0895292F97
:103FB000220F920F990F890FE82FE695E695E69567
:103FC000877051E001C0550F8A95EAF785E0E89FB8
:103FD000F0011124E754FD4F20E030E070E0408113
:103FE000CB01022E02C0969587950A94E2F7817064
:103FF000819584278523842781932F5F3F4F253028
:10400000310569F70895292F220F920F990F890F13
:10401000682F669566956695982F977085E0689FDE
:10402000B001112440E050E080E0FB01E40FF51FF7
:10403000E754FD4F208130E0092E02C036952795C8
:104040000A94E2F721703327042E01C0220F0A944C
:10405000EAF7822B4F5F5F4F4530510531F70895E6
:10406000BF92CF92DF92EF92FF920F931F93CF9365
:10407000DF938C01C090D702D090D802E090D90293
:10408000F090DA028091DB029091DC02A091DD02D7
:10409000B091DE02C82AD92AEA2AFB2ACFE1D0E071
:1040A000D701C6010C2E04C0B695A79597958795A4
:1040B0000A94D2F780FD04C0219790F7B12C07C075
:1040C000BC2EB8018C2F0E944A090197A9F38B2DB1
:1040D000DF91CF911F910F91FF90EF90DF90CF90E4
:1040E000BF900895CF93DF93EC010E943020BE0172
:1040F0000E944A09DF91CF9108951F93CF93DF93D8
:10410000EB0190918002992321F0CB010E94722053
:1041100013C0882349F0CB010E943020182F682F4C
:10412000CE010E94D71F04C0CB010E940320182F8C
:10413000BE01812F0E944A09DF91CF911F910895FE
:104140008091DF0285958595859508958091DF02A0
:10415000877008959091DF02977081E009F480E004
:1041600008958091EB0208959091EB02892B809342
:10417000EB02089580959091EB0289238093EB02E6
:1041800008951092EB0208958091EA0208959091AB
:10419000EA02892B8093EA02089580959091EA02C1
:1041A00089238093EA0208951092EA0208951092FA
:1041B000E90208958091E002089508950C94DD20AD
:1041C0000C94DE209091E002981721F08093E00299
:1041D0000C94E02008958091E002882329F0109249
:1041E000E00280E00C94E0200895E0917B01F091E2
:1041F0007C018091EB028083E0917B01F0917C0156
:1042000090818091EA02892B8083E0917B01F0917B
:104210007C0190818091E902892B80838091E0026A
:10422000882381F0E0917B01F0917C019081892BC2
:10423000808380917B0190917C010E9408228111F2
:104240000E94EB2080917B0190917C010C941517CA
:104250000C94DD2098E0899F90011124262B209357
:10426000DF020E94391F8091DF0285958595859533
:104270000C9428211092DF0280E00C9428212091D8
:10428000DF02809582238093DF02982F977079F464
:1042900030E0482F082E000C550B2417350739F055
:1042A0008595859585950E945A1F0C943A2108950D
:1042B00080E0089580E090E00E94FF2C21E08B3E9A
:1042C0009E4F09F020E0822F089582E090E00C9448
:1042D000F72C83E090E00C94F72CCF9384E090E0EF
:1042E0000E94F72CC82F81E290E00E94F72C2C2F1F
:1042F00030E0A901582BCA01CF910895CF93C92F5F
:10430000682F84E090E00E94052D6C2F81E290E000
:10431000CF910C94052DAB01BC018FE090E00C9483
:10432000172DAB01BC0183E190E00C94172D60E0E8
:1043300070E0CB010C94912160E070E0CB010E9411
:104340008B210C9497216BEE7EEF80E090E00E9431
:10435000232D60E082E090E00E94052D60E083E084
:1043600090E00E94052D1092DB021092DC02109268
:10437000DD021092DE0260E084E090E00E94052DF4
:1043800060E081E290E00E94052D60E085E090E031
:104390000E94052D60E086E090E00E94052D6FEF01
:1043A00087E090E00E94052D40E050E0BA0188E0EF
:1043B00090E00E94172D60E08DE090E00E94052DB6
:1043C00040E050E0BA0188E190E00E94172D60E0E3
:1043D00087E190E00E94052D40E050E0BA018CE1B9
:1043E00090E00E94172D60E080E290E00E94052D91
:1043F00040E050E0BA0188E190E00E94172D0C9453
:104400009C210C94A321682F8EE090E00C94052D44
:10441000FC01329697E080E0915029F0219122230F
:10442000D9F38F5FF9CF0895662349F0FC013296E6
:1044300008962191621729F0E817F907D1F780E073
:10444000089581E008959C01FC0132969FEF80E081
:104450004191461789F09F3F19F4411101C0982FEF
:104460008F5F8630A9F79F3F39F0F901E90FF11D01
:1044700097FDFA956283089508959C012A5F3F4F46
:10448000FC014281461301C01282019682179307F4
:10449000B9F708950C9423220C943D22029626E04D
:1044A000FC0111922A95E9F7089508950C9455227C
:1044B0000C945522CF930E9458220E94A8060E9475
:1044C0005622C0E08C2F0E941E07811104C0CF5FCE
:1044D000C830C1F701C081E0CF9108950C945522F6
:1044E0000C946E2280910805843049F10E9470225C
:1044F00080E00E942E091092ED0220E488E190E015
:104500000FB6F894A895809360000FBE20936000CA
:1045100083B7817F846083BF83B7816083BF7894D2
:10452000889583B78E7F83BF0FB6F894A895809146
:104530006000886180936000109260000FBE089553
:104540000C9455220E947A1B0E9409170E942E0982
:104550000C94A0221F920F920FB60F9211248F93EA
:104560009F93AF93BF938091ED02811113C080910F
:10457000FE049091FF04A0910005B09101054196C1
:10458000A11DB11D8093FE049093FF04A09300052C
:10459000B0930105BF91AF919F918F910F900FBE86
:1045A0000F901F90189582E084BD93E095BD9AEF1F
:1045B00097BD80936E0008952FB7F8948091FE0404
:1045C0009091FF04A0910005B09101052FBF0895BF
:1045D0002FB7F8946091FE047091FF04809100055C
:1045E000909101052FBF08959C014FB7F8948091D9
:1045F000FE049091FF04A0910005B09101054FBF0A
:10460000821B930B089578941F920F920FB60F920E
:1046100011248F939F93AF93BF938091FE04909149
:10462000FF04A0910005B09101050196A11DB11DE7
:104630008093FE049093FF04A0930005B0930105BE
:10464000BF91AF919F918F910F900FBE0F901F90D0
:10465000189587E797E790930108809300089AE000
:1046600088E10FB6F894A895809360000FBE9093F0
:104670006000FFCF9093ED018093EC0108950E94BC
:104680005A21811102C00E9401220E94652180935B
:10469000EC020E946D2190930305809302050E9415
:1046A0006921682F70E080E090E00E94D91E60913F
:1046B000D7027091D8028091D9029091DA020C94BD
:1046C000111F8091F6020895089522E02093E900D9
:1046D0002FEF3091E800215035FD06C035ED3A95B9
:1046E000F1F700002111F5CF2091E80025FF0BC064
:1046F00040E050E066E070E00E9448258091E800CC
:104700008E778093E8000895CF93DF9321E0209384
:10471000E9002FEF3091E800215035FD06C035ED5E
:104720003A95F1F700002111F5CF2091E80025FF1F
:1047300014C0EC0140E050E068E070E00E944825C1
:104740008091E8008E778093E80088E0FE01AEEE6D
:10475000B2E001900D928A95E1F7DF91CF91089533
:10476000089580910705811109C00E94D9260E94F1
:1047700036278091E20084608093E20008951092D1
:104780000705089508950895089542E061EC81E0D9
:104790000E94522642E261EC82E00C945226809103
:1047A0000A05833009F460C030F4813071F0823042
:1047B00009F499C008958A3009F485C08B3009F452
:1047C0006BC0893009F0A7C020C080910905813AEB
:1047D00009F0A1C08091E800877F8093E800809174
:1047E0000D0590910E05892B21F468E08EEE92E084
:1047F00003C060E080E090E070E00E94932580912B
:10480000E8008B778093E800089580910905813254
:1048100009F081C080910D0590910E05029708F076
:104820007AC08091E800877F8093E8008091E8005B
:1048300082FD05C0809108058111F8CF6CC02091E0
:10484000F3008091F20090E0922B029729F480917E
:10485000F1008B7F813021F48091F1008093F6028A
:104860008091E8008B7753C080910905813A09F067
:1048700052C080910D0590910E05892B09F04BC017
:104880008091E800877F8093E8008091E80080FFB6
:10489000FCCF8091870136C0809109058132D9F51E
:1048A00080910D0590910E05892BA9F58091E80066
:1048B000877F8093E8000E94872680910B05809374
:1048C00087010C947A1B80910905813221F5809132
:1048D000E800877F8093E8000E94872680910C057E
:1048E0008093F702089580910905813AA1F480919F
:1048F000E800877F8093E8008091E80080FFFCCF8C
:104900008091F7028093F1008091E8008E77809388
:10491000E8000C948726089584B7877F84BF0FB67C
:10492000F894A8958091600088618093600010924F
:1049300060000FBE90E080E80FB6F89480936100AD
:10494000909361000FBE0E9485170E94D9260E9495
:1049500036278091E20084608093E20078940E9480
:10496000CB290E948F178DE791E00E940417809158
:1049700008058530A9F480910805853079F40E94F6
:104980007222809106058823B1F30E945A2288235F
:1049900091F30E9432250E947A1BEDCF0E94A22241
:1049A0000E949A170E9479170E947817E0CF0C9402
:1049B000D924292F332723303105C9F060F4213061
:1049C000310581F02230310509F044C08BE390E0DD
:1049D0002DE339E043C021323105E1F022323105C7
:1049E00049F138C082E190E028E739E037C09927E3
:1049F0008130910549F028F0029761F5E9E1F9E08D
:104A000005C0E9E3F9E002C0E7E2F9E0849190E053
:104A10009F0124C06115710541F061307105D1F429
:104A200089E090E028E639E019C089E090E02FE4C1
:104A300039E014C06115710541F06130710551F420
:104A400089E490E02AE839E009C080E490E023EDB1
:104A500039E004C080E090E020E030E0FA013183EA
:104A60002083089580E189BD82E189BD09B400FEFB
:104A7000FDCF8091D8008F7D8093D8008091E00099
:104A800082608093E0008091E00081FDFCCF08957A
:104A9000CF92DF92EF92FF920F931F93CF93DF930A
:104AA000EC018B017A010E94A626811133C0E1142A
:104AB000F10439F0F70180819181081B190BC80FAF
:104AC000D91FC12CD12C0115110519F18091E800D5
:104AD00085FD16C08091E8008E778093E800E11490
:104AE000F10449F0F70180819181C80ED91ED1826D
:104AF000C08285E00FC00E94A626882321F30AC049
:104B000089918093F10001501109FFEFCF1ADF0A5C
:104B1000DACF80E0DF91CF911F910F91FF90EF905E
:104B2000DF90CF90089520910F0530911005261742
:104B3000370748F06115710539F42091E8002E77A8
:104B40002093E80001C0B901FC0120E06115710566
:104B500079F1809108058823F1F18530F1F1809198
:104B6000E80083FD3CC08091E80082FD2EC080916A
:104B7000E80080FFEBCF2091F3008091F20090E0FD
:104B8000922B6115710551F08830910538F421910F
:104B90002093F100615071090196F3CF21E008974D
:104BA00009F020E08091E8008E778093E800CECF76
:104BB0002111CFCF0AC080910805882361F085308C
:104BC00061F08091E80083FD0AC08091E80082FFD7
:104BD000F2CF80E0089582E0089583E0089581E0B7
:104BE000089520910F05309110052617370748F0DA
:104BF0006115710539F42091E8002E772093E800C3
:104C000001C0B901FC0120E06115710591F18091AD
:104C10000805882309F440C0853009F43FC080911D
:104C2000E80083FD3DC08091E80082FD2FC08091A7
:104C3000E80080FFE9CF2091F3008091F20090E03E
:104C4000922B6115710559F08830910540F424913B
:104C50002093F1003196615071090196F2CF21E065
:104C6000089709F020E08091E8008E778093E800B3
:104C7000CBCF2111CCCF0AC080910805882361F0E9
:104C8000853061F08091E80083FD0AC08091E800E2
:104C900082FFF2CF80E0089582E0089583E00895D6
:104CA00081E00895982F973068F59093E900981760
:104CB00039F07091EC002091ED005091F00003C0AC
:104CC000242F762F50E021FD02C09F5FECCF309162
:104CD000EB003E7F3093EB003091ED003D7F309351
:104CE000ED003091EB0031603093EB007093EC00FD
:104CF0002093ED005093F0002091EE0027FDE5CFCA
:104D000080E008958F708093E90081E0089580919C
:104D1000090587FF11C08091E80082FD05C08091E0
:104D200008058111F8CF11C08091E8008B770BC086
:104D300080910805882349F08091E80080FFF8CF32
:104D40008091E8008E778093E80008952091E40038
:104D50003091E50095E64091EC00842F817040FF92
:104D600023C08091E80080FD1DC080910805882344
:104D700099F0853099F08091EB0085FD11C040914C
:104D8000E4005091E5002417350729F3915011F004
:104D90009A01E1CF84E0089582E0089583E00895C8
:104DA00081E0089580E008954091E80042FFDDCF62
:104DB00008950E9447270E944F27E0EEF0E080818F
:104DC00081608083E8EDF0E080818F77808319BC7B
:104DD000A7EDB0E08C918E7F8C9380818F7E808355
:104DE0001092070508950F931F93CF93DF930E94AE
:104DF00047270E944F27C8EDD0E088818F778883AE
:104E000088818068888388818F7D888319BC10920F
:104E1000080510920405109206051092050500EE93
:104E200010E0F80180818B7F808388818160888396
:104E300042E060E080E00E945226E1EEF0E08081F6
:104E40008E7F8083E2EEF0E08081816080838081CC
:104E500088608083F80180818E7F80838881806173
:104E60008883DF91CF911F910F910895E8EDF0E0D5
:104E700080818F7E8083E7EDF0E080818160808398
:104E800084E082BF81E0809307050C94F326E8ED6F
:104E9000F0E080818E7F80831092E200089510926E
:104EA000DA001092E10008951F920F920FB60F9250
:104EB00011242F933F934F935F936F937F938F931F
:104EC0009F93AF93BF93EF93FF938091E10082FF95
:104ED0000BC08091E20082FF07C08091E1008B7FD0
:104EE0008093E1000E94CA298091DA0080FF1FC0F0
:104EF0008091D80080FF1BC08091DA008E7F809364
:104F0000DA008091D90080FF0DC080E189BD82E187
:104F100089BD09B400FEFDCF81E0809308050E94A1
:104F2000B12305C019BC109208050E94BF238091CF
:104F3000E10080FF19C08091E20080FF15C08091E0
:104F4000E2008E7F8093E2008091E2008061809396
:104F5000E2008091D80080628093D80019BC85E07F
:104F6000809308050E94C3238091E10084FF30C034
:104F70008091E20084FF2CC080E189BD82E189BD7F
:104F800009B400FEFDCF8091D8008F7D8093D800BA
:104F90008091E1008F7E8093E1008091E2008F7E1E
:104FA0008093E2008091E20081608093E200809132
:104FB0000405882311F084E007C08091E30087FD99
:104FC00002C081E001C083E0809308050E94C423F1
:104FD0008091E10083FF29C08091E20083FF25C01A
:104FE0008091E100877F8093E10082E08093080553
:104FF000109204058091E1008E7F8093E100809102
:10500000E2008E7F8093E2008091E20080618093D5
:10501000E20042E060E080E00E9452268091F000D1
:1050200088608093F0000E94C223FF91EF91BF91AE
:10503000AF919F918F917F916F915F914F913F9130
:105040002F910F900FBE0F901F9018951F920F92E7
:105050000FB60F9211242F933F934F935F936F934B
:105060007F938F939F93AF93BF93CF93DF93EF93F0
:10507000FF93C091E900CF708091EC00D82FD170E0
:1050800080FDD0E81092E9008091F000877F809346
:10509000F00078940E946A281092E9008091F00054
:1050A00088608093F000CD2BCF70C093E900FF9112
:1050B000EF91DF91CF91BF91AF919F918F917F91B0
:1050C0006F915F914F913F912F910F900FBE0F9075
:1050D0001F9018951F93CF93DF93CDB7DEB7AA9794
:1050E0000FB6F894DEBF0FBECDBFE9E0F5E08091CA
:1050F000F100819325E0E131F207C9F70E94CF2347
:105100008091E80083FF2EC18091090590910A05E6
:10511000492F50E04A30510508F024C1FA01E15806
:10512000FF4F0C941A2A803821F0823809F01AC1F6
:1051300008C08091050590910605992389F0826049
:105140000FC080910D058F70873008F00BC18093E0
:10515000E9008091EB0085FB882780F91092E90037
:105160009091E800977F9093E8008093F10010926F
:10517000F100D1C0282F2D7F09F0F4C0882319F049
:10518000823061F0EFC080910B05813009F0EAC0F8
:10519000933009F080E0809306052EC080910B05C6
:1051A00081112AC080910D058F702FEF280F2630B6
:1051B00008F0D8C08093E9002091EB0020FF1CC0CC
:1051C000933021F48091EB00806214C09091EB0049
:1051D00090619093EB0021E030E0A90102C0440F00
:1051E000551F8A95E2F74093EA001092EA008091F9
:1051F000EB0088608093EB001092E9008091E8005A
:10520000877F8093E8000E948726ACC08111AAC0E6
:1052100010910B051F778091E3008078812B80939C
:10522000E3008091E800877F8093E8000E94872652
:105230008091E80080FFFCCF8091E300806880933C
:10524000E300111102C082E001C083E080930805F1
:1052500089C08058823008F085C080910B059091FC
:105260000C058C3D53E0950779F583E08A838AE24B
:1052700089834FB7F894DE01139620E03EE051E2B7
:10528000E32FF0E050935700E49120FF03C0E29534
:10529000EF703F5FEF708E2F90E0EA3010F0C7960E
:1052A00001C0C0968D939D932F5F243149F74FBF66
:1052B0008091E800877F8093E8006AE270E0CE0189
:1052C00001960E94932516C060910D0570910E0500
:1052D000AE014F5F5F4F0E94D724BC01892B09F4B8
:1052E00041C09091E800977F9093E80089819A816E
:1052F0000E94F1258091E8008B778093E80032C00E
:10530000803881F58091E800877F8093E800809164
:1053100004058093F1008091E8008E7772CF8111AF
:1053200021C080910B0590910C0599270297D4F428
:105330008091E800877F8093E80080910B0580933F
:1053400004050E94872680910405811106C0809182
:10535000E30087FD02C081E001C084E0809308057E
:105360000E94C5238091E80083FF0AC08091E80075
:10537000877F8093E8008091EB0080628093EB0050
:10538000AA960FB6F894DEBF0FBECDBFDF91CF91C6
:105390001F9108950895CF93809108058823A1F067
:1053A000C091E900CF709091EC00892F817090FD41
:1053B00080E8C82B1092E9008091E80083FD0E94EC
:1053C0006A28CF70C093E900CF910895991B79E0C6
:1053D00004C0991F961708F0961B881F7A95C9F785
:1053E00080950895AA1BBB1B51E107C0AA1FBB1FD4
:1053F000A617B70710F0A61BB70B881F991F5A9561
:10540000A9F780959095BC01CD01089597FB072ED3
:1054100016F4009407D077FD09D00E94F22907FC0A
:1054200005D03EF4909581959F4F089570956195B4
:105430007F4F0895EE0FFF1F0590F491E02D099422
:10544000FB01DC0102C005900D9241505040D8F79D
:105450000895FB01DC0104C08D910190801921F4B5
:1054600041505040C8F7881B990B0895AEE0B0E05A
:10547000ECE3FAE20C94472D0D891E898F89988DF3
:1054800026E02C831A83098397FF02C080E090E80E
:1054900001979E838D83AE01455E5F4F698D7A8D46
:1054A000CE0101960E94662A4D815E8157FD0AC099
:1054B0002F813885421753070CF49A01F801E20F47
:1054C000F31F10822E96E4E00C94632DABE0B0E065
:1054D000ECE6FAE20C94392D6C017B018A01FC01A7
:1054E00017821682838181FFCCC1CE0101963C01D7
:1054F000F6019381F70193FD859193FF81917F01DF
:10550000882309F4BAC1853239F493FD859193FF5C
:1055100081917F01853229F4B60190E00E945D2CD3
:10552000E7CF912C212C312CFFE1F315D8F08B32F1
:1055300079F038F4803279F08332A1F4232D2061A0
:105540001DC08D3261F0803369F4232D216016C0B7
:10555000832D8260382EE32DE4603E2E2AC0F32D89
:10556000F8601DC037FC2DC020ED280F2A3040F018
:105570008E32B9F436FC81C1232D2064322E19C03D
:1055800036FE06C08AE0989E200D1124922E11C08E
:10559000EAE02E9E200D1124222EF32DF0623F2EE4
:1055A00008C08C3621F4832D8068382E02C08836DE
:1055B00041F4F70193FD859193FF81917F01811162
:1055C000B3CF982F9F7D9554933028F40C5F1F4FD5
:1055D0009FE399830DC0833631F0833771F08335B3
:1055E00009F059C021C0F801808189830E5F1F4FE7
:1055F00088248394912C530113C02801F2E04F0EAC
:10560000511CF801A080B18036FE03C0692D70E006
:1056100002C06FEF7FEFC5010E94522C4C01820146
:10562000F32DFF773F2E16C0280122E0420E511CB9
:10563000F801A080B18036FE03C0692D70E002C081
:105640006FEF7FEFC5010E94472C4C01F32DF068EE
:105650003F2E820133FC1BC0822D90E088169906F4
:10566000B0F4B60180E290E00E945D2C2A94F4CF61
:10567000F50137FC859137FE81915F01B60190E01D
:105680000E945D2C21102A9421E0821A9108811435
:10569000910471F7E8C0843611F0893641F5F801BC
:1056A00037FE07C060817181828193810C5F1F4F3B
:1056B00008C060817181072E000C880B990B0E5F6A
:1056C0001F4FF32DFF763F2E97FF09C090958095D1
:1056D000709561957F4F8F4F9F4FF0683F2E2AE066
:1056E00030E0A3010E94992C882E861845C085378A
:1056F00031F4232D2F7EB22E2AE030E025C0932DE9
:10570000997FB92E8F36C1F018F4883579F0B5C07D
:10571000803719F0883721F0B0C0E92FE061BE2E44
:10572000B4FE0DC0FB2DF460BF2E09C034FE0AC0CC
:10573000292F2660B22E06C028E030E005C020E107
:1057400030E002C020E132E0F801B7FE07C060811E
:105750007181828193810C5F1F4F06C060817181CE
:1057600080E090E00E5F1F4FA3010E94992C882ECD
:105770008618FB2DFF773F2E36FE0DC0232D2E7F82
:10578000A22E891458F434FE0BC032FC09C0832DBC
:105790008E7EA82E05C0B82CA32C03C0B82C01C047
:1057A000B92CA4FE0FC0FE01E80DF11D80818033ED
:1057B00021F49A2D997EA92E09C0A2FE06C0B394A9
:1057C000B39404C08A2D867809F0B394A3FC11C069
:1057D000A0FE06C0B21488F4280C922C9B180EC0B0
:1057E000B21460F4B60180E290E00E945D2CB394A4
:1057F000F7CFB21418F42B1802C0982C212CA4FE59
:1058000010C0B60180E390E00E945D2CA2FE17C09C
:10581000A1FC03C088E790E002C088E590E0B601F3
:105820000CC08A2D867859F0A1FE02C08BE201C01F
:1058300080E2A7FC8DE2B60190E00E945D2C891405
:1058400038F4B60180E390E00E945D2C9A94F7CF83
:105850008A94F301E80DF11D8081B60190E00E9469
:105860005D2C8110F5CF222009F442CEB60180E2F2
:1058700090E00E945D2C2A94F6CFF60186819781F4
:1058800002C08FEF9FEF2B96E2E10C94552DFC01A7
:105890000590615070400110D8F7809590958E0F5B
:1058A0009F1F0895FC016150704001900110D8F7CE
:1058B000809590958E0F9F1F08950F931F93CF9300
:1058C000DF93FB01238121FD03C08FEF9FEF2CC0ED
:1058D00022FF16C046815781248135814217530724
:1058E00044F4A081B1819D012F5F3F4F318320831C
:1058F0008C93268137812F5F3F4F3783268314C0D7
:105900008B01EC01FB010084F185E02D0995892BC9
:10591000E1F6D80116968D919C91179701961796EE
:105920009C938E931697CE01DF91CF911F910F918B
:105930000895FA01AA27283051F1203181F1E89425
:105940006F936E7F6E5F7F4F8F4F9F4FAF4FB1E072
:105950003ED0B4E03CD0670F781F891F9A1FA11D6D
:10596000680F791F8A1F911DA11D6A0F711D811D6E
:10597000911DA11D20D009F468943F912AE0269F33
:1059800011243019305D3193DEF6CF010895462F92
:105990004770405D4193B3E00FD0C9F7F6CF462F73
:1059A0004F70405D4A3318F0495D31FD40524193DC
:1059B00002D0A9F7EACFB4E0A69597958795779599
:1059C0006795BA95C9F700976105710508959B0120
:1059D000AC010A2E06945795479537952795BA95A9
:1059E000C9F7620F731F841F951FA01D0895F999B1
:1059F000FECF92BD81BDF89A992780B50895A8E1A0
:105A0000B0E042E050E00C942B2D262FF999FECF08
:105A100092BD81BDF89A019700B4021639F01FBA01
:105A200020BD0FB6F894FA9AF99A0FBE089503961E
:105A3000272F0E94062D0E94052D252F0E94062D3E
:105A4000242F0C94062D0196272F0E94062D0C94CE
:105A5000052DDC01CB01FC01F999FECF06C0F2BD9A
:105A6000E1BDF89A319600B40D9241505040B8F71C
:105A700008952F923F924F925F926F927F928F92F2
:105A80009F92AF92BF92CF92DF92EF92FF920F93CD
:105A90001F93CF93DF93CDB7DEB7CA1BDB0B0FB6D7
:105AA000F894DEBF0FBECDBF09942A883988488894
:105AB0005F846E847D848C849B84AA84B984C8842A
:105AC000DF80EE80FD800C811B81AA81B981CE0F21
:105AD000D11D0FB6F894DEBF0FBECDBFED01089506
:045AE000F894FFCF68
