:020000040800F2
:100000000004002091010008995C00089301000899
:100010009301000893010008930100089301000870
:100020009301000893010008930100089301000860
:100030009301000893010008930100089301000850
:100040009301000893010008930100089301000840
:100050009301000893010008930100089301000830
:100060009301000893010008930100089301000820
:100070009301000893010008930100082D6900080E
:10008000516B0008930100089301000893010008D8
:1000900093010008930100089301000893010008F0
:1000A00093010008930100089301000893010008E0
:1000B000930100089301000893010008B16B000848
:1000C00072B6244880F30888234880F30988022008
:1000D00080F31488BFF36F8F05F0E4FA04F010FF8B
:1000E0001E481F491B4A914202DA08600431FAE7B0
:1000F0001C49194A914202DA08600431FAE71A49A8
:100100001A4A1B4B9A4204DA086810600431043220
:10011000F8E700201749184A914202DA08600431D2
:10012000FAE705F0C3FA05F0BEFA144C144DAC42E0
:1001300003DA216888470434F9E702F0FFFA114C2A
:10014000114DAC4203DA216888470434F9E70F49BE
:100150000847000000040020000C002055555555AC
:10016000000000200004002058800008000C00203F
:10017000101000201010002098250020C00000085A
:10018000C0000008C0000008C0000008A956000810
:1001900096E700F000F8FEE7F0B544464D465646B7
:1001A0005F46F0B46B46CB60C3689D46F0BCA0468A
:1001B000A946B246BB46F0BD62B6281CA047002047
:1001C00005F024FDFEE705F061FC024A024B1360D6
:1001D000FEE7C04604ED00E00000008002B4714676
:1001E00049084900095649008E4402BC7047C04680
:1001F00002B4714649084900095C49008E4402BCBA
:100200007047C04603B47146490840004900095E82
:1002100049008E4403BC704703B47146490840004E
:100220004900095A49008E4403BC70470022430824
:100230008B4274D303098B425FD3030A8B4244D3AE
:10024000030B8B4228D3030C8B420DD3FF220902F0
:1002500012BA030C8B4202D31212090265D0030BAF
:100260008B4219D300E0090AC30B8B4201D3CB03A5
:10027000C01A5241830B8B4201D38B03C01A5241E7
:10028000430B8B4201D34B03C01A5241030B8B42E9
:1002900001D30B03C01A5241C30A8B4201D3CB02D4
:1002A000C01A5241830A8B4201D38B02C01A5241B9
:1002B000430A8B4201D34B02C01A5241030A8B42BC
:1002C00001D30B02C01A5241CDD2C3098B4201D3D4
:1002D000CB01C01A524183098B4201D38B01C01A52
:1002E000524143098B4201D34B01C01A52410309C9
:1002F0008B4201D30B01C01A5241C3088B4201D378
:10030000CB00C01A524183088B4201D38B00C01A24
:10031000524143088B4201D34B00C01A5241411A4B
:1003200000D20146524110467047FFE701B5002058
:1003300000F0F0F802BDC0460029F7D076E770471C
:1003400003460B437FD4002243088B4274D3030936
:100350008B425FD3030A8B4244D3030B8B4228D3D7
:10036000030C8B420DD3FF22090212BA030C8B42FD
:1003700002D31212090265D0030B8B4219D300E09D
:10038000090AC30B8B4201D3CB03C01A5241830B22
:100390008B4201D38B03C01A5241430B8B4201D3D2
:1003A0004B03C01A5241030B8B4201D30B03C01AFB
:1003B0005241C30A8B4201D3CB02C01A5241830A75
:1003C0008B4201D38B02C01A5241430A8B4201D3A4
:1003D0004B02C01A5241030A8B4201D30B02C01ACE
:1003E0005241CDD2C3098B4201D3CB01C01A524135
:1003F00083098B4201D38B01C01A524143098B42BE
:1004000001D34B01C01A524103098B4201D30B01A6
:10041000C01A5241C3088B4201D3CB00C01A5241CB
:1004200083088B4201D38B00C01A524143088B4290
:1004300001D34B00C01A5241411A00D20146524129
:10044000104670475DE0CA0F00D04942031000D348
:100450004042534000229C4603098B422DD3030A9D
:100460008B4212D3FC22890112BA030A8B420CD3AD
:10047000890192118B4208D3890192118B4204D3D6
:1004800089013AD0921100E08909C3098B4201D356
:10049000CB01C01A524183098B4201D38B01C01A90
:1004A000524143098B4201D34B01C01A5241030907
:1004B0008B4201D30B01C01A5241C3088B4201D3B6
:1004C000CB00C01A524183088B4201D38B00C01A63
:1004D0005241D9D243088B4201D34B00C01A52413A
:1004E000411A00D20146634652415B10104601D3C7
:1004F0004042002B00D54942704763465B1000D351
:10050000404201B5002000F005F802BD0029F8D0F6
:1005100016E770477047C046002B11D1002A0FD153
:10052000002900D1002802D00021C943080007B4E7
:10053000024802A14018029003BDC046D9FFFFFF48
:1005400003B4684601B5029800F034F8019B9E465A
:1005500002B00CBC7047C046F0B5CE469946030CBD
:100560009C46130447461B0C1D000E006146040404
:10057000240C80B50700100C4B4365434143604396
:100580002C0CC01824188C46A34203D980235B028C
:100590009846C444494679435643230C2D042D0CF8
:1005A0008919634424046019C918C0BCB946B0460F
:1005B000F0BDC046F0B557464E464546DE46E0B56E
:1005C00004000D009246994683B08B4230D82DD05E
:1005D0004946504600F0BAF829000600200000F015
:1005E000B5F8331A9846203B34D49B4653465A46B6
:1005F000934042461F00534693401E00AF423BD8F3
:10060000AF4200D179E05B46A41BBD41002B00DA6C
:1006100076E0002200230092019301235A46934082
:100620000193012342469340009329E08242CFD9AF
:1006300000220023009201930C9B002B01D01C6030
:100640005D600098019903B0F0BCBB46B246A94674
:10065000A046F0BD42469B4620239B1A5246DA40F4
:10066000414613004A468A40170042461F435346FC
:1006700093401E00AF42C3D9002200230092019391
:100680004346002BD8D0FB0772081A4346467B0826
:100690000EE0AB4201D1A2420CD8A41A9D41012028
:1006A00024196D410021013E24184D41002E06D031
:1006B000AB42EED9013E24196D41002EF8D10098CD
:1006C00001995B4600196941002B24DB2B005A4637
:1006D0004446D3402A00E2401C005B461500002B34
:1006E0002ADB26009E40330026004746BE403200EB
:1006F000801A9941009001919EE7A342BCD882E7FD
:100700004246202300219B1A0022009101920122DF
:10071000DA40019285E7424620239B1A2A0046468A
:100720009A402300F340444613432A00E2401C0051
:100730005B461500002BD4DA42462F00202326000A
:1007400097409B1ADE403B003343CDE710B50029AC
:1007500003D100F007F8203002E0080000F002F8B2
:1007600010BDC0461C2101231B04984201D3000C7C
:1007700010391B0A984201D3000A08391B09984214
:1007800001D30009043902A2105C40187047C0462A
:10079000040302020101010100000000000000004A
:1007A000F0B50500830749D0541E002A45D0030048
:1007B0000326CAB202E00135013C3ED301332A7060
:1007C0003342F8D1032C30D9FF220A401502AD186C
:1007D0002A04AD180F2C34D92700103F3F093E01E1
:1007E000B4461E001A0010366644156055609560C8
:1007F000D56010329642F8D101373F01DB190F273F
:100800000C22274022403C00002A0ED03E1FB60892
:10081000B400A4461A001C1D644420C2A242FCD1AC
:1008200003240136B6009B193C40002C05D0C9B208
:100830001C19197001339C42FBD1F0BD0300140058
:10084000C0E72700E2E7C046F0B505000F2A31D91E
:1008500003273E000D430C0003002E402F4234D1ED
:100860001500103D2D09AC462F013F1865685D60ED
:10087000A5689D60E568DD60256810341D601D0079
:100880001033BD42F2D165460F230C2401352D01F2
:1008900049191340451914421AD0043B9B080133EF
:1008A0009B008C59AC5104369E42FAD10323AD19FA
:1008B00089191A40561E002A06D00023CC5C1A0063
:1008C000EC5401339642F9D1F0BD0500561EF4E711
:1008D0001A00EFE730B5032A1AD90B0003439B0730
:1008E00011D0551E002303E05A1C9D4213D0130063
:1008F000C25CCC5CA242F7D0101B0DE0043A04307D
:100900000431032A04D904680B689C42F6D0E8E756
:10091000551E002AE6D1002030BDC046130002005B
:1009200010B50A4304000120032A0AD80B2B08D86B
:100930000C224A433021614352180248D218520017
:10094000105A10BDE071000810B5FFF7E7FF10BDA9
:10095000012070470120704710B5FFF7FBFF10BD65
:10096000012070470120704710B5FFF7FBFF10BD55
:100970007047704710B5FFF7FCFF10BD01207047AE
:100980007047704713B5114B00901B780191002BF5
:1009900016D16B465B79002B0DD0002A0BD000F0EE
:1009A000BBFD04000100009800F08EFD20000099BE
:1009B00001F0A0FB16BD009800F09AFD0400F5E7D9
:1009C000009800F0A9FD0099F2E7C0461810002039
:1009D00010B504000A000188408800040843A1887B
:1009E000FFF7D0FF10BD10B504000121FFF7F0FFA5
:1009F0002100FFF7ADFF0023984207D0012120001E
:100A0000FFF7E6FF2100FFF7A7FF030001201840D2
:100A100010BD70B500210400FFF7DAFF05002100CA
:100A2000FFF7A6FF28002100FFF7A4FF70BD70B5F7
:100A300001210400FFF7CCFF21000500FFF790FF24
:100A4000002801D1002070BD21002800FFF78CFF95
:100A50000028F7D02100280002F0BCFD0028F1D0CA
:100A60002100280003F02CFD0028EBD021002800F5
:100A700003F03AF90028E5D02100280003F00AF934
:100A80000028DFD02100280001F02EFC0028D9D05A
:100A90002100280001F03AFC0028D3D021002800D2
:100AA00001F056FCCFE70123834010B598B200F067
:100AB0005EFC10BD10B504000120A04080B201F022
:100AC0000FF92000FFF7EFFF10BD0120704710B5B0
:100AD000FFF7FBFF10BD10B5040000F0F9FB20008C
:100AE000FFF74CFF2000FFF7F2FF10BD10B501200B
:100AF000FFF7F1FF03F0CAFF10BD10B50020FFF7AC
:100B0000EAFF03F0D3FF10BD10B5FFF739FF03F084
:100B1000C6FE002002F03AFD00F03EF810BD10B510
:100B200002F032FC00F03DF8FFF72BFF03F0BCFEB3
:100B300010BD332102010009024352B29300920812
:100B40000A408B43134355225BB258005B08904325
:100B500013401843C0B2704770B50500C0B2FFF72C
:100B6000E8FF0400280AFFF7E4FF2402204380B2D4
:100B700070BD01207047704770B5051CFFF7F9FF85
:100B8000041E02D0281CFFF7F6FF200070BD70473E
:100B900010B5FFF7F1FF10BD10B50020FFF7F8FF0B
:100BA00010BD10B503F0E8FCFFF7F2FF10BD000028
:100BB00010B503F0E1FC0C4B04001A78824211D00E
:100BC000187003F007FF0522084B1860084B1B78CC
:100BD0001340934203D12100064802F0A5F82000FB
:100BE000FFF7D6FF10BDC0461010002014100020E3
:100BF000A0100020607300081FB50B0ADBB2009044
:100C00000191002B01D000F037FF0E2300226B442E
:100C10001A80009B02AC02936B469B88A380DBB2D8
:100C2000934204D10298616800F082FE1FBD20004B
:100C3000FFF7D9FE0028F5D1F8E7037910B5012BAD
:100C400002D1008800F08AFC10BD10B5002904D044
:100C500003F0A2F903F06AFA10BD03F0F3F9F9E723
:100C600010B5041E13D0822812D103F091FC800726
:100C70000DD4392003F04CFD00F076FFC820800031
:100C800004F0C9FF392003F04DFD00F06DFF10BDE9
:100C900083280ED103F07CFCC007F8D4532003F066
:100CA00037FD00F061FFFA20800004F0B4FF53200C
:100CB000E9E784280ED103F06BFC4007E7D4472016
:100CC00003F026FD00F050FFFA20800004F0A3FF9F
:100CD0004720D8E7031FDBB2A02B11D802F080FF1A
:100CE0000028D4D1200003F0DFFC002804D020002D
:100CF00003F018FD00F038FF200003F009FDC4E701
:100D000003002033DBB2072B07D807230340012061
:100D10009840C0B200F08AFEB7E703005B33DBB255
:100D2000022B04D8243CA0B203F076FCAFE703000A
:100D30005833DBB21A2B05D8074A5B00985A03F0E8
:100D400087FCA4E703003333DBB2122B9FD803F0F8
:100D500023F903F0EBF99AE7707C000810B500283E
:100D60000FD082280ED103F013FC800709D539205B
:100D700003F0CEFC00F0F8FE392003F0D3FC00F0C5
:100D8000F3FE10BD83280AD103F002FCC007F8D59A
:100D9000532003F0BDFC00F0E7FE5320EDE784286C
:100DA0000AD103F0F5FB4007EBD5472003F0B0FC78
:100DB00000F0DAFE4720E0E7031FDBB2A02BDCD90E
:100DC00003002033DBB2072B07D8072303400120A1
:100DD0009840C0B200F032FED1E703005B33DBB2D3
:100DE000022B03D8002003F017FCCAE70300583396
:100DF000DBB21A2B03D8002003F02AFCC1E7030062
:100E00003333DBB2122BBCD803F01CF903F08EF99C
:100E1000B7E7000070B504000D00FFF721FF0120C7
:100E2000002D0ED000230A4A28000021FFF794FB72
:100E30000023084A80185941FA2200239200FFF744
:100E40006BFB04F0E8FE2000FFF788FF70BDC04692
:100E500010270000E70300000A2110B5392800D14F
:100E60004631FFF7D7FF10BD10B5002803D000F0C2
:100E7000DDFD00F079FE10BD10B5002803D000F0B4
:100E8000DDFD00F071FE10BDF0B585B087790C1C5A
:100E90004579029000F0BAFD23043F0901900393C5
:100EA000002828D00195002D25D023041B0E0F22E9
:100EB0001900914340290FD0E1B20A0000202032EE
:100EC000D2B20190072A16D91F229343202B03D1B7
:100ED000012910D987420ED00022A84B01925B78DD
:100EE0005B0708D5022000F06BFE00F08FFD0123A8
:100EF0004340DBB201932304180F0B283ED8FFF7C1
:100F00008BF90C000C0057005700B400C8003D00DE
:100F10003D00CD0029013F013F0126052304360F86
:100F20001B0E0F2B00D93601E4B2002D12D0002E7B
:100F30000BD023002033DBB23000072B01D9002C6B
:100F400005D100F073FD00F00FFE200051E000F02D
:100F500083FDF8E72000FFF701FF002E0ED02300ED
:100F60002033DBB23000072B01D9002C02D100F076
:100F700065FD01E000F078FD00F0F6FD019B002B1F
:100F800000D1AEE000F03AFD012302001A40184201
:100F900000D0A6E0029B5A7100F02AFD00F026FA6C
:100FA000029800F05DF900F023FD00F02BFA98E0C4
:100FB0000F22230426051B0E360F9343202B00D04F
:100FC0003601E4B2002C06D0012C36D0002D3FD0E3
:100FD000002F1CD0B9E7694B5B785B0713D4002D59
:100FE0000AD0002E04D0300000F020FD00F0BCFD3F
:100FF0000020FFF735FEC1E72800FFF7AFFE002E07
:10100000BCD03000B3E7002D0BD0002F03D130004F
:10101000FFF72AFFB2E7012FB0D1300000F04CFDFE
:10102000ACE7002FAAD13000FFF726FF300000F018
:1010300051FD300000F02CFDA0E7002D02D0052F5F
:101040009CD8E4E7042F99D83000FFF715FF95E707
:10105000002FF9D06420392C01D1C820800004F081
:10106000DAFD2000FFF77AFE88E72005800F09D01F
:10107000012883D10020854201D0A005800D03F016
:10108000E7FA7BE7002D01D0A005800D03F0C4FA3C
:1010900074E72900E0B2FFF7D8FD6FE723049B0156
:1010A0009B0F29D1002D18D123065B0F9B0022072F
:1010B000DBB2120F9A4090B2E10603D50F359D4086
:1010C000ED43ADB22405A40F2843022C0ED0032C0F
:1010D0000FD0012C07D000F059F903F04DFAFFF7BB
:1010E00057FD05B0F0BD00F047F9F6E700F058F9FC
:1010F000F3E700F03CF9F0E7A3059B0FDAB2002D0F
:101100001CD0DB07E9D523065B0F9B002207DBB26F
:10111000120F9A40002092B2E10603D50F3098409A
:10112000C04380B22405A40F1043022C0CD0032C22
:101130000DD0012C05D000F087F9CEE7012ACCD9DB
:10114000E1E700F077F9C8E700F088F9C5E700F0BB
:1011500037F9C2E7E6B22405240F002D06D020009F
:1011600000F044F93000FFF77FFEB6E73000FFF7EC
:1011700083FE200000F046F9AFE7C0462C24002093
:10118000E6B23000F03804283DD8FFF731F80325E7
:1011900010172100002D06D0042F9ED8E004C00EA9
:1011A00000F03CF999E7052F00D996E7F6E7E0044F
:1011B000C00E002DDED100F019F98EE7002D04D00D
:1011C000E004C00E00F00BF987E700F003F984E7B4
:1011D0001A4B5B785B0704D4E004C00E002DC9D025
:1011E000E9E7002D05D0E0040321C00E00F0C6FCA5
:1011F00073E7012000F0E4FC012F00D86DE7022026
:1012000000F0DEFC69E7002D08D0002F03D030008D
:10121000FFF726FD61E7E004C00ECCE7002F0AD0FF
:101220006420392E01D1C820800004F0F4FC300085
:10123000FFF794FD51E7E004C00E9BE72C2400204B
:1012400070B504002188407900F092F9051C00F087
:101250000FF900F08BF8291C2000FFF715FE70BD78
:10126000037910B50400002B11D0FFF7E0FB002834
:101270000ED100F0CBFB002809D06379002B06D0FB
:10128000074B5B785B0702D5022000F099FC10BD8C
:101290002000FFF7D5FF2000FFF7BBFBF7E7C046B4
:1012A0002C24002010B5002003F0B6F9002003F034
:1012B000CFF900F0E1FB00F057FC02F0ABFF02F0C9
:1012C00035FF10BD10B503F037FAFFF7EBFF10BD87
:1012D00010B500F0BBFBFFF7F5FF10BDC2B2000474
:1012E000030F062B18D00F21062B0ED80E3300202B
:1012F0000B40012B08D80120F02A05D007D8002088
:10130000E72393424041C0B270470633EFE7F43A17
:10131000100043425841F6E70120E72AF4D9F13A98
:1013200053425A41D0B2EFE703000279002010B5D2
:10133000824204D0188800F011F9FFF7CFFF10BDEA
:1013400082B002B0704782B002B07047704710B5EB
:10135000FFF7FCFF10BD704710B5FFF7FCFFFFF76C
:10136000F6FF014B188010BD34100020704710B5F7
:10137000FFF7F2FF10BD000010B5034B1B881843A8
:10138000FFF7EAFF10BDC0463410002010B5034B34
:101390001B881840FFF7E0FF10BDC0463410002046
:1013A00010B5034B1B885840FFF7D6FF10BDC04651
:1013B00034100020704710B5FFF7FCFF10BD7047D8
:1013C00010B5FFF7FCFFFFF7F6FF014B188010BDCB
:1013D0003210002010B50020FFF7F2FF10BD0123EE
:1013E000834010B598B2FFF7EBFF10BD0123834097
:1013F000034A10B51088184380B2FFF7E1FF10BD13
:10140000321000200123834010B5034A108898430E
:10141000FFF7D6FF10BDC0463210002001238340E5
:10142000034A10B51088584080B2FFF7C9FF10BDBD
:101430003210002010B5034B1B881843FFF7C0FF84
:1014400010BDC0463210002010B5034B1B88184059
:10145000FFF7B6FF10BDC0463210002010B5034B99
:101460001B885840FFF7ACFF10BDC046321000206B
:10147000704770B50126CB089B00D21807233500B2
:1014800019408D400021EDB20300CB40545C334045
:101490005B4263402B405C40545401310429F3D13A
:1014A00070BD30B5072400220440C0088000091830
:1014B000012510008B5CE3402B4093400132184320
:1014C000C0B2042AF6D130BD13B5030401AA1080BE
:1014D0001B0E0800032B08D814780B2C05D80C2100
:1014E0005943024A0919FFF7C4FF13BD1910002020
:1014F00007B5030401AA10801B0E0020032B08D897
:1015000012780B2A05D80C30584302498018FFF78F
:10151000C8FF0EBD19100020F7B50F2401270D4A92
:101520000D4B12881B8801AE1A4330800092009B3D
:1015300023413B4204D1013CF9D200252800FEBDE5
:10154000E5B22800316800F0E5FD80B20128F2D054
:10155000F4E7C046321000203410002007B501AB7C
:1015600018800198FFF7D8FF019900F0D3FD0EBD58
:1015700013B501AB19800E4B1B78002B03D00198DB
:10158000FFF7ECFF16BD00280CD00198FFF7C4FF51
:10159000040001000198FFF797FF2000019900F077
:1015A000B9FDEFE70198FFF7A3FF0400F5E7C04698
:1015B0001810002070B507250B4B1C780B4B1B78BF
:1015C000A34200D170BD0A4BE200D15A9B18588843
:1015D0009A8800040843D988013409041143FFF7AD
:1015E000B2FE2C40EAE7C04636100020371000203B
:1015F00038100020064B10B558881A88D988000486
:1016000010439A8809041143FFF79DFE10BDC046A0
:1016100078100020F8B51A4883790F2B2BD843791E
:10162000002B28D0174B05881A78174B46881C7852
:1016300007239C46154FA2421DD0D300DB19197910
:10164000002919D01988A94216D15979002913D136
:101650005988891B89B2C7290ED80F241021827995
:1016600022400A4382719A79224011439971FFF70F
:10167000F7FDFFF79FFFF8BD634601321A40DAE736
:10168000781000203610002037100020381000207D
:10169000F7B50E4C0E4B24781B7801940D4C019D30
:1016A000AB4201D10020FEBDDE00A5196F788F424C
:1016B00005D1365D864202D16D79954203D1072569
:1016C00001332B40EBE70120EDE7C0463710002047
:1016D0003610002038100020F0B5040089B0062232
:1016E000010004A8FFF7B0F82378904D03936378C6
:1016F000667902932B7967882279002B18D1002A0A
:1017000000D1CAE0002E00D107E12000FFF70CFE57
:10171000002800D101E1082221002800FFF794F8F9
:101720002800FFF78AFAFFF775FFFFF763FFB4E0C1
:101730006B7901936B880199FB1A9BB2002900D148
:10174000C1E0C72B00D985E0002A00D1A5E0AB7924
:10175000298822880F2B53D8914211D1002E49D1CC
:101760000F22134001321343AB71FFF743FF2800F0
:10177000FFF776FDAB79A3710025280009B0F0BD15
:10178000002E37D1320002990398FFF781FF320013
:1017900002990398FFF77CFF051EEDD10498FFF72F
:1017A000DDFEC3B200040F21020F032A08D8012A6C
:1017B0000FD9000E014211D0A2790F2A0ED8DCE712
:1017C00006320A40012A0ED92000FFF749FD019D8B
:1017D000D3E7000E014201D0002BCED02033DBB284
:1017E000072BCAD9F0E7EF2BC7D90F33DBB2022B97
:1017F000C3D9E9E701234D4A91790B439371BBE7C4
:1018000091420BD1002E09D1A3712000FFF728FDD2
:10181000082221002800FFF717F886E72000FFF7CD
:1018200083FD002879D0002E77D0404B9A791F2A6B
:101830000AD9198806A8018047801B798271037133
:1018400000234371FFF70CFD082221002800FEF75A
:10185000FBFF68E7AB790F2B0ED804980599FFF7CB
:101860006FFD2800FFF7FCFC082200212800FEF78E
:1018700097FFFFF7BFFE7FE7002A0ED02988228856
:1018800091420CD1002E0AD12000A371FFF7E8FC91
:10189000082231002800FEF783FF01256DE72000B4
:1018A000FFF742FD002838D0002E36D0AB791F2B31
:1018B000CAD92A8806A8028047802A7983710271D2
:1018C00000224271BEE7C72B2BD8002AE5D0002E9C
:1018D00023D02A8823889A4216D1AB79DA070DD40F
:1018E0000F2B0BD90F21A3718B43F02B8DD0A37934
:1018F0001A09013212010B40134385E70822210027
:101900002800FEF7A1FFC8E72000FFF70DFD002823
:101910009AD10123AA791343AB712000FFF7A0FCF1
:10192000BBE704980599FFF70BFD9DE778100020B1
:10193000F0B585B06C46009020006160FFF7CCFEEA
:10194000274E071E274D0DD02379002B03D000987A
:101950006168FFF7F8FC072728783378834225D1A0
:1019600005B0F0BD220002AB9C4603CA03C3207938
:1019700033782A780028EED007205C1C044094427B
:101980000AD01948DB0008226146C018FEF75CFF48
:101990003470FFF70FFEDEE7FFF79AFC08223900EC
:1019A000124837702F70FEF7FBFED4E70E4CC000D4
:1019B0000019FFF791FE0028D2D02B78DB001A5BCC
:1019C000E4186088E188A3880004090419431043DF
:1019D000FFF7B9FC2B7801333B402B70BCE7C046C6
:1019E000371000203610002038100020781000201A
:1019F000014B1878C008704788100020024B1878F7
:101A0000072318407047C04688100020034B187801
:101A100007231840431E9841C0B270478810002029
:101A2000014B18787047C04694100020024B1A787A
:101A3000104318707047C04694100020024A137873
:101A4000834313707047C046941000200022014B5E
:101A50001A70704794100020024B1A7810431870C7
:101A60007047C04693100020024A137883431370D6
:101A70007047C046931000200022014B1A70704737
:101A800093100020704710B5FFF7FCFF10BD000059
:101A9000030010B5044A1078034203D09843107035
:101AA000FFF7F1FF10BDC04689100020704710B548
:101AB000FFF7FCFF10BD0000010010B5044A1378C9
:101AC0001940814203D003431370FFF7F0FF10BDAC
:101AD0008A100020030010B5044A1078034203D096
:101AE00098431070FFF7E3FF10BDC0468A10002036
:101AF00010B5044B1A78002A03D000201870FFF7A5
:101B0000D6FF10BD8A10002070B5124A124B14780F
:101B10001B78124D1C43124B2E681B78002B06D0ED
:101B20001C4302F0B1FD002801D0FFF7E1FF347043
:101B30002C680C4D082229002000FEF7CBFE00285F
:101B400007D0082221002800FEF77EFE200002F0C8
:101B500023FD70BD9410002093100020000C002085
:101B60008A1000208010002010B5FFF7CDFF10BDB7
:101B7000704710B5FFF7FCFF10BD0000094B10B512
:101B80005B785B070AD5084CC30019432170FFF747
:101B90002DFC2078C008FFF7ECFF10BDFFF726FCF6
:101BA000FBE7C0462C24002088100020002010B540
:101BB000024B1870FFF7DDFF10BDC04688100020F3
:101BC00010B5094A13781900814311704A070AD1E8
:101BD000994208D0054B5B785B0704D5C808FFF72E
:101BE00011FCFFF7E3FF10BD881000202C2400201B
:101BF00070B504000D4843785A07D20FA24214D0A2
:101C00000125220004212A4092008B431343437094
:101C100000F06EF80220FFF7D3FF054B1B782B4234
:101C200003D02100034801F07FF870BD2C24002070
:101C3000A010002070730008044B10B558780123E1
:101C40004007C00F5840FFF7D3FF10BD2C240020E1
:101C500010B50120FFF7CCFF10BD10B50020FFF735
:101C6000C7FF10BD10B5002000F002FC10BD10B57C
:101C7000002000F0F7FBFFF7F5FF10BD1FB50024B3
:101C800000F098FB00F0A8FB01A8047000F0BFFB77
:101C90000120084B188000F0C5FBA02303A85B01BE
:101CA000038000F0CCFB02A8047000F0D5FBFFF726
:101CB000DEFF1FBD3410002010B5FFF7DFFF10BDA1
:101CC00010B500F091FB10BD10B500F079FB10BD10
:101CD00010B500F095FB10BD10B500F09EFB10BDD7
:101CE00010B500F09FFB10BD10B500F0A1FB10BDBA
:101CF00010B500F0A4FB10BD10B500F0A6FB10BDA0
:101D000010B500F0A9FB10BD10B500F0B7FB10BD79
:101D100073B502F09BFE094D04002B8883420CD062
:101D20006B4600261E8002F091FE6B469E80588016
:101D300000980199FEF760FF2C8073BD961000207B
:101D400010B502F047FE024B1860024B186010BD40
:101D50009C100020981000207047704710B5FFF7C6
:101D6000FCFF10BD704710B5FFF7FCFFFFF7F6FF53
:101D700010BD704710B5FFF7FCFF10BD704710B5E0
:101D8000FFF7FCFFFFF7F6FF10BD012070470000D2
:101D900010B5054800F07AFB01F0E4F9FFF7DCFF2D
:101DA000FFF7E1FF10BDC046C54E00080120704797
:101DB00010B5FFF7FBFF10BD70477047704710B5B7
:101DC000FFF7FAFFFFF7F9FFFFF7F8FF10BD00007C
:101DD00010B5FFF779FF002801D1FFF76DFF084824
:101DE000FFF776FF0748FFF77FFF01F081FCFFF761
:101DF00073FFFFF7BCFA044B1888FFF7DCFA10BD3D
:101E0000A01000202C2400203210002010B502F079
:101E1000DDFD00F01BFCFFF7DBFF02F0ABFBFEF784
:101E2000B6FE01F031FC01F0AFFAFFF7A8FF10BDDC
:101E3000F0B587B0FFF7A9FF00280BD1FFF768FFC7
:101E400002F099FB01F036FC02F00EFAFEF7B0FE4C
:101E500007B0F0BD00F012FC2E4F00243D00200022
:101E60000134E4B22E8800F029FB042C4ED0023558
:101E70008642F4D0284B1B789B0701D500F024FB49
:101E8000FFF796FF00240390200000F017FB3B882B
:101E90000090984232D00025012643409BB2029325
:101EA000029B1E4222D0009B33405A1E9341DBB25C
:101EB0000193039B002B14D02900200002F012FD97
:101EC00000280ED104AB1D705C7002F0BFFD012232
:101ED00004AB1A71019A58805A7104980599FEF75B
:101EE0008BFE29002000019A02F008FD01357600E2
:101EF000EDB2B6B20C2DD3D1009B3B800134E4B2DD
:101F00000237042CC0D1FFF71BFF99E78642B1D1FD
:101F100094E7C04624240020A010002070B500F0F3
:101F200003F9A4230400DB0198424ED2A023DB0175
:101F3000984200D39FE0DF281CD8CC285BD8A72884
:101F40000AD8A42800D97AE0012831D0031F9BB217
:101F5000A02B2DD900242BE00300A83B9BB21A2B09
:101F6000F8D85834544BE4B26400E35A8824E401AE
:101F70001C431DE08023DB0198421BD28026B60162
:101F8000B04200D388E0E72812D9431EFF3B013E50
:101F9000FF3E9BB2B342DDD2000AC0B200F056F958
:101FA0000500E0B200F0C0F82D023540284384B2AD
:101FB000201C70BDC0B200F0B7F8F0231B01234015
:101FC0003E4C18430443A4B2F2E7A523DB01984238
:101FD0001DD23B4B98423BD83A4B98420DD83A4BD6
:101FE000984230D80322C4B2A3081440023AA24057
:101FF0005B01364C13431C43E5E7032101220140FA
:102000008A40C3065B0F5B01314C1343F3E7314B4E
:10201000984208D81F20304B20409C4222D82F4C99
:1020200000020443C4E72E4BC3189BB21F2B00D9F8
:1020300090E7F82304025B011C402A4B98E78023B9
:10204000243CDB01D7E71F230340274C1B028FE70B
:102050000321012201408A40C3065B0F5B01234C30
:102060001343C8E700F0F2F8F823802400025B0174
:102070001840A401D5E71F20204000F0E7F8E30551
:102080001B0F1B02C20605D5FF2200011040184C91
:102090000343B0E700B2FAE7C004C00E00F0D6F880
:1020A0000500E0B200F040F8F8232D025B011D406E
:1020B00005432E43B4B27BE7A67C000800A0FFFFD7
:1020C0005F5200003F5200001F520000008DFFFFD2
:1020D000008CFFFFBF5200009F520000F4A00000E0
:1020E00040ADFFFFF0A00000F1A00000008AFFFF5C
:1020F0000090FFFF07B50B0401AA1180190E002301
:10210000032905D812780B2A02D8FEF71DFC03001C
:1021100018000EBD07B501AB19800199FFF7EAFF62
:10212000FFF7FCFE0EBD0000030010B5E7280AD83B
:10213000DF280AD8312800D173E00FD8292866D0CB
:102140002A2800D174E0180010BDE0380728FAD81A
:10215000FEF744F818F927303DF9474C392808D0E4
:10216000822806D03528EED1374A12789206EAD571
:1021700006E0354A1178890761D152781207E2D515
:102180002923E0E730480121027814000C400A427C
:1021900045D140780842D6D02300D206D3D4E323D9
:1021A000D1E7294A12785107CDD50023D206CAD4E7
:1021B000E333C8E72449E2230A785007C3D44878B8
:1021C00001210400023B0C400842E5D0BBE71E4A57
:1021D00051788907B7D512780023D206B3D4E733F4
:1021E000B1E7194A12781107F6D4ACE71649E6238D
:1021F0000A781007A7D4487802210400023B0C405B
:102200000842A0D12300D2069DD4E7239BE70E4AC3
:102210001178890615D45278120700D493E7392330
:1022200091E7094A1278520600D48CE72A238AE7FC
:10223000054A1278520600D485E7312383E7E0236C
:1022400081E735237FE7C0462C24002030B5254C9C
:1022500021784B070DD514220240043A53425A41CB
:1022600018230340083B5D426B419A4201D00C2386
:1022700058400B070DD514220240143A53425A41DC
:1022800018230340183B5D426B419A4201D00C2356
:1022900058406478E3070DD511220240013A5342B9
:1022A0005A4118230340083B5D426B419A4201D0DA
:1022B00009235840A4070DD511220240113A534278
:1022C0005A4118230340183B5C4263419A4201D0B3
:1022D00009235840C90603D5030701D5182398439D
:1022E00030BDC0462C240020074B10B5C318012474
:1022F0001F2B06D84C79002C03D11F231840FEF762
:10230000D9FB200010BDC04620ADFFFF10B5030073
:102310004879002813D00B4A93420DD00A4A9342C1
:1023200003D00A4A934204D010BDFFF785FC002079
:10233000FAE7FFF78DFCFAE7FFF78FFCF7E70120DC
:10234000F2E7C0465B7C00005C7C00005A7C000029
:1023500010B54A79002A22D0124BC018032806D89B
:10236000FDF746FF021A0718FEF7C0FB0022100017
:1023700010BD012214000C480378D907C90F8C4303
:102380009343234303700948134200D1084800F0E7
:10239000CBFCEBE7FFF794FCFEF7AFFBE6E701228F
:1023A000E5E7C0460084FFFFA01000208573000809
:1023B0009673000810B5002000F0D8FE10BD000094
:1023C00010B5002000F0C8FC024BC0184342584131
:1023D000C0B210BD1D01FFFF10B50020014900F083
:1023E000FAFC10BDE3FE000010B5002000F0BEFEB8
:1023F0000020024900F0EFFC10BDC046FFFF0000C6
:1024000010B50400022000F09AFC207010BD10B539
:102410000178022000F0D3FC10BD10B5032000F0BD
:102420008EFC10BD10B5C1B2032000F0C8FC10BD79
:1024300010B50400042000F08FFC208010BD10B502
:102440000188042000F0C7FC10BD10B50400062070
:1024500000F075FC207010BD10B50178062000F06A
:10246000AEFC10BD10B501000F2000F0C0FC10BD87
:1024700010B50100132000F0BAFC10BD10B501002A
:102480000E2000F09CFC10BD00207047014B18602E
:102490007047C046040C002010B5024B1B689847DB
:1024A00010BDC046040C0020704710B5FFF7FCFFBC
:1024B00010BD704710B5FFF7FCFF10BD014B400089
:1024C000185A70473624002010B50E4800F02CFC36
:1024D000002421000C4800F027FC0C4800F024FCEC
:1024E0000B4A6300D05AFEF737FB0A4B0100180075
:1024F00000F01AFC0134084800F016FC042CE8D166
:1025000010BDC046A8730008BF730008C47300085C
:1025100036240020C7730008667C000810B501202F
:1025200003F079FB10BDC046C046C046C046C04659
:10253000C046C046C046C046C046C046C0467047BA
:1025400010B5FFF7EBFF10BD10B572B60F230200F8
:1025500001211A4091409843202204F040F962B6CC
:1025600010BD000070B50B48FFF7EEFF0A48FFF7FB
:10257000EBFF0A48FFF7E8FF0948FFF7E5FF094CC2
:10258000094D2068431C01D0FFF7DEFF0434AC4244
:10259000F7D170BD09040048090000480800004850
:1025A0000F040048DC7C00080C7D0008F7B5254BC3
:1025B0008A00D3580F0001905A1C41D072B60124F2
:1025C0000F2526001A002B409E40AA43009231009E
:1025D0002200009804F003F9009BB6B25E8362B655
:1025E000FFF7A1FF00260C22A4461748002301682C
:1025F00000934B1C09D00B00AB431B692940CB4017
:1026000061460B40013B23400093009B013A1E436F
:102610006400D2B2B6B2A4B20430002AE6D1094BAB
:10262000BA00D058431C01D0FFF78EFF31004B1E7B
:1026300099413800C9B2FFF783FF019A7B009E528F
:10264000F7BDC0460C7D0008DC7C000810B50824EE
:10265000FFF788FF220000210648FEF7A1F82200BC
:1026600000210548FEF79CF800F036F8FFF71DFF43
:1026700010BDC046362400202E24002037B5082285
:1026800000216846FEF78CF80024210001346846DA
:10269000E4B2FFF78BFF042CF7D10D4C08226946FA
:1026A0002000FEF717F905006B1E9D41EDB20028D2
:1026B00004D0082269462000FEF7C6F82A00054922
:1026C000200000F00BF80400FFF7F4FE20003EBDF0
:1026D0002E2400203624002070470000F7B50600A5
:1026E000141E124F019107D001233B7002F072F9C2
:1026F0000F4B18600020FEBD3D78002DFAD00C4B2A
:10270000186802F010F90428F4D908223100019861
:10271000FEF7E0F8002805D0082231000198FEF706
:1027200093F82C00002320003B70E4E7A810002061
:10273000A410002010B5FFF77BFB10BD10B502F010
:1027400011F902F0EBFBFFF723FB02F0EBFBFFF7C5
:102750005DFB02F0F9FB02F0FFFBFFF7EBFF02F07D
:1027600023FC02F0BFFBFFF72AFBF4E70300DA6863
:102770000800511C10B5D96019698A4204D21C683E
:10278000002C02D05968A04710BD9B689854FBE705
:10279000F7B51E00C36804000093089B1500019163
:1027A0009B070DD0002D0DD1089B9B0715D4F7BDBD
:1027B00020212000FFF7DAFF0137B742F8D3F1E715
:1027C0001700FAE7019B013D2000595DFFF7CEFF9E
:1027D000E8E720212000FFF7C9FFE368009A9B1A71
:1027E000B342F6D3E3E70000F0B58FB004901D00CC
:1027F000081E169C039224D123051ED4302206AB5A
:102800001A70102301309C430200A30742D4012315
:102810001599234000290AD0002B3BD0039A002AA7
:1028200002D10C32144202D0159A013A15920200DC
:10283000002B2FD0302106AB27E0102DE4D1AC4384
:10284000E2E76123A20600D5412306000027DBB2A0
:102850000A3B059329003000FDF76EFD059B844679
:10286000C8B2C318DBB2092901D83030C3B208227C
:1028700004A98918781CCB55B542C5D82028C3D0E7
:1028800007006646E6E7D1540132159E964201D90B
:10289000202AF8D1302306A901E08B540132149E7E
:1028A000964201D9202AF8D1082D03D1904201D2B5
:1028B00010239C43274B1C4233D0230521D4002AEC
:1028C0001FD0149B934202D0159B934219D1904282
:1028D00002D2013A002A14D01F4BEB40DB071BD574
:1028E000904233D2013A102D11D1A30622D4202ACE
:1028F0000FD12022159B04980094FFF749FF0FB0D9
:10290000F0BD102DF1D0022D06D1202AF1D0622386
:1029100000E078238B540132202AEAD030238B54F4
:102920000132202AE5D0039B002B07D02D238B54A6
:102930000132DFE75823202AECD1DAE7630701D51B
:102940002B23F4E72307D5D52023F0E7102DDCD186
:10295000CBE7C046102000000400010010B5FFF7CF
:102960009BFD10BDF0B507000D0014008BB0297859
:10297000002911D13B68002B0BD13A69002A08D0FD
:10298000B968002905D0FB68934200D3531E00228A
:10299000CA54F8680BB0F0BD0020013525290AD0D3
:1029A0003800FFF7E3FEE2E72D2B1CD0302B22D1BD
:1029B0002F3B150018432B786A1C2B2B15D0F3D80E
:1029C000202B14D0232B14D0002104912A2B1FD1AB
:1029D00008CC04938B4204DA02231843049B5B4225
:1029E0000493150014E00223E3E70423E1E708233E
:1029F000DFE71023DDE71E000021303E04910A319D
:102A0000092EE1D82A786E1C1300303B092B0FD910
:102A100000222B7805922E2B29D1802212011043FF
:102A20006A786B1C11003039092916D80A260CE087
:102A3000049B35004B43303BD3180493E2E7059BDE
:102A40007343303BD31805932B001A785D1C11009B
:102A500030390929F3D91D0009E02A2AFBD108CC15
:102A600002350593DB43059ADB171A4005922B7854
:102A70006A1C6C2B21D019D8682B26D06A2B2DD03C
:102A80002978013578298BD863292AD8622900D181
:102A90002AE1632900D197E0252900D180E7582950
:102AA00000D07DE720231843103B4AE0742B01D06F
:102AB0007A2BE5D180239B000BE06B786C2BF9D14E
:102AC000C023DB0018430235DAE76B78682B03D0AC
:102AD000802315001843D3E7C023F3E78023DB00EE
:102AE000F7E70B000126643BDBB29E4032007F4BD0
:102AF0001A401E4213D1732900D18DE0702900D0F5
:102B00004EE77B4B02CC0343002900D0E2E0009368
:102B100005220A2338007749FFF73AFE27E76429A0
:102B200001D0692906D18023DB0118431023984383
:102B3000063B06E008236F2903D0F7D9DB18782974
:102B4000F4D1020501D5012290438022D200024037
:102B500041041BD5002A00D009E7216882050DD564
:102B600002900498CE1701900598CA0F89197140F8
:102B700000903800FFF738FE0434F8E6420601D52D
:102B800049B2EDE70206EBD509B2E9E7002A00D029
:102B9000EDE60C2106008E43810506D504990296C8
:102BA0000191059900912168E3E72168420607D564
:102BB000C9B2049A02960192059A00920022D8E7BF
:102BC0000006F6D589B2F4E7022302001A40012676
:102BD000059218420DD1059E03E020213800FFF731
:102BE000C5FD049B0136B342F7D80226002B00D066
:102BF0005E1C02CC3800C9B2FFF7B8FD059B002B64
:102C000000D1B4E6049B9E4200D3B0E620213800F8
:102C1000FFF7ACFD0136F5E7230004CB06920793DE
:102C2000002A08D10090062238003349049BFFF7A0
:102C3000AFFD079C9BE6059B002B00D12F4B069A0E
:102C40001400D3182278002A01D0A34214D1069B85
:102C50000200E41A80231B011A400892184203D094
:102C6000059B9C4200D91C00022302001A400992D5
:102C7000184212D1260006E00134E3E72021380093
:102C8000FFF774FD0136049BB342F7D8049A002382
:102C9000A24200D3131B0134E418069E03E038005F
:102CA0000136FFF763FD3178002907D0089B002B20
:102CB000F5D0069B059A9B189E42F0D1099B002BEC
:102CC000B7D0049BA342B4D920213800FFF74EFDB2
:102CD0000134F6E702930A230193059B3800009321
:102CE0001023FFF781FD42E602232AE721081200A4
:102CF00001200000D4730008CD730008FFFFFF7FA0
:102D00007FB5074B0A0001930023029303930493BA
:102D1000044B010001A80593FFF724FE07B000BD96
:102D20005D290008FFFFFF7F0FB407B504A901C9A3
:102D30000191FFF7E5FF03B008BC04B0184707B5E1
:102D400000236A46D3716B4601000122D81D00F0B2
:102D500011FA6B46D8790EBD07B500236A46D380B9
:102D60006B4601000222981D00F004FA6B46D888D9
:102D70000EBD002307B5010001A80422019300F055
:102D8000F9F901980EBD07B56A460300D01D017020
:102D90000122190000F02BFA07BD07B56A460300AF
:102DA000901D01800222190000F021FA07BD07B52D
:102DB00004220191010001A800F019FA07BD70B5C5
:102DC0000D000400FFF7BBFFA84203D0290020003C
:102DD000FFF7D9FF70BD70B50D000400FFF7BCFF11
:102DE000A84203D029002000FFF7D7FF70BD70B5BF
:102DF0000D000400FFF7BDFFA84203D0290020000A
:102E0000FFF7D5FF70BD000010B500F095FA094C32
:102E1000094800F04DFA094800F04AFA200000F095
:102E200047FA074800F044FA00F096FA054B1C6098
:102E300010BDC04600F0010800E0010800E80108EC
:102E400000F80108AC100020012398430C4B70B52A
:102E5000C5182B880B4A002693420FD10A4A053623
:102E6000145AE443A4B29C4208D000F065FA210051
:102E7000280000F03DFA060000F06EFA300070BD48
:102E800000E00108FFFF0000B010002070B505262B
:102E9000FFF7BAFF0B4C00F04FFA0B4D29880029C1
:102EA00007D0C943200089B200F022FA052800D0DB
:102EB0000600064B023402359C42EFD100F04CFA7A
:102EC000300070BD00E00108B010002000F00108E3
:102ED000F8B51B4B1C5A012C0FD80222194D630365
:102EE0001D43ADB2184B194E9B1A32689A420AD94B
:102EF000FFF7CCFF04002000F8BDE0258038042255
:102F000080B22D02EEE7470800F016FA30682F4332
:102F1000831C3900336000F0EBF9E02307001B024B
:102F20009D4209D1E143306889B2831C336000F0CF
:102F3000DFF90400052800D13C0000F00DFADAE7C3
:102F4000B01000200080FFFF00000208AC1000203D
:102F500070B50D4D0D4B2A6804009A4204D9FFF755
:102F600095FF0400200070BD00F0E6F9084B2868CA
:102F7000195D24022143831C89B22B6000F0B8F94B
:102F8000040000F0E9F9EDE7AC100020FFFF0108B4
:102F9000B0100020234AF0B51400234B23481988B1
:102FA0000233C943118002328342F8D18022C02506
:102FB000D20194460127ED011A881D498A4209D0A1
:102FC00011B21C4800290ADB110A62541E00B31C0E
:102FD0008342F1D98020184A40011360F0BD1100EE
:102FE0002940A94211D19E1C864218D85988C9434C
:102FF00089B20029EBD0114B52001A408032802355
:103000005B019A42E3D2A152E1E761460A42DDD177
:103010000A4E51135200324039401E00EFE7330090
:10302000D8E7C046B010002000E0010800F0010819
:10303000FFFF0000FFFF0108AC100020FE3F000072
:1030400010B5FFF7E1FEFFF7A5FF10BD802310B517
:103050005B01040007209C4210D20C4B0020E218B8
:103060001B5D8B420AD020001170FFF7EDFE002897
:1030700004D17F2C03D82000FFF76AFF10BD012385
:1030800020009843FFF724FFF8E7C046B010002067
:10309000F8B5802304000D0007205B019C4211D28B
:1030A0000123200018401C420DD02000C9B2FFF7B8
:1030B000CDFF01340600290AA0B2FFF7C7FF05289B
:1030C00000D13000F8BD134B1E5BE218B142F9D0BD
:1030D00020001180FFF7B8FE0028F3D17F2C14D810
:1030E000F2B2EBB205279A4203D02000FFF730FF7F
:1030F0000700360A2D0AAE4205D00134A0B2FFF710
:1031000027FF0528DED13800DCE72000FFF7E0FECE
:10311000D8E7C046B0100020802203005201FF20F3
:10312000934201D2014AD05C7047C046B0100020E3
:10313000084B98420BD8084BC318C20705D5074A5D
:10314000125C18781202104370471888FCE7044894
:10315000FAE7C046FE0F0000B0100020B1100020BA
:10316000FFFF000010B5FFF715FF10BD10B5FFF70A
:1031700067FF10BDF0B506000C00150085B0002AF1
:103180000BD0CB0709D54B1C471C88B20193FFF726
:10319000C3FF30703E00019C013D012337003340E6
:1031A0000293631901950393019B012B0CD86B08C3
:1031B0005B0058429D4205D04542201A80B2FFF77D
:1031C000ABFF705505B0F0BD039B019A981A80B211
:1031D000FFF7AEFF029B002B05D13880019B023721
:1031E000023B0193E0E73870000A7870F6E7F7B524
:1031F00006000C00151E0BD0CB0709D5471C3E005E
:103200004B1C0178A0B20193FFF720FF019C013D08
:103210002F007319DB1B012F0BD86A085200534291
:10322000954205D05B42E018F15C80B2FFF70EFFDB
:10323000F7BD59781A786019C01B0902114380B292
:10324000FFF726FF023FE4E70122094B1000D9688F
:1032500011420CD1D9689018490708D4D968801850
:10326000C90604D4DB6802301340C01AC0B27047EC
:103270000020024037B50400FF25FFF7E5FF0128D5
:1032800011D1002C01D105303EBD002301930195E1
:10329000019B002B03D1FFF7D7FF013CEFE7019B18
:1032A000013B0193F4E7002CEED10620ECE700008F
:1032B00070B506000C48FFF7DDFF052813D1022585
:1032C0000A4C094823692B43236140236661226924
:1032D00013432361FFF7CEFF062802D02369AB43D7
:1032E00023613423E36070BDFF0F00000020024023
:1032F000F8B5F8231B06C2180D4B05000E00072079
:103300009A4214D81830FFF7B5FF05280FD10127CE
:10331000084C1A3023693B4323612E80FFF7AAFF34
:10332000062802D02369BB4323613423E360F8BD40
:10333000FEFF070000200240044B1A69120603D565
:10334000034A5A60034A5A607047C0460020024050
:1033500023016745AB89EFCD8023024A11690B43F6
:1033600013617047002002402D2310B502480370FE
:10337000FEF7C6FC10BDC0463E240020014B187865
:10338000C00870473E24002010B5114C2000FEF705
:10339000B3FC23785B0708D40E4B1B78DB0702D500
:1033A0000D48FFF7C1FCFFF7DFFF23783F2B04D95F
:1033B000072213403132134323702378012218006F
:1033C0001040134200D0D80800F02AF910BDC046C2
:1033D0003E240020A0100020DA73000870B5114CC4
:1033E0002378DA08372B07D81F2101320A40183911
:1033F000D2000B40134323700125237820002B4378
:103400002370FEF77DFC084B1B782B4204D02178FB
:103410000648C908FFF788FC2078C00800F000F9CA
:1034200070BDC0463E240020A01000202674000875
:1034300010B50F4C2378072B0CD90722083BDBB2C1
:103440009A429241012152428B4313432000237040
:10345000FEF756FC074B1B78DB0704D5217806489E
:10346000C908FFF761FC2078C00800F0D9F810BD4A
:103470003E240020A01000203E740008012310B557
:103480000C4C22781A4213D113432370012B01D123
:10349000083323702000FEF733FC074B1B78DB0753
:1034A00002D50648FFF740FC2078C00800F0B8F8C5
:1034B00010BDC0463E240020A01000205674000815
:1034C0000A4810B50378DA070ED50124A343037028
:1034D000FEF716FC064B1B78234202D00548FFF787
:1034E00023FC002000F09CF810BDC0463E240020C4
:1034F000A0100020687400080A4B10B51C780A4B15
:10350000E4071B78E40FDB0703D521000748FFF72A
:103510000BFC002C02D0FFF7D3FF10BDFFF7AEFF6E
:10352000FBE7C0463E240020A01000207B7400086A
:103530001F2270B5124C2378DB0801331340072B90
:1035400000D9002307212278DB000A401343994267
:10355000894101254942AB430B4320002370FEF70C
:10356000CFFB084B1B782B4204D021780648C908B2
:10357000FFF7DAFB2078C00800F052F870BDC046B3
:103580003E240020A01000209174000810B5031CF8
:10359000072800D9072307220849D8B20B78C400AE
:1035A00013402343DBB29A42924101245242A34387
:1035B00013430B7000F034F810BDC0463E240020C9
:1035C00010B5FFF7E3FF0248FEF79AFB10BDC046B7
:1035D0003E24002010B54A79002A1CD00F4BC01899
:1035E000052808D8FCF704FE0309110B0E14072068
:1035F000FFF7E6FF0022100010BD0020F8E7FFF7FC
:1036000017FFF7E7FFF7EAFEF4E7FFF775FFF1E7CB
:10361000FFF78EFFEEE70122EDE7C0460088FFFFCF
:1036200010B50100144C072805D8002804D120004B
:1036300002F092FC10BD07210804401A0721FCF794
:10364000F5FD0E4B0E49C0180002FCF7EFFD03001C
:1036500080224343434352021B0A934200D1094B49
:10366000A06808495843FCF7E1FD00210200200052
:1036700002F067FCDEE7C046F0240020F6280000D8
:10368000F5280100FFFF0000902010B582224021A4
:10369000C00503F0A4F8012304490548CB6002F0FB
:1036A00041FCFFF76BFEFFF7BBFF10BD080C0020CD
:1036B000F0240020704710B5FEF702FB10BD10B5D6
:1036C0000020FEF7FBFE0123184010BD10B5FEF7E9
:1036D000D5FF9620400002F09EFAFEF7CFFFFFF7DD
:1036E000EEFF002803D0FFF7E6FF01F0CFF910BD91
:1036F00010B5FFF7EBFF10BD1FB5094C094B24783F
:10370000094A0A491B78127809780294084C09483A
:1037100024780194084C24780094FFF705FB1FBD22
:10372000400C0020450C0020460C0020470C0020D7
:10373000410C0020A5740008440C002010B50400C2
:1037400021000548FFF7F0FA0120A04080B2FDF704
:103750000EFEFDF7BDFD10BD22750008F0B503009B
:103760008FB02A2831D8042804D89348FFF7DCFA10
:1037700000208EE005382528F7D8FCF743FDA5008A
:103780009600AB003D00F6FFF6FF9200F6FFF6FF55
:10379000D300F6FFEA00F6FFF6FFF6FFF6FFF6FFAE
:1037A0000001F6FFF6FFFB00F6FFC100F6FFF6FF93
:1037B0001B011B011B011B011B011B011B011B0129
:1037C0001B011401F6FFA5008C003538C2B20E2A89
:1037D000CBD80E28C9D8FCF715FDE600C8FFC8FFF6
:1037E0006400C8FFEA00EA00EA00EA00EA00EA0032
:1037F000EA00EA00EA00E600FEF76EFA6F4B01000D
:103800000BAC1800FFF790FA2000FEF761FA217860
:103810000DAD0C07E40F01944C078B07CA07E40FAA
:10382000DB0FD20F00946648FFF77EFA2800FEF700
:103830005BFA2C7829886D78A3072E07F60F089677
:10384000E60907966606F60F0696A606F60F059693
:10385000E606F60FE207049626076407E40F0294D3
:10386000AC07ED07E40FF60FED0FDB0FD20F01945D
:1038700054480CAC03960095FFF756FA2000FEF76B
:103880003BFA21785048CA07CB08D20FFFF74CFA11
:1038900001200FB0F0BD4D48FFF746FAFEF70CFAD5
:1038A000F6E74B48FFF740FAF2E70F21494A4A484A
:1038B00013788B431370FFF737FA4848FFF734FA51
:1038C0000122474B1A70E3E74648FFF72DFAFDF750
:1038D0000DF9DDE7012210003E4C2378D907C90F0E
:1038E0008843934303432370134201D03E48D9E7F2
:1038F0003E48FFF719FA0E22237893432370C7E757
:1039000001252900334C3A4823789A07D20F914376
:103910000A000221AA408B43134323700B4210D1AB
:103920003448BFE7012529002A4C23785A07D20FD3
:1039300091438A0004218B43134323700B4206D02A
:103940002D48FFF7F1F923781D432570A0E72B4898
:10395000A8E7012529001F4C294823781A07D20F10
:103960009143CA0008218B43134323700B42E8D1D3
:10397000244897E724492548FFF7D6F988E700F05F
:10398000FBFD050000F05AFF060000F07FFF070076
:1039900001F020F81E4C00903B003200290020006E
:1039A000FFF7C2F974E70020FFF7C8FE70E7393B64
:1039B000D8B2F9E71D3BFBE7877A000827750008B6
:1039C000457500088E7500088D760008C0760008E1
:1039D000D1760008A0100020777800089E780008B3
:1039E000B9200020A2780008BE780008CA78000834
:1039F000D7780008E4780008F27800080179000818
:103A0000117900081D7900082A790008177A000842
:103A10001A7A000810B5564C292852D02DD81328F0
:103A20005CD017D8072800D183E00B2833D0514849
:103A300092E00123504A1268002AF8D011785B18EE
:103A4000FF218B4203DC00218B4200DBD9B24B48C3
:103A5000117051E0142834D003001E3B092BE6D826
:103A60001D38C0B22070013805285CD8424A444B4A
:103A7000FCF7BEFB3A45494D515538280BD00300A1
:103A80004F3B032BD3D850380A230228D2D8FCF757
:103A9000A5FB6669D0003B48FFF746F9FFF72CFE0F
:103AA000012208213848FFF73FF9217800295BD02F
:103AB000334B1A68002A00D1344A3548FFF734F9ED
:103AC00010BD3448FFF730F92378002BF8D00023DD
:103AD000294A237013602A4A1360E6E72E48FFF74D
:103AE00023F9FFF709FEE0E72C4911602C4A1A6020
:103AF00021782C480029D8D0FFF716F9D5E72A49B4
:103B000011602A4AF3E72A4911602A4AEFE72A4955
:103B100011602A4AEBE72A4911602A4AE7E72A4955
:103B200011602A4AE3E7002312482370FFF7FCF8EC
:103B3000DEE70122194B26481A701B4B13321A700C
:103B40001B4B0A3A1A701C4B14321A701C4B163A53
:103B50001A701D4B20321A70FFF7E6F8A5E70A230A
:103B60005B4267E70123FBE71A48FFF7DDF8A7E7A9
:103B7000B8200020CF7B0008B4200020DC7B0008A8
:103B8000B0200020897A0008997A0008857A000818
:103B9000E27B0008657B0008687B0008470C00207A
:103BA000767B00088D740008460C00207F7B00089F
:103BB000450C00208B7B0008440C0020987B0008FB
:103BC000410C0020A77B0008400C0020BA7B0008B5
:103BD000D27B0008EB7B0008002070470020704774
:103BE00070B5284E05003478012C14D0022C42D038
:103BF000002C43D1FDF714FF22282BD12800FFF71A
:103C0000EBFF0123002803D12800FFF7A7FD0300E5
:103C10000120184070BDFDF703FF22280BD12800BA
:103C2000FFF7DAFF002803D12800FFF797FD040013
:103C300001202040EEE72800FFF7D0FF002815D133
:103C4000142D1BD008D80B2D0AD0102D10D00E48E3
:103C5000FFF76AF80020DDE7292D0FD0382DF6D1C7
:103C60000A48FFF761F80A48FFF75EF80120D1E73C
:103C7000022338203370FFF7CDFEF7E700233370BF
:103C8000E8E7C046B9200020877A00087778000866
:103C90009E780008124A10B501230C00904215D1FD
:103CA000FDF7BEFE617903000E4A002910D0AA215B
:103CB0000B401900481E814129201170002B00D0B3
:103CC0000C3000F025FDFDF74FFF0023180010BD5C
:103CD00013782920002B00D00C3000F023FDF2E7F0
:103CE000167C0000BA20002070B505004879002835
:103CF00000D1CCE0674BEB18222B00D9ABE0664C2F
:103D00002000FDF7F1FF654BE818212812D8FCF7D9
:103D10006FFA3FAD48191C4B1F4E5728A52B5A2E42
:103D20005D8731608F37676D225125543B6A7A99E0
:103D3000A31543B50123227813434FE0082362788B
:103D400013432CE002232278F6E704232278F3E7DA
:103D500008232278F0E701236278F1E702236278F2
:103D6000EEE710232278E7E720232278E4E74023D8
:103D70002278E1E7FDF7ACFA802322785B42DBE7AB
:103D80000C2322789A43D7E7032362789A43D7E734
:103D900001222378934321E00822637893436370E0
:103DA00053E002222378F5E704222378F2E7082281
:103DB0002378EFE701226378F0E702226378EDE7EA
:103DC00010222378E6E720222378E3E740222378B5
:103DD000E0E7FDF77DFA7F2223781340237034E07B
:103DE0000C222378D6E703226378D7E70122042048
:103DF00023785907C90F8A43910083430B43082155
:103E0000D2008B4398E7012108006378DA07D20FCC
:103E1000904302228B430343410093430B43BEE78D
:103E2000012223785906C90F8A4392014021E8E70D
:103E3000FDF74EFA01222378D9094A407F21D201A9
:103E40000B4079E70120FDF75FFF2000FDF750FFF1
:103E5000FDF73EFA002070BD0020F4E70122237830
:103E6000D906C90F8A4312011021CAE701210800AF
:103E70002378DA07D20F90430200C2E70122637869
:103E80001907C90F8A430821D2008B4358E7012044
:103E9000E1E7C0460090FFFF2C240020FF8FFFFFCA
:103EA000B523434398B2002B07DA803B1BB2D817E7
:103EB000C0B2C018001240B2704780300004001633
:103EC000FAE7000010B5164B1B78DA070AD5154B38
:103ED0001B785B007F20834203D87E38002B00D004
:103EE000D8B210BD9A0703D50E4B1B789B00F1E7A3
:103EF0005B0703D50B4B1B78DB00EBE70A4B18780D
:103F000000280BD0094B1978064B1B788842F3D256
:103F10005843C000FCF714FA83B2DBE70823DFE75D
:103F2000C2200020450C0020C1200020440C0020AD
:103F300010B5154B1A7801231A4207D0134B1B7882
:103F40009B080120002B0ED0D8B20CE0910703D5BE
:103F50000E4B1B785B08F4E7520705D50B4B1B781B
:103F60007F208342EDD910BD094A10780028EBD09C
:103F7000084B1978054B1B788842F1D25843FCF75F
:103F8000DFF983B2ECE7C046C2200020410C0020DC
:103F9000C0200020400C00200300CD3810B51228AE
:103FA00010D8FCF725F90A10141A323232323232A4
:103FB00032321E23282E3C424600FFF783FF1F4B60
:103FC0004042D87010BDFFF77DFF1C4BF9E7FFF7AB
:103FD00079FF1A4B40429870F4E7FFF773FF174BD5
:103FE000F9E7FFF7A5FF154B1871EBE7FFF7A0FF07
:103FF000124B4042F8E7FFF79BFF104B40425871CD
:10400000E0E7FFF795FF0D4BF9E70122D13B9A401E
:104010000A4913000A0049780B435370D2E7012381
:10402000074A11780B431370CCE7054A0223117835
:10403000F8E7034A04231178F4E7C046C3200020C0
:10404000C220002030B50421032502240522334B71
:104050005D571C5759569A56CD2814D1002D01DAB8
:104060000022DA70D9789A780A4351B2002A01D135
:104070002B4A11701A795B7913435AB2002B01D184
:10408000284B1A7030BDCE2802D1002DE8DCE9E7BC
:10409000CF2804D1002CE5DA00229A70E2E7D0287C
:1040A00002D1002CF8DCDDE7D92804D10029D9DDC4
:1040B00000221A71D6E7DA2802D10029D2DAF7E70E
:1040C000DB2804D1002ACDDA00225A71CAE7DC28A5
:1040D00002D1002AF8DCC5E7D1380E28C2D8FCF797
:1040E0007DF80808080808080808C1C1C1C10E14F5
:1040F0001800012181405A788A435A70B2E70120A2
:1041000009490A7882430A70ACE7074902200A7815
:10411000F8E7054904200A78F4E7C046C3200020E8
:10412000C1200020C0200020C22000202A4B70B5F2
:104130001B782A4C1B073CD52948FEF7F5FD617812
:104140002848FEF7F1FD2848FEF7EEFD0221274D35
:1041500061562800FEF7E8FD254E3000FEF7E4FD2D
:10416000032128006156FEF7DFFD3000FEF7DCFD7D
:10417000042128006156FEF7D7FD3000FEF7D4FD7C
:10418000052128006156FEF7CFFD1A48FEF7CCFD49
:10419000194B1A4D19782800FEF7C6FD1848FEF78E
:1041A000C3FD184B28001978FEF7BEFD1648FEF730
:1041B000BBFD00F04BFCA378E278134301D0134B16
:1041C000188023796279134301D0114B18802000A5
:1041D00000F014FA70BDC046A0100020C3200020DB
:1041E000EF7B0008BF730008127C0008147C0008F5
:1041F000BC780008177C0008C12000201A7C000849
:104200001D7C0008C22000201F7C0008BE2000206A
:10421000BC200020062210B500210548FCF7C0FA9A
:104220000023044A1370044A1370044A137010BD2B
:10423000C3200020C1200020C0200020C220002078
:104240000222825603000120002A0BD103229A5633
:10425000002A07D104229A56002A03D105201856B5
:10426000431E98417047000037B55F4C062221007D
:104270006846FCF7E9FA00236A46A370E3702371ED
:1042800063716B46D2789B7813430BD0574B1888D9
:1042900000F042FB56490B78002B28D0554A127883
:1042A00090422DDC6B466A461B79527913430BD042
:1042B000514B188800F030FB50490B78002B53D03D
:1042C0004F4A1278904258DC6946200000F040FACC
:1042D000002804D12000FFF7B3FF002801D0FFF72A
:1042E00025FF062269462000FCF7AEFA37BD454A95
:1042F00015780A226A439042D4DD01330B7001E045
:10430000FF2BFAD16B4602255D57002D07D0FFF732
:10431000D9FDFF23002D00DDFE3B4343A3706B4618
:1043200003255D57002D07D0FFF7CCFDFF23002D9F
:1043300000DDFE3B4343E370022020560028B1D04D
:1043400003256557002DADD0FFF7AAFD002800D149
:104350000130A0702800FFF7A3FD002801D0E07015
:10436000A0E70123E3709DE7274A15780A226A43F4
:104370009042A9DD01330B7001E0FF2BFAD16B46AF
:1043800004255D57002D07D0FFF7D2FDFF23002D38
:1043900000DDFE3B434323716B4605255D57002D31
:1043A00007D0FFF7C5FDFF23002D00DDFE3B434393
:1043B000637104202056002800D185E70525655744
:1043C000002D00D180E7FFF76BFD002800D1013000
:1043D00020712800FFF764FD002801D0607173E7A9
:1043E0000123637170E7C046C3200020BE20002077
:1043F000C1200020460C0020BC200020C02000204E
:10440000420C0020470C0020430C0020F8B514009B
:1044100042791D0006AB1F78274B002A11D01C7073
:1044200000F014FB254B188023002033DBB2072B50
:1044300006D80723012023409840C0B2FCF714FDA2
:10444000F8BD1E78A6422DD11C4B188800F064FAE6
:10445000C72827D82C002034AE4215D03300203393
:10446000DBB2072B06D8072301201E40B040C0B2A4
:10447000FCF702FDE3B2072B06D8072301202B40EF
:104480009840C0B2FCF7F0FC3800E4B2FCF7E4FC62
:10449000072CD5D8072301201D40A840C0B2FCF747
:1044A000EBFCCDE723002033DBB2072BC8D8072372
:1044B00001201C40A040F1E7CC200020CA200020B1
:1044C000204B13B5C0180C00062833D8FBF790FE1C
:1044D000141A040E20262C0026230093BB331A0046
:1044E00019492000FFF792FF002016BD27230093F3
:1044F000BE331A001549F4E72623E022009314493D
:10450000BB33EEE72723E42200931249BE33E8E7EA
:104510002623E22200931049BB33E2E72723E62259
:1045200000930E49BE33DCE72823E52200930C49B3
:10453000273BD6E74B79002B02D00022094B1A709B
:104540000120D2E7E883FFFF1A7C00001B7C0000FB
:10455000187C0000197C00001C7C00001D7C000001
:104560001E7C0000CC200020014B18607047C04624
:10457000D420002070477047044B10B51B68181EEC
:1045800003D01B68181E00D0984710BDD42000200F
:1045900010B5FFF7F1FF10BDF8B5134B04001B6811
:1045A000002B20D05B68002B1DD098470F4E33782E
:1045B0005A0718D5DB0703D521780D48FEF7B4FB61
:1045C0000127A51C083433783B4203D029780948D9
:1045D000FEF7AAFB0135A542F5D13378DB0702D5FA
:1045E0000548FEF7A1FBF8BDD4200020A010002054
:1045F000227C00083B7C0008667C0008054B10B557
:104600001B68002B05D0DB68002B02D00222027051
:10461000984710BDD420002007B50B4A030011882D
:1046200081420FD01080094A1268002A0AD012690C
:10463000002A07D0032101A8017069464B711B0AAB
:104640008B71904707BDC046D0200020D4200020A9
:1046500007B50B4A0300118881420FD01080094A28
:104660001268002A0AD01269002A07D0042101A882
:10467000017069464B711B0A8B71904707BDC0469C
:10468000CE200020D42000200020064B1B689A1C5E
:1046900008331178002901D00130C0B201329A42AA
:1046A000F7D17047000C0020031E0AD0064A12689A
:1046B000911C08320878984204D001319142F9D116
:1046C000002070470120FCE7000C0020012300229D
:1046D00070B55B42851CAC5C8C420BD05E1C02D179
:1046E000002C00D153B20132062AF4D15A1C01D059
:1046F000C318997070BD002210B5831C08301C7857
:104700008C4200D11A7001338342F8D110BD0000F1
:1047100010B5034B01001868FFF7D8FF10BDC04665
:10472000000C002010B5034B01001868FFF7E3FFF1
:1047300010BDC046000C002010B5044B06221868BE
:1047400000210230FCF72CF810BDC046000C002000
:1047500010B54A78447803000120944223D1022204
:104760009A56002A03D002240C5794421BD10322EC
:104770009A56002A04D003240C570120944212D1E7
:1047800005229A56002A04D005240C570120944291
:1047900009D100201B795BB2834204D00420085663
:1047A000C01A431E984110BD82B002B0704707B5D1
:1047B000FFF7FAFF07BD000007B505490130C870D3
:1047C000042201A8FCF740F80198FFF7F0FF07BDAD
:1047D000480C0020032307B50449042201A8CB702C
:1047E000FCF732F80198FFF7E2FF07BD480C002004
:1047F00010B5FFF7E1FF10BD012307B504490422FE
:1048000001A8CB70FCF720F80198FFF7D0FF07BD97
:10481000480C002010B5FFF7EFFF10BD07B5431E91
:10482000984105490422887001A8FCF70DF8019809
:10483000FFF7BDFF07BDC046480C0020014B98782C
:104840007047C046480C002007B50549042248704F
:1048500001A8FBF7F9FF0198FFF7A9FF07BDC046C4
:10486000480C0020014B58787047C046480C002087
:1048700007B505490422087001A8FBF7E5FF019878
:10488000FFF795FF07BDC046480C0020014B187884
:104890007047C046480C002070477047704710B5FD
:1048A000FFF7FCFF10BD704710B5FFF7FCFF10BD10
:1048B00070B500242500FFF7EFFFFDF7DFFEFFF7DF
:1048C000ECFF074E2000FDF7F9FD3080431E9841B4
:1048D0000134E4B205430236042CF3D1280070BD44
:1048E000D8200020044B4000C25A012088401040CC
:1048F000431E9841C0B27047D820002010B50C006C
:10490000002A06D10121A140024B4000C25A8A432D
:10491000C25210BDD820002010B5040000F096F857
:10492000001B80B210BD10B5040000F053F8001B4E
:1049300010BD000010B5040010220021FBF730FF6D
:10494000054B20001968054B1A68054B1B68216050
:104950006260A36010BDC046ACF7FF1FB0F7FF1F39
:10496000B4F7FF1F10B501F0CDF900F0C9FE10BD7E
:1049700010B5FCF7C9F8AA2001F04DF910BD10B52B
:10498000FDF764F8FDF778F8FFF7D6FEFFF742FC75
:104990000020FFF741FE0020FFF75AFEFCF7BFF8AA
:1049A00010BD000010B572B601F0BEF90022044B34
:1049B0001860044B1A60044B1A6062B610BDC04602
:1049C000E8200020E4200020E020002010B5FFF7C0
:1049D000E9FF10BD70B500F0ADFE050001F0A4F9CF
:1049E000134E14493368144AC41A0868A04209D9FE
:1049F000E4204001241811481B1833601048136844
:104A00001B181360280016680C6000F09BFEFA2249
:104A10000023200092000021FBF79EFD0023094A9D
:104A2000801859410023084AFBF776FD301870BD05
:104A3000E8200020E4200020E020002080E3FFFFA9
:104A4000C09699190F2700001027000010B5FFF736
:104A5000C1FF80B210BD0000014B024A1A607047CE
:104A6000FC3F0020EFBEADDE034B1868034BC018BF
:104A700043425841C0B27047FC3F002011415221CF
:104A80000022014B1A607047FC3F002010B5FFF771
:104A9000E3FFBFF34F8F034B034ADA60BFF34F8F3F
:104AA000C046FDE700ED00E00400FA05BFF34F8FBC
:104AB000034B044ADA60BFF34F8FC046FDE7C046A0
:104AC00000ED00E00400FA0510B5FFF7CDFF002867
:104AD00019D0FFF7D5FF72B600230B4A0B491360BC
:104AE0009360536001225242CA67C02108484900BE
:104AF000425083F31488074B1A6882F3088862B621
:104B00005B689847FEE710BD10E000E004E100E0BC
:104B100000E100E000C8FF1F01007F2274310B7824
:104B200070B51A400500212A43D15AB2002A1BDA77
:104B30004A78022A15D0032A04D0012A14D100F0A1
:104B40003FFC70BD4C790A79240214430CD1FFF765
:104B500075FE2C4B1870AB660123EB662C670120A9
:104B6000EFE700F055FDECE74A780A2A1AD00B2A45
:104B70000CD0092A1DD14A79087912020243012A70
:104B800017D8214B214CAB660223E6E74B790A7913
:104B90001B02134302D18878FFF740FE00231C005C
:104BA000AB66DAE7C878FFF763FE280000F056FD31
:104BB000C7E7602200249343812B12D14B78062B48
:104BC0000FD14B790A7968681B02466813432800A5
:104BD000CA788978B047A0420CD04368AB660368B6
:104BE000BBE7D82676000A4B1B59002B04D1903422
:104BF000B442F8D10020A4E7280098470028F6D056
:104C0000ADE7C046F4200020F8200020514C0008F9
:104C1000E80C0020002370B50B4C74306360C2793F
:104C2000817912020A43417905790902294385787D
:104C3000C078064B0002284300F0E8F92060606865
:104C4000002800D0200070BDEC200020F0200020C3
:104C5000030010B574339979DB79074A1B02107889
:104C60000B43022B04D1012801D0062802D1507831
:104C7000FFF7EAFD10BDC046F820002010B50F2454
:104C8000054A11784B1C2340044C24789C4202D0E6
:104C9000034C1370605410BD4F240020502400209A
:104CA0003F240020080010B5052927D8FBF7A0FAFB
:104CB00019260319192772B6174800F04BFA17483E
:104CC00000F048FA164800F045FA62B6154B1B781A
:104CD000002B02D00520FFF7D1FF0220FFF7CEFF07
:104CE0000CE0FFF7CBFF72B60B4800F01DFA0B4843
:104CF00000F01AFA0A4800F017FA62B610BD72B650
:104D0000054800F024FA054800F021FA044800F0B4
:104D10001EFA62B60520E1E7640C0020F40C0020C6
:104D2000840D0020FA200020102210B50021044834
:104D3000FBF736FD0022034B1A70034B1A7010BDAF
:104D40003F2400204F24002050240020F8B50F25D8
:104D500001240021234B244A1E781378B34233D117
:104D6000002900D01370F8BD1370204B1C70204B2D
:104D700019780800431E9841C0B2FFF72BFDE8E701
:104D800013700022194B1A70FFF7F9FD184B1978B0
:104D90000800431E9841C0B2FFF72AFDD9E71370FF
:104DA000134B19780800431E9841C0B2FFF704FD69
:104DB000CFE7002113700800F8E71370FFF71CFD20
:104DC0002000FFF72BFDC4E718000A4F0133385CC1
:104DD00021002B400528C1D8FBF700FAEFC0E1EB1A
:104DE000C6D2C0464F24002050240020FA200020C4
:104DF0008F2500203F24002070B50500154C2000B1
:104E000000F070F9200000F081F9134C200000F050
:104E100069F9200000F07AF9104C200000F062F9E6
:104E200020000F4C00F072F90E4AA36D28001340C9
:104E3000A36501F0EFF8FA20400000F0ECFE280036
:104E4000094901F0D6F88023A26D1B021343A36524
:104E500070BDC046640C0020F40C0020840D0020BE
:104E6000005C0040FF7FFFFF1C7D000813B590240D
:104E700044430448FA23201800249B00009400F0C7
:104E8000C9F916BD640C002010B50400FFF7D6FC6C
:104E900008222100002803D10130FFF7E7FF10BDF1
:104EA0000120FAE7704710B5010006220020FFF745
:104EB000DDFF10BD10B5010003220020FFF7D6FF73
:104EC00010BD00001FB50F210122FA2369440870AC
:104ED0009B000092024800F09DF940B205B000BD71
:104EE000840D002010B50121014800F0D3F910BD58
:104EF000840D002010B5FFF7E7FD10BD7047704727
:104F000010B5FFF7F7FF02F023F9FFF7F7FF10BD29
:104F100010B502F063F9FFF7F2FF10BD10B5FFF70F
:104F200079FC10BD10B5FFF7FFFE0548FFF764FFE1
:104F3000FA20400000F06FFE0248FDF7F5FE10BDBC
:104F400010250020417C000810B50248FFF70CFB3B
:104F500010BDC0464C0C002070B5FFF7F7FE0F4C9B
:104F60002378052B0AD10E4B1B78DB0702D50D48A1
:104F7000FDF7DAFE02252378052B00D070BDFFF780
:104F8000F7FCFFF795FC0028F5D023007C331B8845
:104F90002B42F0D0200001F0CFF8ECE710250020E4
:104FA000A0100020527C000810B500F0BBFA10BD24
:104FB0007FB5134B1C78002C20D101220F256846A9
:104FC0001A70FFF7B7FC23000E490F4C68465A10C1
:104FD000805C5A000609A65D8A1896700026284053
:104FE000D6705A1C205C52008A1802339070D6701A
:104FF000202BEBD122330B703F3B4B707FBDC04663
:10500000FB200020FC200020487D000870B51D001A
:10501000030A032B19D00AD8012B31D00022140027
:10502000022B01D1194C543210002C6070BD0022AB
:105030001400212B1DD0222BF6D10229F4D8144BB9
:105040008A00D458134B5A5CEEE70022C0B2140019
:105050000328E9D8FBF7CCF8170205080E220E4CFE
:10506000E2E71A220D4CDFE7FFF7A2FF0C4C227893
:10507000DAE70229D8D80B4B8900CC580932D3E79C
:105080001222094CD0E70422084CCDE7897D0008A4
:10509000307D00082C7D0008757D0008597D0008D2
:1050A000FC2000203C7D0008DD7D0008857D000897
:1050B00037B5446B226F1378042B12D12500743559
:1050C0002978033B8B4012891A420AD1200001A99A
:1050D00000F065FE021E04D02978019B206F01F0CC
:1050E00018F837BD1FB503005C33C364064B021DBF
:1050F0000193836F029000930121C36FD26F00F080
:1051000028FE05B000BDC046B150000872B60300CD
:1051100074331B78026F09339B00D3185860002347
:105120008830037062B670470123022110B5040075
:105130000372494200F0A2FD20008C3400F021FEF1
:105140002368002B02D0DA681868904710BD00234E
:10515000037270470300020010B50400743319781D
:105160003832006F00F07EFF200000F00AFE0023BE
:10517000237210BD0B0009339B00C318F7B55C68A0
:1051800005000E00002C44D072B6230000228833A4
:105190001A70226963699A4202D1E368002B19D11F
:1051A000B31C9B00EB185B685B691B68002B11D07C
:1051B00027008C373B68002B09D001A9200000F0A4
:1051C000EEFD01003868019A836800689847200066
:1051D00000F0F3FD200001A900F0E1FD019B021E9B
:1051E00012D1B31C9B00EB185B681A68022A0FD11E
:1051F0005A69116800290BD01A8A0B00013A134032
:10520000114205D12A0074323100280000F081FFDC
:1052100062B6F7BDF7B51D0008AB1B780400160099
:105220000091019372B6036F1B78042B02D062B613
:105230000020FEBD070088373B78002B03D00135E6
:105240006B425D416D4262B62B0032002000009936
:1052500000F012FE864214D972B6434258413B78A0
:10526000022118430123387049422372200000F0C4
:1052700005FD200000F085FD0023237200F01AFCDC
:10528000E1E7019B002B01D00120D2E7200000F0D4
:1052900030FEF9E770B50400002903D1200000F0CA
:1052A00028FE70BD836A002BF8D0C56AED1A002D68
:1052B000F4DD00222000110000F0C0FD013DF6E702
:1052C000030072B601694269002091420BD1DA688D
:1052D000824208D01A6F74331B78013098401389CA
:1052E00018404342584162B67047F8B50768060057
:1052F0000D001400002F09D000F016FD7860306812
:105300002200846429000830FBF79EFAF8BD01688A
:10531000130010B5002906D08A6C08331A640831CE
:105320001800FBF791FA10BD036810B50400002BBC
:1053300009D018009A6C00210830FBF731FA0022DE
:1053400023681A605A6010BDF8B50B780D0016007E
:10535000082B0ED89B00C4182768002F09D000F036
:10536000E3FC786020683200866429000830FBF78F
:105370006BFAF8BD030010B51000082909D88900A0
:10538000C958002905D08A6C083002640831FBF73F
:105390005BFA10BD70B50500040024352368002BAE
:1053A00009D018009A6C00210830FBF7F9F90022A7
:1053B00023681A605A600434AC42EFD170BD00001B
:1053C000020070B57432137904000020022B18D843
:1053D0009178082915D80B4AD25C022A11D890235B
:1053E0005343094A9B58181E0BD0084D18685E6835
:1053F0002A00B047064B0120A366AB6CE36600238E
:10540000236770BD600C0020F00C0020E02200201B
:10541000E82200200368002B07D091001960511E7C
:105420008A41024B19780A431A7070472C230020D6
:105430000368181E02D018688008C0B270470000C8
:10544000036870B5002B01D1002070BD72B60368EF
:105450001D685C6862B6002DF6D000F065FCFA228B
:10546000001B0024002321009200FBF775F80023A5
:10547000054A801859410023044AFBF74DF8A84219
:105480006441E0B2E1E7C0460F27000010270000AA
:105490004B1E072B0BD889000B58002B07D091000F
:1054A0001960511E8A41024B19780A431A707047DD
:1054B0002C23002003000020082906D88900CB589F
:1054C000181E02D018688008C0B2704770B508294D
:1054D00001D9002070BD890040180368002BF8D066
:1054E00072B603681D685C6862B6002DF1D000F0EA
:1054F0001BFCFA22001B0024002321009200FBF772
:105500002BF80023054A801859410023044AFBF771
:1055100003F8A8426441E0B2DCE7C0460F27000070
:1055200010270000F0B5354B85B01B78002B3CD020
:1055300000252F00324B0193019B1C68002C2CD0BE
:10554000002D34D10123029372B66B461B7A20687A
:105550000393039963699847431E9841074362B6D2
:105560002848FFF7ADFE002812D0A36903992068F0
:10557000984700280CD072B6234E63683200039916
:105580002068984762B600202049B26CFFF76EFC95
:10559000029B01330293092BD6D1019B0135903335
:1055A0000193032DC8D1154B1F7005B0F0BD72B625
:1055B0000021636920689847029062B601988C3890
:1055C000FFF77EFE002805D00021A36920689847D8
:1055D000002804D1029B5A1E93411F43DDE772B697
:1055E000094E0021320063682068984762B6074977
:1055F000B26CE8B2FFF73AFCECE7C0462C2300207F
:10560000F00C0020640C0020942200209C2200203A
:10561000020010B57432137904000020022B16D852
:105620009178082913D80A4AD25C022A0FD890230D
:105630005343084A9B58181E09D05A691868904766
:10564000054B1870A36601200023E066236710BD98
:10565000600C0020F00C002090220020020070B5A9
:105660007432137904000020022B16D8917808298F
:1056700013D80A48C55C0020022D0ED890236B4336
:1056800007481B58181E08D018681D69D278A8470B
:1056900000230120A366E366236770BD600C002031
:1056A000F00C002070477047FEE7000070B5124C08
:1056B000626820681100A3688B4219D8D11E0020AF
:1056C0008B4203D303339B1A9B0898001018E3689E
:1056D000C11E0022994203D803331A1A920892007D
:1056E0000021FBF75DF8054B10349C42E0D170BD02
:1056F00020C820C1E0E7C046C47E0008447F0008FF
:10570000012310B5064C23700023636000F0EEFA0D
:105710000449054800F0DEF90223237062B610BD8B
:1057200058240020447F00086024002010B500F0B9
:10573000D7F810BDEFF31080C30702D4EFF3058351
:1057400072B6704710B5C00704D4EFF30583DB05CC
:1057500001D062B610BD00F0ADF9FAE7024A536B12
:10576000034353637047C0466024002010B50368AC
:105770009C68A2420CD85C688A600B604C60216017
:10578000596099688A1A9A6001235B42836010BD50
:105790001B68121BECE770B504000D00022900D253
:1057A00002250226601900F0D0FA00F0BDFA041BB1
:1057B000A54203D8013635000400F3E7022E02D9D2
:1057C0000120FFF7CBFF70BDF8B5124B1400D96173
:1057D0008260114A0D0042601A69026050601861CF
:1057E000022C00D20224281900F0A2FA022700F0AD
:1057F0009BFA0600431BA34206D37C1C281900F029
:10580000A4FA27003500F2E7022F02D90120FFF7A2
:10581000A5FFF8BD6024002070240020F8B5050025
:105820000C0000F081FA0E4B0E4F1A69BA4205D1F6
:10583000010022002800FFF7C7FFF8BDDB69C31A8B
:10584000E618B34200D926009368B34202D921007A
:10585000FFF7A1FF320029003800FFF787FFECE7D0
:1058600060240020702400200361002310B5C26072
:105870004361FFF7D3FF10BD10B5174C2369984261
:105880000CD003684268816813605A609A685218A5
:105890009A6000230360013BA36110BD03680F4AB7
:1058A00023615A60002303602369934202D100F010
:1058B00047FAF2E79A68816852189A6000F034FA61
:1058C0002369E1699B68421A9342E6D9C918091A0B
:1058D000FFF761FFE1E7C04660240020702400204C
:1058E000F7B5264E356900F01FFAF469AB68244F0E
:1058F000021B934238D86A68E4182B68F46113607D
:105900005A6000232B603369BB4201D100F018FAC2
:1059100062B62800EB682969984772B66B69002B5C
:10592000DFD000F001FA6A69031B019000939A42EC
:105930000BD20220FFF712FF00223369BB4208D1CD
:1059400028000199FFF740FFF7BD019B1219D21AF9
:10595000F3E7009B0099D318994200D81A00290058
:105960003800FFF703FFBCE73269BA42ECD0E41815
:10597000211AF061A960FFF70EFFE5E7602400201F
:10598000702400200022431CDA77836982681B6838
:1059900099689142FBD25A68036042601060586077
:1059A00070470022431CDA77836982681B68996814
:1059B0009142FBD85A68036042601060586070479B
:1059C00010B572B64B1CD87F0C280BD8FAF710FC18
:1059D000100A0A0716120A0A0A0A0A0A1600002200
:1059E0004B6A1A6001235B4208004B62FFF7CAFF53
:1059F00062B610BD4A6A9368013393604A680B68C7
:105A000013605A60EEE710B5FFF7BCFF10BD000051
:105A100010B50124064BD9684A1CD0771868026873
:105A200053601A60421CD477D860FAF7B5FB10BDFA
:105A30006024002030B50D4B0400DD6887B04B1C9E
:105A400010D02B0068460A4AFFF70EFF2000FFF730
:105A5000DFFF009B002B02D06846FFF70DFF686A4E
:105A600007B030BDFFF7D4FFF9E7C046602400203F
:105A7000C1590008044BDA68196890688B6898422D
:105A8000804140427047C046602400200121084BFD
:105A900010B51C68D868226853601A60621CD17700
:105AA000DC60FFF77EFF01002000FAF775FB10BDF8
:105AB00060240020054B10B51A68DB6892689B686B
:105AC0009A4201D9FFF7E2FF10BDC04660240020D2
:105AD00030BFFDE770B5002504001C4B86B00563A0
