:100000000C949A010C94E1010C94E1010C94E1012F
:100010000C94E1010C94E1010C94E1010C94E101D8
:100020000C94E1010C94E1010C94E1010C94A415F1
:100030000C940D150C94F00A0C94E1010C94E10160
:100040000C94E1010C94E1010C94E1010C94BE0AC2
:100050000C94E1010C94E1010C94E1010C94E10198
:100060000C94E1010C94E1010C94E1010C94E10188
:100070000C94E101FB07FB073508350888082B0ABB
:100080002B0A2B0AA4088209930993094E0C4E0CE3
:10009000610C610C570C610C610C610C4E0C4E0C28
:1000A0005C0C610C610C5C0C2C135313E5145313A2
:1000B000E5149B13BE13E514A914BC140000000042
:1000C0000000000000000000000000000000000030
:1000D0000000000000000000000000000000000020
:1000E0007E0F00D4FFFFFFC7000000780000000073
:1000F000000000002A2B2800000000000000000083
:100100000000000000000029000000002C1E342028
:10011000212224342627252E362D3738271E1F204E
:100120002122232425263333362E37381F04050693
:100130000708090A0B0C0D0E0F10111213141516D7
:100140001718191A1B1C1D2F3130232D35040506D5
:100150000708090A0B0C0D0E0F10111213141516B7
:100160001718191A1B1C1D2F3130354C6874747008
:10017000733A2F2F332E62702E626C6F6773706F1D
:10018000742E636F6D2F2D474E6E665A74683471EE
:10019000536F2F5561457038316D636738492F4172
:1001A000414141414141417957772F6B4F3450765E
:1001B0005F45415131552F73313630302F686172B0
:1001C00072792D706F747465722D64616E63696EDF
:1001D000672D676966732D372E67696601012800F0
:1001E0003A6D61636475663A0101280049206361D4
:1001F0006E27742E2049276D20676F696E67207403
:100200006F206265642E01012800404454500101B2
:100210002B2047616D653F010128000102E2710159
:1002200003E201012800A941AA42A843AE4400000C
:10023000B600B700B900040400001604295D1013CD
:10024000071300002A5D2B5D2C5D2D5D000005016C
:100250000980A101850319012AB700150126B700FD
:10026000950175108100C0050C0901A101850419D3
:10027000012AA002150126A002950175108100C077
:1002800005010906A101050719E029E71500250167
:10029000950875018102950175088101050719000E
:1002A00029FF150026FF009506750881000508192D
:1002B000012905950575019102950175039101C00C
:1002C00009023B00020100A0FA0904000001030139
:1002D00001000921110100012240000705810308E6
:1002E000000A0904010001030000000921110100B6
:1002F000012232000705820320000A1201100100CA
:1003000000000844780404010001020001120358AF
:10031000004400300030003400200076003100003E
:10032000000C035800490055004400490000000437
:100330000309040011241FBECFEFD2E0DEBFCDBF02
:1003400004B603FE27C08091C1019091C201A09123
:10035000C301B091C4018730904BA740B04BD1F49A
:100360001092C1011092C2011092C3011092C401F7
:1003700014BE84B7877F84BF0FB6F894A895809188
:100380006000886180936000109260000FBEE0E022
:10039000F8E1099511E0A0E0B1E0E2EFFEE202C071
:1003A00005900D92A034B107D9F721E0A0E4B1E0A7
:1003B00001C01D92A13CB207E1F70E94AD100C9460
:1003C00077170C94000090919D0192FF0DC0282F8B
:1003D0002871283019F4877F846006C0282F247183
:1003E000243011F48B7F886093FF0DC0282F287173
:1003F000283119F4877E846106C0282F24712431A6
:1004000011F48B7E886120919E0120FF0DC0382F52
:100410003871383019F4877F816006C0382F317108
:10042000313011F48E7F886021FF0DC0282F287194
:10043000283119F4877E816106C0282F217121316E
:1004400011F48E7E886194FD877E0895BF92CF92CD
:10045000DF92EF92FF920F931F93CF93DF93EC0104
:10046000FE012491222309F4B0C0213009F042C0DA
:1004700031968491813059F42296FE01849189331A
:1004800019F060E070E08CC060E570E089C08230F7
:1004900031F42296FE0184910E94AE1685C083300D
:1004A00031F42296FE0184910E9476167DC084303C
:1004B00009F079C02296FE01249180E090E030E0BE
:1004C000205331092A30310550F46AE070E00E946F
:1004D0006017820F931F2196FE012491F0CF0097A1
:1004E00009F462C0EFE9FFE03197F1F700C00000C6
:1004F0000197F5CFE22FF0E0E451FF4FB490822F47
:1005000086958695869590E0FC01E452FF4FE49035
:100510002770F12C022E02C0F594E7940A94E2F7BA
:10052000F1E0EF22FF24FC01E453FF4FC490D12CF3
:10053000022E02C0D594C7940A94E2F731E0C32298
:10054000DD24FC01E454FF4F049110E002C0159536
:1005500007952A95E2F701701127E114F10419F0CB
:1005600081EE0E94AE16C114D10431F186EE0E94D4
:10057000AE1689E3B816D1F060E070E08B2D0E94D2
:100580000717CD2819F086EE0E947616EF2819F08D
:1005900081EE0E947616012B39F060E070E08CE26B
:1005A0000E94071701C0EF0121965ACF60E570E065
:1005B00089E30E940717E7CFE9E3BE12DDCF60E5CC
:1005C00070E089E30E940717E1CFDF91CF911F917F
:1005D0000F91FF90EF90DF90CF90BF900895CF9351
:1005E000DF93CDB7DEB767970FB6F894DEBF0FBEC7
:1005F000CDBF342F4B8B252F5C8B6D8B7E8B8F8BE0
:100600004E895F8961111092910186E0FE013D964D
:10061000DF01982F1D929A95E9F73D872E876F8706
:10062000598B488BDE01179601900D928A95E1F760
:10063000CE0107960E94A50D811153C086E0FE01F0
:100640003796DE01119601900D928A95E1F7FF81B0
:10065000E8856A857B856115710531F0EF3F31F4DE
:1006600081E0FF3F19F403C081E001C080E080FD1C
:1006700038C08091580190E09C012F5F3F4F277058
:1006800033274091890150E02417350789F1F98318
:10069000EA837D836C8366E070E00E946017DC0172
:1006A000A75ABE4F96E0FE01319601900D929A95A1
:1006B000E1F7209358010E94320D13C090E066E0EC
:1006C00070E00E946017875A9E4F0E94A50D8823F4
:1006D000E1F08091890190E00196877099278093DD
:1006E000890180918901909158018913E7CF0DC04C
:1006F0000E94550F1092580110928901E2E5F1E035
:1007000086E0DF011D928A95E9F767960FB6F894A7
:10071000DEBF0FBECDBFDF91CF910895209147017D
:10072000309148012817390771F090934801809360
:100730004701E0919F01F091A001309721F00084E2
:10074000F185E02D099408952091450130914601ED
:100750002817390771F09093460180934501E09185
:100760009F01F091A001309721F00680F781E02DE4
:1007700009940895E0919F01F091A001309721F034
:100780000190F081E02D099480E00895CF93ABE0D3
:10079000B1E040E050E030E061E070E02D912F3FAB
:1007A000C1F0E22FE295EF70F0E080A190E02F70B1
:1007B00002C0959587952A95E2F780FD07C0CB0189
:1007C000042E01C0880F0A94EAF702C080E090E08E
:1007D000382B4F5F5F4F4430510501F780919801EE
:1007E000831769F03093980181E0809344010E945F
:1007F000E40A909343018093420181E001C080E0CC
:10080000909144019923D1F020914201309143010C
:100810009FB7F8944091A2015091A3016091A40167
:100820007091A5019FBF421B530B4630510530F01C
:10083000909198019093A60110924401CF91089550
:10084000CF93DF93E72FF0E0E80FF11DEE0FFF1FCE
:10085000EE0FFF1FE60FF11DEE0FFF1FEA5DFD4FCC
:10086000C591D491CE01C238D10569F1B0F4C1333C
:10087000D10509F475C048F4C932D10509F469C03D
:10088000CA32D10509F473C085C0C533D10509F456
:1008900059C0C933D105B9F07DC0C33ED10571F14E
:1008A00038F4C03ED105B1F0C23ED10511F172C09D
:1008B000C63ED105B9F1C73ED105C9F1C43ED10547
:1008C00009F068C024C020919D0120FD5DC021FD7C
:1008D0005BC060C020919D0120FD50C020919E0111
:1008E00020FF4BC180919D0184FD45C183EE90E0C6
:1008F00044C120919D0122FF40C1F4CF80919D0110
:1009000082FD3FC080919E0180FD3EC0EBCF2091D3
:100910009E0121FF32C180919D0184FD2CC187EE93
:1009200090E02BC120919D0123FF27C1F4CF80913E
:100930009D0183FD2CC080919E0181FFECCF84EE50
:1009400090E01BC120919D0125FF17C189E290E035
:1009500014C120919D0125FF10C185E390E00DC1D8
:1009600020919D0126FF09C18AE290E006C12091F5
:100970009D0126FF02C181E390E0FFC089E390E082
:10098000FCC082EE90E0F9C080EE90E0F6C086EE0A
:1009900090E0F3C0C11552E5D50708F070C0C1154D
:1009A00021E5D20728F09C2F8827816F906AE5C047
:1009B000C83ED10570F5C03ED10508F0DEC0C83A8A
:1009C000D105B8F4C53AD10550F08C2F855AC82FFF
:1009D000D0E0C15FDE4F888190E09064CEC0C1302E
:1009E000D10509F4CAC008F4C6C0249708F4C3C0EE
:1009F000C4C0CF3BD10508F0BEC08C2F885AC82F89
:100A0000D0E0CC0FDD1FCE5EDE4F888199819464EB
:100A1000B4C0C11540E5D40718F1CE01B4E09695F5
:100A20008795BA95E1F7282F23703C2F337081E02A
:100A300090E002C0880F991F3A95E2F79C68AC01DC
:100A4000522B8C2F8F70282F26952695822F90E081
:100A5000C5E0880F991FCA95E1F7842B952B8DC0AF
:100A6000C11550E4D50720F0CE019F70906A85C073
:100A70009E013A9521153F4108F47FC07CC0C11505
:100A800056E5D50708F043C0C11585E5D80748F0FD
:100A90008C2F0E94E3018F7190E0982F882790623D
:100AA0006CC0C11524E5D20728F09C2F8827846FDD
:100AB000906A63C0AE01437055279C2F969596951A
:100AC000C115D34590F421E030E002C0220F331F5E
:100AD0004A95E2F7892F90E0F5E0880F991FFA9583
:100AE000E1F7822B932B9C6848C021E030E002C0E4
:100AF000220F331F4A95E2F7892F90E0E5E0880F37
:100B0000991FEA95E1F7822B932B9A6836C0C1159D
:100B10002AE5D207B0F4C11549E5D40718F18C2FA6
:100B20008F700E94E3019E0194E0369527959A9577
:100B3000E1F72F7030E0322F22273069A901482BCE
:100B40000FC0CE01905681159042A8F48D2F8F7161
:100B50000E94E3019E01332730628F71A901582B57
:100B6000CA010BC0C11558E5D50728F09C2F88276E
:100B7000806F906A02C080E090E0DF91CF9108958D
:100B80008F929F92AF92BF92CF92DF92EF92FF929D
:100B90000F931F93CF93DF93CDB7DEB72A970FB68E
:100BA000F894DEBF0FBECDBFFC01D08011818381E0
:100BB0009481892B39F01F3F39F491E00FEFD01267
:100BC00003C003C091E001C090E090FD9EC47F018E
:100BD00085E0DE01169601900D928A95E1F7F70106
:100BE00022818E819F81222349F00E94EF0B082FE2
:100BF000682F8E819F810E94910C03C00E94650C1A
:100C0000082FE12FF0E0E00FF11DEE0FFF1FEE0FB8
:100C1000FF1FED0DF11DEE0FFF1FEA5DFD4F05916A
:100C20001491F70182810B32FDE51F07E9F048F4CA
:100C300009323DE5130771F00A329DE5190779F095
:100C400023C00C32EDE51E07A1F00D32FDE51F07B4
:100C5000A9F01AC08823C1F08BE192E013C0882369
:100C600099F08AE092E00EC0882371F08CEE91E05A
:100C700009C0882349F080EE91E004C0882321F068
:100C80008CE691E00E942602F7018281882309F414
:100C90003DC10230FCE51F0708F422C106312CE5F6
:100CA000120738F098012B5F3C452930310508F0D8
:100CB00017C10E94330B90939E0180939D010031D8
:100CC0003CE5130709F4C3C008F041C008309CE5B7
:100CD000190709F49AC0F0F40430FCE51F0709F481
:100CE00087C068F402303CE5130709F477C003308D
:100CF0001C4509F0E5C080919D01826076C00630F8
:100D00009CE5190709F46EC008F07BC080919D0135
:100D100088606BC00C30FCE51F0709F485C068F4DF
:100D20000A303CE5130709F474C008F079C00E944A
:100D3000550F80919D01806858C00E309CE51907C1
:100D400009F476C008F07FC080919D018BC00C3FF4
:100D5000FCE51F0709F44FC018F503313CE5130704
:100D600009F47DC078F401319CE5190709F473C0DA
:100D700002311C4509F0A4C00E94550F80919D01CD
:100D80008F7733C00531FCE51F0709F472C008F402
:100D900086C00B3F1C4509F093C080919E013EC068
:100DA00001158DE5180709F45FC058F40E3FECE516
:100DB0001E0709F444C008F43FC080919E01826080
:100DC0002DC002302DE5120709F475C008F45DC08E
:100DD00003301D4509F074C060E06EC080919D0134
:100DE000816003C080919D01806180939D0168C0F6
:100DF00080919D0111C080919E01826080939E012F
:100E00005FC080919D018062F0CF80919D018064E0
:100E1000ECCF80919D0188608460E7CF8160EECF48
:100E200080919D018E7FE1CF80919D018D7FDDCFEF
:100E300080919D01877FD9CF80919E0118C08091BC
:100E40009E018D7FDBCF80919D018F7ECECF8091E3
:100E50009D018F7DCACF80919D018F7BC6CF8091F0
:100E60009D01877F8B7FC1CF80919E018D7F8E7F7B
:100E7000C5CF80919D0182FB222720F991E0922726
:100E800090FB82F990FB83F9B0CF80919E01982F5F
:100E9000909591708E7F892B90FB81F9AFCF0E9446
:100EA000550F80919D0187FB222720F991E0922721
:100EB00090FB87F99ACF61E08EE090E00E942C17BA
:100EC00060919D0110919E0184E090E00E942C179A
:100ED000612F81E290E00E942C170E94550FF6C20C
:100EE0000631FCE51F0751F5809192018A7A91E065
:100EF00009F490E090934901882311F065E301C063
:100F000069E28AE491E00E94190B15C006311C4584
:100F100069F580914901882309F4F5C285E3EAE483
:100F2000F1E020E531E09281891301C0128231960F
:100F30002E173F07C1F70E94B40BC8C201159CE5EC
:100F4000190731F00F3D1C4589F40E94440BBEC2C5
:100F50000E94550FFFEF04E31CE0F15000401040E9
:100F6000E1F700C000000E949A0AB0C2F7010081B8
:100F70001181882349F0C8010E94EF0BD82E682FF9
:100F8000C8010E94910C04C0C8010E94650CD82EB3
:100F9000B8018D2D0E9420048C01982EF701B2809B
:100FA000A580A2943FE0A32280918F01877099F0E1
:100FB000BB2089F0812F807F803421F080E2800F78
:100FC000883048F082E00E94EE0C80918F0187709B
:100FD000DD24D3948111D12CC12EC2942FE0C222E2
:100FE0008C2D90E08C30910508F035C2FC01E65C58
:100FF000FF4F0C947117812F807F1F70882311F091
:101000001295107FBB20B9F0112309F40FC280E2C2
:10101000800F883010F0911006C080919201182B3B
:101020001093920105C080919101182B10939101AA
:101030000E94B40BFBC1802F0E947616112309F485
:101040000AC2005E1095083010F0911006C0809121
:10105000920118231093920105C0809191011823E9
:10106000109391010E94B40BF6C1812F807F1F70F5
:10107000803211F01295107F992021F0F1E09F1637
:10108000E1F02AC0BB2081F080919301AA2051F0A9
:1010900001E0A01207C0182B181709F4DCC1109347
:1010A0009301D9C1812B10C0AA2021F021E0A21602
:1010B00009F4D1C10E94AE0B27C0BB2041F035E03E
:1010C0003A1508F4C8C1812F0E946C16C4C184E08F
:1010D0008A1508F4C0C118C0BB2049F0AA2099F3B2
:1010E000F701858180FFA2C18F708583ECCFAA2094
:1010F00059F0093309F0ACC1FFEF17EE23E0F150CE
:1011000010402040E1F7A2C1812F0E946116A3C1C7
:10111000812F86958695837019F0813059F09BC197
:10112000BB2019F0C801937002C080E090E00E94DB
:10113000A40397C1BB2019F0C801937002C080E0DE
:1011400090E00E948E038DC1812F837009F069C0E9
:10115000B11085C1902F929596959770990F990F20
:10116000802F8F70882E912CA12CB12C092E04C0B9
:10117000880C991CAA1CBB1C0A94D2F704FF12C04D
:101180004FE050E060E070E004C0440F551F661F60
:10119000771F9A95D2F7DB01CA0180959095A095AB
:1011A000B09503C080E090E0DC0116951695412FC4
:1011B0004370423019F1C8F40091940110919501E7
:1011C0002091960130919701413059F08829992951
:1011D000AA29BB29BC01CD0160237123822393235B
:1011E0000AC0802A912AA22AB32ABC01CD0168290B
:1011F00079298A299B290E94280D31C1882999299A
:10120000AA29BB2900919401109195012091960182
:1012100030919701BC01CD01602771278227932768
:10122000EACFBB2019F0812F817001C086958823F9
:1012300009F415C1902F929596959770990F990F73
:10124000802F8F70882E912CA12CB12C092E04C0D8
:10125000880C991CAA1CBB1C0A94D2F704FF12C06C
:101260004FE050E060E070E004C0440F551F661F7F
:10127000771F9A95D2F7DB01CA0180959095A095CA
:10128000B09503C080E090E0DC0116951695412FE3
:1012900043704230D9F068F50091990110919A019C
:1012A00020919B0130919C01413059F08829992966
:1012B000AA29BB29BC01CD0160237123822393237A
:1012C0001EC0802A912AA22AB32A13C088299929EC
:1012D000AA29BB290091990110919A0120919B01A3
:1012E00030919C01BC01CD01602771278227932793
:1012F00006C0BC01CD01682979298A299B290E9451
:10130000BF0CADC01F70BB2039F0812F0E94070DAC
:10131000802F0E946C16A3C0802F0E946116812F1F
:101320000E94C90C9CC0802F32EF931609F440C074
:10133000391538F090EF991661F0E1EF9E1699F1AA
:1013400070C0F3EF9F16D9F124EF921609F44EC046
:1013500068C0BB2019F134E03A1508F47CC01F7155
:1013600081E090E0A0E0B0E0AC01BD0104C0440F1A
:10137000551F661F771F1A95D2F78091990190919A
:101380009A01A0919B01B0919C018A019B010827C1
:1013900019272A273B27C901B80125C025E02A15AE
:1013A00008F459C0DCCFBB2029F0812F8F712CC0ED
:1013B000BB20D9F3812F8F710E94C90C4CC0BB2078
:1013C00079F01F7181E090E0A0E0B0E0BC01CD01B8
:1013D00004C0660F771F881F991F1A95D2F703C0A4
:1013E00060E070E0CB010E94BF0C35C0BB2079F0FB
:1013F0001F71812F0E94070D812F880F880F880F82
:10140000836080938F01812F0E94070D24C081E0AB
:101410000E94EE0C31E03A15F0F482E00E94EE0CEE
:101420001AC0BB2039F0AA2009F4BFCF802F0E9438
:10143000AE1611C0AA2009F4BDCF893349F48FEF4D
:1014400097EEE3E081509040E040E1F700C00000FB
:10145000802F0E94761688EF8C0D843010F40E9445
:10146000BA03DD20A9F080918F0180FD11C0F70142
:1014700012828595859585950E94070DC7010E946A
:10148000C00580918F018595859585950E94C90C31
:1014900085E0F701DE01119601900D928A95E1F742
:1014A00089819A810E94650CEA81F0E0E80FF11DC4
:1014B000EE0FFF1FEE0FFF1F8981E80FF11DEE0FEA
:1014C000FF1FEA5DFD4F859194911FC080918F01B0
:1014D0008770D9F0F70182818823B9F082E02A96DB
:1014E0000FB6F894DEBF0FBECDBFDF91CF911F9135
:1014F0000F91FF90EF90DF90CF90BF90AF909F90B3
:101500008F900C94EE0C89E20ACD2A960FB6F894CF
:10151000DEBF0FBECDBFDF91CF911F910F91FF9026
:10152000EF90DF90CF90BF90AF909F908F900895F5
:1015300080E0089581E08093E00080E28093D8000D
:101540001092C9008FE19EE40197F1F700C00000FE
:1015500087E090EBDC018093C1019093C201A093DE
:10156000C301B093C4019CE088E10FB6F894A8953C
:10157000809360000FBE90936000FFCF78941F921D
:101580000F920FB60F9211248F939F93AF93BF9337
:101590008091A2019091A301A091A401B091A50115
:1015A0000196A11DB11D8093A2019093A301A09368
:1015B000A401B093A501BF91AF919F918F910F901E
:1015C0000FBE0F901F9018952FB7F8948091A2012D
:1015D0009091A301A091A401B091A5012FBF0895FE
:1015E0001F920F920FB60F9211248F939F93AF9378
:1015F000BF938091A101811113C08091A2019091AC
:10160000A301A091A401B091A5014196A11DB11D16
:101610008093A2019093A301A093A401B093A5018C
:10162000BF91AF919F918F910F900FBE0F901F9020
:1016300018959C01FC0132969FEF80E0419146177E
:1016400089F09F3F19F4411101C0982F8F5F8630B8
:10165000A9F79F3F39F0F901E90FF11D97FDFA95C0
:10166000628308950895CF9384E090E00E941E174E
:10167000C82F81E290E00E941E172C2F30E0A901B4
:10168000582BCA01CF9108956BEE7EEF80E090E079
:101690000E944A1760E082E090E00E942C1760E010
:1016A00083E090E00E942C17109294011092950113
:1016B000109296011092970160E084E090E00E9401
:1016C0002C1760E081E290E00E942C1760E085E03A
:1016D00090E00E942C1760E086E090E00E942C17BA
:1016E0006FEF87E090E00E942C1740E050E0BA01D5
:1016F00088E090E00E943E1760E08DE090E00E945C
:101700002C1740E050E0BA0188E190E00E943E17BB
:1017100060E087E190E00E942C1740E050E0BA01C1
:101720008CE190E00E943E1760E080E290E00E9431
:101730002C1740E050E0BA0188E190E00E943E178B
:1017400040E050E0BA018FE090E00E943E1740E098
:1017500050E0BA0183E190E00C943E178091930130
:1017600081111092930108959091920180919101BD
:10177000892B20919001982F922B90934A01809170
:101780009301882389F0892B80934A01ECE4F1E0EE
:1017900097E080E0915029F021912223D9F38F5FC7
:1017A000F9CF81110E94AE0BE0919F01F091A00151
:1017B000309731F00280F381E02D8AE491E00994C2
:1017C000089580E090E00E94A40380E090E00E94F1
:1017D0008E0310929101109290010C94B40BBF9261
:1017E000CF92DF92EF92FF920F931F93CF93DF93ED
:1017F0008C01C0909901D0909A01E0909B01F090EB
:101800009C018091940190919501A0919601B091D5
:101810009701C82AD92AEA2AFB2ACFE1D0E0D701CA
:10182000C6010C2E04C0B695A795979587950A9486
:10183000D2F780FD04C0219790F7B12C07C0BC2ED1
:10184000B8018C2F0E9420040197A9F38B2DDF9102
:10185000CF911F910F91FF90EF90DF90CF90BF90AD
:101860000895CF93DF93EC010E94EF0BBE010E941D
:101870002004DF91CF9108950E94310C292F2F7001
:10188000E92FE295EF704E2F50E0FA013297EE30DB
:10189000F105B8F4EA5BFF4F0C947117803F99F0A3
:1018A00018F4883E70F40FC0843F59F40CC0883E91
:1018B00050F0813F31F407C0822F8695869586953A
:1018C000089580E0089581E00895990F990F890F98
:1018D000A82FA77086958695869590E065E070E0C4
:1018E0000E946017BC0140E050E080E0FB01E40F83
:1018F000F51FE657FE4F208130E00A2E02C03695D4
:1019000027950A94E2F721703327042E01C0220F95
:101910000A94EAF7822B4F5F5F4F4530510531F74C
:101920000895262F990F990F890F982F9770A1E08E
:1019300001C0AA0F9A95EAF786958695869590E05C
:1019400065E070E00E946017FC01E657FE4F40E042
:1019500050E0622F70E090819B01042E02C036950A
:1019600027950A94E2F72170219529272A23292710
:1019700021934F5F5F4F4530510569F7089560939C
:10198000990170939A0180939B0190939C010C9410
:10199000E10B0F931F9341E050E060E070E004C062
:1019A000440F551F661F771F8A95D2F740955095B3
:1019B000609570958091990190919A01A0919B01F9
:1019C000B0919C018A019B01082319232A233B2300
:1019D000C901B8011F910F910C94BF0C20918F0188
:1019E0008095822380938F01982F977079F430E04F
:1019F000482F082E000C550B2417350739F0859514
:101A0000859585950E94C90C10928F0108950F93BA
:101A10001F9341E050E060E070E004C0440F551FA8
:101A2000661F771F8A95D2F78091990190919A014C
:101A3000A0919B01B0919C018A019B01082B192B5D
:101A40002A2B3B2BC901B8011F910F910C94BF0C9D
:101A50006093940170939501809396019093970100
:101A60000C94E10B8091890190915801891719F02C
:101A70008F5F8770FBCF08951F93CF93DF93809183
:101A8000570182958F7009F05CC0809154018823C2
:101A900009F457C02091890110915801C091520159
:101AA000D0915301A0915501B091560181E0CF3FF3
:101AB00009F080E0482F211709F443C0109721F066
:101AC000DF3F21F080E003C081E001C0842F30E0DF
:101AD00080FD33C0C90166E070E00E946017FC0120
:101AE000E75AFE4F81818D1328C080818C1325C059
:101AF0008281811122C0838194818A1B9B0B883C47
:101B00009105D8F4809157018F70806180935701BF
:101B1000C90166E070E00E946017FC01E25AFE4FC6
:101B200090819F709061908382E591E00E94C00552
:101B3000DF91CF911F910C94320D2F5F3F4F277093
:101B4000BACFDF91CF911F9108959F92AF92BF922C
:101B5000CF92DF92EF92FF920F931F93CF93DF9379
:101B6000CDB7DEB761970FB6F894DEBF0FBECDBF1D
:101B70008C0185E0F801DE011D9601900D928A9599
:101B8000E1F7F80130812181E2809091520160916A
:101B9000530140915501509156014115510531F0C5
:101BA0006F3F31F481E09F3F19F403C081E001C031
:101BB00080E0F82FF1709F2E80FD24C1F801C380D2
:101BC000D48082E5A82E81E0B82EF0905401F60171
:101BD000E41BF50BFF2009F4CFC080915701E83CCE
:101BE000F10508F09AC0482F407F09F053C06213F6
:101BF00011C093130FC0FE2CE1100CC08F708061D8
:101C000080935701C5010E94C00580915701F801DA
:101C1000858338C1CD2831F02F3F31F481E03F3F3B
:101C200019F403C081E001C080E080FD03C081E0C1
:101C30008E2502C080E090E0F82FF170FF2E80FF2B
:101C40001FC0E091890140915801E41709F4F8C0E0
:101C5000F0E0CF0166E070E00E946017DC01A75A57
:101C6000BE4F11968C911197281307C08C91381391
:101C700004C012968C91E81203C03196E770E5CF4C
:101C8000FE2CEE2009F4FEC0809157018160809304
:101C900057014FC0621306C0931304C0E11002C085
:101CA000F8018CC03D872E878D859E850E943C0C57
:101CB000882369F1EE2059F120915701822F8295F6
:101CC0008F7090E0029774F08091520190915301CF
:101CD00098878F831986DB86CA862C87CE01079664
:101CE0000E94C00586E0F801A2E5B1E001900D92E6
:101CF0008A95E1F70E943C0D0DC06217E1F03D8727
:101D00002E878D859E850E943C0C81111EC0C801C6
:101D10000E94C005FF24F394B5C0482F407F69F7A7
:101D200082E591E00E94C00586E0F50111928A9556
:101D3000E9F7F12CA7C09313E2CFE110E0CFF8014F
:101D40008583C8010E94C00557C0EE2001F3209191
:101D50005701822F82958F7090E002971CF280913C
:101D60005201909153019A8389831B82DD82CC8238
:101D70002E83CE010196B4CFE83CF105E8F5FE2CA8
:101D8000EE2029F2621327C0931325C0209157013A
:101D900020FD18C0822F82958F70482F50E041158A
:101DA000510581F0F80125834F30510541F08F5FD7
:101DB000982F9295907F822F8F70892B8583C801F1
:101DC0000E94C00586E0F801A2E5B1E001900D9205
:101DD0008A95E1F757C03D872E878D859E850E94A5
:101DE0003C0C81117FCF8091570181608093570116
:101DF000C8010E94C00546C086E0F50111928A958F
:101E0000E9F740C0EE2009F482CF3D872E878D850B
:101E10009E850E943C0CF82E882309F478CF86E03A
:101E2000F801A2E5B1E001900D928A95E1F7809169
:101E30005201909153010E94310C0E943C0D22C02E
:101E40003D872E878D859E850E94310C292F2295F6
:101E50002F70223028F49F7039F0811105C00BC01B
:101E6000243028F49F7049F4805E883020F0C80147
:101E70000E94C0059F2CF92C05C0F8019581907F28
:101E800099F7F9CF8F2D61960FB6F894DEBF0FBE8C
:101E9000CDBFDF91CF911F910F91FF90EF90DF9019
:101EA000CF90BF90AF909F9008951092920186E0DE
:101EB000ECE4F1E0DF011D928A95E9F70C94E10B67
:101EC00008958091AC010895CF93DF9300D01F92C5
:101ED000CDB7DEB79091B701943019F589837B8334
:101EE0006A8382E08093E9008FEF9091E80081504F
:101EF00095FD06C095ED9A95F1F700008111F5CF9B
:101F00008091E80085FF0DC040E050E063E070E0A4
:101F1000CE0101960E9420128091E8008E77809376
:101F2000E8000F900F900F90DF91CF910895BC01C2
:101F300084E00C94640FBC0183E00C94640FCF9395
:101F4000DF9321E02093E9002FEF3091E80021504A
:101F500035FD06C035ED3A95F1F700002111F5CFBA
:101F60002091E80025FF14C0EC0140E050E068E05B
:101F700070E00E9420128091E8008E778093E80044
:101F800088E0FE01ADEAB1E001900D928A95E1F79B
:101F9000DF91CF9108952091E4003091E50095E61E
:101FA0004091EC00842F817040FF23C08091E800B5
:101FB00080FD1DC08091B701882399F0853099F08C
:101FC0008091EB0085FD11C04091E4005091E50047
:101FD0002417350729F3915011F09A01E1CF84E0DD
:101FE000089582E0089583E0089581E0089580E0F7
:101FF00008954091E80042FFDDCF08958091B90136
:1020000087FF11C08091E80082FD05C08091B70173
:102010008111F8CF11C08091E8008B770BC08091BF
:10202000B701882349F08091E80080FFF8CF8091C4
:10203000E8008E778093E8000895982F953068F532
:102040009093E900981739F07091EC002091ED0021
:102050005091F00003C0242F762F50E021FD02C0E4
:102060009F5FECCF3091EB003E7F3093EB003091DF
:10207000ED003D7F3093ED003091EB003160309307
:10208000EB007093EC002093ED005093F000209152
:10209000EE0027FDE5CF80E008958F708093E90082
:1020A00081E008952091BF013091C00126173707C4
:1020B00048F06115710539F42091E8002E772093DE
:1020C000E80001C0B901FC0120E06115710561F172
:1020D0008091B7018823D9F18530D9F18091E8004A
:1020E00083FD39C08091E80082FD2BC08091E8001B
:1020F00080FFEBCF8091F20090E06115710551F007
:102100008830910538F421912093F10061507109D4
:102110000196F3CF21E0089709F020E08091E800D4
:102120008E778093E800D1CF2111D2CF0AC0809161
:10213000B701882361F0853061F08091E80083FD6C
:102140000AC08091E80082FFF2CF80E0089582E02B
:10215000089583E0089581E00895CF93DF93CDB78C
:10216000DEB72A970FB6F894DEBF0FBECDBF84B797
:10217000877F84BF0FB6F894A8958091600088612E
:1021800080936000109260000FBE90E080E80FB670
:10219000F89480936100909361000FBE88E99AE003
:1021A00090934101809340010E948D1580916300BE
:1021B0008E7F8093630081E08093AA010E94511575
:1021C0008091E20084608093E20078948091B7016E
:1021D0008823A1F01091E9001F709091EC00892FE5
:1021E000817090FD80E8182B1092E9008091E80042
:1021F00083FD0E944C121F701093E90082E084BDA1
:1022000093E095BD9AEF97BD80936E00ABE0B1E08F
:102210006FE071E041E050E08D918F3F21F46A174B
:102220007B07D1F715C0E82FE295EF70F0E021A110
:102230008F708A0102C0000F111F8A95E2F7C80152
:10224000902F9095922391A392A1892B82A3E7CFFF
:10225000109298011092A6010E94C6038FE39CE998
:102260000197F1F700C000000E94C6038091A6010B
:1022700080FF08C06FEF7FEF80E090E00E944A1778
:102280000E949A0A80E090E00E9426178B3E9E4FA3
:1022900011F00E94440B80E090E00E9426178B3ED4
:1022A0009E4F11F00E94440B82E090E00E941E17A6
:1022B0008093A8010E94330B90939E0180939D010F
:1022C00083E090E00E941E17682F70E080E090E0AD
:1022D0000E94280D80E091E09093A00180939F01DF
:1022E00088E1E82EF12C90E4B92E24E0C22E36E0ED
:1022F000D32E0FEF8091B701853009F04FC0809148
:10230000B701853009F046C08091B701843009F1EA
:102310001092A1010FB6F894A895E09260000FBE4C
:10232000B092600083B7817F846083BF83B7816090
:1023300083BF7894889583B78E7F83BF0FB6F89458
:10234000A895809160008861809360001092600081
:102350000FBE8091B601882391F20E94C60380913E
:10236000A601882309F4CBCFC9BCD9BC09B400FEAF
:10237000FDCF8091D8008F7D8093D8008091E000C0
:1023800082608093E0008091E00081FDFCCF0E949C
:10239000550FB5CF0E94550F0E94BA030E94C60385
:1023A000882359F08FB7F8944091A2015091A3016E
:1023B0006091A4017091A5018FBF2091A601909119
:1023C000A901922711F180E011E0312F3923C9F0E2
:1023D00089831A82212381E009F480E08B830E94A3
:1023E000E40A8160782F9D838C8349815A816B81B7
:1023F0008D810E94EF028091A90118271093A901F5
:1024000013C08F5F110F843001F70E830F8318867E
:102410000E94E40A8160782F9A8789874E815F81C4
:1024200068858A850E94EF020E94BA039091A701F5
:10243000891709F45FCF0E94BA038093A7015ACF8E
:10244000EF92FF920F931F93CF93DF937C018B0149
:102450000E94CB0F811119C0E70101151105A1F0F0
:102460008091E80085FD0AC08091E8008E77809316
:10247000E8000E94CB0F882381F307C089918093E5
:10248000F10001501109E9CF80E0DF91CF911F9158
:102490000F91FF90EF9008951F93CF93DF93CDB7E7
:1024A000DEB7AA970FB6F894DEBF0FBECDBFE9EB3B
:1024B000F1E08091F100819321E0E13CF207C9F75E
:1024C0008091BA01833009F45CC030F4813071F03E
:1024D000823009F496C0ADC08A3009F482C08B30D6
:1024E00009F467C0893009F0A4C020C08091B90107
:1024F000813A09F09EC08091E800877F8093E800D0
:102500008091BD019091BE01892B21F468E08DEA94
:1025100091E003C060E080E090E070E00E94521023
:102520008091E8008B778093E80083C08091B901A7
:10253000813209F07EC08091BD019091BE01029769
:1025400008F077C08091E800877F8093E800809151
:10255000E80082FD05C08091B7018111F8CF69C004
:102560008091F200823029F48091F1008B7F8130DC
:1025700021F48091F1008093AC018091E8008B7789
:1025800054C08091B901813A09F053C08091BD01D6
:102590009091BE01892B09F04CC08091E800877FA3
:1025A0008093E8008091E80080FFFCCF80910A01D1
:1025B00037C08091B9018132E1F58091BD019091E0
:1025C000BE01892BB1F58091E800877F8093E800F8
:1025D0000E94FE0F8091BB0180930A010E94550F5B
:1025E00028C08091B901813221F58091E800877F70
:1025F0008093E8000E94FE0F8091BC018093AB01A4
:1026000018C08091B901813AA1F48091E800877FD8
:102610008093E8008091E80080FFFCCF8091AB01BF
:102620008093F1008091E8008E778093E8000E940B
:10263000FE0F8091E80083FFC8C18091B90190919D
:10264000BA01492F50E04A30510508F0BEC1FA01E5
:10265000EC5AFF4F0C947117803821F0823809F042
:10266000B4C108C08091B5019091B601992389F059
:1026700082600FC08091BD018F70853008F0A5C1C8
:102680008093E9008091EB0085FB882780F9109208
:10269000E9009091E800977F9093E8008093F10023
:1026A0001092F10061C1282F2D7F09F08EC188237F
:1026B00019F0823061F089C18091BB01813009F04D
:1026C00084C1933009F080E08093B6012EC08091E0
:1026D000BB0181112AC08091BD018F702FEF280F9F
:1026E000243008F072C18093E9002091EB0020FFB4
:1026F0001CC0933021F48091EB00806214C0909153
:10270000EB0090619093EB0021E030E0A90102C062
:10271000440F551F8A95E2F74093EA001092EA00B1
:102720008091EB0088608093EB001092E90080912B
:10273000E800877F1CC1811148C11091BB011F7740
:102740008091E3008078812B8093E3008091E80002
:10275000877F8093E8000E94FE0F8091E80080FF51
:10276000FCCF8091E30080688093E300111102C0E8
:1027700082E001C083E08093B70127C18058823096
:1027800008F023C18091BB019091BC018C3D53E0C6
:10279000950779F583E08A838AE289834FB7F894B5
:1027A000DE01139620E03EE051E2E32FF0E050938B
:1027B0005700E49120FF03C0E295EF703F5FEF7098
:1027C0008E2F90E0EA3010F0C79601C0C0968D932E
:1027D0009D932F5F243149F74FBF8091E800877F99
:1027E0008093E8006AE270E0CE0101960E945210E8
:1027F000AAC04091BD015091BE01292F332723303B
:102800003105A9F068F42130310509F4EDC022301A
:10281000310509F0DAC08BE390E0E0ECF2E044C06F
:102820002132310521F12232310571F1CEC09927D3
:1028300081309105A1F058F0029709F0C6C0EDE093
:10284000F3E0E4918E2F90E0EDE0F3E02AC0EFE2B8
:10285000F3E0E4918E2F90E0EFE2F3E022C0E1E2BA
:10286000F3E0E4918E2F90E0E1E2F3E01AC041152D
:10287000510509F4BEC04130510509F0A6C089E0F8
:1028800090E0EBEEF2E010C04115510509F4B6C03E
:102890004130510509F099C082E390E0EEE4F2E0A6
:1028A00003C0009709F491C02091E800277F20938E
:1028B000E8002091BF013091C0018217930708F40E
:1028C0009C0140E02115310569F18091B701882311
:1028D000D1F18530C1F18091E80083FD34C0809151
:1028E000E80082FD2CC08091E80080FFEBCF809152
:1028F000F20090E02115310559F08830910540F43F
:1029000044914093F1003196215031090196F2CF64
:1029100041E0089709F040E08091E8008E778093CD
:10292000E800D0CF4111D1CF0AC08091B7018823F0
:1029300051F0853041F08091E80083FD04C0809122
:10294000E80082FFF2CF8091E8008B778093E80067
:102950003CC08038D1F58091E800877F8093E80003
:102960008091B8018093F1008091E8008E77809388
:10297000E8000E94FE0F29C0811127C08091BB0191
:102980009091BC019927029704F58091E800877F18
:102990008093E8001091BB011093B8010E94FE0FD4
:1029A000111106C08091E30087FD02C081E001C0E3
:1029B00084E08093B70142E061EC81E00E941D1049
:1029C00042E261EC82E00E941D108091E80083FFEA
:1029D0001AC08091E800877F8093E8008091EB0027
:1029E00080628093EB000FC082E190E0EBEFF2E0B9
:1029F0005BCF89E090E0E2EDF2E056CF80E490E03A
:102A0000E0E8F2E051CFAA960FB6F894DEBF0FBE11
:102A1000CDBFDF91CF911F9108951F920F920FB6F6
:102A20000F9211242F933F934F935F936F937F9354
:102A30008F939F93AF93BF93CF93DF93EF93FF93C6
:102A4000C091E900CF708091EC00D82FD17080FD4B
:102A5000D0E81092E9008091F000877F8093F00029
:102A600078940E944C121092E9008091F0008860E6
:102A70008093F000CD2BCF70C093E900FF91EF91D0
:102A8000DF91CF91BF91AF919F918F917F916F9186
:102A90005F914F913F912F910F900FBE0F901F901C
:102AA00018951092E2001092E1008091D8008F7783
:102AB0008093D8008091D80080688093D80080915E
:102AC000D8008F7D8093D80084E089BD86E089BDE1
:102AD00009B400FEFDCF1092B7011092B801109218
:102AE000B6011092B50142E060E080E00E941D1046
:102AF0008091E1008E7F8093E1008091E20081600F
:102B00008093E2008091E20088608093E2008091EF
:102B1000E0008E7F8093E00008951092E200109212
:102B2000E100E0EEF0E0808181608083E8EDF0E09C
:102B300080818F77808319BCE3E6F0E0808181603B
:102B400080831092AA0108951F920F920FB60F92E0
:102B500011242F933F934F935F936F937F938F93A2
:102B60009F93AF93BF93EF93FF938091E10082FF18
:102B700009C08091E20082FF05C08091E1008B7F57
:102B80008093E1008091E10080FF18C08091E20015
:102B900080FF14C08091E2008E7F8093E2008091DC
:102BA000E20080618093E2008091D800806280938F
:102BB000D80019BC1092B7011092AA018091E100CF
:102BC00084FF43C08091E20084FF3FC084E089BD60
:102BD00086E089BD09B400FEFDCF8091D8008F7DCD
:102BE0008093D8008091E1008F7E8093E1008091F6
:102BF000E2008F7E8093E2008091E200816080930A
:102C0000E2008091B801882311F084E007C0809130
:102C1000E30087FD02C081E001C083E08093B7013B
:102C20008091AA01811111C00E948D1580916300CD
:102C30008E7F8093630081E08093AA010E945115EA
:102C40008091E20084608093E2008091E10083FF44
:102C500027C08091E20083FF23C08091E100877F3D
:102C60008093E10082E08093B7011092B8018091D7
:102C7000E1008E7F8093E1008091E2008E7F80935F
:102C8000E2008091E20080618093E20042E060E037
:102C900080E00E941D108091F00088608093F00019
:102CA000FF91EF91BF91AF919F918F917F916F9124
:102CB0005F914F913F912F910F900FBE0F901F90FA
:102CC0001895882341F080959091920189238093F3
:102CD00092010C94B40B0895882339F090919201DD
:102CE000892B809392010C94B40B08958823A9F149
:102CF0009CEF980F913A60F4EAE4F1E09281891335
:102D000001C01282319641E0E035F407B9F714C0F2
:102D100090E2980F983090F4877021E030E0A9019C
:102D200002C0440F551F8A95E2F7CA018095909121
:102D300092018923809392010C94B40B9BE5980F28
:102D4000933020F480E090E00C94A403885A8731FB
:102D500020F480E090E00C948E030895CF938823B4
:102D600009F453C09CEF980F913AF8F4C82FECE4A3
:102D7000F1E082E591E02191C21721F08E179F07C3
:102D8000D1F70DC0EAE4F1E08281C81301C01282DC
:102D9000319641E0E035F407B9F70E94B40B6C2F8F
:102DA0008AE491E00E94190B13C090E2980F9830CA
:102DB00090F4877021E030E0A90102C0440F551F54
:102DC0008A95E2F7CA0190919201892B8093920132
:102DD000CF910C94B40BEBE5E80FE33040F4F0E056
:102DE000E15FFE4F808190E0CF910C94A403885A5C
:102DF000873158F4E82FF0E0EE0FFF1FEE5EFE4F34
:102E000080819181CF910C948E03CF9108951F936F
:102E1000CF93DF93182FEB010E94AE16209741F05D
:102E20008FE99FE00197F1F700C000002197F6CFEE
:102E3000812FDF91CF911F910C947616F999FECFD7
:102E400092BD81BDF89A992780B50895A8E1B0E0B8
:102E500042E050E00C945217262FF999FECF92BD14
:102E600081BDF89A019700B4021639F01FBA20BD4F
:102E70000FB6F894FA9AF99A0FBE08950396272F81
:102E80000E942D170E942C17252F0E942D17242FEA
:102E90000C942D170196272F0E942D170C942C1798
:102EA000DC01CB01FC01F999FECF06C0F2BDE1BD0A
:102EB000F89A319600B40D9241505040B8F70895F9
:102EC0000024552704C0080E591F880F991F00972A
:102ED00029F076956795B8F37105B9F7802D952F90
:102EE0000895EE0FFF1F0590F491E02D0994F894DA
:022EF000FFCF12
:102EF200610F9F0F600F9B0F970F019390643481B6
:102F02008283E200E900EA00B500B600B700CD0016
:102F12008301CC008A01920194012102230224023E
:102F22002502260227022A02B300B4006F007000B5
:00000001FF
