:100000000C94C3020C940A030C940A030C940A0384
:100010000C940A030C940A030C940A030C940A032C
:100020000C940A030C940A030C948D260C945F27FD
:100030000C9432200C940A030C940A030C940A03C7
:100040000C940A030C940A030C940A030C940A03FC
:100050000C940A030C948B200C940A030C940A034E
:100060000C940A030C940A030C940A030C940A03DC
:100070000C940A030C940A030C940A030C940A03CC
:100080000C940A030C940A030C940A030C940A03BC
:100090000C940A030C940A030C940A030C940A03AC
:1000A0000C940A030C940A030C940A03780E7B0E3A
:1000B000830E880E8D0E920E970E9C0EA10EA60E2C
:1000C000AB0EB00EB20EB50EB80EBB0EBE0EC10E0C
:1000D000C30EC80E97159715C915C91516164A17D8
:1000E0004A174A173416C916DA16DA163A174A1793
:1000F0004A174317E617E617F817F817EF17F81718
:10010000F817F817E617E617F417F817F817F417A3
:10011000CC27F327EB28F327EB283F286228EB288E
:10012000B928C82829001E001F0020002100220035
:10013000230024002500260027002D002E000000AB
:100140002A002B00000014001A00080015001700F8
:100150001C0018000C00120013002F0030003100AA
:100160003900000004001600070009000A000B0017
:100170000D000E000F003300340028000000E100E5
:1001800000001D001B0006001900050011001000F2
:10019000360037003800E50052000151E000E3006E
:1001A0000000E2002C0000002C0000002C000000E9
:1001B000E600E700500051004F0035003A003B00D8
:1001C0003C003D003E003F00400041004200430033
:1001D0004400450000004C0001000000AC00AE00EF
:1001E000AD00AB0001000100010001000100C45C92
:1001F000CA5CC65CC75C01000000AA00A900A80098
:10020000010001000100010001000100C55CCB5CA0
:10021000C35C0000010000000100010001000100BA
:1002200001000100010001000100010001004B007C
:1002300001000100010000000100010000000100B8
:10024000000001000000005C01004A004E004D006B
:100250001E0F0500047F3F1F643214643214783C83
:100260001E1E140A052223252628292A2C2D2F306C
:1002700032333536383A3B3D3E4042434547494AA2
:100280004C4E5051535557595A5C5E6062646668D3
:10029000696B6D6F71737577797B7D7F81838587DE
:1002A000898A8C8E90929496989A9C9E9FA1A3A5E1
:1002B000A7A8AAACAEAFB1B3B4B6B8B9BBBCBEBF09
:1002C000C1C2C3C5C6C7C9CACBCCCDCED0D1D2D28C
:1002D000D3D4D5D6D7D7D8D9D9DADADBDBDBDCDC97
:1002E000DCDCDCDDDDDDDDDCDCDCDCDCDBDBDBDA4F
:1002F000DAD9D9D8D7D7D6D5D4D3D2D2D1D0CECDBA
:10030000CCCBCAC9C7C6C5C3C2C1BFBEBCBBB9B8C6
:10031000B6B4B3B1AFAEACAAA8A7A5A3A19F9E9C4B
:100320009A98969492908E8C8A89878583817F7D16
:100330007B79777573716F6D6B6968666462605EF7
:100340005C5A5957555351504E4C4A4947454342C0
:10035000403E3D3B3A3836353332302F2D2C2A295A
:100360002826252322FFAA7F554000010101010113
:10037000010101010202020202020202020303035E
:10038000030303030304040404040404050505052E
:1003900005060606060607070707070808080809EE
:1003A0000909090A0A0A0B0B0B0C0C0C0D0D0D0E9A
:1003B0000E0E0F0F0F10101111111212131314142F
:1003C000151516161717181819191A1A1B1B1C1DA4
:1003D0001D1E1E1F202021222223242425262627FD
:1003E0002829292A2B2C2D2D2E2F3031323233342F
:1003F00035363738393A3B3C3D3E3F404142434435
:1004000045464748494A4C4D4E4F50515354555616
:1004100058595A5B5D5E5F616264656668696B6CC2
:100420006D6F7072737577787A7B7D7E808283853D
:1004300087888A8C8E8F91939596989A9C9EA0A27D
:10044000A3A5A7A9ABADAFB1B3B5B7BABCBEC0C287
:10045000C4C6C9CBCDCFD1D4D6D8DBDDDFE2E4E74B
:10046000E9EBEEF0F3F5F8FAFDFF0A0344005A0059
:1004700036003000000010034B00420044004600EC
:1004800061006E00730000000403090409023B00D0
:10049000020100A0FA090400000103010100092182
:1004A000110100012240000705810308000A090428
:1004B00001000103000000092111010001226D006B
:1004C0000705820320000A12011001000000085AEB
:1004D00044602201000102000105010980A101859B
:1004E0000319012AB700150126B70095017510817F
:1004F00000C0050C0901A101850419012AA00215FB
:100500000126A002950175108100C005010906A110
:10051000018505050719E029E715002501950875EE
:100520000181020507190029EF1500250195F075D5
:1005300001810205081901290595057501910295AA
:100540000175039101C005010906A101050719E024
:1005500029E71500250195087501810295017508A7
:1005600081010507190029FF150026FF0095067572
:100570000881000508190129059505750191029565
:100580000175039101C011241FBECFEFDAE0DEBF79
:10059000CDBF04B603FE27C080915F039091600336
:1005A000A0916103B09162038730904BA740B04B9C
:1005B000D1F410925F0310926003109261031092C5
:1005C000620314BE84B7877F84BF0FB6F894A895E2
:1005D00080916000886180936000109260000FBE7F
:1005E000E0E0F8E3099511E0A0E0B1E0ECE1F5E529
:1005F00002C005900D92A63CB107D9F723E0A6EC06
:10060000B1E001C01D92AF35B207E1F70E94C523EA
:100610000C948C2A0C94000081E0089581E00895E8
:100620000C940E0308950C9412031F93CF93DF9341
:1006300000D000D01F92CDB7DEB749835A836B83B9
:100640003091460289819A81311114C0662359F094
:10065000222349F00E941F1D182F682F89819A813B
:100660000E94C81C03C00E94F31C182F69817A8164
:10067000812F04C00E941F1D69817A810F900F9005
:100680000F900F900F90DF91CF911F910C94E50385
:10069000FC01262F408151816281738184810C94F9
:1006A0001503CF93DF93EC0160E00E944803BE0185
:1006B000DF91CF910C9413030E94531E811102C04D
:1006C0000E940D1F0E94D5030E944B100C9402063D
:1006D0000C94FE0508950E94D4170E946A032FEF20
:1006E00084E39CE0215080409040E1F700C000008E
:1006F0000C94B1200F931F93CF93DF93EC0161E033
:100700000E9448038C01BE010E9410038823A9F1B6
:10071000BE01C8010E94AC0F882379F1BE01C80157
:100720000E94F910882349F1BE01C8010E944B11B3
:10073000882319F1BE01C8010E9476128823E9F0CE
:10074000BE01C8010E94610E8823B9F08A81882306
:1007500069F001158CE5180731F00F3D1C4531F4A7
:100760000E940D1F0AC00E946B0307C0CE01DF91DB
:10077000CF911F910F910C940C0380E0DF91CF91EA
:100780001F910F91089508950C94C30381E008957B
:10079000CF93C82F0E94C603882329F0C1FD02C051
:1007A0002A9A01C02A98CF910895229A2A9A0895E8
:1007B000CF93C82F0E94C4038C2F0E94C803CF91EF
:1007C000089580E090E0089508952BE4829FC00191
:1007D0001124FC012FE0729FE00DF11D1124E60FA2
:1007E000F11DEE0FFF1FEC5DFE4F85919491089572
:1007F000880F991FFC01E05BFD4F8591949108954E
:10080000CF93DF930E94E5030E941205EC0181154E
:10081000904508F043C0C11580E4D80708F0CBC06C
:10082000C03ED10528F5C03CD10508F0B3C0C83A98
:10083000D10578F4C53AD10508F0A4C0C130D1057E
:1008400009F4ECC008F4E8C0C430D10508F0E6C0F3
:10085000E3C0CF3BD10508F0DFC0C85AD0E0CC0FD1
:10086000DD1FCC5DDE4F0990D881C02DD464D6C089
:10087000C11590E2D90750F4C11521E0D20708F064
:10088000CDC0C83ED10508F4C9C0C6C0C11580E3BB
:10089000D80708F086C0CE019F707FC0C11595E5CE
:1008A000D90708F043C0C11524E5D20708F09AC063
:1008B000C11582E5D80708F5C11591E5D90708F0FB
:1008C0007DC0CE0174E0969587957A95E1F78370A7
:1008D0009C2F937021E030E002C0220F331F9A95C5
:1008E000E2F73C68382BCF70C695C69580E2C89F6A
:1008F000E0011124C22BD32B91C09E01237033271A
:100900008C2F86958695C115D34508F05CC0C1E053
:10091000D0E002C0CC0FDD1F2A95E2F720E2829FD3
:10092000C0011124C82BD92BDC6878C0C11529E57A
:10093000D207A0F4C11588E5D80708F058C0C11542
:1009400096E5D90708F068C08C2F0E94A6058F7124
:10095000C82FD0E0DC2FCC27D06260C0C1152AE5BB
:10096000D20708F449C0CE0190568115904208F094
:1009700053C08D2F8F710E94A605DD27D0628F7125
:10098000D82B4CC0C55AD0E0CE5ADE4FC881D0E03B
:10099000D06444C0CE01805C91090E94F803EC0150
:1009A0003DC0CE019927D3FF03C0EC01D86C36C0FF
:1009B000EC01D06C33C0DF70D06A30C0DC2FCC27A4
:1009C000C16FD06A2BC0C1E0D0E002C0CC0FDD1FE8
:1009D0002A95E2F720E2829FC0011124C82BD92B6F
:1009E000DA681CC0DC2FCC27C46FD06A17C0DC2F9C
:1009F000CC27C06FD06A12C08C2F8F700E94A605C2
:100A000094E0D695C7959A95E1F7CF70D0E0DC2FAA
:100A1000CC27D069C82B02C0C0E0D0E0CE01DF9166
:100A2000CF9108958238910569F1B0F48133910531
:100A300009F46DC048F48932910509F463C08A3223
:100A4000910509F469C008958533910509F455C0ED
:100A500089339105B9F00895833E910569F138F421
:100A6000803E9105B1F0823E910509F10895863EE0
:100A70009105A9F1873E9105B9F1843E910509F0F0
:100A800064C023C02091500320FD4FC021FD4DC004
:100A900008958091500380FD44C08091510380FFF0
:100AA00044C08091500384FD42C083EE4DC08091CC
:100AB000500382FF38C0F5CF8091500382FD33C0D0
:100AC0008091510380FD31C0ECCF8091510381FFB3
:100AD00032C08091500384FD2AC087EE35C08091DA
:100AE000500383FF26C0F5CF8091500383FD21C0C2
:100AF0008091510381FD1FC0ECCF8091500385FD93
:100B00001CC01DC08091500385FD19C016C0809186
:100B1000500386FD16C017C08091500386FD13C098
:100B200010C089E311C082EE0FC080EE0DC080E0DE
:100B30000BC086EE09C084EE07C089E205C085E3DC
:100B400003C08AE201C081E390E0089590915003D0
:100B500092FF0DC0282F2871283019F4877F8460F8
:100B600006C0282F2471243011F48B7F886093FFF6
:100B70000DC0282F2871283119F4877E846106C0A2
:100B8000282F2471243111F48B7E88612091510328
:100B900020FF0DC0382F3871383019F4877F8160FD
:100BA00006C0382F3171313011F48E7F886021FFFB
:100BB0000DC0282F2871283119F4877E816106C065
:100BC000282F2171213111F48E7E886194FD877E5A
:100BD0000895E82FF0E0EE0FFF1FE45FFC4F8081E7
:100BE00091810895089580EA8A95F1F7089500C0EB
:100BF00008950C94F30508950C94FB050C94FC05E2
:100C00000C94FB050C940006F894E82FE295EF7025
:100C1000F0E031A1282F2F7081E090E001C0880F13
:100C20002A95EAF7982F9095932391A392A1892B67
:100C300082A3789408950F931F93CF93DF9380E955
:100C40000E94040681E90E94040682E90E940406CB
:100C500083E90E94040685E90E940406C5E5D1E007
:100C600004E611E089910E9404060C171D07D1F7D4
:100C7000E2E0F3E0ACE0B3E0119211921D921D921C
:100C800083E0EC30F807C1F785E00E94E006DF91D1
:100C9000CF911F910F910C945C037F928F929F9242
:100CA000AF92BF92CF92DF92EF92FF920F931F937A
:100CB000CF93DF9302E013E084E6E82E81E0F82E84
:100CC000C0E0D0E0712CAA24A394B12C4701F70115
:100CD0008081F894E82FE295EF70F0E021A18F7009
:100CE000A50102C0440F551F8A95E2F7CA01922F51
:100CF000982B91A392A18095892382A378940E9436
:100D0000F705E5E5F1E020E030E0C12CD12C419180
:100D1000A42FA295AF70B0E090968C9190E04F70A8
:100D200002C0959587954A95E2F780FD08C0C501F8
:100D3000022E02C0880F991F0A94E2F702C080E0D9
:100D400090E0C82AD92A2F5F3F4F2F303105F9F69E
:100D50005FEFE51AF50AF40180810E940406C430B1
:100D6000D10511F00E94F905F80180819181C81622
:100D7000D90621F0D182C08281E001C080E0782ACA
:100D800021960E5F1F4FC530D10509F09FCF272D4B
:100D900045E06CE073E082E093E00E94E1060E948F
:100DA0006803872DDF91CF911F910F91FF90EF90F6
:100DB000DF90CF90BF90AF909F908F907F900895DD
:100DC0000895FF920F931F93CF93DF93F82E092F6F
:100DD000162FD72FC42F222349F081E08093CA0118
:100DE0000E9464209093C9018093C8018091CA0138
:100DF0008823D9F08091C8019091C9010E947C207C
:100E0000069798F0EF2DF02FA12FBD2F80E090E0F6
:100E10004C2F50E08417950734F4219131912D9394
:100E20003D930196F7CF1092CA01DF91CF911F91A8
:100E30000F91FF900895EF92FF920F931F93CF931E
:100E4000DF938B01682F11110AC0442329F0E82F8A
:100E5000F0E0E659FC4F6491762F862F75C0212F64
:100E600030E0E82FF0E0442321F0E659FC4FE49114
:100E7000F0E046E0049FC0011124CFEFD0E0BE01B6
:100E80000E943B294BEA4603C001479F900D112465
:100E9000800F911D800F911D982F990F890FAE0122
:100EA000421B530B4E9FD0014F9FB00D5E9FB00D64
:100EB00011249B2F189FA0011124452F55278E0127
:100EC000041B150B0E9FA0010F9F500D1E9F500D70
:100ED00011247E01E81AF108E29E8001E39E100DC4
:100EE000F29E100D1124212F3327C21BD30BCE9F4E
:100EF0009001CF9F300DDE9F300D112462307105BF
:100F0000A9F048F46115710569F061307105C9F403
:100F10008B2F752F0DC06430710581F058F066304D
:100F2000710579F47E2F8B2F932F0DC0832F7B2F8C
:100F30009E2F09C08E2F7B2F952F05C08E2F732FCC
:100F400002C07E2F852F692FDF91CF911F910F91C6
:100F5000FF90EF90089541E00E941B0708950895C7
:100F60000E94AB070895CF93DF93762FE901682F96
:100F7000842F0E94B007798368838A83DF91CF91A1
:100F8000089580911603282F269530E0211531050C
:100F900019F48170826005C02B32310524F0817014
:100FA000846580931603089588E090E00C942D2AC0
:100FB000CF92DF92EF92FF926B017C010E94C107FA
:100FC000B701A60188E090E0FF90EF90DF90CF900E
:100FD0000C944B2AE6E1F3E083E0808311828FEFEB
:100FE00082838383148260817181828193810C94D6
:100FF000D8078091160380FF02C08695089580E08F
:10100000089590911A03933018F49F5F90931A03F8
:10101000882351F060911603709117038091180393
:10102000909119030C94D807089581E00C9401085D
:1010300090911A03992319F0915090931A038823E1
:1010400051F06091160370911703809118039091ED
:1010500019030C94D807089581E00C94180870E0E7
:101060000C945B10609108018091160380FF0AC008
:101070008091070123E0829FC0011124855E9C4F6F
:101080000C942F088091090190910A01891780F72B
:10109000E82FF0E09F01220F331FE20FF31FE55E00
:1010A000FC4F1182108212828F5FF0CF9091160355
:1010B00090FF16C09091090120910A01921770F4D7
:1010C000E92FF0E0DF01AA0FBB1FEA0FFB1FE55E6F
:1010D000FC4F8183608342839F5FF0CF0C94320882
:1010E0000895CF93DF9300D01F92CDB7DEB79091D4
:1010F000160390FF0AC09E012F5F3F4F0E94B30767
:101100004B8169818A810E9456080F900F900F9041
:10111000DF91CF910895CF93DF93EC01EC81F0E064
:10112000EB59FD4F4491E6E1F3E0628181810E9439
:1011300071088C818F5F8C83DF91CF910895CF935D
:10114000DF93EC01E6E1F3E0438162818C810E9450
:1011500071088C818F5F8C83DF91CF9108950F93FD
:101160001F93CF93DF9300D01F92CDB7DEB78C01D2
:101170008091CB0181110AC09E012F5F3F4F4FEF3D
:101180006FEF0E94B3078A818093CB01F8018481BD
:10119000813051F028F0823061F44091CB010AC0D7
:1011A0008091CB0140E007C06091CB0140E080E03E
:1011B00003C040E080E060E00E945608F8018481AE
:1011C00090E0019663E070E00E944F2984830F90C5
:1011D0000F900F90DF91CF911F910F910895AF92D3
:1011E000BF92CF92DF92EF92FF920F931F93CF9314
:1011F000DF9300D01F92CDB7DEB7182FF62E042F45
:10120000E22E9091160390FF6DC0E92FE695AE2F68
:10121000B0E0A759BE4F8C91809327029E7F9230F9
:1012200061F49E012F5F3F4F812F0E94B3074B81D6
:1012300069818A810E94560843C0823019F4009166
:1012400019033EC0863019F41091170339C0893054
:10125000D9F38931A9F5E9518E2F8170D82EE69501
:10126000F0E0EB59FC4FA590B490C12CBB246091E9
:101270000B01C61618F52C2D30E0A29EC001A39ECE
:10128000900DB29E900D112470E00E943B29812F99
:10129000D11002C0860F01C0861B90910901290F51
:1012A000311DA901440F551F240F351F255E3C4FEA
:1012B000402F6F2D0E94B307C394D9CF0E943208EC
:1012C00010931703F092180300931903EE2051F0C6
:1012D0006091160370911703809118039091190380
:1012E0000E94D8070F900F900F90DF91CF911F9120
:1012F0000F91FF90EF90DF90CF90BF90AF90089547
:10130000E6E1F3E09181282F4381628188E0890F33
:101310000C94EF0881E00C948009E6E1F3E0918100
:10132000282F4381628188EF890F0C94EF0881E0B8
:101330000C948D09E6E1F3E0628128E0620F08F485
:101340006FEF282F438181810C94EF0881E00C948A
:101350009A09E6E1F3E0628128E0621B08F460E0AC
:10136000282F438181810C94EF0881E00C94A90916
:10137000E6E1F3E0438128E0420F08F44FEF282F25
:10138000628181810C94EF0881E00C94B809E6E158
:10139000F3E0438128E0421B08F440E0282F6281FB
:1013A00081810C94EF0881E00C94C70920E00C9433
:1013B000EF08FF920F931F93CF93DF93EC01F12C73
:1013C0000FEF10E060910B01F616F0F48091090127
:1013D0002F2D30E0280F311DC901880F991F280FCC
:1013E000391F255E3C4F70E0C8010E944F29962F9F
:1013F0008C814091190360911803F99E800D11248E
:101400000E94B307F394DECF0E9432089A818C8148
:1014100090FF02C08F5F01C081508C83DF91CF911C
:101420001F910F91FF900895BF92CF92DF92EF929C
:10143000FF920F931F93CF93DF93FC01828180FF74
:1014400002C00FEF01C001E010E080910B011817FE
:1014500008F040C080910901C12ED12CE601C80FCF
:10146000D11DCE01880F991FC80FD91FC55EDC4F53
:10147000198218821A8234E0E32EF12CB12C80916B
:10148000CD018B0D813114F08F7005C087FF03C033
:1014900090910B01890F082E000C990BC816D906E4
:1014A00091F4809119038E9DA0018F9D500D112400
:1014B00055954795559547959E01609118038091E4
:1014C00017030E94B307B00EF1E0EF1AF108B9F666
:1014D0001F5FBBCF0E9432088091CD01013031F4F3
:1014E000811102C080910B01815007C090E00196EC
:1014F00060910B0170E00E944F298093CD01DF9134
:10150000CF911F910F91FF90EF90DF90CF90BF9000
:101510000895CF938091090190910A01891770F481
:10152000E82FF0E09F01220F331FE20FF31FE55E6B
:10153000FC4F1182108212828F5FF0CFC0E0609169
:101540000B01C617C0F5EC2FF0E070E0CF010E9450
:101550004F2920910901820F2091CC01022E000C0D
:10156000330B90E0E217F307CCF020910601022E36
:10157000000C330B2E173F078CF09C01220F331FFA
:10158000820F931F9C01255E3C4F4091190360918F
:101590001803809117030E94B3070BC0FC01EE0FE4
:1015A000FF1F8E0F9F1FFC01E55EFC4F1182108212
:1015B0001282CF5FC4CF0E94320820910501809132
:1015C000CC01820F8093CC0190910601920F9093F1
:1015D000060119165CF4082E000C990B40910B01C2
:1015E00050E041505109841795071CF02195209334
:1015F0000501CF9108958F929F92AF92BF92CF92A3
:10160000DF92EF92FF920F931F93CF93DF938C01A2
:10161000FC014481C42FD0E09E01DE010E94932989
:101620009B01AC010E94A9296B017C01E0E2F0E082
:10163000EC1BFD0BA5E5B0E09B01AC010E94A929C4
:101640004B015C019F01DF010E948B299B01AC01D2
:101650000E94B4299B01AC012C0D3D1D4E1D5F1D48
:10166000C501B4010E946329C22FD22F2A3228F467
:10167000F3E02F9F900111240DC025E530E02C1BD5
:101680003109C901880F991F280F391F37FF02C080
:101690002F5F3F4F35952795C22FC095F12C85E5DB
:1016A000E82EED1A80910B01F816C8F4F1FC02C087
:1016B0008E2D01C08D2F909109012F2D30E0290F23
:1016C000311DA901440F551F240F351F255E3C4FC6
:1016D0004C2F609118030E94B307F394E3CF0E944C
:1016E0003208F8018481811102C091E003C0803288
:1016F00019F49FEF9093040190910401890FF80170
:101700008483DF91CF911F910F91FF90EF90DF9035
:10171000CF90BF90AF909F908F9008950F931F939D
:10172000CF93DF93EC0100E010E080910B01282FB4
:1017300030E00217130724F5909109019801290F51
:10174000311DA901440F551F240F351F255E3C4F45
:10175000869590E04C81081719071CF4442331F05A
:1017600002C0411103C04091190301C040E06091E3
:101770001803809117030E94B3070F5F1F4FD5CF47
:101780000E9432088C8190E00196817099278C83A9
:10179000DF91CF911F910F9108957F928F929F9229
:1017A000AF92BF92CF92DF92EF92FF920F931F936F
:1017B000CF93DF93FC018280748081E08483E5E62F
:1017C000F2E09490E4EEF2E0E491A12CF5E0BF2E7B
:1017D000CC24CA94D12CE9190E2F10E080910B0172
:1017E000A81608F0A2C0EA2CF12C22E0281568F017
:1017F000BE9CF001BF9CF00D1124E253FE4F80917E
:101800001703808380911803818371100AC0BE9CE6
:10181000F001BF9CF00D1124E253FE4F138212829F
:101820006AC0BE9CE001BF9CD00D1124C253DE4FA4
:101830008B818823F9F081508B832FEF829FC00129
:1018400011246C8170E00E943B29FB01FF27EB59BA
:10185000FD4F8491E82FE9192FEFE29FC001112479
:10186000B8010E943B2980911903689FB00111249F
:101870007A8341C00E94082A209119032695215895
:1018800030E0A901440F551F322F2227240F351FA6
:10189000232F33278217930774F582E0881588F485
:1018A0000E94082AB6010E944F2988830E94082AB4
:1018B000209118032695622F70E00E944F29280F6F
:1018C0002983BE9CF001BF9CF00D1124E253FE4F12
:1018D000128280911903843120F0893C18F088EC41
:1018E00001C084E1BE9CF001BF9CF00D1124E253C5
:1018F000FE4F84838383809109019701280F311D56
:10190000C901880F991F280F391F255E3C4FBE9CC7
:10191000F001BF9CF00D1124E253FE4F4281618122
:1019200080810E94B307A39459CFDF91CF911F917B
:101930000F91FF90EF90DF90CF90BF90AF909F906E
:101940008F907F900C943208E6E1F3E080818E7FE7
:10195000808360817181828193810E94D807109277
:1019600028022FEF80E792E0215080409040E1F77D
:1019700000C000000C943208E6E1F3E080818E7F25
:101980008083109228022FEF80E792E02150804060
:101990009040E1F700C000000C9432081092280239
:1019A0008091250281110AC081E0809325028091F7
:1019B00016038170809324020C94BC0C08956091EE
:1019C0001603669570E04BE050E08CE091E00E94D9
:1019D000182A892B19F481E0809328020E94642040
:1019E00090931F0280931E0208959091160390FF1A
:1019F00035C09170811102C0926006C08B3210F028
:101A0000946502C0880F982B90931603662351F0BB
:101A10006091160370911703809118039091190338
:101A20000E94D80760911603669570E04BE050E085
:101A30008CE091E00E94182A892B19F0109228025C
:101A400002C00E94DF0C81E08093210240911903C3
:101A500060911803809117030C94D6090895682F9C
:101A600090911603969581E0890F8B3208F081E002
:101A70000C94F50C81E00C942F0D682F90911603B7
:101A800096958FEF890F09F48AE20C94F50C81E0AA
:101A90000C943D0D61E00C94F50CE6E1F3E08081DF
:101AA0008160808386950C944A0D8091160380FD99
:101AB0000C94A40C0C944D0D60E00C94F50C8091EA
:101AC000260281112EC00E94531E811104C00E9463
:101AD0000D1F0E94EA070E94D407609316037093BB
:101AE000170380931803909319036E7F61F40E948B
:101AF000EA070E94D407609316037093170380933C
:101B00001803909319030E94C10710922802809134
:101B1000160380FF03C086950E945C0D81E08093D0
:101B200026020895E6E1F3E0808181608083869556
:101B30000C945C0D109225028091240281110E9468
:101B4000920D0C94DF0C0F931F93CF93DF93809132
:101B50002802882309F495C080912702E09116039A
:101B6000E695E81BE0932002823049F4F0E0EF595B
:101B7000FD4FE491CE2FD0E00BE818E059C086303D
:101B800049F4F0E0E25AFD4FE491CE2FD0E00FE9A6
:101B900018E04EC0893051F4E695F0E0E55AFD4F6B
:101BA000E491CE2FD0E009ED19E042C08F3051F41E
:101BB000E695F0E0E85AFD4FE491CE2FD0E004E145
:101BC0001AE036C0853149F4F0E0EB5AFD4FE4915C
:101BD000CE2FD0E009E81AE02BC08831D9F083324B
:101BE00039F4E3E5F2E0C591D4910FEA18E020C0A2
:101BF0008432A9F08532C1F48E2F63E00E942F2930
:101C0000E92FF0E0E05BFD4FE491CE2FD0E00DEC4A
:101C10001BE00EC0C8E2D0E00BEF1AE009C0C4EF31
:101C2000D1E00EE81BE004C0C0EDD7E00FEA17E0FA
:101C300080912102882361F0109221020E94642089
:101C400090931F0280931E02109223021092220290
:101C50000E946420E0911E02F0911F028E1B9F0BD8
:101C60008F3F9F4770F4EC0FFD1FF0931F02E0932E
:101C70001E028EE192E0F801DF91CF911F910F914A
:101C80000994DF91CF911F910F910895882311F04E
:101C9000FA0101C0FB010994CF93DF93C82FD62F1F
:101CA0000E94F9078C1740F00E94F9078D1720F465
:101CB000DF91CF910C943A0D8C2FDF91CF910C9442
:101CC0004A0D0F931F93CF93FB01C281CC2309F4DC
:101CD00063C08C010E94A01D8272F801E35CFC4588
:101CE000E431F10508F059C0EA5AFF4F0C948529F8
:101CF0000E94550D06C047E45DE06AE37DE00E9466
:101D0000460EC0E04AC04AE35DE067E47DE0F7CFFD
:101D100047E959E06AE879E0F2CF4AE859E067E933
:101D200079E0EDCF45EB59E066EA79E0E8CF46EAA5
:101D300059E065EB79E0E3CF43ED59E064EC79E0FD
:101D4000DECF44EC59E063ED79E0D9CF4CE258E0C6
:101D500065E178E0D4CF45E158E06CE278E0CFCFA0
:101D600081E017C065E082E010C068E086E00DC049
:101D70006EE089E00AC064E18FE007C067E185E1B9
:101D800004C088E106C062E289E10E944C0EB9CF2E
:101D900083E20E944A0DB5CFC1E08C2FCF911F91F5
:101DA0000F9108950E94531E811102C00E940D1FC1
:101DB0000E948E1E80934B03282F269526952695EC
:101DC00030E02630310524F08770886280934B0321
:101DD00080914B0380FF04C086958695869501C04F
:101DE00080E00C94E10F20914B03822F869586951D
:101DF0008695482F50E04530510554F48F5F982F59
:101E0000990F990F990F822F8770892B80934B031D
:101E100080914B03816080934B030E94921E8091BE
:101E20004B038695869586950C94E10F80914B0324
:101E3000982F969596959695A1F0915E990F990F8A
:101E4000990F8770892B80934B03887F91E009F469
:101E500090E080914B0390FB80F980934B030E94AC
:101E6000921E80914B038695869586950C94E10F82
:101E700080914B0380FD13C0816080934B038130C0
:101E800019F489E080934B0380914B030E94921ECA
:101E900080914B038695869586950C94E10F089565
:101EA00080914B0380FF08C08E7F80934B030E947C
:101EB000921E80E00C94E10F089580914B0380FD09
:101EC0000C94500F0C94380F90914B03892F8695EA
:101ED000869586958F5F8F719770863038F4880F5E
:101EE000880F880F892B80934B0302C090934B037C
:101EF00080914B03887F91E009F490E080914B033F
:101F000090FB80F980934B030E94921E80914B03BB
:101F10008695869586950C94E10F863008F085E0CD
:101F200090914B039770282F220F220F220F922B94
:101F300090934B03987F21E009F420E090914B03AC
:101F400020FB90F990934B030C94E10F0E948D0FAE
:101F500080914B030C94921E9C01FB01828188238B
:101F600049F12E3BFCE53F07C9F040F42C3BECE582
:101F70003E0769F02D3B3C4561F00895203C9CE50F
:101F8000390791F070F0213C3C4589F0089585E0D7
:101F900001C080E00E94A60F80E008950E94160F05
:101FA000FBCF0E94F30EF8CF0E945D0FF5CF0E9489
:101FB000640FF2CF81E00895269A2E9808952E9806
:101FC0000895CF92DF92EF92FF92CF93C82F863081
:101FD00050F4811109C0809180008F7D8093800032
:101FE0000E94DF0F06C0C5E0809180008062809370
:101FF00080002C2F30E0AFEFBFEF0E94932925E047
:1020000030E040E050E00E946329B42FA32F922FCC
:102010008827492F5A2F6B2F7727CA014C3724E185
:10202000520728F469E070E00E943B2929C0DB01D7
:10203000CA018A50974DAF4FBF4F6627782F892F1F
:102040009A2F25EF38E241E050E00E9463296901B0
:102050007A01CA01B9010E941F299B01AC01C70185
:10206000B6010E941F29BB27A92F982F872F009701
:1020700021E0A207B10511F0BC0102C06FEF7FEFB4
:1020800070938B0060938A00CF91FF90EF90DF9068
:10209000CF90089508950E94DC0F82E28093800023
:1020A00089E1809381008FEF9FEF90938700809369
:1020B00086000C94D20E6A9A2EB12B7F3EB134600A
:1020C0004FB7F894FC01CB01880F991F680F791F57
:1020D0006E0F7F1FE617F70789F0819198E03EB9F0
:1020E000000000C087FF2EB9880F000000C000C0AC
:1020F00000C02EB900C09A9591F7ECCF4FBF8FE585
:1021000094E00197F1F700C0000008950F931F932A
:10211000CF93DF93C42FD22FFC0182818823C9F093
:1021200040932B020E94642090932A0280932902FC
:1021300080E28C0F883008F057C0C77081E001C082
:10214000880FCA95EAF7DF91CF911F910F910C94F8
:10215000561580912B02481330C08091290290912E
:102160002A020E947C20883C910538F510E21D0F60
:10217000CD17B9F080E28C0F883040F4C77081E051
:1021800001C0880FCA95EAF70E945D15183028F53E
:1021900081E09D2F977001C0880F9A95EAF70E9401
:1021A0005615802F0E944D151830F0F4D77081E03D
:1021B00001C0880FDA95EAF70AC080E28C0F8830F8
:1021C00098F4C77081E001C0880FCA95EAF7DF91E3
:1021D000CF911F910F910C945D15802FDF91CF91BE
:1021E0001F910F910C944D15DF91CF911F910F917D
:1021F00008950F939C01CB01243F4CE5340731F146
:1022000088F4293DFCE53F07D9F02A3D4CE5340729
:1022100079F1283D3C45A9F506E221EE41EE68ED55
:102220007CE52BC0263FFCE53F07E1F0A8F0273F07
:102230003C4539F507E225EE46EE67EF7CE51DC02B
:1022400007E225EE45EE69ED7CE517C006E221EEDA
:1022500040EE64EF7CE511C007E225EE44EE65EF49
:102260007CE50BC006E221EE42EE66EF7CE505C0A0
:1022700008E221E045EE6AED7CE50E94861080E0F0
:1022800008C0FC018281882319F010922B0201C042
:1022900081E00F910895CF93DF93EC01FB018281E0
:1022A000882309F41FC1C230FCE5DF0708F41BC115
:1022B000C6319CE5D90738F09E012B5F3C4529309B
:1022C000310508F010C10E94701E90935103809355
:1022D0005003C031ECE5DE0709F4C3C008F041C08B
:1022E000C8308CE5D80709F49AC0F0F4C430ECE5A6
:1022F000DE0709F487C068F4C2308CE5D80709F41A
:1023000077C0C330DC4509F0E3C0809150038260A0
:1023100076C0C630ECE5DE0709F46EC008F07BC07D
:102320008091500388606BC0CC308CE5D80709F4ED
:1023300085C068F4CA30ECE5DE0709F474C008F023
:1023400079C00E94D41780915003806858C0CE3065
:102350008CE5D80709F476C008F07FC0809150035F
:102360008BC0CC3FECE5DE0709F44FC018F5C33154
:102370008CE5D80709F47DC078F4C131ECE5DE07BF
:1023800009F473C0C231DC4509F0A2C00E94D41721
:10239000809150038F7733C0C5318CE5D80709F49D
:1023A00072C008F486C0CB3FDC4509F091C0809133
:1023B00051033EC0C115FDE5DF0709F45FC058F4C5
:1023C000CE3F9CE5D90709F444C008F43FC0809192
:1023D000510382602DC0C230FDE5DF0709F475C0EE
:1023E00008F45DC0C330DD4509F072C080E06EC006
:1023F00080915003816003C080915003806180937D
:10240000500366C08091500311C0809151038260D7
:10241000809351035DC0809150038062F0CF809122
:1024200050038064ECCF8091500388608460E7CFD4
:102430008160EECF809150038E7FE1CF8091500379
:102440008D7FDDCF80915003877FD9CF809151035D
:1024500018C0809151038D7FDBCF809150038F7E18
:10246000CECF809150038F7DCACF809150038F7B58
:10247000C6CF80915003877F8B7FC1CF809151035E
:102480008D7F8E7FC5CF8091500382FB222720F95C
:1024900091E0922790FB82F990FB83F9B0CF809175
:1024A0005103982F909591708E7F892B90FB81F925
:1024B000AFCF0E94D4178091500387FB222720F9C9
:1024C00091E0922790FB87F99ACF81E00E940F1F3D
:1024D00080915003909151030E94811E0E94D41755
:1024E00080E001C081E0DF91CF910895CF93DF9329
:1024F00086319C4541F5EB010E94A01D982F8A81F1
:102500002091170130911801882379F09A7A81E09F
:1025100009F480E080932C02911102C069E201C0AD
:1025200065E3C9010E94AA1F0AC080912C02811193
:1025300002C069E201C065E3C9010E94B51F0E94A3
:10254000EE1D80E001C081E0DF91CF91089590936E
:102550003202809331020895E0913102F09132020B
:10256000309721F00190F081E02D099480E00895EA
:10257000E0913102F0913202309799F020912301DD
:10258000222359F02091500327FF07C0DC012C9132
:1025900011962C93119725E02C930280F381E02D66
:1025A0000994089520912F0230913002281739079D
:1025B00071F09093300280932F02E0913102F091FC
:1025C0003202309721F00680F781E02D09940895BA
:1025D00020912D0230912E022817390771F0909327
:1025E0002E0280932D02E0913102F0913202309759
:1025F00021F00084F185E02D099408950E94702057
:102600006093420270934302809344029093450288
:1026100060933E0270933F02809340029093410288
:10262000089585B7806885BF85B7806885BF0895A0
:1026300081E008950C94181308950C941C130C94C5
:102640001C130C941F130C941C130C9423130C9444
:102650001C130E94111381E59EE10E94D5200E9467
:1026600027130C9425130E945B200E941B060E94D6
:1026700026210E94D20E0E945F0D0C9421136F92AE
:102680007F928F929F92AF92BF92CF92DF92EF9202
:10269000FF920F931F93CF93DF93CDB7DEB72A97A7
:1026A0000FB6F894DEBF0FBECDBF0E941D130E946F
:1026B0001C130E944D0681110E94FE1234E3832EEA
:1026C00032E0932E00E010E0C02E802F0E94E9053A
:1026D0005C01F401619071904F01682679266114C4
:1026E0007104B1F40F5F1F4F0530110569F78FEFCB
:1026F00089838A831B820E9464208160782F9D8356
:102700008C8349815A816B818D810E94FB133AC071
:102710008091DE0281FD0E94F205D12CEE24E3942B
:10272000F12CC3018E219F21892B29F10E941A13BC
:102730008823A9F0DE82CF82AE20BF2081E0AB28C3
:1027400009F480E088870E9464208160782F9A874E
:1027500089874E815F8168858A850E94FB13000FFF
:10276000111FF801EC5CFD4F80819181E826F9266C
:10277000F182E08207C0D394EE0CFF1CFFE0DF1271
:10278000D0CFB0CF0E94A30D0E944A100E94AC127D
:10279000909133028917D1F00E94AC1280933302DA
:1027A0002A960FB6F894DEBF0FBECDBFDF91CF9152
:1027B0001F910F91FF90EF90DF90CF90BF90AF905F
:1027C0009F908F907F906F900C94D8032A960FB6AD
:1027D000F894DEBF0FBECDBFDF91CF911F910F9157
:1027E000FF90EF90DF90CF90BF90AF909F908F9031
:1027F0007F906F900895DF92EF92FF920F931F9357
:10280000CF93DF93CDB7DEB72B970FB6F894DEBF2B
:102810000FBECDBFF42E052F162FE72ED82E611137
:102820000E94C01DFE01319686E0DF011D928A954F
:10283000E9F77E2D4F2D502F612F8D2D9E810E9407
:102840008D1A2B960FB6F894DEBF0FBECDBFDF9169
:10285000CF911F910F91FF90EF90DF900895FC01B1
:10286000808191810E94611D0895CF93882309F48E
:102870009CC0C82F8238C1F40E94AC1281FD95C063
:1028800069E380911701909118010E94AA1F0E948C
:10289000EE1D2FEF81EE94E0215080409040E1F753
:1028A00000C0000069E319C0833801F50E94AC1232
:1028B00080FD7BC063E580911701909118010E9413
:1028C000AA1F0E94EE1D2FEF81EE94E02150804060
:1028D0009040E1F700C0000063E5809117019091FE
:1028E00018010E94B51FCF910C94EE1D8438C1F4DD
:1028F0000E94AC1282FD59C067E48091170190914B
:1029000018010E94AA1F0E94EE1D2FEF81EE94E095
:10291000215080409040E1F700C0000067E4DDCF27
:102920008CEF8C0F813AD0F46C2F8091170190912D
:1029300018010E942A1F882349F06C2F80911701EB
:10294000909118010E94B51F0E94EE1D6C2F80917E
:102950001701909118010E94AA1FC5CF80E28C0F29
:10296000883048F4C77081E001C0880FCA95EAF743
:102970000E94A31DB8CFEBE5EC0FE33040F4F0E08C
:10298000EE53FE4F808190E0CF910C94D212C85A42
:10299000C73158F4EC2FF0E0EE0FFF1FEC56FE4F5E
:1029A00080819181CF910C94E812CF910895882372
:1029B00009F45BC0682F823879F40E94AC1281FF61
:1029C00054C069E380911701909118010E94AA1FD9
:1029D0000E94EE1D69E310C08338B1F40E94AC126E
:1029E00080FF43C063E580911701909118010E9418
:1029F000AA1F0E94EE1D63E58091170190911801B6
:102A00000E94B51F0C94EE1D843879F40E94AC121C
:102A100082FF2BC067E480911701909118010E94FA
:102A2000AA1F0E94EE1D67E4E7CF8CEF860F813A64
:102A300018F380E2860F883048F4677081E001C0A7
:102A4000880F6A95EAF70E94A91DDCCF8BE5860FF7
:102A5000833020F480E090E00C94D212685A673101
:102A600020F480E090E00C94E81208951F93CF9337
:102A7000DF93182FEB010E943514209741F08FE966
:102A80009FE00197F1F700C000002197F6CF812F5A
:102A9000DF91CF911F910C94D714893319F060E026
:102AA00070E002C060E570E00C943615882321F0D8
:102AB0000E94A31D0C94EE1D0895882321F00E940E
:102AC000A91D0C94EE1D0895CF92DF92EF92FF9214
:102AD0000F931F93CF93DF937C01062FC72FFC0129
:102AE000D281158112951F700E94991D882399F03B
:102AF000DD2389F08C2F807F803421F080E2800FED
:102B0000883048F082E00E94381E0E94991D91E0B2
:102B1000D82ED92601C0D12CCC2EC2948FE0C82249
:102B20008C2D90E0FC01E659FF4F0C9485298C2FE9
:102B3000807FCF70882311F0C295C07FDD2399F08C
:102B4000CC2309F482C180E2800F883010F001119B
:102B500004C08C2F0E94A31D03C08C2F0E94B31DA4
:102B60000E94EE1D72C1802F0E94D714CC2309F45D
:102B700091C180E2800F883010F0011104C08C2FC9
:102B80000E94A91D03C08C2F0E94B91D0E94EE1D3A
:102B900081C18C2F807FCF70803211F0C295C07FB1
:102BA000002319F00130C9F022C0DD2371F0112398
:102BB00041F0113031F40E94D31D8C2B0E94DB1D9B
:102BC00069C10E94D31D8C2B1DC0112319F0113037
:102BD00009F460C10E94E41D25C0DD2321F01630F8
:102BE00008F058C10EC0153008F054C11BC0DD23D9
:102BF00061F0112331F0F701858180FF26C18F70CC
:102C000085838C2F0E94561545C1112359F0093335
:102C100009F02CC1FFEF27EE83E0F1502040804007
:102C2000E1F722C18C2F0E945D1534C18C2F86954F
:102C30008695837019F0813061F02CC1DD2321F07D
:102C4000802F9C2F937002C080E090E00E94D212EF
:102C500029C1DD2321F0802F9C2F937002C080E0DA
:102C600090E00E94E8121EC18C2F837009F045C0CD
:102C7000D11114C1402F429546954770440F440F1F
:102C8000602F6F70862F90E0A0E0B0E0042E04C0AB
:102C9000880F991FAA1FBB1F0A94D2F704FF10C008
:102CA0000FE010E020E030E004C0000F111F221FF1
:102CB000331F4A95D2F7009510952095309503C0A3
:102CC00000E010E09801C695C695C370BC01CD0127
:102CD000602B712B822B932BC23049F058F4C130FA
:102CE00019F00E94DE1BDAC00E94CC1BD7C00E94E4
:102CF000F01BD4C00E94CA1BD1C0DD2319F08C2F59
:102D0000817001C08695882309F4C8C0402F429580
:102D100046954770440F440F602F6F70862F90E0E8
:102D2000A0E0B0E0042E04C0880F991FAA1FBB1FAB
:102D30000A94D2F704FF10C00FE010E020E030E06A
:102D400004C0000F111F221F331F4A95D2F70095B0
:102D500010952095309503C000E010E09801C695CD
:102D6000C695C370BC01CD01602B712B822B932BB8
:102D7000C23049F058F4C13019F00E94A31C8EC033
:102D80000E94911C8BC00E94B51C88C00E94041C2C
:102D900085C0CF70DD2339F08C2F0E942A1C802F34
:102DA0000E9456157BC0802F0E945D158C2F0E94BB
:102DB0004B1C74C0023F01F128F4003F41F0013F79
:102DC000A1F03FC0033FF9F0043F39F13AC0DD23E1
:102DD00041F0153008F05EC08C2F8F710E94701C7E
:102DE00059C0163008F056C0F7CFDD2339F08C2FCC
:102DF0008F710E942A1C4EC0DD23C9F38C2F8F7166
:102E00000E944B1C47C0DD2329F08C2F8F710E943C
:102E1000151C40C00E94101C3DC0DD2349F0CF713D
:102E20008C2F0E942A1C63E08C2F0E94231E32C02C
:102E300081E00E94381E123068F182E00E94381E44
:102E400029C0DD2331F0112391F2802F0E94351427
:102E500021C0112399F2093349F49FEFE7EEF3E023
:102E60009150E040F040E1F700C00000802F0E9448
:102E7000D71410C04C2F4F70602FC7010E94E10380
:102E80000E943B1B0FC04C2F4F70602FC7010E9448
:102E9000E40308C088EF8C0D843020F40E94AC124B
:102EA0000E94D803DD20C9F00E94951D80FD15C049
:102EB000F70112820E948F1D0E942A1CC7010E94E6
:102EC0008E170E948F1DDF91CF911F910F91FF9060
:102ED000EF90DF90CF900C944B1CDF91CF911F911E
:102EE0000F91FF90EF90DF90CF9008950F931F9375
:102EF000CF93DF93EC01688179818A810E946C1DF8
:102F00008C010E94C71C0E94B81BB801CE010E9410
:102F10006415DF91CF911F910F910895CF93DF93A7
:102F2000EC01988189812B813C81232B31F08F3FEB
:102F300031F481E09F3F19F403C081E001C080E0DB
:102F400080FD19C0CE010E947A0381110CC00E943D
:102F5000991D882381F08A81882369F082E0DF91BE
:102F6000CF910C94381ECE010E947617CE01DF91CE
:102F7000CF910C945103DF91CF91089580E090E0C0
:102F80000E94D21280E090E00E94E8120E94C01DD0
:102F90000E94D01D0C94EE1D809117019091180194
:102FA0000E94C01F0C94BE170E94B01D0C94CC1739
:102FB000E92FE295EF704E2F50E0FA013297EE3094
:102FC000F105B0F4E658FF4F0C948529803F91F04D
:102FD00018F4883E68F40EC0843F51F40BC0883E5C
:102FE00048F0813F29F406C093FB882780F90895B3
:102FF00080E0089581E008950E94611D0E94D81725
:103000000895CF93DF9300D000D01F92CDB7DEB7E5
:103010000F900F900F900F900F90DF91CF91089528
:10302000CF93DF9300D000D000D0CDB7DEB7269687
:103030000FB6F894DEBF0FBECDBFDF91CF910895DC
:103040001F93CF93DF93C091470216E0809148020F
:10305000C81799F0D0E01C9FF0011D9FF00D1124BE
:10306000E75BFD4F4081518162817381848195814D
:103070000E9410182196C770E9CFDF91CF911F9160
:1030800008954091790250917A0260917B0270918B
:103090007C0280917D0290917E020C9410180F9317
:1030A0001F93CF93DF9380917E0282958F7009F0FA
:1030B0005DC080917B02882309F458C0809147024B
:1030C000109148026091790270917A02C0917C025D
:1030D000D0917D0291E06F3F09F090E0292F06E04A
:1030E000811709F443C0209721F07F3F21F030E0A1
:1030F00003C031E001C0322F90E030FD34C0089FA2
:10310000F001099FF00D1124DF01A75BBD4F11965F
:103110003C911197371327C03C91361324C0129667
:103120003C91129731111FC013964D915C911497E9
:103130004C1B5D0B483C5105B0F480917E028F70B2
:10314000806180937E02E25BFD4F80818F708061A1
:10315000808389E792E00E948E17DF91CF911F91C3
:103160000F910C94201801968770BACFDF91CF9100
:103170001F910F9108959F92AF92BF92CF92DF92CD
:10318000EF92FF920F931F93CF93DF93CDB7DEB7EC
:1031900061970FB6F894DEBF0FBECDBF8C0185E0FE
:1031A000F801DE011D9601900D928A95E1F7F80174
:1031B00040815181E2809091790260917A02209160
:1031C0007C0230917D022115310531F06F3F31F4E1
:1031D00081E09F3F19F403C081E001C080E0F82F37
:1031E000F1709F2E80FD46C1F801A380B48089E76D
:1031F000C82E82E0D82EF0907B02F501E21BF30B83
:10320000FF2009F4DFC080917E02E83CF10508F060
:103210009BC0282F207F09F052C0561313C04913BA
:1032200011C0FE2CE1100EC08F70806180937E0271
:103230000E944118C6010E948E1780917E02F801FB
:10324000858358C1AB2831F05F3F31F481E04F3FB7
:1032500019F403C081E001C080E080FD03C081E07B
:103260008E2502C080E090E0F82FF170FF2E80FFE5
:103270001CC0809147022091480236E0821709F471
:1032800017C190E0389FF001399FF00D1124E75BE2
:10329000FD4F6181561306C06081461303C06281F1
:1032A000E61203C001968770E9CFFE2CEE2009F4E8
:1032B00021C180917E02816080937E025AC05613A4
:1032C00006C0491304C0E11002C0F8019FC04D8739
:1032D0005E878D859E850E94FC17882379F1EE20FC
:1032E00069F120917E02822F82958F7090E0029783
:1032F00074F08091790290917A0298878F83198671
:10330000BB86AA862C87CE0107960E948E1786E080
:10331000F801A9E7B2E001900D928A95E1F70E94C9
:103320004F180E9441180DC0561729F14D875E872E
:103330008D859E850E94FC1781112CC0C8010E94BA
:103340008E17FF24F394D6C0282F207F69F77A2D9B
:10335000B98AA88A6E2D89890E94011889E792E0AE
:103360000E948E1786E0F60111928A95E9F70E9475
:103370004118F12CBFC04913D9CFE110D7CFF801C4
:103380008583C8010E948E1786E0F60111928A9506
:10339000E9F7B0C0EE2091F220917E02822F829553
:1033A0008F7090E002970CF4B2CF809179029091E7
:1033B0007A029A8389831B82BD82AC822E83CE01DE
:1033C0000196A3CFE83CF10508F047C0FE2CEE20A3
:1033D00009F4B4CF561330C049132EC020917E0299
:1033E00020FD21C0822F82958F70482F50E041151B
:1033F0005105C9F0F80125834F30510541F08F5F29
:10340000982F9295907F822F8F70892B8583C8018A
:103410000E948E1786E0F801A9E7B2E001900D92B4
:103420008A95E1F742C086E0F801A9E7B2E0019091
:103430000D928A95E1F75EC04D875E878D859E85EA
:103440000E94FC17811163CF80917E02816080937E
:103450007E02C8010E948E174DC07A2DB98AA88AB3
:103460006E2D89890E94011886E0F60111928A95D5
:10347000E9F71BC0EE2009F461CF4D875E878D858B
:103480009E850E94FC17F82E882309F457CF86E00A
:10349000F801A9E7B2E001900D928A95E1F789E77A
:1034A00092E00E942F140E944F180E94411822C0DF
:1034B0004D875E878D859E850E94611D292F2295EF
:1034C0002F70223028F49F7039F0811105C00BC095
:1034D000243028F49F7049F4805E883020F0C801C1
:1034E0000E948E179F2CF92C05C0F8019581907FC2
:1034F00099F7F9CF8F2D61960FB6F894DEBF0FBE06
:10350000CDBFDF91CF911F910F91FF90EF90DF9092
:10351000CF90BF90AF909F9008951F93CF93DF936C
:10352000CDB7DEB72C970FB6F894DEBF0FBECDBF78
:103530004F83588769877A878B879C87CE01079648
:103540000E94BB188823D1F09F8188852A853B85FE
:10355000232B31F08F3F31F481E09F3F19F403C0FA
:1035600081E001C080E080FD47C04F8158856985BA
:103570007A858B859C850E9410183EC086E0FE01EE
:103580003796DE01119601900D928A95E1F7FF8141
:10359000E8856A857B856115710531F0EF3F31F46F
:1035A00081E0FF3F19F403C081E001C080E080FDAD
:1035B00023C02091480230E0C90101968770992705
:1035C0004091470250E084179507F1F1F983EA83AF
:1035D0007D836C8396E0929FD001939FB00D112460
:1035E000A75BBD4FFE01319601900D929A95E1F7D0
:1035F000809348020E94201816E080914702909123
:103600004802891771F1189FC0011124875B9D4FF3
:103610000E94BB18882329F1E09147021E9FF00108
:103620001124E75BFD4F4081518162817381848168
:1036300095810E9410188091470290E00196877052
:10364000992780934702D9CF0E94D417109248023D
:1036500010924702E9E7F2E086E0DF011D928A95C9
:10366000E9F72C960FB6F894DEBF0FBECDBFDF9101
:10367000CF911F910895EF92FF920F931F93CF93D5
:10368000DF938C01892B09F46CC0F12CEE24E394B8
:10369000E8012196F8018491843740F4843008F0E1
:1036A00051C0813081F0823019F15BC0853709F457
:1036B00044C0A8F19CE7980F903708F052C08F776C
:1036C0000E94D71441C00E5F1F4FFE01849190E20B
:1036D000980F983050F48770FE2D01C0FF0F8A9527
:1036E000EAF78F2F0E94C31D14C00E9435142DC00D
:1036F0000E5F1F4FFE01849190E2980F983060F4A6
:103700008770FE2D01C0FF0F8A95EAF78F2F0E9468
:10371000C91D0E94EE1D19C00E94D71416C00E5F6D
:103720001F4FFE01C491CC2381F08FE99FE00197E8
:10373000F1F700C00000C150F6CF0E5F1F4FFE0131
:10374000F49003C00E9435148E018F2D882309F454
:103750009FCFEFE9FFE03197F1F700C00000815003
:10376000F5CFDF91CF911F910F91FF90EF900895CA
:10377000089508950C94B91B0C94BA1B0E94BC1BAD
:103780006093B5027093B6028093B7029093B8022B
:103790000C94BE170C94BE1B0F931F930091B5029F
:1037A0001091B6022091B7023091B802602B712BB4
:1037B000822B932B1F910F910C94BE1B0F931F9381
:1037C0000091B5021091B6022091B7023091B80273
:1037D00060237123822393231F910F910C94BE1BAE
:1037E0000F931F930091B5021091B6022091B7027A
:1037F0003091B80260277127822793271F910F917C
:103800000C94BE1B0C94B91B0E94021C6093B10265
:103810007093B2028093B3029093B4020C94BE17DB
:1038200060E070E0CB010C94041C0F931F9341E007
:1038300050E060E070E08A019B0104C0000F111F9E
:10384000221F331F8A95D2F7C901B8011F910F912A
:103850000C94041C0F931F9341E050E060E070E073
:1038600004C0440F551F661F771F8A95D2F78091B9
:10387000B1029091B202A091B302B091B4028A0158
:103880009B01082B192B2A2B3B2BC901B8011F9137
:103890000F910C94041C0F931F9341E050E060E0E3
:1038A00070E004C0440F551F661F771F8A95D2F73A
:1038B00040955095609570958091B1029091B202BB
:1038C000A091B302B091B4028A019B01082319238D
:1038D0002A233B23C901B8011F910F910C94041CAA
:1038E0000F931F9341E050E060E070E004C0440F8C
:1038F000551F661F771F8A95D2F78091B10290916C
:10390000B202A091B302B091B4028A019B010827D0
:1039100019272A273B27C901B8011F910F910C9441
:10392000041C0F931F930091B1021091B2022091D9
:10393000B3023091B402602B712B822B932B1F9119
:103940000F910C94041C0F931F930091B1021091DE
:10395000B2022091B3023091B4026023712382231A
:1039600093231F910F910C94041C0F931F930091AC
:10397000B1021091B2022091B3023091B4026027DB
:103980007127822793271F910F910C94041C08958F
:103990002FE0929F800D1124E82FE695E695E6959D
:1039A000877051E001C0550F8A95EAF785E0E89FDE
:1039B000F0011124E158FD4F20E030E070E040813B
:1039C000CB01022E02C0969587950A94E2F781708A
:1039D000819584278523842781932F5F3F4F25304E
:1039E000310569F708952FE0929F800D1124682F0B
:1039F000669566956695982F977085E0689FB001EB
:103A0000112440E050E080E0FB01E40FF51FE15895
:103A1000FD4F208130E0092E02C0369527950A948B
:103A2000E2F721703327042E01C0220F0A94EAF72F
:103A3000822B4F5F5F4F4530510531F70895BF929C
:103A4000CF92DF92EF92FF920F931F93CF93DF936A
:103A50008C01C090B102D090B202E090B302F0901D
:103A6000B4028091B5029091B602A091B702B091D4
:103A7000B802C82AD92AEA2AFB2ACFE1D0E0D70126
:103A8000C6010C2E04C0B695A795979587950A9404
:103A9000D2F780FD04C0219790F7B12C07C0BC2E4F
:103AA000B8018C2F0E9400040197A9F38B2DDF91A0
:103AB000CF911F910F91FF90EF90DF90CF90BF902B
:103AC0000895CF93DF93EC010E941F1DBE010E9459
:103AD0000004DF91CF9108951F93CF93DF93EB0103
:103AE00090914602992321F0CB010E94611D13C0E1
:103AF000882349F0CB010E941F1D182F682FCE018B
:103B00000E94C81C04C0CB010E94F31C182FBE01E8
:103B1000812F0E940004DF91CF911F910895809121
:103B2000B90285958595859508958091B90287702C
:103B300008959091B902977081E009F480E00895AA
:103B40008091DD0208959091DD02892B8093DD0242
:103B5000089580959091DD0289238093DD02089578
:103B60001092DD0208959091DC02892B8093DC0293
:103B7000089580959091DC0289238093DC0208955A
:103B80001092DC0208959091DB02892B8093DB0276
:103B9000089580959091DB0289238093DB0208953C
:103BA0001092DB0208958091BA02089508950C9452
:103BB000D61D0C94D71D9091BA02981721F08093CE
:103BC000BA020C94D91D08958091BA02882329F075
:103BD0001092BA0280E00C94D91D0895E09117016B
:103BE000F09118018091DD028083E0911701F0913E
:103BF000180190818091DC02892B8083E09117016C
:103C0000F091180190818091DB02892B8083809153
:103C1000BA02882381F0E0911701F0911801908198
:103C2000892B808380911701909118010E94141FA5
:103C300081110E94E41D80911701909118010C944C
:103C4000B8120C94D61D98E0899F90011124262B60
:103C50002093B9020E942A1C8091B902859585950E
:103C600085950C94211E1092B90280E00C94211EBF
:103C70002091B902809582238093B902982F977082
:103C800079F430E0482F082E000C550B2417350727
:103C900039F08595859585950E944B1C0C94331EB3
:103CA000089580E0089580E090E00E94332A21E0AA
:103CB0008B3E9E4F09F020E0822F089582E090E035
:103CC0000C94252A682F82E090E00C94392A83E036
:103CD00090E00C94252A682F83E090E00C94392A18
:103CE000CF9384E090E00E94252AC82F81E290E0E3
:103CF0000E94252A2C2F30E0A901582BCA01CF9110
:103D00000895CF93C92F682F84E090E00E94392A4C
:103D10006C2F81E290E0CF910C94392A86E090E0FC
:103D20000C94252A682F86E090E00C94392AAB0188
:103D3000BC018FE090E00C944B2AAB01BC0183E105
:103D400090E00C944B2A60E070E0CB010C949D1E37
:103D500060E070E0CB010E94971E0C94A31E6BEEF6
:103D60007EEF80E090E00E94572A60E082E090E0E1
:103D70000E94392A60E083E090E00E94392A109284
:103D8000B5021092B6021092B7021092B80260E02B
:103D900084E090E00E94392A60E081E290E00E9495
:103DA000392A60E085E090E00E94392A60E086E0F0
:103DB00090E00E94392A6FEF87E090E00E94392A54
:103DC00040E050E0BA0188E090E00E944B2A60E0B9
:103DD0008DE090E00E94392A40E050E0BA0188E18D
:103DE00090E00E944B2A60E087E190E00E94392A2F
:103DF00040E050E0BA018CE190E00E944B2A60E084
:103E000080E290E00E94392A40E050E0BA0188E167
:103E100090E00E944B2A0C94A81E0C94AF1E682FB1
:103E20008EE090E00C94392AFC01329680912301B7
:103E3000882331F08091500387FF02C09EE101C0CA
:103E400096E080E0915028F021912223D9F38F5FF2
:103E5000F9CF0895662351F1209123012223E9F03F
:103E60002091500327FF19C0462F46954695469549
:103E70004E31E0F4677021E030E002C0220F331FC2
:103E80006A95E2F7FC01E40FF11D828190E028239E
:103E9000392381E0232B69F409C0FC01329608968E
:103EA0002191621729F0E817F907D1F780E008950A
:103EB00081E008959C01FC0132969FEF80E04191E2
:103EC000461789F09F3F19F4411101C0982F8F5F69
:103ED0008630A9F79F3F39F0F901E90FF11D97FDF1
:103EE000FA956283089508959C012A5F3F4FFC0173
:103EF0004281461301C01282019682179307B9F7D7
:103F00000895262F2695269526952E3168F4FC01D6
:103F1000E20FF11D677021E030E001C0220F6A95C9
:103F2000EAF78281282B22830895262F269526954D
:103F300026952E3170F4FC01E20FF11D677021E02F
:103F400030E001C0220F6A95EAF72095828128238C
:103F50002283089520912301222329F020915003E8
:103F600027FD0C94811F0C945A1F209123012223BA
:103F700029F02091500327FD0C94951F0C94741F79
:103F800020912301FC013296222331F080915003CD
:103F900087FF02C08EE101C086E0DF011D928A9595
:103FA000E9F7089508950C94D21F0C94D21FCF9373
:103FB0000E94D51F0E944D060E94D31FC0E08C2F87
:103FC0000E94E905892B29F4CF5FC530C1F780E055
:103FD00001C081E0CF9108950C94D21F0C94EC1F86
:103FE00080915603843009F42EC00E94EE1F80E0B9
:103FF0000E94E10F80E00E94D8030E94CE0C109234
:10400000DF0220E488E190E00FB6F894A895809351
:1040100060000FBE2093600083B7817F846083BF00
:1040200083B7816083BF7894889583B78E7F83BF81
:104030000FB6F894A8958091600088618093600025
:10404000109260000FBE08950C94D21F0E94D417E6
:104050000E94D20E0E94AC120E94D8030E949A0DB8
:104060000C9424201F920F920FB60F9211248F935D
:104070009F93AF93BF938091DF02811113C0809112
:104080004C0390914D03A0914E03B0914F03419684
:10409000A11DB11D80934C0390934D03A0934E033B
:1040A000B0934F03BF91AF919F918F910F900FBE2F
:1040B0000F901F90189582E084BD93E095BD9AEF14
:1040C00097BD80936E0008952FB7F89480914C03AC
:1040D00090914D03A0914E03B0914F032FBF0895CF
:1040E0002FB7F89460914C0370914D0380914E036B
:1040F00090914F032FBF08959C014FB7F894809182
:104100004C0390914D03A0914E03B0914F034FBFCC
:10411000821B930B089578941F920F920FB60F9203
:1041200011248F939F93AF93BF9380914C039091F1
:104130004D03A0914E03B0914F030196A11DB11DF7
:1041400080934C0390934D03A0934E03B0934F0381
:10415000BF91AF919F918F910F900FBE0F901F90C5
:10416000189581E08093E00080E28093D80010925F
:10417000C9008FE19EE40197F1F700C0000087E0DD
:1041800090EBDC0180935F0390936003A093610345
:10419000B09362039CE088E10FB6F894A8958093F1
:1041A00060000FBE90936000FFCF9093C701809393
:1041B000C6010895AF92BF92CF92DF92EF92FF9225
:1041C0000F931F93CF93C0E0CC24C394D12CE82E3F
:1041D000F12C8C2F0E94E9055C0100E010E0C60183
:1041E000002E02C0880F991F0A94E2F78A219B21B2
:1041F000892B31F40F5F1F4F0F30110581F70AC073
:10420000602F7C2F80E00E94E503E816F90691F705
:1042100081E004C0CF5FC530E1F680E0CF911F910F
:104220000F91FF90EF90DF90CF90BF90AF900895E7
:10423000CF93C82F8CE20E94DA20882321F08C2FA4
:10424000CF910C94DA2080E0CF910895CF930E9413
:10425000531E811102C00E940D1FC5E6C15049F0D6
:104260000E944D068FE39CE90197F1F700C0000022
:10427000F5CF89E20E94182181112AC18AE20E94A9
:10428000182181110E940D1F85E00E9418218111C3
:104290000E94B1200E945E1E8093DE0287E00E9491
:1042A00018218823A9F18BE10E941821882351F05D
:1042B0008091DE0281FB222720F991E0922790FB7A
:1042C00081F90EC08EE00E941821882361F0809150
:1042D000DE0282FB222720F991E0922790FB82F9EF
:1042E0008093DE0215C080E10E9418219091DE02C9
:1042F000882341F093FB222720F981E0822780FB6D
:1043000093F904C0892F809580FB90F99093DE0289
:104310008091DE020E94621E0E94701E90935103E3
:104320008093500380EE0E941821882341F08091F1
:104330005003982F909590FB80F98093500389E368
:104340000E941821882359F08091500381FB222775
:1043500020F991E0922790FB81F98093500382EE3F
:104360000E941821882359F08091500382FB222754
:1043700020F991E0922790FB82F98093500386EE1A
:104380000E941821882359F08091500383FB222733
:1043900020F991E0922790FB83F98093500383EEFC
:1043A0000E941821882359F08091500384FB222712
:1043B00020F991E0922790FB84F98093500385E3E4
:1043C0000E941821882359F08091500385FB2227F1
:1043D00020F991E0922790FB85F98093500381E3C7
:1043E0000E941821882359F08091500386FB2227D0
:1043F00020F991E0922790FB86F98093500381E1A8
:104400000E941821882359F08091500387FB2227AE
:1044100020F991E0922790FB87F9809350038091D7
:104420005003909151030E94811E87E20E9418213F
:10443000C82F8EE10E9418218111C2608FE10E9475
:1044400018218111C46080E20E9418218111C86086
:1044500081E20E9418218111C06182E20E9418212C
:104460008111C06283E20E9418218111C06484E23C
:104470000E941821882311F0C06802C0CC2329F0C3
:104480008C2F0E946B1E6C2F03C00E94671E682F2A
:1044900070E080E090E00E94CA1B6091B1027091D0
:1044A000B2028091B3029091B4020E94021C8FE08C
:1044B0000E941821882319F081E00E940F1F85E1D6
:1044C0000E941821882321F080E0CF910C940F1FC7
:1044D000CF9108958091000308950895CF93DF93BD
:1044E00000D01F92CDB7DEB790915603943019F5E6
:1044F00089837B836A8382E08093E9008FEF9091C8
:10450000E800815095FD06C095ED9A95F1F7000001
:104510008111F5CF8091E80085FF0DC040E050E0AB
:1045200063E070E0CE0101960E9481248091E80052
:104530008E778093E8000F900F900F90DF91CF91CE
:104540000895BC0184E00C946E22BC0183E00C94BD
:104550006E22CF93DF9320912301222339F0209103
:10456000500327FF03C060E222E002C068E021E0C0
:104570002093E9002FEF3091E800215035FD06C06F
:1045800035ED3A95F1F700002111F5CF2091E800C3
:1045900025FF1DC0EC0180912301811105C040E081
:1045A00050E068E070E003C070E040E050E0CE0111
:1045B0000E9481248091E8008E778093E80080E259
:1045C000FE01A0EEB2E001900D928A95E1F7DF9135
:1045D000CF91089580915503811109C00E94122640
:1045E0000E946F268091E20084608093E20008952B
:1045F00010925503089508950895089542E061ECDE
:1046000081E00E948B2542E261EC82E00C948B25D4
:1046100080915803833009F460C030F4813071F028
:10462000823009F499C008958A3009F485C08B302E
:1046300009F46BC0893009F0A7C020C080915703EE
:10464000813A09F0A1C08091E800877F8093E8005B
:1046500080915B0390915C03892B21F460E280EEF2
:1046600092E003C060E080E090E070E00E94CC2423
:104670008091E8008B778093E8000895809157033C
:10468000813209F081C080915B0390915C030297B5
:1046900008F07AC08091E800877F8093E8008091DD
:1046A000E80082FD05C0809156038111F8CF6CC0EF
:1046B0002091F3008091F20090E0922B029729F470
:1046C0008091F1008B7F813021F48091F100809303
:1046D00000038091E8008B7753C080915703813AA3
:1046E00009F052C080915B0390915C03892B09F023
:1046F0004BC08091E800877F8093E8008091E800BC
:1047000080FFFCCF8091230136C080915703813216
:10471000D9F580915B0390915C03892BA9F5809179
:10472000E800877F8093E8000E94C02580915903AC
:10473000809323010C94D41780915703813221F583
:104740008091E800877F8093E8000E94C0258091D7
:104750005A0380930103089580915703813AA1F48D
:104760008091E800877F8093E8008091E80080FFD7
:10477000FCCF809101038093F1008091E8008E7757
:104780008093E8000C94C025089584B7877F84BF88
:104790000FB6F894A89580916000886180936000BE
:1047A000109260000FBE90E080E80FB6F8948093FE
:1047B0006100909361000FBE0E9429130E9412268F
:1047C0000E946F268091E20084608093E2007894DA
:1047D0000E9404290E94331389E191E00E94A712EC
:1047E000809156038530A9F480915603853079F481
:1047F0000E94F01F809154038823B1F30E94D71FB9
:10480000882391F30E946B240E94D417EDCF0E945D
:1048100026200E943F130E941D130E941C13E0CF0C
:104820000C941224292F332723303105C9F060F46A
:104830002130310581F02230310509F044C08BE38D
:1048400090E02CE834E043C021323105E1F022321F
:10485000310549F138C082E190E027EC34E037C0FF
:1048600099278130910549F028F0029761F5EAE631
:10487000F4E005C0E8E8F4E002C0E6E7F4E0849183
:1048800090E09F0124C06115710541F06130710510
:10489000D1F489E090E027EB34E019C089E090E0A2
:1048A0002EE934E014C06115710541F061307105E5
:1048B00051F48DE690E029ED34E009C080E490E009
:1048C00026E435E004C080E090E020E030E0FA012A
:1048D00031832083089580E189BD82E189BD09B4D7
:1048E00000FEFDCF8091D8008F7D8093D80080910D
:1048F000E00082608093E0008091E00081FDFCCFC9
:104900000895CF92DF92EF92FF920F931F93CF9370
:10491000DF93EC018B017A010E94DF25811133C006
:10492000E114F10439F0F70180819181081B190B22
:10493000C80FD91FC12CD12C0115110519F1809177
:10494000E80085FD16C08091E8008E778093E8002E
:10495000E114F10449F0F70180819181C80ED91E5C
:10496000D182C08285E00FC00E94DF25882321F319
:104970000AC089918093F10001501109FFEFCF1A0D
:10498000DF0ADACF80E0DF91CF911F910F91FF9086
:10499000EF90DF90CF90089520915D0330915E03FA
:1049A0002617370748F06115710539F42091E800A2
:1049B0002E772093E80001C0B901FC0120E06115C9
:1049C000710579F1809156038823F1F18530F1F179
:1049D0008091E80083FD3CC08091E80082FD2EC0FC
:1049E0008091E80080FFEBCF2091F3008091F200EE
:1049F00090E0922B6115710551F08830910538F4E3
:104A000021912093F100615071090196F3CF21E0CB
:104A1000089709F020E08091E8008E778093E80005
:104A2000CECF2111CFCF0AC080915603882361F0E9
:104A3000853061F08091E80083FD0AC08091E80034
:104A400082FFF2CF80E0089582E0089583E0089528
:104A500081E0089520915D0330915E0326173707AA
:104A600048F06115710539F42091E8002E77209304
:104A7000E80001C0B901FC0120E06115710591F168
:104A800080915603882309F440C0853009F43FC063
:104A90008091E80083FD3DC08091E80082FD2FC039
:104AA0008091E80080FFE9CF2091F3008091F2002F
:104AB00090E0922B6115710559F08830910540F412
:104AC00024912093F1003196615071090196F2CF43
:104AD00021E0089709F020E08091E8008E7780932C
:104AE000E800CBCF2111CCCF0AC080915603882398
:104AF00061F0853061F08091E80083FD0AC080910B
:104B0000E80082FFF2CF80E0089582E0089583E01C
:104B1000089581E00895982F973068F59093E90003
:104B2000981739F07091EC002091ED005091F00051
:104B300003C0242F762F50E021FD02C09F5FECCFF1
:104B40003091EB003E7F3093EB003091ED003D7FE4
:104B50003093ED003091EB0031603093EB007093B7
:104B6000EC002093ED005093F0002091EE0027FD23
:104B7000E5CF80E008958F708093E90081E008958B
:104B80008091570387FF11C08091E80082FD05C026
:104B9000809156038111F8CF11C08091E8008B7786
:104BA0000BC080915603882349F08091E80080FF74
:104BB000F8CF8091E8008E778093E80008952091E7
:104BC000E4003091E50095E64091EC00842F81707F
:104BD00040FF23C08091E80080FD1DC080915603F6
:104BE000882399F0853099F08091EB0085FD11C004
:104BF0004091E4005091E5002417350729F39150C6
:104C000011F09A01E1CF84E0089582E0089583E0F5
:104C1000089581E0089580E008954091E80042FF02
:104C2000DDCF08950E9480260E948826E0EEF0E005
:104C3000808181608083E8EDF0E080818F778083E0
:104C400019BCA7EDB0E08C918E7F8C9380818F7E14
:104C500080831092550308950F931F93CF93DF9392
:104C60000E9480260E948826C8EDD0E088818F7738
:104C7000888388818068888388818F7D888319BC38
:104C80001092560310925203109254031092530341
:104C900000EE10E0F80180818B7F80838881816045
:104CA000888342E060E080E00E948B25E1EEF0E046
:104CB00080818E7F8083E2EEF0E08081816080835E
:104CC000808188608083F80180818E7F80838881E5
:104CD00080618883DF91CF911F910F910895E8ED56
:104CE000F0E080818F7E8083E7EDF0E0808181605D
:104CF000808384E082BF81E0809355030C942C264E
:104D0000E8EDF0E080818E7F80831092E2000895CC
:104D10001092DA001092E10008951F920F920FB6E0
:104D20000F9211242F933F934F935F936F937F9331
:104D30008F939F93AF93BF93EF93FF938091E10085
:104D400082FF0BC08091E20082FF07C08091E100EA
:104D50008B7F8093E1000E9403298091DA0080FF1D
:104D60001FC08091D80080FF1BC08091DA008E7F29
:104D70008093DA008091D90080FF0DC080E189BD69
:104D800082E189BD09B400FEFDCF81E08093560326
:104D90000E94EA2205C019BC109256030E94F82214
:104DA0008091E10080FF19C08091E20080FF15C072
:104DB0008091E2008E7F8093E2008091E20080612A
:104DC0008093E2008091D80080628093D80019BC63
:104DD00085E0809356030E94FC228091E10084FFCD
:104DE00030C08091E20084FF2CC080E189BD82E167
:104DF00089BD09B400FEFDCF8091D8008F7D8093DE
:104E0000D8008091E1008F7E8093E1008091E200E4
:104E10008F7E8093E2008091E20081608093E200C7
:104E200080915203882311F084E007C08091E30051
:104E300087FD02C081E001C083E0809356030E9499
:104E4000FD228091E10083FF29C08091E20083FF71
:104E500025C08091E100877F8093E10082E080930C
:104E60005603109252038091E1008E7F8093E100FF
:104E70008091E2008E7F8093E2008091E200806169
:104E80008093E20042E060E080E00E948B25809108
:104E9000F00088608093F0000E94FB22FF91EF9168
:104EA000BF91AF919F918F917F916F915F914F9142
:104EB0003F912F910F900FBE0F901F9018951F924A
:104EC0000F920FB60F9211242F933F934F935F933E
:104ED0006F937F938F939F93AF93BF93CF93DF9302
:104EE000EF93FF93C091E900CF708091EC00D82F31
:104EF000D17080FDD0E81092E9008091F000877FAA
:104F00008093F00078940E94A3271092E90080918A
:104F1000F00088608093F000CD2BCF70C093E90043
:104F2000FF91EF91DF91CF91BF91AF919F918F91C1
:104F30007F916F915F914F913F912F910F900FBE95
:104F40000F901F9018951F93CF93DF93CDB7DEB7C7
:104F5000AA970FB6F894DEBF0FBECDBFE7E5F3E02A
:104F60008091F100819323E0EF35F207C9F70E94A9
:104F700008238091E80083FF2EC180915703909110
:104F80005803492F50E04A30510508F024C1FA0176
:104F9000E857FF4F0C948529803821F0823809F0BA
:104FA0001AC108C08091530390915403992389F04A
:104FB00082600FC080915B038F70873008F00BC157
:104FC0008093E9008091EB0085FB882780F910929F
:104FD000E9009091E800977F9093E8008093F100BA
:104FE0001092F100D1C0282F2D7F09F0F4C0882342
:104FF00019F0823061F0EFC080915903813009F0DF
:10500000EAC0933009F080E0809354032EC0809171
:10501000590381112AC080915B038F702FEF280FF5
:10502000263008F0D8C08093E9002091EB0020FFE3
:105030001CC0933021F48091EB00806214C09091E9
:10504000EB0090619093EB0021E030E0A90102C0F9
:10505000440F551F8A95E2F74093EA001092EA0048
:105060008091EB0088608093EB001092E9008091C2
:10507000E800877F8093E8000E94C025ACC08111C2
:10508000AAC0109159031F778091E3008078812B8B
:105090008093E3008091E800877F8093E8000E947E
:1050A000C0258091E80080FFFCCF8091E3008068FC
:1050B0008093E300111102C082E001C083E080937D
:1050C000560389C08058823008F085C0809159030A
:1050D00090915A038C3D53E0950779F583E08A83DC
:1050E0008AE289834FB7F894DE01139620E03EE010
:1050F00051E2E32FF0E050935700E49120FF03C00A
:10510000E295EF703F5FEF708E2F90E0EA3010F085
:10511000C79601C0C0968D939D932F5F243149F7A8
:105120004FBF8091E800877F8093E8006AE270E0DB
:10513000CE0101960E94CC2416C060915B03709151
:105140005C03AE014F5F5F4F0E941024BC01892BAE
:1051500009F441C09091E800977F9093E80089811D
:105160009A810E942A258091E8008B778093E8003D
:1051700032C0803881F58091E800877F8093E80015
:10518000809152038093F1008091E8008E7772CF76
:10519000811121C08091590390915A039927029758
:1051A000D4F48091E800877F8093E80080915903D0
:1051B000809352030E94C02580915203811106C042
:1051C0008091E30087FD02C081E001C084E080930C
:1051D00056030E94FE228091E80083FF0AC080915E
:1051E000E800877F8093E8008091EB0080628093E5
:1051F000EB00AA960FB6F894DEBF0FBECDBFDF91CD
:10520000CF911F9108950895CF93809156038823DD
:10521000A1F0C091E900CF709091EC00892F8170CE
:1052200090FD80E8C82B1092E9008091E80083FD92
:105230000E94A327CF70C093E900CF910895DB01AE
:105240008F939F930E94A929BF91AF91A29F800D38
:10525000911DA39F900DB29F900D11240895991B4D
:1052600079E004C0991F961708F0961B881F7A955D
:10527000C9F780950895AA1BBB1B51E107C0AA1F5F
:10528000BB1FA617B70710F0A61BB70B881F991FE7
:105290005A95A9F780959095BC01CD01089597FB8B
:1052A000072E16F4009407D077FD09D00E943B2901
:1052B00007FC05D03EF4909581959F4F0895709519
:1052C00061957F4F0895A1E21A2EAA1BBB1BFD0119
:1052D0000DC0AA1FBB1FEE1FFF1FA217B307E407D5
:1052E000F50720F0A21BB30BE40BF50B661F771F2D
:1052F000881F991F1A9469F760957095809590950D
:105300009B01AC01BD01CF010895EE0FFF1F059079
:10531000F491E02D09940E949329332312F48A1BFF
:105320009B0B0C94A429A29FB001B39FC001A39F23
:10533000700D811D1124911DB29F700D811D1124CE
:10534000911D08950E949329B7FF0895821B930B26
:1053500008950E949329A59F900DB49F900DA49F3E
:10536000800D911D11240895B7FF0C94A9290E9466
:10537000A929821B930B08958F929F92AF92BF929F
:10538000CF92DF92EF92FF92CF93DF93EC0168818F
:1053900079818A819B81611571058105910521F4CF
:1053A00064E279ED8BE597E02DE133EF41E050E0E9
:1053B0000E946D2A49015A019B01AC01A7EAB1E4A0
:1053C0000E94A9296B017C01ACEEB4EFA501940108
:1053D0000E94B729DC01CB018C0D9D1DAE1DBF1DA8
:1053E000B7FF03C00197A109B04888839983AA83B6
:1053F000BB839F77DF91CF91FF90EF90DF90CF90AD
:10540000BF90AF909F908F9008950E94BC290895FF
:1054100080E091E00E94BC290895A0E0B0E0809374
:10542000000190930101A0930201B093030108953C
:10543000FC014150504030F001900616D1F73197F1
:10544000CF010895882799270895F999FECF92BD35
:1054500081BDF89A992780B50895A6E1B0E044E0AF
:1054600050E00C945F2AA8E1B0E042E050E00C94D8
:105470005F2A262FF999FECF92BD81BDF89A019738
:1054800000B4021639F01FBA20BD0FB6F894FA9A8C
:10549000F99A0FBE08950396272F0E943A2A0E9478
:1054A000392A252F0E943A2A242F0C943A2A019651
:1054B000272F0E943A2A0C94392ADC01CB01FC01E7
:1054C000F999FECF06C0F2BDE1BDF89A319600B45D
:1054D0000D9241505040B8F70895052E97FB1EF4E9
:1054E00000940E94842A57FD07D00E94632907FC7C
:1054F00003D04EF40C94842A509540953095219514
:105500003F4F4F4F5F4F08959095809570956195EF
:0C5510007F4F8F4F9F4F0895F894FFCFFE
:10551C0001000000010102001000101001191A1BFB
:10552C001C1D1E1F202122BB026A22A9226D22A54E
:10553C0022A12201E200E900EA00B500B600B700A2
:10554C00CD008301CC008A01920194012102230237
:10555C0024022502260227022A02B300B4006F009F
:10556C007000818283F0F1C6676637943130353430
:10557C00979633F4909192939500010202020206E1
:10558C0006060909090909090F0F0F0F0F0F151549
:10559C001518191919191919191919192324252547
:1055AC0025252525E200E900EA00B500B600B70084
:1055BC00CD008301CC008A019201940121022302C7
:1055CC0024022502260227022A02B300B4006F002F
:0655DC00700081828300D3
:00000001FF
