:100000000C94E8020C9420030C9420030C9420031D
:100010000C9420030C9420030C9420030C942003D4
:100020000C9420030C9420030C946F1D0C94431E1D
:100030000C9481180C9420030C9420030C9420033E
:100040000C9420030C9420030C9420030C942003A4
:100050000C9420030C9408190C9420030C94200396
:100060000C9420030C9420030C9420030C94200384
:100070000C9420030C9420030C9420030C94200374
:100080000C9420030C9420030C9420030C94200364
:100090000C9420030C9420030C9420030C94200354
:1000A0000C9420030C9420030C9420030102E00123
:1000B00002E201024C0103E00103E201034C0000F3
:1000C000001E001F0020002100220023000000006D
:1000D0007E0F08AE00A80049004A004B002900141A
:1000E000001A000800150017001C0018000C001270
:1000F0000013002A004C004D004E002B0004001697
:1001000044074309420A000B000D420E430F4434DA
:10011000002800280028000000E100E1001D001B6D
:1001200000060019000500110010003600370038E5
:1001300000000052000000E0000000E300E2002C9C
:10014000002C002C312C002C00E6000152E4005061
:100150000051004F000000010001000100010001FA
:1001600000010000003A003C003E00450001000193
:100170000001000100010001000100010001000177
:100180000001000100010001000100010001000167
:100190000001000100160007000900010001000D28
:1001A000000E000F0001000100010001000000012D
:1001B0000001000100010001000100010001000137
:1001C000000100010001000000010000000100002A
:1001D0000001000100010001002C000100010001EC
:1001E0000000520100010001000100000024002570
:1001F0000026002700260227020000A900AA00AC62
:1002000000AB0001000100010035002F006100601B
:10021000005F0030004B004A0052004D0049004C86
:1002200000010001000100530033005E005D005C2E
:10023000002E004E00500051004F00010000000051
:100240000000000000010001002D005B005A005971
:10025000003100000000000000000000000000016C
:10026000000000E2000000630062000100010001E4
:100270000001000100000000000000010001000179
:10028000000000000000000000000026022702001D
:100290000000000000000000000100010001003526
:1002A000022F002602250224023002D900D100CDFF
:1002B00000D200D400D30001000100010039003356
:1002C000022302220221025700DA00CF00CE00D022
:1002D00000D5000000000000000000010001002D1A
:1002E0000220021F021E023102DB00DD00DE00DF01
:1002F00000DC0000000100000001000000260227D1
:1003000002010001000100010001000000000000E6
:1003100000010001000100000000000000000000DA
:1003200000000000000000000000000000000001CC
:100330000001000100007C430042004100400046F3
:100340000000000000A90000000000000001000102
:10035000000100000044003F003E003D0047000057
:1003600000AC00AA00AB000000000000000000008C
:10037000000100010045003C003B003A004800003D
:1003800000AE00AD00A80000000000010000000069
:100390000000000000000001000100010001000158
:1003A000000000000000000100010001000000004A
:1003B00000000000002A2B280000000000000000C0
:1003C000000000000000000029000000002C1E3486
:1003D00020212224342627252E362D3738271E1F8C
:1003E000202122232425263333362E37381F0405B7
:1003F000060708090A0B0C0D0E0F10111213141525
:10040000161718191A1B1C1D2F3130232D35040502
:10041000060708090A0B0C0D0E0F10111213141504
:10042000161718191A1B1C1D2F3130354C000000EF
:1004300000000000000000000000000000000000BC
:1004400000000000000000000000000000000000AC
:10045000007E0F00D4FFFFFFC7000000780E0334BA
:1004600000300072006D006900650000001A034B47
:1004700000750072006F0054006800650043007250
:100480000061007A00790000000403090409023BBE
:1004900000020100A0FA09040000010301010009A3
:1004A0002111010001224000070581030800010914
:1004B000040100010300000009211101000122B61E
:1004C000000705820320000112010002000000085D
:1004D000EDFE606000010102000105010902A101B9
:1004E00085020901A1000509190129081500250146
:1004F0009508750181020501093009311581257FB3
:1005000095027508810609381581257F95017508C2
:100510008106050C0A38021581257F950175088131
:1005200006C0C005010980A101850319012AB70091
:10053000150126B700950175108100C0050C090151
:10054000A101850419012AA002150126A002950126
:1005500075108100C005010906A10185060507196E
:10056000E029E715002501950875018102050719A5
:100570000029EF1500250195F07501810205081984
:10058000012905950575019102950175039101C039
:1005900005010906A101050719E029E71500250154
:1005A00095087501810295017508810105071900FB
:1005B00029FF150026FF009506750881000508191A
:1005C000012905950575019102950175039101C0F9
:1005D00011241FBECFEFDAE0DEBFCDBF04B603FEAD
:1005E00018C08091BC029091BD02A091BE02B09152
:1005F000BF028730904BA740B04B59F41092BC0219
:100600001092BD021092BE021092BF02E0E0F8E329
:10061000099511E0A0E0B1E0E0EDF1E402C0059041
:100620000D92A239B107D9F722E0A2E9B1E001C0E9
:100630001D92AC3BB207E1F70E94E2110C94A72097
:100640000C94000081159E4749F4FB0182818823A8
:1006500029F060E08CEA90E00E94AC1581E00895FA
:100660008530B8F46530A8F44F3098F450E09FE03E
:10067000699F400D511D1124FA019BE4899FE00DF3
:10068000F11D1124EE0FFF1FE154FF4F859194914E
:10069000089580E090E008950E943003089581E07D
:1006A00008950E942203089508950E945403089516
:1006B000A5E0B0E0EEE5F3E00C94132049835A8303
:1006C0003091990189819A81311119C0662399F07D
:1006D000222389F00E94F508182F682F89819A81BA
:1006E0000E94D10869817A81812F0E94560F259638
:1006F000E3E00C942F200E94E308182FF3CF0E9410
:10070000F50869817A81F1CFFC01262F4081518162
:100710006281738184810E945803089581E0089565
:10072000CF93DF93EC0160E00E948403BE010E943E
:100730005503DF91CF9108950E94871008950E947C
:100740008B10089508950E94A0070E94A2032FEF26
:1007500084E39CE0215080409040E1F700C000001D
:1007600008950E94A3030E942C1908950E94A303D8
:100770000E94501908950F931F93CF93DF938C011C
:1007800061E00E948403EC01B8010E9451038111D1
:1007900006C080E0DF91CF911F910F910895B801BD
:1007A000CE010E94A2168823A1F3B801CE010E94B7
:1007B0007314882371F3B801CE010E9414168823A4
:1007C00041F3F8018281882361F0C330FCE7DF0741
:1007D000E9F058F4C115ECE7DE07A9F0C130DC47B9
:1007E000B9F0C8010E944F03D5CFCB358CE7D807AD
:1007F000A9F0CC35ECE7DE0771F0CA35DC4789F7A4
:100800000E94F70CEECF0E94B103C3CF0E94FF0CF1
:100810000E94B603BECF0E94ED0CE3CF0E94FB0CFA
:10082000E0CF0E945D180E943B0408950E943F049F
:100830000E946218089508950E941B04089581E0A3
:1008400008950895CF93DF93D82F0E941F04C82FD7
:10085000882319F08D2F0E9421048C2FDF91CF91D6
:1008600008950895CF93C82F0E941C048C2F0E94D6
:100870002204CF91089580E00E94320408950E94DE
:10088000F0160E9432040895CF930E94F016C82FEC
:10089000809194018C1779F0C09394010E94ED1817
:1008A00060939501709396018093970190939801BE
:1008B0008C2F0E943204CF910895ABE0B0E0E3E6C4
:1008C000F4E00C9414204F83588769877A878B87CC
:1008D00061110E94380C1E821D8285E0FE01379650
:1008E000DE01119601900D928A95E1F78C819D8130
:1008F000892B61F449815A816B817C818D819E8134
:100900000E94610B2B96E2E00C94302089819A8141
:1009100089238F3F79F3CE0101960E948E038111C6
:10092000E9CFF0CFFC01808191810E9427090895D1
:10093000662329F00E9466120E94391308950E94CE
:10094000C012FACFCF93C82F8823B9F08CEF8C0F49
:10095000813AA8F46C2F80910001909101010E94CE
:100960008317882329F08C2F0E94F80B0E94590CC2
:100970008C2F0E94F00B0E94590CCF91089580E2B9
:100980008C0F883048F4C77081E001C0880FCA9589
:10099000EAF70E941B0CEFCFEBE5EC0FE33040F4DD
:1009A000F0E0EB5BFE4F808190E00E942517E5CFE1
:1009B000E8E5EC0FE93150F4F0E0EE0FFF1FED5EDB
:1009C000FE4F808191810E944A17D7CF83E38C0F1D
:1009D000833198F661E08C2F0E949804CECF882353
:1009E00081F19CEF980F913A28F40E94F80B0E9435
:1009F000590C089590E2980F983050F4877091E068
:100A000001C0990F8A95EAF7892F0E94210CEFCF38
:100A10009BE5980F933028F490E080E00E94251722
:100A2000089598E5980F993128F490E080E00E94AD
:100A30004A17089593E3980F933118F460E00E94E9
:100A4000980408951F93CF93DF93182FEB010E9412
:100A5000A204209739F4812F0E94EF04DF91CF91F7
:100A60001F9108958FE99FE00197F1F700C0000002
:100A70002197EFCF70E060E0893311F460E570E01A
:100A80000E9422050895882321F00E941B0C0E94D9
:100A9000590C0895882321F00E94210C0E94590CC2
:100AA0000895B0E0A0E0E7E5F5E00C940D206C01BE
:100AB000D62FC72FFC011281F580F2949FE0F92216
:100AC0000E94110CE82E8823B9F0E12E1123A1F029
:100AD0008C2F807F803421F080E28D0F8830D0F021
:100AE0008091960282FF16C082E00E94BC0C0E9498
:100AF000110C91E0E82EE926BC2EB2948FE0B822CA
:100B0000FBE0FB1508F468C0EB2DF0E0E755FF4D66
:100B10000C94FE1FE12CF0CF0C2F0F70C07F11F052
:100B20000295007F112399F0002359F080E28D0F88
:100B3000883010F0D11107C0802F0E941B0C0E943A
:100B4000590C8D2F41C0802F0E942B0CF8CF8D2F78
:100B50000E94EF04002309F43FC080E28D0F88302B
:100B600010F0D11104C0802F0E94210C03C0802FEF
:100B70000E94310C0E94590C2FC00C2F0F70C07FA7
:100B8000C03211F00295007FDD2381F0D13009F4ED
:100B900068C0112309F472C0FF2009F468C0F6018F
:100BA000858180FFCECF8F70858361C08091960252
:100BB00082FD33C0112359F0002329F0802F0E94B9
:100BC0001B0C0E94590C80E00E94A20405C080E02A
:100BD0000E94EF040111C7CFEB2DE850FF0B3497B3
:100BE00020F40E94F0160E943204EE2089F00E9448
:100BF0000D0C80FD0DC0F60112820E94070C0E94B0
:100C00002F08C6010E9460070E94070C0E943F083F
:100C1000CDB7DEB7E9E00C942920112389F0F1105B
:100C200006C00E943B0C802B0E944305D5CF21E0DB
:100C3000F212F7CF0E943B0C802B0E94420CCCCFCB
:100C4000F11006C00E944F0C802F0E944A05C4CFAD
:100C500031E0F31609F2802F0E944A050E944F0CE2
:100C6000BBCF112331F085E08F1508F4B5CF802F6D
:100C7000DBCF94E09F1508F4AFCFE6CFFF2021F340
:100C8000D93349F4FFEF27EE33E0F15020403040F4
:100C9000E1F700C000008D2F0E94EF049DCF8C2F44
:100CA00086958695837069F0813009F095CF8D2FF8
:100CB0009C2F9370111102C080E090E00E944A17AF
:100CC0008BCF8D2F9C2F9370111102C080E090E08C
:100CD0000E94251781CF612F8D2F0E9498047CCF11
:100CE0008C2F8370A1F5111177CF4D2F429546952A
:100CF0004770440F440F2D2F2F7030E0042E02C098
:100D0000220F331F0A94E2F790E080E0D4FF09C07D
:100D10008FE090E002C0880F991F4A95E2F7809516
:100D20009095C695C695C370822B932BC23049F01F
:100D300058F4C13019F00E94FF074ECF0E94F60709
:100D40004BCF0E94080848CF0E94F30745CF8695F5
:100D5000112311F08C2F8170882309F43DCF4D2F82
:100D6000429546954770440F440F2D2F2F7030E069
:100D7000042E02C0220F331F0A94E2F790E080E0B5
:100D8000D4FF09C08FE090E002C0880F991F4A95F8
:100D9000E2F780959095C695C695C370822B932BEC
:100DA000C23049F058F4C13019F00E946A0814CFDB
:100DB0000E94610811CF0E9473080ECF0E9417088D
:100DC0000BCFCF70112329F08C2F0E942F088D2F6D
:100DD0002BCF8D2F0E944A058C2F0E943F08FCCEFE
:100DE000D23F51F160F4D03FB9F0D13F81F01123EF
:100DF00009F449C0F110A5CE8C2F8F7121C0D33FCB
:100E000011F1D43FA1F78091960282FD26C08C2F6C
:100E10008F71112311F314C0112349F084E08F1551
:100E200008F4DACE8C2F8F710E945108D5CE95E050
:100E30009F1508F4D1CEF6CF8C2F8F711111CDCF25
:100E40000E942F08C9CE112329F08C2F8F710E9488
:100E50002308C2CE0E941E08BFCE112349F0CF71D5
:100E60008C2F0E942F0863E08C2F0E949E0CB4CE22
:100E700081E00E94BC0CE1E0EF1508F0ADCE82E00D
:100E80000E94BC0CA9CEF110FBCE8C2F8F71A5CF88
:100E90000F931F93CF93DF93EC01688179818A814F
:100EA0000E9432098C010E947C080E94F207B8015E
:100EB000CE010E945105DF91CF911F910F910895AE
:100EC000CF93DF93EC018B819C81892B29F0888162
:100ED000998189238F3F51F4DF91CF910895CE01FD
:100EE0000E944807CE010E949003F6CFCE010E94D7
:100EF000BB038111F4CF0E94110C882369F38A810E
:100F0000882351F38091960282FFE6CF82E00E940F
:100F1000BC0CE2CF90E080E00E94251790E080E0DA
:100F20000E944A170E94380C0E94590C0E945513C7
:100F30000E94391308950E94000C0E948A070895A8
:100F40000E94280C0E949B07089592959F709630EE
:100F500091F058F4925F9F70923058F4803F19F0EE
:100F600030F4883E30F481E008959A5FF4CF843FF6
:100F7000D1F380E00895883EB0F3813FD1F7F3CFFD
:100F8000FC0183819481892B29F0808191818923BF
:100F90008F3F11F480E00895808191810E9427099C
:100FA0000E94A5070895A5E0B0E0E9EDF7E00C94F4
:100FB00014202596E2E00C943020A6E0B0E0E3EEA9
:100FC000F7E00C9414202696E2E00C94302008956B
:100FD0000E94E70708950E94E8079093C501809357
:100FE000C401089508950E94EB0708952091C4015B
:100FF0003091C501822B932B0E94EB07089520911D
:10100000C4013091C501822393230E94EB07089508
:101010002091C4013091C501822793270E94EB07DC
:1010200008950E94E70708950E94110808950E94FC
:1010300014089093C3018093C201089590E080E06A
:101040000E941708089521E030E0A90102C0440F72
:10105000551F8A95E2F7CA010E941708089521E0FA
:1010600030E002C0220F331F8A95E2F78091C2015F
:101070009091C301822B932B0E941708089521E0C1
:1010800030E002C0220F331F8A95E2F72095309599
:101090008091C2019091C301822393230E9417087B
:1010A000089521E030E002C0220F331F8A95E2F755
:1010B0008091C2019091C301822793270E94170853
:1010C00008952091C2013091C301822B932B0E947D
:1010D000170808952091C2013091C3018223932300
:1010E0000E94170808952091C2013091C301822700
:1010F00093270E94170808950895262F277091E0DE
:1011000001C0990F2A95EAF723E0769567952A950D
:10111000E1F7660F771F660F771FFA01E60FF71FDB
:1011200050E040E0682F70E08191DF0111979B0152
:10113000042E02C0369527950A94E2F72170219576
:101140002827292328272C934F5F5F4F44305105D0
:1011500059F70895A82FA77023E0969587952A95AB
:10116000E1F7880F991F880F991FFB01E80FF91FFE
:1011700050E040E080E0219130E00A2E02C0369538
:1011800027950A94E2F721703327042E01C0220F1D
:101190000A94EAF7822B4F5F5F4F4430510559F7AD
:1011A0000895262F953070F48F3060F4682F70E02A
:1011B0008FE0989F600D711D11244AE951E0822F44
:1011C0000E947D080895292F953068F48F3058F4D7
:1011D00090E06AE971E03FE0239F800D911D1124AA
:1011E0000E94AA08089580E00895B0E0A0E0EBEF27
:1011F000F8E00C940D207C010091C2011091C30114
:101200008091C4019091C501082B192BCFE0D0E04B
:10121000CC24C394D12CBC2EC6010C2E02C0880F46
:10122000991F0A94E2F780239123892B49F421978F
:1012300090F7B12C8B2DCDB7DEB7E9E00C942920C7
:10124000B7018C2F0E94620F019789F3F3CFCF93E0
:10125000DF93EC010E94F508BE010E94620FDF914E
:10126000CF9108951F93CF93DF93EB019091990154
:10127000992339F0CB010E942709DF91CF911F916B
:101280000895882369F0CB010E94F508182F682F74
:10129000CE010E94D108BE01812F0E94620FEDCFC6
:1012A000CB010E94E308182FF6CF1F93CF93DF9353
:1012B000C091C60116E08091C7018C1304C0DF9174
:1012C000CF911F910895D0E01C9FF0011D9FF00D5C
:1012D0001124E853FE4F40815181628173818481E2
:1012E00095810E94DD072196C770E5CF4091F801F6
:1012F0005091F9016091FA017091FB018091FC011C
:101300009091FD010E94DD0708951F93CF93DF9315
:101310008091FD01807F09F049C08091FA01882306
:1013200009F444C08091C601C091C7016091F801E1
:101330007091F901A091FB01B091FC01D62FD72348
:1013400016E0C81799F190E0109711F0DF3F19F4FB
:1013500001968770F6CF189F9001199F300D1124C8
:10136000F901E853FE4F41814713F2CF4081461304
:10137000EFCF42814111ECCF438154814A1B5B0B7B
:10138000483C510528F78091FD018F708061809362
:10139000FD01F901E353FE4F80818F7080618083EE
:1013A00088EF91E00E9460070E945509DF91CF917C
:1013B0001F910895A1E1B0E0E0EEF9E00C940C205B
:1013C0008C0185E0F801DE011D9601900D928A9551
:1013D000E1F7F801E28088EFC82E81E0D82E609115
:1013E000FB017091FC016115710509F44EC19091EA
:1013F000F8012091F901892F82238F3F09F445C11B
:1014000040815181A380B480F090FA01F501E61B80
:10141000F70BFF2009F4EAC08091FD01382F307FDF
:10142000E83CF10508F0A3C031116DC0FE2C251376
:1014300016C0941314C0E11012C08F7080618093A5
:10144000FD010E947609C6010E9460078091FD019E
:10145000F80185838F2D6196EAE00C942820A11471
:10146000B10429F0842F85238F3F09F027C180E044
:10147000F82FF170DF2E80FF3CC08091C6012091D3
:10148000C70136E0821315C04D875E878D859E8526
:101490000E942709292F22952F702230F0F0243046
:1014A00018F59F70F1F0F8019581907FD1F4D12C5F
:1014B0001EC090E0389FF001399FF00D1124E853D1
:1014C000FE4F6181651306C06081641303C06281B1
:1014D000E6120FC001968770D5CF9F7011F0882358
:1014E00031F3805E883018F3C8010E946007FD2C3C
:1014F000B1CFEE2009F4AECF8091FD0181608093E1
:10150000FD01F12CA7CF251306C0941304C0F801E8
:10151000EE2009F487C0C8010E94C007882319F192
:10152000EE2009F18091FD01803270F02091F801E8
:101530003091F90138872F831986BB86AA868C875C
:10154000CE0107960E94600786E0F801A8EFB1E09F
:1015500001900D928A95E1F70E9485090E94760913
:10156000FF24F39477CFC8010E946007F9CF3111AF
:1015700013C07A2DB98AA88A6E2D89890E94D30753
:1015800088EF91E00E94600786E0F60111928A954B
:10159000E9F70E947609B5CF25130FC094130DC04B
:1015A000E1100BC0F8018583C8010E94600786E046
:1015B000F60111928A95E9F74DCFC8010E94C00744
:1015C000882389F2EE2079F28091FD01803208F4BF
:1015D000BBCF2091F8013091F9013A8329831B8216
:1015E000BD82AC828E83CE010196ACCFE83CF10582
:1015F00008F03EC0FE2CEE2009F4B5CF25132AC01A
:10160000941328C08091FD0180FD1BC0982F907F0E
:10161000C1F0F8018583903F31F0982F907F905F63
:101620008F70892B8583C8010E94600786E0F801CE
:10163000A8EFB1E001900D928A95E1F70E9476093A
:1016400009CF86E0F801A8EFB1E001900D928A95EC
:10165000E1F700CFC8010E94C007811175CF8091CA
:10166000FD0181608093FD01C8010E946007F2CEF8
:101670007A2DB98AA88A6E2D89890E94D30786E0BF
:10168000F60111928A95E9F7D9CFEE2009F46BCFD4
:10169000C8010E94C007F82E882309F464CF86E0B1
:1016A000F801A8EFB1E001900D928A95E1F788EF7B
:1016B00091E00E9492040E948509C0CF81E08E25AE
:1016C000D7CEACE0B0E0E7E6FBE00C9413204F830C
:1016D000588769877A878B879C87CE0107960E94F7
:1016E000DA09882369F08A859B85892B39F04F8137
:1016F0005885842F85238F3F09F06BC016E05FC0AB
:1017000086E0FE013796DE01119601900D928A95D2
:10171000E1F78A859B85892B89F38F8198858923B9
:101720008F3F61F32091C70130E0C90101968770B6
:1017300099274091C6014817190671F40E94A00725
:101740001092C7011092C60186E0E8EFF1E0DF01D8
:101750001D928A95E9F7D2CF96E0929FD001939F90
:10176000B00D1124A853BE4FFE01319601900D9289
:101770009A95E1F78093C7010E945509BFCF819FD9
:10178000C001112488539E4F0E94DA098823E9F092
:10179000E091C6011E9FF0011124E853FE4F4081E5
:1017A000518162817381848195810E94DD078091DE
:1017B000C60190E00196877099278093C6018091B9
:1017C000C6019091C7018913DACF2C96E3E00C94FF
:1017D0002F2069857A858B859C850E94DD078ECFB9
:1017E000682F80910001909101010E9403180895D3
:1017F000682F80910001909101010E9411180895B5
:1018000080910001909101010E941F18089580911C
:101810001E02859585958595089580911E02877095
:10182000089590911E02977081E009F480E0089578
:1018300080914102089590914102892B8093410249
:1018400008958095909141029823909341020895C4
:1018500010924102089590914002892B809340029A
:1018600008958095909140029823909340020895A6
:1018700010924002089580911F02089508950E94D9
:101880003E0C08959091960292FF08C090911F021D
:10189000981721F080931F020E943F0C08958091B9
:1018A0001F02882329F010921F0280E00E943F0C43
:1018B0000895CF93DF93E0910001F09101018091B1
:1018C00041028083E0910001F091010180819091BB
:1018D0004002892B808390911F02992381F0E0912F
:1018E0000001F09101018081892B808380910001AA
:1018F000909101010E946F1781110E944F0CC091BD
:101900000001D091010140E250E06EEF71E0CE01A4
:101910000E944F20892B59F080E2FE01AEEFB1E02A
:1019200001900D928A95E1F7CE010E94FD16DF919C
:10193000CF91089508950E949A0C0895909196026F
:1019400092FF11C098E0899F90011124622B60934F
:101950001E020E942F0880911E028595859585950F
:101960000E949B0C08950E942F08089510921E0259
:1019700080E00E949B0C089590911E02809589231F
:1019800080931E02282F277091F4282F082E000C18
:10199000330B9217130659F09091960292FF07C0ED
:1019A0008595859585950E943F080E94B60C0895FF
:1019B0009091960292FB222720F9281769F080FB6C
:1019C00092F99093960280919502909196020E94CE
:1019D000200D82E00E94BC0C08958091960282FB4B
:1019E000882780F991E089270E94D80C089581E02A
:1019F0000E94D80C089580E00E94D80C08956FEFE3
:101A00007FEF90E080E00E949120089590E080E0D8
:101A10000E946D2021E0873E9E4F09F020E0822F3A
:101A2000089582E090E00E946520089583E090E0B0
:101A30000E946520089584E090E00E946D20089542
:101A4000BC0184E090E00E9491200895AB01BC01AC
:101A50008FE090E00E9485200895AB01BC0183E1F6
:101A600090E00E948520089560E070E0CB010E9424
:101A70002D0D089560E070E0CB010E94260D0E94BC
:101A8000340D089567EE7EEF90E080E00E94912093
:101A900060E082E090E00E94732060E083E090E0EC
:101AA0000E9473201092C5011092C40160E074E19D
:101AB00084E090E00E94912060E086E090E00E9447
:101AC00073206FEF87E090E00E94732040E050E0C9
:101AD000BA0188E090E00E94852060E08DE090E00F
:101AE0000E94732040E050E0BA0188E190E00E943B
:101AF000852060E087E190E00E94732040E050E0A4
:101B0000BA018CE190E00E94852070E060E080E204
:101B100090E00E94912040E050E0BA0188E190E01E
:101B20000E9485200E943A0D08950E94420D08955A
:101B3000682F8EE090E00E94732008950E94ED18B7
:101B40006093520270935302809354029093550213
:101B500060934E0270934F02809350029093510213
:101B60000895089508950E94B20D089508950E9461
:101B7000B60D08958CE490E10E94E6160E94B10D26
:101B80000E94B30D089581E008950E94C30D089549
:101B9000089508950E94C80D0E94C90D08950E94DD
:101BA00068100E94310408950E94D8180E944311C1
:101BB0000E94CF0D0E94B70D0895AAE0B0E0E3EEB9
:101BC000FDE00C9409200E94591124E4822E22E0A9
:101BD000922E640110E0F601E190F1906F01812FE7
:101BE0000E948E101F5F153009F449C0E816F906EF
:101BF00091F38091560281FD0E9497100E94C50DBD
:101C0000782E10E0812F0E948E107C01F401A190AB
:101C1000B1904F018A159B0561F1A826BF2400E011
:101C2000CC24C394D12CC5018C219D21892BC1F0DA
:101C30007720B1F00E831F8321E0C7018C219D2105
:101C4000892B09F420E028870E94E1188160782F11
:101C50009A8789874E815F8168858A850E945D04A5
:101C60000F5FCC0CDD1C0F30F1F6F4013297F182DE
:101C7000E0821F5F153031F60E949E0D22C0E816EB
:101C8000F90609F0B6CF0E94E1188C01809142025A
:101C90009091430208171907A1F08FEF89838A8377
:101CA0001B820E94E1188160782F9D838C8349817B
:101CB0005A816B818D810E945D04109343020093D1
:101CC00042020E9477130E9444042A96EDE00C948D
:101CD0002520CF93DF930E94670FEC01811520E54B
:101CE0009207D0F5811530E4930708F086C0803E56
:101CF000910518F58D3C910508F07DC0883A910555
:101D000070F4853A910508F06EC08130910501F1BB
:101D10000097F1F00497E0F4D0E0C0E019C0813CF6
:101D20009105D0F7C85AD0E0CC0FDD1FC85BDE4F5D
:101D30000990D881C02DD4640BC08115904208F061
:101D4000A8C0C11581E0D80718F4C83ED10520F716
:101D5000CE01DF91CF910895803622E5920710F5EC
:101D6000803432E5930708F052C08032924508F083
:101D700047C0C11582E5D80708F47DC02C2F2695F1
:101D8000269540E2249F900111248C2F8370C1E09E
:101D9000D0E002C0CC0FDD1F8A95E2F7C22BD32B17
:101DA000DD68D6CF803A22E5920760F4803832E5CC
:101DB000930708F441C0CF71D0E0DC2FCC27C46F6B
:101DC000D06AC6CF803C42E5940708F449C0C03EC3
:101DD00082E5D80708F0A0CFDC2FCC27CC27DF7115
:101DE000C06FD06AB5CFC55AD0E0C658DE4FC881A3
:101DF000D0E0D064ADCFD065ABCFDF70D06AA8CFD4
:101E0000CF71D0E0DC2FCC27C16FD06AA1CF282FB3
:101E100026952695277080E2289F900111248C2F0B
:101E20008370C1E0D0E002C0CC0FDD1F8A95E2F7DD
:101E3000C22BD32BDC688CCF282F269526952770B4
:101E400040E2249F900111248370C1E0D0E002C0E1
:101E5000CC0FDD1F8A95E2F7C22BD32BDA6878CF3F
:101E60008F710E940910C82FD0E0DC2FCC27CC271F
:101E7000DF71D0626DCF8C2F8F710E94091035E019
:101E8000D695C7953A95E1F7CF709C2FEC01D069B4
:101E90005FCF8D2F8F710E94091090E0982F8827B7
:101EA00088279F719C012C2BE901E3CF462F7530C9
:101EB00030F46F3020F4672F0E944C03089590E0B7
:101EC00080E008950E94560F0E94690E089582389E
:101ED0009105B9F1B0F48133910509F47DC048F45E
:101EE0008932910509F46DC08A32910509F47BC0ED
:101EF00008958533910509F45FC08933910509F18F
:101F00000895833E9105D9F138F4803E910529F179
:101F1000823E910579F10895863E9105D9F1873E7B
:101F2000910509F43EC0843E910541F52091960249
:101F300021FF24C08091950284FD19C087EE90E0B6
:101F4000089520919502237009F05AC020919602BD
:101F500023FF14C089E290E008952091950220FDAE
:101F600038C03091960230FF09C024FF43C090E092
:101F700080E008952091950222FDF7CF08952091E9
:101F8000950222FD3AC03091960230FD39C024FFFF
:101F9000F5CFEDCF2091950223FFF0CF24FDE7CFC1
:101FA000CDCF2091950223FD2EC03091960231FFB6
:101FB000EECF84EE90E008952091950225FFDECFCC
:101FC000C9CF2091950225FD21C02091960223FFC3
:101FD000D5CF89E390E0D2CF2091950226FFCECFD6
:101FE0008AE290E008952091950226FFC7CF81E311
:101FF00090E0089583EE90E0089582EE90E00895D9
:1020000080EE90E0089586EE90E0089585E390E0FC
:1020100008959091950292FF06C0282F28712830CC
:10202000F9F4877F846093FF06C0282F2871283138
:10203000F1F4877E84612091960220FF06C0382F3C
:1020400038713830D9F4877F816021FF06C0282F8E
:1020500028712831D1F4877E816194FD877E0895AF
:10206000282F24712430F9F68B7F8860DCCF282F4D
:102070002471243101F78B7E8861DDCF382F3171D7
:10208000313019F78E7F8860E0CF282F2171213100
:1020900021F78E7E8861E1CF80E008950E94FF0CD9
:1020A00008950E9459118FE39CE90197F1F700C050
:1020B00000000E94591180E00E948E1080FF04C031
:1020C0000E944E100E942C1908950E9451100895EC
:1020D0000E94060D811102C00E94950D0E94110DF3
:1020E000809356020E941B0D909396028093950256
:1020F0000E9465100E94160D90E00E94F3078091E7
:10210000C2019091C3010E941408089508950E948D
:102110008610089508950E948A100895E82FF0E02F
:10212000EE0FFF1FEF55FD4F8081918108950895B7
:1021300080EA8A95F1F7089500C008950E949810EA
:102140000895F894E82FE295EF70F0E031A1282F80
:102150002F7081E090E001C0880F2A95EAF7982F50
:102160009095932391A392A1892B82A378940895AB
:10217000CF93DF93CCE8D1E089918F3F11F00E949B
:10218000A11081E0C139D807B9F7CDE7D1E0899135
:102190008F3F11F00E94A11081E0CC38D807B9F729
:1021A000DF91CF910895AF92BF92DF92EF92FF92AD
:1021B0000F931F93CF93DF938C01D62EC62FD0E0C1
:1021C000CE0184579E4F7C01FC0120812F3F09F4F2
:1021D0004DC0F894E22FE295EF70F0E031A12F703E
:1021E00081E090E001C0880F2A95EAF7932F982BA1
:1021F00091A392A18095892382A378940E949C1038
:10220000EDE7F1E04CE851E021E030E0B12CA12C09
:1022100061916F3FA9F1A62FA295AF70B0E09096A3
:102220008C9190E06F7002C0959587956A95E2F762
:1022300080FD26C0C901A82AB92A220F331F4E17D4
:102240005F0731F7F70180818F3F11F00E94A110E5
:1022500061E0A114B10409F460E08D2D0E949E108C
:10226000CC0FDD1FC00FD11FB982A882DF91CF91A3
:102270001F910F91FF90EF90DF90BF90AF90089566
:1022800090E080E0D8CF0E94B8108AE0E1EAF2E066
:10229000DF01982F1D929A95E9F7E7E9F2E0DF0157
:1022A0001D928A95E9F785E00E9494110E949C0393
:1022B0000895AAE0B0E0EFE5F1E10C9411208E0161
:1022C0000F5F1F4F8AE0F80111928A95E9F7F12C10
:1022D0006F2DC8010E94D310F394F5E0FF12F8CFE0
:1022E0004AE050E0B80187E992E00E944F2021E0E7
:1022F000009709F420E0892B41F08AE0F801A7E972
:10230000B2E001900D928A95E1F745E061EA72E052
:1023100087E992E00E949511182F0E949F03812F58
:102320002A96E5E00C942D200895CF92DF92EF924B
:10233000FF921F93CF93DF936C017B01C42F222365
:1023400049F081E0809359020E94E118909358026D
:10235000809357021091590211110AC010E0812F89
:10236000DF91CF911F91FF90EF90DF90CF90089574
:1023700080915702909158020E94F918059770F3C6
:10238000D0E0CC0FDD1FAE01B601C7010E944F2087
:10239000892B41F0AE01B601C7010E945C2010926A
:1023A0005902DDCF10E0FBCF0E94C51A0E94D40D68
:1023B0000E94D21A08950E94D71A0E94DD0D0E9431
:1023C000F11A08950E947A180E94AB1A0E94BA0D61
:1023D0000E94D4110E94DB110E94CA0DFBCF809194
:1023E000600280FF0DC06091070170E0660F771FEB
:1023F0006038710570F56115710569F1862F0895D2
:1024000081FF07C06091070184E0689FB00111243B
:10241000EFCF6091070182FD0AC080915F0288239F
:10242000A9F02091060160910701821710F088E061
:10243000ECCF869FC001112433E0880F991F3A9595
:10244000E1F7622F70E00E94EA1FD2CF68E070E0EF
:10245000D5CF8FE7089581E008958091600280FFD5
:102460000CC06091030170E075956795759567954F
:102470006115710549F1862F089581FF06C06091AD
:10248000030170E075956795F3CF6091030182FDBC
:102490000BC090915E029923A1F06091020180919E
:1024A0000301961738F0682F70E06038710500F36B
:1024B0008FE70895899FC001112470E00E94EA1FF0
:1024C000F4CF61E070E0D7CF81E008958D3C31F426
:1024D0000E94EF1181958093640208958E3C19F457
:1024E0000E94EF11F8CF8F3C31F40E94EF118195DB
:1024F000809363020895803D19F40E94EF11F8CF94
:10250000893D29F40E942D128093650208958A3D29
:1025100021F40E942D128195F7CF8B3D31F40E945A
:102520002D1281958093660208958C3D19F40E94C6
:102530002D12F8CF9FE2980F983070F4815D990BBF
:1025400021E030E001C0220F8A95EAF78091620213
:10255000822B8093620208958D3D31F48091600258
:1025600081608093600208958E3D21F48091600225
:102570008260F7CF8F3DB9F7809160028460F1CF20
:10258000409163028D3C59F48091640287FF0DC035
:102590001092640241110BC010925F0208C08E3C81
:1025A00081F48091640218169CF3442381F0809199
:1025B000650290916602892B09F05AC010925E0262
:1025C00008958F3C49F447FFF0CF10926302809149
:1025D00064028111ECCFE0CF803D19F41416ACF306
:1025E000E4CF90916502893D29F41916F4F6109212
:1025F0006502DBCF8A3D19F497FFD7CFF8CF9091D2
:1026000066028B3D29F497FFD0CF10926602CDCFA2
:102610008C3D19F41916CCF3C8CF9FE2980F98306F
:1026200090F4815D990B21E030E0B90102C0660FA2
:10263000771F8A95E2F7CB018095909162028923FA
:1026400080936202B2CF8D3D31F4809160028E7F23
:1026500080936002AACF8E3D21F4809160028D7F2D
:10266000F7CF8F3D09F0A1CF809160028B7FF0CF33
:1026700008950E94E1189C01909163028091640288
:10268000982B21F030935D0220935C0290916502BB
:1026900080916602982B21F030935B0220935A02BE
:1026A00081E692E00E941717089586E0E1E6F2E0E5
:1026B000DF011D928A95E9F710925F0210925E0287
:1026C000109260020895FC01828181110EC0838105
:1026D00081110BC08481811108C091E08581811135
:1026E00001C090E0892F8170089581E0FCCFA6E0C1
:1026F000B0E0EDE7F3E10C94132086E0E1E6F2E0D0
:10270000DE01119601900D928A95E1F71092630215
:102710001092640210926502109266028B819C8175
:10272000892B89F080915C0290915D020E94F918DA
:10273000AC0190915F029923C9F18091080184173F
:10274000150608F440C08D819E81892B91F08091FF
:102750005A0290915B020E94F918AC0190915E02BE
:10276000992309F471C0809104018417150608F4B7
:1027700079C0BE016F5F7F4F81E692E00E94311801
:10278000811105C081E692E00E94631381110E94CD
:10279000391386E0FE013196A1E6B2E001900D9278
:1027A0008A95E1F72696E3E00C942F202091090109
:1027B0008AE0289F900111242417350720F69F5F97
:1027C00090935F0202C09F3FD1F71B81112359F004
:1027D0000E94EF119FEF11160CF491E0899F802D5C
:1027E0001124809363021C81112359F00E94EF1180
:1027F0009FEF11160CF491E0899F802D1124809396
:10280000640230916302332309F49DCF2091640266
:10281000222309F498CF45EB3403C00111249923F6
:1028200059F09093630245EB240390011124332364
:1028300039F03093640287CF81E080936302F3CF55
:1028400081E0809364027FCF209105018AE0289F78
:10285000900111242417350708F08BCF9F5F9093C8
:102860005E0202C09F3FD1F71D81112359F00E94E3
:102870002D129FEF11160CF491E0899F802D1124E9
:10288000809365021E81112359F00E942D129FEF43
:1028900011160CF491E0899F802D1124809366021B
:1028A00030916502332309F464CF2091660222231C
:1028B00009F45FCF45EB3403C0011124992359F08B
:1028C0009093650245EB240390011124332339F0E2
:1028D000309366024ECF81E080936502F3CF81E0B2
:1028E0008093660246CFCF93DF93EC01FB01828198
:1028F000882309F4D2C09E0130572332310508F0F5
:10290000B2C00E941B0D9093960280939502FE0127
:10291000E150F047E232F10520F4EB54FF4D0C9406
:10292000FE1F8091950281608093950293C08091F3
:1029300096028860809396028DC080919502826095
:10294000F3CF809195028460EFCF809195028860EB
:10295000EBCF809196028160EDCF809196028260EC
:10296000E9CF809195028061DFCF809195028062EE
:10297000DBCF809195028064D7CF0E94A007809121
:1029800095028068D1CF809195028C60CDCF8091E7
:1029900096028360CFCF809195028E7FC5CF8091C4
:1029A0009602877FC7CF809195028D7FBDCF8091A2
:1029B00095028B7FB9CF80919502877FB5CF8091AB
:1029C00096028E7FB7CF809196028D7FB3CF809194
:1029D00095028F7EA9CF809195028F7DA5CF8091A2
:1029E00095028F7BA1CF0E94A007809195028F77DF
:1029F0009BCF80919502837F97CF809196028C7FA9
:102A000099CF8091950282FB992790F921E0922736
:102A100090FB82F990FB83F987CF80919602982FE3
:102A2000909591708E7F892B90FB81F983CF909147
:102A30009502892F8F7B96FF806476CF0E94A00736
:102A400090919502892F97FB87F980586DCF81E08F
:102A50000E94980D80919502909196020E94200DFF
:102A60000E94A00780E0DF91CF91089580E0F0CF31
:102A700090919502892F8F7E94FF806155CF909120
:102A80009502892F8E7F90FF81604ECF90919602A4
:102A9000892F877F93FF88604DCF81E0E4CFB0E03E
:102AA000A0E0E5E5F5E10C940F20E82FF0E0E35518
:102AB000FC4FD490282F26952695269530E0F901D5
:102AC000E35BFB4F0491877010E0082E02C0159560
:102AD00007950A94E2F701701127F901E35CFB4FB7
:102AE000E490F12C082E02C0F594E7940A94E2F7E2
:102AF00091E0E922FF24F901E35DFB4FC491D0E0AE
:102B000002C0D595C7958A95E2F7C170DD270115FA
:102B1000110519F081EE0E94A204E114F10419F0EC
:102B200086EE0E94A2048D2D0E943A05E114F10464
:102B300019F086EE0E94EF040115110519F081EEDF
:102B40000E94EF04CD2B19F08CE20E943A05CDB71C
:102B5000DEB7E7E00C942B20EF92FF920F931F93C8
:102B6000CF93DF938C01F62E8AE0E82EF801849152
:102B7000882309F454C0813009F04DC0E801219642
:102B8000FE018491813091F42196FE0184910E948E
:102B90003A058E010F5F1F4F8F2D815038F3EFE9FB
:102BA000FFE03197F1F700C00000F7CF823039F431
:102BB000E8012296FE0184910E94A204EACF8330AC
:102BC00039F4E8012296FE0184910E94EF04E1CFDE
:102BD0008430F9F6E8012296FE01249190E080E02D
:102BE000FE0131962053330B2A30310548F001970E
:102BF00080F2EFE9FFE03197F1F700C00000F7CF76
:102C0000E89EA001E99E500D1124C901840F951F73
:102C10002491EF01E5CF0E944F15E801BACFCDB75F
:102C2000DEB7E6E00C942C20CF93DF93EB018631E6
:102C30009C4711F50E94180C9A81992399F08A7A81
:102C400091E009F490E090936702811109C089E254
:102C50000E94F00B0E94590C80E0DF91CF91089503
:102C600085E3F6CF80916702811104C089E20E945A
:102C7000F80BF0CF85E3FBCF81E0EFCF0F931F93ED
:102C8000CF93DF93C42FD22FFC0182818823C9F018
:102C900040936A020E94E11890936902809368024F
:102CA00080E28C0F883040F4C77081E001C0880F4B
:102CB000CA95EAF70E944305DF91CF911F910F91CA
:102CC000089510916A02141332C0809168029091A5
:102CD00069020E94F918883C910548F5C0E2CD0FC1
:102CE0001D17B9F080E2810F883040F4177081E041
:102CF00001C0880F1A95EAF70E944A05C83048F4C7
:102D000081E09D2F977001C0880F9A95EAF70E9485
:102D10004305802F0E943A05C83070F6D77081E0D5
:102D200001C0880FDA95EAF70E944A05C5CF80E214
:102D30008C0F883008F6C77081E001C0880FCA95F3
:102D4000EAF7F2CF0F93DB0188519C47873091055A
:102D5000A0F5FC01E952FF4D0C94FE1F06E221EEA6
:102D600041EE6AE17CE7CD010E943E1680E00F91C2
:102D7000089507E225EE45EE6BE17CE7F4CF06E22D
:102D800021EE40EE68E17CE7EECF07E225EE44EE6F
:102D900069E17CE7E8CF06E221EE42EE6CE17CE7F8
:102DA000E2CF07E225EE46EE6DE17CE7DCCF08E2FC
:102DB00021E045EE6EE17CE7D6CF12968C91882318
:102DC00019F010926A02D3CF81E0D1CF9093930192
:102DD0008093920108959093700280936F020895FA
:102DE000E0916F02F0917002309729F00190F0812C
:102DF000E02D0995089580E00895E0916F02F0912B
:102E00007002309799F020911201222359F02091FD
:102E1000950227FF07C0DC012C9111962C93119786
:102E200026E02C930280F381E02D09950895E0912E
:102E30006F02F0917002309739F022E0DC012C93A0
:102E40000480F581E02D09950895A3E0B0E0EBE260
:102E5000F7E10C94142020916D0230916E02281736
:102E60003907A1F090936E0280936D02E0916F029A
:102E7000F0917002309751F023E029839B838A837D
:102E80000680F781E02DCE01019609952396E2E0B8
:102E90000C943020A3E0B0E0E0E5F7E10C941420BE
:102EA00020916B0230916C0228173907A1F09093A2
:102EB0006C0280936B02E0916F02F0917002309788
:102EC00051F024E029839B838A830680F781E02DDB
:102ED000CE01019609952396E2E00C943020FC0186
:102EE000329680911201882321F0809195029EE113
:102EF00087FF96E080E0915008F408952191222305
:102F0000D1F38F5FF8CF662301F1209112012223C4
:102F1000F1F02091950227FF1AC0462F469546955D
:102F200046954E3190F4677021E030E002C0220FE8
:102F3000331F6A95E2F7840F911DFC01828190E0B6
:102F40002823392381E0232B69F480E00895FC01D4
:102F5000329608962191261721F0E817F907D1F744
:102F6000F4CF81E008959C01FC0132969FEF80E050
:102F70004191461751F09F3F19F4411101C0982F1C
:102F80008F5F8630A9F79F3F09F40895290F311DFF
:102F900097FD3A95F90162830895FC0132960896EF
:102FA0002191261303C0DF0111971C92E817F9073E
:102FB000B9F70895E62FE695E695E695EE3168F4C3
:102FC000E80FF92FF11D677021E030E001C0220FFA
:102FD0006A95EAF78281822B82830895E62FE6952F
:102FE000E695E695EE3170F4E80FF92FF11D677064
:102FF00021E030E001C0220F6A95EAF72095828136
:1030000028232283089520911201222339F0209150
:10301000950227FF03C00E94DA1708950E94B31794
:10302000089520911201222339F02091950227FF63
:1030300003C00E94EE1708950E94CD170895FC0169
:10304000329680911201882351F08091950287FF7A
:1030500006C08EE1DF011D928A95E9F7089586E0AA
:10306000F9CF46E050E00E944F2021E0892B09F47F
:1030700020E0822F089508950E943B180895811141
:1030800006C081E0809371020E943C18089582E09E
:10309000F9CF83E0809371020E943C1808950E944A
:1030A0003F18089581E0809371020E943C180895B2
:1030B0000E9452180895089508950E945C1808957A
:1030C000089508950E945B180895CF930E94601898
:1030D0000E9459110E946118C0E08C2F0E948E102E
:1030E000892B31F4CF5FC530C1F780E0CF910895CF
:1030F00081E0FCCF85B7806885BF85B7806885BFD4
:1031000008951F921FB61F9211248F939F93AF9320
:10311000BF9380917202811113C08091AB02909194
:10312000AC02A091AD02B091AE024196A11DB11DBD
:103130008093AB029093AC02A093AD02B093AE0229
:10314000BF91AF919F918F911F901FBE1F901895B7
:103150008091B302843031F10E9411041092720206
:1031600088E190E020E40FB6F894A8958093600081
:103170000FBE2093600083B7817F846083BF83B7D5
:10318000816083BF7894889583B78E7F83BF0FB6A5
:10319000F894A895809160008861809360001092F7
:1031A00060000FBE08950E94A0070E9416040895B3
:1031B00082E084BD93E095BD9AEF97BD80936E0049
:1031C00008952FB7F8948091AB029091AC02A09132
:1031D000AD02B091AE022FBF08952FB7F894609161
:1031E000AB027091AC028091AD029091AE022FBF04
:1031F00008959C014FB7F8948091AB029091AC0276
:10320000A091AD02B091AE024FBF821B930B089507
:1032100078941F921FB61F9211248F939F93AF93A0
:10322000BF938091AB029091AC02A091AD02B0919E
:10323000AE020196A11DB11D8093AB029093AC022A
:10324000A093AD02B093AE02BF91AF919F918F91C9
:103250001F901FBE1F90189581E08093E00080E2D0
:103260008093D8001092C9008FE19EE40197F1F796
:1032700000C0000087E090EBDC018093BC029093DB
:10328000BD02A093BE02B093BF0288E19CE00FB6DE
:10329000F894A895809360000FBE90936000FFCFD4
:1032A00088E19CE00FB6F894A895809360000FBE6B
:1032B00090936000FFCF8091930208959B01BA0123
:1032C0009091B3029430E9F48F708093E9009FEFFE
:1032D0008091E800915085FD06C085ED8A95F1F753
:1032E00000009111F5CF8091E80085FF0AC050E001
:1032F00040E0C9010E94631B8091E8008E778093B3
:10330000E800089543E050E0BC0182E00E945E19AD
:10331000089546E050E0BC0182E00E945E190895E5
:10332000CF93DF93EC0180911201811111C048E02D
:1033300050E0BE0181E00E945E1980E2FE01A3E739
:10334000B2E001900D928A95E1F7DF91CF91089557
:103350008091950287FF05C040E282E050E0BE0107
:10336000EACF48E081E0FACF8091B202811109C032
:103370000E94F31C0E94501D8091E20084608093A3
:10338000E20008951092B20208950E945218089522
:103390006091AF0281E0611101C080E00E94491894
:1033A00008959091B30281E0943009F080E060913B
:1033B000AF020E944F18089542E061EC81E00E9444
:1033C0006F1C42E261EC82E00E946F1C9091B3029C
:1033D00081E0943009F080E06091AF020E943F18D4
:1033E00008958091B502833009F461C030F48130D2
:1033F000D1F1823009F49EC008958A3009F48AC060
:103400008B3009F46FC0893009F050C08091B4024C
:10341000813209F04BC08091B8029091B9020297B5
:1034200008F044C08091E800877F8093E800809195
:10343000E80082FF37C09091F3008091F20002977C
:1034400031F48091F100813011F0863021F48091C7
:10345000F100809393028091E8008B778093E800DD
:103460000E94A31C23C08091B402813AF9F4809198
:10347000E800877F8093E8008091B8029091B902BC
:10348000892B61F460E283E792E070E00E94B21B56
:103490008091E8008B778093E800089560E090E0E9
:1034A00080E0F3CF8091B3028111C1CF0895809164
:1034B000B402813AD9F78091B8029091B902892B70
:1034C000A9F78091E800877F8093E8008091E80069
:1034D00080FFFCCF809112018093F1008091E80081
:1034E0008E77BCCF8091B402813201F78091B8020F
:1034F0009091B902892BD1F68091E800877F809363
:10350000E8000E94A31C8091B602809312010E94E1
:10351000A00708958091B402813241F68091E800BD
:10352000877F8093E8000E94A31C8091B70280935C
:10353000940208958091B402813A09F0B7CF809146
:10354000E800877F8093E8008091E80080FFFCCF4F
:1035500080919402C1CF84B7877F84BF0FB6F8945F
:10356000A89580916000886180936000109260004F
:103570000FBE80E890E00FB6F894809361009093BE
:1035800061000FBE0E94581808950E94F31C0E940B
:10359000501DE2EEF0E080818460808378940E9488
:1035A000CF1F08958AE091E00E94EB160895809164
:1035B000B302853031F48091B302853019F00E9456
:1035C000D31808950E94A8188091B102882399F316
:1035D0000E946518882379F30E944D1B0E94A00762
:1035E000EACF08950E94F51A0895292F3327233032
:1035F000310519F168F42130310509F444C0223055
:10360000310509F445C090E080E030E020E025C0BD
:103610002132310549F122323105A9F780E490E0E9
:1036200020E935E061157105C1F086EB90E02AEDE7
:1036300034E06130710589F0E6CF9927813091053A
:1036400081F0009729F00297F1F6EDE5F4E002C071
:10365000E9E8F4E0849190E09F01FA01318320834E
:103660000895EDE6F4E0F6CF89E090E02FE934E04C
:103670006115710591F389E090E028EB34E0613049
:10368000710559F3C0CF82E190E028EC34E0E5CF3A
:103690008BE390E02DE834E0E0CF80E189BD82E16A
:1036A00089BD09B400FEFDCF8091D8008F7D809345
:1036B000D8008091E00082608093E0008091E0007B
:1036C00081FDFCCF0895AF92BF92CF92DF92FF921F
:1036D0000F931F93CF93DF936C01EB018A010E943C
:1036E000C21CF82E811123C00115110539F0F80113
:1036F00080819181C81BD90BC80ED91EB12CA12C79
:103700002097A9F08091E80085FD22C08091E80013
:103710008E778093E80001151105A1F0F8018081F2
:103720009181A80EB91EB182A08285E0F82E8F2D5E
:10373000DF91CF911F910F91FF90DF90CF90BF90BD
:10374000AF9008950E94C21C8823D1F2F82EEFCFCB
:10375000F60181916F018093F1002197FFEFAF1A7D
:10376000BF0ACECFFC018091BA029091BB028617AE
:103770009707A0F06115710529F49091E8009E77F4
:103780009093E80090E06115710551F4911108C023
:103790008091E80082FF34C080E00895BC01F2CF40
:1037A0008091B3028823C1F18530C1F18091E80096
:1037B00083FD30C08091E80082FDEACF8091E8006F
:1037C00080FFE1CF8091F3002091F200382F611546
:1037D000710519F02830310558F091E02830310595
:1037E00009F090E02091E8002E772093E800CBCFFD
:1037F00081918093F100615071092F5F3F4FE7CFB6
:103800008091B302882341F0853041F08091E80037
:1038100083FFBECF81E0089582E0089583E008959C
:10382000FC018091BA029091BB0286179707A0F025
:103830006115710529F48091E8008E778093E80086
:1038400090E06115710551F4911108C08091E80074
:1038500082FF35C080E00895BC01F2CF8091B302B1
:103860008823C9F18530C9F18091E80083FD31C01A
:103870008091E80082FDEACF8091E80080FFE1CFEF
:103880008091F3002091F200382F6115710519F035
:103890002830310558F091E02830310509F090E0EA
:1038A0008091E8008E778093E800CBCF849180935D
:1038B000F1003196615071092F5F3F4FE6CF809143
:1038C000B302882341F0853041F08091E80083FF06
:1038D000BDCF81E0089582E0089583E00895982F98
:1038E000973028F08F708093E90081E008959093DD
:1038F000E900242F762F50E0981731F07091EC00FA
:103900002091ED005091F00021FD02C09F5FE8CFB3
:103910003091EB003E7F3093EB003091ED003D7F26
:103920003093ED003091EB0031603093EB007093F9
:10393000EC002093ED005093F0002091EE0027FD65
:10394000E5CF80E008958091B40287FF13C0809195
:10395000E80082FF06C08091E8008B778093E80042
:1039600004C08091B3028111F2CF08958091B30217
:103970008823D9F38091E80080FFF8CF8091E80098
:103980008E77ECCF2091E4003091E50095E6A90117
:103990002091EC00822F817020FF06C08091E8000A
:1039A00080FF06C080E008952091E80022FD1AC043
:1039B0008091B302882389F0853089F08091EB00F3
:1039C00085FD0FC02091E4003091E50042175307B8
:1039D000F9F29150E1F684E0089582E0089583E0E1
:1039E000089581E008950E94621D0E946A1DE0EE24
:1039F000F0E0808181608083E8EDF0E080818F7766
:103A0000808319BCA7EDB0E08C918E7F8C93808170
:103A10008F7E80831092B20208950F931F93CF93ED
:103A2000DF930E94621D0E946A1DC8EDD0E088816C
:103A30008F77888388818068888388818F7D888359
:103A400019BC1092B3021092AF021092B102109200
:103A5000B00200EE10E0F80180818B7F80838881C6
:103A60008160888342E060E080E00E946F1CE1EEAC
:103A7000F0E080818E7F8083E2EEF0E080818160E3
:103A80008083808188608083F80180818E7F80833D
:103A9000888180618883DF91CF911F910F91089574
:103AA000E8EDF0E080818F7E8083E7EDF0E08081BB
:103AB0008160808384E082BF81E08093B2020E94B3
:103AC0000D1D0895E8EDF0E080818E7F80831092D7
:103AD000E20008951092DA001092E10008951F921A
:103AE0000F920FB60F9211242F933F934F935F9332
:103AF0006F937F938F939F93AF93BF93EF93FF93B6
:103B00008091E10082FF0BC08091E20082FF07C03C
:103B10008091E1008B7F8093E1000E94CE1F809115
:103B2000DA0080FF19C08091D80080FF15C0809115
:103B3000DA008E7F8093DA008091D90080FF96C0F2
:103B400080E189BD82E189BD09B400FEFDCF81E03D
:103B50008093B3020E94B4198091E10080FF19C0E4
:103B60008091E20080FF15C08091E2008E7F8093FB
:103B7000E2008091E20080618093E2008091D800B1
:103B800080628093D80019BC85E08093B3020E94C4
:103B9000C8198091E10084FF2BC08091E20084FF6E
:103BA00027C080E189BD82E189BD89B5982F9170D8
:103BB00080FFFBCF8091D8008F7D8093D8008091CB
:103BC000E1008F7E8093E1008091E2008F7E809300
:103BD000E2008091E20081608093E2008091AF0278
:103BE000882309F449C084E08093B3020E94D1196C
:103BF0008091E10083FF29C08091E20083FF25C00E
:103C00008091E100877F8093E10082E08093B3029E
:103C10001092AF028091E1008E7F8093E10080914D
:103C2000E2008E7F8093E2008091E20080618093C9
:103C3000E20042E060E080E00E946F1C8091F000B2
:103C400088608093F0000E94C519FF91EF91BF91A9
:103C5000AF919F918F917F916F915F914F913F9124
:103C60002F910F900FBE0F901F90189519BC1092B6
:103C7000B3020E94C21970CF8091E30087FD93E0E8
:103C80009093B302B3CF1F920F920FB60F921124ED
:103C90002F933F934F935F936F937F938F939F9354
:103CA000AF93BF93CF93DF93EF93FF93D091E9004E
:103CB000DF708091EC00C82FC17080FDC0E81092C9
:103CC000E9008091F000877F8093F00078940E9453
:103CD000871E1092E9008091F00088608093F000C8
:103CE000CD2BCF70C093E900FF91EF91DF91CF9181
:103CF000BF91AF919F918F917F916F915F914F9104
:103D00003F912F910F900FBE0F901F901895AAE230
:103D1000B0E0EDE8FEE10C94132084EB92E02091FA
:103D2000F100FC012193CF01F2E08C3B9F07B9F732
:103D30000E94F1198091E80083FF1EC18091B402B6
:103D40009091B5029A3008F017C1E92FF0E0E252E5
:103D5000FF4D0C94FE1F803899F0823809F00CC199
:103D60008091B8028F70873008F006C18093E90017
:103D70008091EB0085FB882780F91092E90006C04E
:103D80008091B0029091B102911182609091E8000F
:103D9000977F9093E8008093F1001092F10080915A
:103DA000E8008E77E5C0882309F4D3C0823009F09B
:103DB000E3C08091B6028111D6C08091B8028F70A5
:103DC0002FEF280F263008F0D7C08093E90020910C
:103DD000EB0020FFC8C0933031F48091EB0080628B
:103DE0008093EB00C0C09091EB0090619093EB004A
:103DF00021E030E001C0220F8A95EAF72093EA0023
:103E00001092EA008091EB008860EACF8111B4C083
:103E10001091B6021F778091E3008078812B809308
:103E2000E3008091E800877F8093E8000E94A31C54
:103E30008091E80080FFFCCF8091E3008068809350
:103E4000E30082E0111183E08093B30295C08058B3
:103E5000823008F091C08091B6029091B7028C3DFB
:103E600023E09207A1F583E08A838AE289834FB732
:103E7000F894DE01139620E03EE051E2E32FF0E0FB
:103E800050935700E49120FF03C0E295EF703F5F2D
:103E9000EF708E2F90E0EA30C0F0C7968D939D931F
:103EA0002F5F243159F74FBF8091E800877F8093BF
:103EB000E8006AE270E0CE0101960E94B21B809198
:103EC000E8008B778093E80057C0C096E7CF6091F9
:103ED000B8027091B902AE014F5F5F4F0E94F21AB3
:103EE000BC01892B09F448C09091E800977F90931A
:103EF000E80089819A810E94101CE1CF8038E1F5A9
:103F00008091E800877F8093E8008091AF028093E2
:103F1000F10045CF811130C09091B602923060F52A
:103F20008091E800877F8093E8009093AF020E9421
:103F3000A31C8091AF02882311F084E005C080911A
:103F4000E30087FDFACF81E08093B3020E94DC1981
:103F500013C08091B602813079F481E0933009F08A
:103F600080E08093B1021092E9008091E800877FA1
:103F70008093E8000E94A31C8091E80083FF0AC0A0
:103F80008091E800877F8093E8008091EB00806259
:103F90008093EB00AA96E3E00C942F200895CF9332
:103FA0008091B3028823A1F0C091E900CF70909175
:103FB000EC00892F817090FD80E8C82B1092E900F9
:103FC0008091E80083FD0E94871ECF70C093E900B6
:103FD000CF91089597FB072E16F4009407D077FD34
:103FE00009D00E943B2007FC05D03EF490958195B6
:103FF0009F4F0895709561957F4F0895EE0FFF1FB5
:104000000590F491E02D09942F923F924F925F9288
:104010006F927F928F929F92AF92BF92CF92DF92D8
:10402000EF92FF920F931F93CF93DF93CDB7DEB73D
:10403000CA1BDB0B0FB6F894DEBF0FBECDBF0994D1
:104040002A88398848885F846E847D848C849B8428
:10405000AA84B984C884DF80EE80FD800C811B8136
:10406000AA81B981CE0FD11D0FB6F894DEBF0FBE65
:10407000CDBFED010895AA1BBB1B51E107C0AA1FCC
:10408000BB1FA617B70710F0A61BB70B881F991FF9
:104090005A95A9F780959095BC01CD010895FB0133
:1040A000DC0104C08D910190801921F441505040F1
:1040B000C8F7881B990B0895FB01DC0102C0019031
:1040C0000D9241505040D8F70895F999FECF92BD16
:1040D00081BDF89A992780B50895A8E1B0E042E043
:1040E00050E00C949920262FF999FECF92BD81BD06
:1040F000F89A019700B4021639F01FBA20BD0FB626
:10410000F894FA9AF99A0FBE08950396272F0E9401
:1041100074200E947320252F0E947420242F0C9459
:1041200074200196272F0E9474200C947320DC01C8
:10413000CB01FC01F999FECF06C0F2BDE1BDF89AB2
:10414000319600B40D9241505040B8F70895F8945C
:10415000FFCF8C058C05BD05BD054F066B06EC0534
:10416000EC057006E106F006F006CB143F15D314FB
:104170009D14A114D714A514DB14E714B114381539
:10418000B514EB14B914EF141715BD14F3141E1560
:10419000C314F9140115A914DF14AD14E314C714E2
:1041A000FD140D15271536159714CF144615BF1697
:1041B000C516AE16B916CB16D116D716AB1ED31E22
:1041C000BC1FD31EBC1F061F271FBC1F7E1F8A1FBC
:1041D0002002280850011E0A14015B199019891940
:1041E000821901E200E900EA00B500B600B700CD8F
:1041F000008301CC008A0192019401210223022450
:10420000022502260227022A02B300B4006F0070C2
:10421000009F01CB01818283E200E900EA00B50042
:10422000B600B700CD008301CC008A019201940151
:104230002102230224022502260227022A02B300B9
:10424000B4006F0070009F01CB0181828335363747
:1042500066679091929394959697F0F1303132334E
:02426000340028
:00000001FF
