:100000000C949C050C94E3050C94E3050C94E30517
:100010000C94E3050C94E3050C94E3050C94E305C0
:100020000C94E3050C94E3050C946B2D0C943D2E7D
:100030000C94A1270C94E3050C94E3050C94E305C0
:100040000C94E3050C94E3050C94E3050C94E30590
:100050000C94E3050C94FA270C94E3050C94E30547
:100060000C94E3050C94E3050C94E3050C94E30570
:100070000C94E3050C94E3050C94E3050C94E30560
:100080000C94E3050C94E3050C94E3050C94E30550
:100090000C94E3050C94E3050C94E3050C94E30540
:1000A0000C94E3050C94E3050C94E305E416E716C1
:1000B000EF16F416F916FE16031708170D17121788
:1000C00017171C171E172117241727172A172D1764
:1000D0002F173417FA1CFA1C2C1D2C1D731D911D93
:1000E000B21EB21E9C1D311E421E421EA21EB21E18
:1000F000B21EAB1E521F521F641F641F5B1F641F82
:10010000641F641F521F521F601F641F641F601F03
:10011000AA2ED12EC92FD12EC92F1D2F402FC92F66
:10012000972FA62F290014001A00080015001700A9
:100130001C0018000C00120013004C002B000400DF
:100140001645074409430A000B000D430E440F45B2
:1001500034002800E1001D001B0006001900050006
:1001600011001000360037003800E500E000E30021
:10017000E2004C642A62296100002C7128782B74FB
:10018000E70001530100010001000100010001002E
:100190000100010001000100010001000100010057
:1001A000160007000900010001000D000E000F00FD
:1001B0000100010001000100010001000100010037
:1001C0000100010001000100010001000100000028
:1001D0000100004201002C000000010001000100AC
:1001E0000100010001001E0052001F00200001005C
:1001F00001000100010001000100010001005000A8
:1002000051004F0021000100010001000100010028
:100210000100010001002200230024002500260027
:1002200001000100010001000100010001000100C6
:1002300001000100010001000000010001000100B7
:1002400001000000005C2F00610060005F003000D2
:100250004B004A0052004D0049002A005300330071
:100260005E005D005C002E004E00500051004F000B
:100270004C000000000035005B005A0059003100BE
:10028000000000000000000000000000000000006E
:100290000000630062002D00000001000100010069
:1002A0000000000000002F02260225022402300276
:1002B000F900F100ED00F200F40000003900330213
:1002C0002302220221022E02FA00EF00EE00F000CB
:1002D000F500F3000000350220021F021E02310269
:1002E0000000FB00FD00FE00FF00FC00000000001D
:1002F0000000260227022D0200000100010001007B
:1003000000000000000043004200410040004600A1
:10031000CA5CC55CA900C45CC65C00000000440067
:100320003F003E003D004700CB5CAC00AA00AB00A4
:10033000C75C0000000045003C003B003A0048005C
:1003400000000000000000000000000000000000AD
:1003500000000000000000000000AE00AD00A8009A
:100360000000C35C44454255473A206469736162AA
:100370006C65642E0A0044454255473A20656E611B
:10038000626C65642E0A000A002530313662003A3C
:10039000200025303258000A722F6320303132336A
:1003A0003435363738394142434445460A00290A34
:1003B000002575002F002575005D280025640020AC
:1003C00000256400200025640020002564007C00D6
:1003D00025303258006D6F7573656B6579205B62EF
:1003E000746E7C782079207620685D287265702F85
:1003F00061636C293A205B007267626C696768749C
:100400002074696D65722064697361626C652E0A7F
:10041000007267626C696768742074696D65722028
:10042000656E61626C65642E0A007267626C696752
:1004300068742073657420687376205B4E4F454561
:1004400050524F4D5D3A2025752C25752C25750A87
:10045000007267626C6967687420736574206873E2
:1004600076205B454550524F4D5D3A2025752C2531
:10047000752C25750A007267626C69676874207252
:1004800061696E626F7720736574206873763A20B5
:1004900025642C25642C25642C25750A007267625E
:1004A0006C696768742064697361626C65205B4580
:1004B0004550524F4D5D3A207267626C69676874AF
:1004C0005F636F6E6669672E656E61626C65203D65
:1004D0002025750A007267626C6967687420656E12
:1004E00061626C65205B454550524F4D5D3A20720C
:1004F00067626C696768745F636F6E6669672E65B3
:100500006E61626C65203D2025750A007267626C21
:100510006967687420746F67676C65205B45455038
:10052000524F4D5D3A207267626C696768745F6311
:100530006F6E6669672E656E61626C65203D202571
:10054000750A007267626C69676874206D6F646514
:10055000205B4E4F454550524F4D5D3A2025750A60
:10056000007267626C69676874206D6F6465205BF8
:10057000454550524F4D5D3A2025750A007267621D
:100580006C696768745F696E6974207267626C6910
:100590006768745F636F6E6669672E6D6F64652050
:1005A0003D20302E20577269746520646566617540
:1005B0006C742076616C75657320746F20454550AE
:1005C000524F4D2E0A007267626C696768745F69EA
:1005D0006E6974206565636F6E6669672069732054
:1005E0006E6F7420656E61626C65642E0A007267BE
:1005F000626C696768745F696E6974207374617294
:1006000074210A007267626C696768745F696E6959
:10061000742063616C6C65642E0A007267626C6999
:100620006768745F636F6E6669672E737065656473
:10063000203D2025640A007267626C696768745FF8
:10064000636F6E6669672E76616C203D2025640AB3
:10065000007267626C696768745F636F6E66696772
:100660002E736174203D2025640A007267626C69F4
:100670006768745F636F6E6669672E687565203D95
:100680002025640A007267686C696768745F636F2D
:100690006E6669672E6D6F6465203D2025640A00D3
:1006A0007267626C696768745F636F6E6669672EF4
:1006B000656E61626C65203D2025640A0072676288
:1006C0006C696768745F636F6E6669672045455043
:1006D000524F4D3A0A001E0F0500047F3F1F64323F
:1006E00014643214783C1E1E140A05222325262881
:1006F000292A2C2D2F3032333536383A3B3D3E40B7
:1007000042434547494A4C4E5051535557595A5CFC
:100710005E6062646668696B6D6F71737577797B13
:100720007D7F81838587898A8C8E90929496989A12
:100730009C9E9FA1A3A5A7A8AAACAEAFB1B3B4B627
:10074000B8B9BBBCBEBFC1C2C3C5C6C7C9CACBCC82
:10075000CDCED0D1D2D2D3D4D5D6D7D7D8D9D9DA55
:10076000DADBDBDBDCDCDCDCDCDDDDDDDDDCDCDCCA
:10077000DCDCDBDBDBDADAD9D9D8D7D7D6D5D4D3F2
:10078000D2D2D1D0CECDCCCBCAC9C7C6C5C3C2C1C7
:10079000BFBEBCBBB9B8B6B4B3B1AFAEACAAA8A724
:1007A000A5A3A19F9E9C9A98969492908E8C8A89DC
:1007B000878583817F7D7B79777573716F6D6B69B9
:1007C00068666462605E5C5A5957555351504E4C8E
:1007D0004A4947454342403E3D3B3A38363533323D
:1007E000302F2D2C2A292826252322FFAA7F554089
:1007F00000010101010101010101020202020202E4
:1008000002020203030303030303030404040404B6
:10081000040405050505050606060606070707077D
:100820000708080808090909090A0A0A0B0B0B0C32
:100830000C0C0D0D0D0E0E0E0F0F0F1010111111CF
:100840001212131314141515161617171818191950
:100850001A1A1B1B1C1D1D1E1E1F202021222223B5
:100860002424252626272829292A2B2C2D2D2E2FF6
:1008700030313232333435363738393A3B3C3D3E0D
:100880003F404142434445464748494A4C4D4E4FFC
:1008900050515354555658595A5B5D5E5F616264BE
:1008A000656668696B6C6D6F7072737577787A7B4B
:1008B0007D7E8082838587888A8C8E8F91939596A2
:1008C000989A9C9EA0A2A3A5A7A9ABADAFB1B3B5C2
:1008D000B7BABCBEC0C2C4C6C9CBCDCFD1D4D6D89E
:1008E000DBDDDFE2E4E7E9EBEEF0F3F5F8FAFDFF3C
:1008F0000A002530325820006B6579626F6172649E
:100900005F7265706F72743A20000A0025303258A9
:10091000006B6579626F6172645F7365745F6C65AB
:10092000643A200064656C5F6B65795F6269743A54
:100930002063616E27742064656C3A20253032583C
:100940000A006164645F6B65795F6269743A206371
:10095000616E2774206164643A20253032580A00A1
:100960005B735D004B6579626F61726420737461C3
:1009700072742E0A005B575D005B535D005B525D35
:10098000005B445D005B435D0012034E004900556F
:100990000020004D0069006E006900000010034B4C
:1009A0000042004400460061006E00730000000435
:1009B00003090409025B00030100A0FA0904000016
:1009C0000103010100092111010001224000070576
:1009D000810308000A090401000103000000092145
:1009E0001101000122B6000705820320000A090454
:1009F000020002030000000921110100012222006F
:100A000007058303200001070503032000011201ED
:100A10001001000000086D6E0100010001020001DC
:100A20000631FF0974A1010975150026FF00952004
:100A3000750881020976150026FF0095207508913A
:100A400002C005010902A10185020901A1000509F1
:100A50001901290815002501950875018102050174
:100A6000093009311581257F9502750881060938FD
:100A70001581257F950175088106050C0A38021538
:100A800081257F950175088106C0C005010980A1F7
:100A900001850319012AB700150126B700950175D4
:100AA000108100C0050C0901A101850419012AA0CB
:100AB00002150126A002950175108100C0050109EB
:100AC00006A1018505050719E029E715002501950F
:100AD00008750181020507190029EF150025019508
:100AE000F075018102050819012905950575019127
:100AF00002950175039101C005010906A1010507D1
:100B000019E029E715002501950875018102950175
:100B1000750881010507190029FF150026FF0095BA
:100B200006750881000508190129059505750191CB
:100B300002950175039101C011241FBECFEFDAE0C9
:100B4000DEBFCDBF04B603FE27C080915403909151
:100B50005503A0915603B09157038730904BA7409F
:100B6000B04BD1F4109254031092550310925603D7
:100B70001092570314BE84B7877F84BF0FB6F894D2
:100B8000A895809160008861809360001092600059
:100B90000FBEE0E0F8E3099511E0A0E0B1E0E2ED7E
:100BA000F2E602C005900D92A83DB107D9F723E007
:100BB000A8EDB1E001C01D92A435B207E1F70E9493
:100BC0009E2A0C9467310C940000FF93EF93E09100
:100BD000D801F091D901309709F00995EF91FF9173
:100BE0000895FC018591803011F0EFDFFBCF08956F
:100BF000FF27E0E230E247FF0CC0419597FF09C0B4
:100C0000EDE26095709580959095611D711D811D37
:100C1000911D27FF02C0219530E350E2AA27660FFD
:100C2000771F881F991FAA1FA41710F0A41B639594
:100C30005A95A9F7AA3008F0A95FA05DAF93F39584
:100C4000611571058105910541F7ED3211F4EF93BE
:100C5000F395F21718F43F93F395FBCF8F91B5DF1F
:100C6000FA95E1F70895E991F9918591803021F0A5
:100C7000853219F0AADFF9CF089520E0E894559164
:100C80005532C1F3503311F4689455915A3348F4F6
:100C9000505390F3220F022E220F220F200D250F0A
:100CA000F4CF0EF4219589919991533619F3533766
:100CB00029F1533559F1BC0188279927E8945C360E
:100CC00021F48991999168945591543639F446EFFD
:100CD0007EF077FF0DC08FEF9FEF0AC055374AE0D7
:100CE00039F0583540E121F0523642E009F00895DC
:100CF000FF93EF937DDFEF91FF91B7CFFF93EF93DA
:100D0000FC0181918030B9F360DFFBCFFF93EF935B
:100D100068DFF1CFDF93CF93CDB7DEB72596A3DFA2
:100D2000CF91DF9108956E9A769A0C949706089564
:100D3000089581E00895089581E008950C9499063E
:100D400008950C94A0061F93CF93DF9300D000D09A
:100D50001F92CDB7DEB749835A836B833091570218
:100D600089819A81311114C0662359F0222349F0F8
:100D70000E948B24182F682F89819A810E94342425
:100D800003C00E945F24182F69817A81812F04C0DB
:100D90000E948B2469817A810F900F900F900F90A1
:100DA0000F90DF91CF911F910C949B07FC01262F90
:100DB000408151816281738184810C94A306CF9319
:100DC000DF93EC0160E00E94D606BE01DF91CF9177
:100DD0000C94A1060E94BD25811102C00E946426C8
:100DE0000C9493060C94FD0908950E94401F0E94E4
:100DF000F4062FEF84E39CE0215080409040E1F71F
:100E000000C000000C9420280F931F93CF93DF9312
:100E1000EC0161E00E94D6068C01BE010E949E0694
:100E2000882309F449C0BE01C8010E94DC17882349
:100E300009F442C0BE01C8010E942E188823E1F1C6
:100E4000BE01C8010E9459198823B1F1BE01C80131
:100E50000E94CD16882381F18A81882331F10130E7
:100E60008CE5180751F00F3D8CE51807D9F00115F6
:100E70001C45D9F40E94F5061FC08091DB02C82FE3
:100E8000C095C170C0FB80F98093DB02CC2329F0B0
:100E900086E793E00E94F1050FC084E693E00E948C
:100EA000F1050BC00E94642607C0CE01DF91CF91EF
:100EB0001F910F910C949C06C0E08C2FDF91CF9175
:100EC0001F910F9108958295982F937344E0949FFA
:100ED000900111248C7C86958695282B822F857510
:100EE000880F2A7A2695822B0895CF93DF93D92FE6
:100EF0000E946307C82F8D2F0E9463072C2F30E0BC
:100F0000322F2227A901482BCA01DF91CF910895E2
:100F10000C949B0681E008950C948A07CF93C82F08
:100F20000E9488078C2F0E948C07CF91089580E043
:100F300090E00895089520E3829FC0011124FC01F0
:100F40002CE0729FE00DF11D1124E60FF11DEE0F54
:100F5000FF1FEC5DFE4F859194910895880F991FB6
:100F6000FC01E957FC4F859194910895CF93DF934D
:100F70000E949B070E94CE08EC018115904508F065
:100F800041C0C11580E4D80708F0D1C0C83ED105E2
:100F900010F5C03ED10508F0FDC0C83AD10578F47F
:100FA000C53AD10508F0A2C0C130D10509F4F2C09C
:100FB00008F4EEC0C430D10508F0ECC0E9C0CF3B66
:100FC000D10508F49BC0C03CD10508F4E1C0CE01B6
:100FD000805C91099EC0C11590E2D90758F4C115F3
:100FE00021E0D20708F0D6C0CD3ED10508F4D0C02C
:100FF000D065D0C0C11580E3D80708F08EC0CE01FF
:101000009F7087C0C11595E5D90708F043C0C11589
:1010100024E5D20708F0A2C0C11582E5D80708F57B
:10102000C11591E5D90708F085C0CE0174E0969509
:1010300087957A95E1F783709C2F937021E030E0DB
:1010400002C0220F331F9A95E2F73C68382BCF700D
:10105000C695C69580E2C89FE0011124C22BD32B10
:1010600099C09E01237033278C2F86958695C115D4
:10107000D34508F064C0C1E0D0E002C0CC0FDD1F52
:101080002A95E2F720E2829FC0011124C82BD92BB8
:10109000DC6880C0C11529E5D207A0F4C11588E538
:1010A000D80708F060C0C11596E5D90708F070C0F0
:1010B0008C2F0E9462098F71C82FD0E0DC2FCC27C3
:1010C000D06268C0C1152AE5D20708F451C0CE012C
:1010D00090568115904208F05BC08D2F8F710E9451
:1010E0006209DD27D0628F71D82B54C0C55AD0E079
:1010F000C65ADE4FC881D0E0D0644CC0C85AD0E098
:10110000CC0FDD1FC45DDE4F0990D881C02DD464A3
:1011100041C00E94AE07EC013DC0CE019927D3FF2C
:1011200003C0EC01D86C36C0EC01D06C33C0DF706A
:10113000D06A30C0DC2FCC27C16FD06A2BC0C1E091
:10114000D0E002C0CC0FDD1F2A95E2F720E2829F9B
:10115000C0011124C82BD92BDA681CC0DC2FCC2786
:10116000C46FD06A17C0DC2FCC27C06FD06A12C002
:101170008C2F8F700E94620994E0D695C7959A953E
:10118000E1F7CF70D0E0DC2FCC27D069C82B02C0AC
:10119000C0E0D0E0CE01DF91CF9108958238910573
:1011A00069F1B0F48133910509F46DC048F48932D6
:1011B000910509F463C08A32910509F469C0089564
:1011C0008533910509F455C089339105B9F0089527
:1011D000833E910569F138F4803E9105B1F0823E7D
:1011E000910509F10895863E9105A9F1873E910583
:1011F000B9F1843E910509F064C023C020914503F4
:1012000020FD4FC021FD4DC008958091450380FD14
:1012100044C08091460380FF44C08091450384FD13
:1012200042C083EE4DC08091450382FF38C0F5CFA8
:101230008091450382FD33C08091460380FD31C01B
:10124000ECCF8091460381FF32C08091450384FD3D
:101250002AC087EE35C08091450383FF26C0F5CFB5
:101260008091450383FD21C08091460381FD1FC00D
:10127000ECCF8091450385FD1CC01DC080914503C6
:1012800085FD19C016C08091450386FD16C017C0A4
:101290008091450386FD13C010C089E311C082EE22
:1012A0000FC080EE0DC080E00BC086EE09C084EE5A
:1012B00007C089E205C085E303C08AE201C081E37B
:1012C00090E008959091450392FF0DC0282F28715A
:1012D000283019F4877F846006C0282F24712430B9
:1012E00011F48B7F886093FF0DC0282F287128315F
:1012F00019F4877E846106C0282F2471243111F4EB
:101300008B7E88612091460320FF0DC0382F3871F5
:10131000383019F4877F816006C0382F3171313041
:1013200011F48E7F886021FF0DC0282F287128318D
:1013300019F4877E816106C0282F2171213111F4B3
:101340008E7E886194FD877E0895E82FF0E0EE0F91
:10135000FF1FE65FFC4F808191810895CF92DF925D
:10136000EF92FF920F931F93CF93DF9387E993E060
:101370000E94F1058AE0E82E83E0F82EC0E0D0E07C
:1013800092E9C92E93E0D92E09E813E0DF93CF93B9
:10139000DF92CF920E948A068FE893E00E94F105C7
:1013A000F701819191917F010E9475079F938F931F
:1013B0001F930F930E948A0687E893E00E94F1052D
:1013C00021968DB79EB708960FB6F8949EBF0FBEB4
:1013D0008DBFC430D105D1F6DF91CF911F910F9110
:1013E000FF90EF90DF90CF90089580EA8A95F1F713
:1013F000089500C008950C94F5090C949806F8948B
:10140000E82FE295EF70F0E031A1282F2F7081E0F6
:1014100090E001C0880F2A95EAF7982F90959323C2
:1014200091A392A1892B82A3789408950F931F937F
:10143000CF93DF9380E90E94FF0981E90E94FF09B1
:1014400082E90E94FF0983E90E94FF09CDE5D1E00E
:1014500009E611E089910E94FF090C171D07D1F7D9
:10146000109203031092020310920B0310920A03CE
:10147000109205031092040310920D0310920C03B6
:10148000109207031092060310920F0310920E039E
:101490001092090310920803109211031092100386
:1014A00084E00E94EC0ADF91CF911F910F910C9480
:1014B000EA067F928F929F92AF92BF92CF92DF9275
:1014C000EF92FF920F931F93CF93DF9302E013E00D
:1014D00089E6E82E81E0F82EC0E0D0E0712CAA2445
:1014E000A394B12C4701F7018081F894E82FE2958D
:1014F000EF70F0E021A18F70A50102C0440F551FCD
:101500008A95E2F7CA01922F982B91A392A1809518
:10151000892382A378940E94F909EDE5F1E020E0A7
:1015200030E0C12CD12C4191A42FA295AF70B0E036
:1015300090968C9190E04F7002C0959587954A9552
:10154000E2F780FD08C0C501022E02C0880F991F76
:101550000A94E2F702C080E090E0C82AD92A2F5FFF
:101560003F4F2C303105F9F65FEFE51AF50AF4012B
:1015700080810E94FF09C330D10511F00E94FB0950
:10158000F80180819181C816D90621F0D182C082EC
:1015900081E001C080E0782A21960E5F1F4FC430A1
:1015A000D10509F09FCF272D44E06AE073E082E087
:1015B00093E00E94ED0A0E94F206872DDF91CF9101
:1015C0001F910F91FF90EF90DF90CF90BF90AF9061
:1015D0009F908F907F9008950895FF920F931F938F
:1015E000CF93DF93F82E092F162FD72FC42F222346
:1015F00049F081E08093DC010E94D3279093DB01C6
:101600008093DA018091DC018823D9F08091DA019E
:101610009091DB010E94EB27069798F0EF2DF02FB9
:10162000A12FBD2F80E090E04C2F50E0841795074C
:1016300034F4219131912D933D930196F7CF10927F
:10164000DC01DF91CF911F910F91FF900895809160
:10165000E30180FF0BC06091090185E0689FB00144
:10166000112475956795759567952BC081FF09C005
:101670006091090185E0689FB00111247595679517
:1016800020C082FF07C06091090185E0689FB0011A
:10169000112417C09091E2019923D1F060910801C3
:1016A000961788F72091090185E0289F9001112461
:1016B000929FA001939F500D112470E0CA010E94D7
:1016C0002A306038710540F46115710519F406C0BF
:1016D00065E070E0862F08958FE7089581E0089512
:1016E0008091E30180FF08C06091050170E075956D
:1016F00067957595679521C081FF06C060910501CA
:1017000070E07595679519C082FF04C0609105016E
:1017100070E010C09091E101992399F0609104016B
:101720009617A0F780910501899FC001112470E0F0
:101730000E942A306038710540F46115710519F472
:1017400006C061E070E0862F08958FE7089581E07C
:1017500008958D3E21F40E94270B819504C08E3E92
:1017600029F40E94270B8093E70108958F3E21F40E
:101770000E94270B819504C0803F29F40E94270B0B
:101780008093E6010895893F19F40E94700B05C00B
:101790008A3F31F40E94700B81958093E80108958F
:1017A0008B3F21F40E94700B819504C08C3F29F47B
:1017B0000E94700B8093E90108959FE0980F983084
:1017C00078F421E030E0A90102C0440F551F9A953A
:1017D000E2F7CA019091E501892B8093E501089514
:1017E0008D3F21F48091E30181600BC08E3F21F495
:1017F0008091E301826005C08F3F29F48091E3016D
:1018000084608093E30108958D3E39F49091E7015F
:1018100097FF35C01092E70159C08E3E29F4909190
:10182000E7011916BCF32BC09091E6018F3E29F415
:1018300097FF25C01092E60149C0803F19F41916A0
:10184000CCF31DC09091E801893F29F41916BCF42E
:101850001092E8013BC08A3F19F497FF10C0F8CFFF
:101860008B3F39F49091E90197FF09C01092E9018B
:101870002DC08C3F21F49091E9011916BCF39FE033
:10188000980F983080F421E030E0A90102C0440FA5
:10189000551F9A95E2F7CA0180959091E501892339
:1018A0008093E50113C08D3F21F48091E3018E7F89
:1018B0000BC08E3F21F48091E3018D7F05C08F3FE7
:1018C00029F48091E3018B7F8093E3018091E6010D
:1018D000811106C08091E701811102C01092E201DE
:1018E0008091E801811106C08091E901811102C057
:1018F0001092E10108958091DB0283FF7EC085EDA7
:1019000093E00E94F1058091E5011F928F9380ED95
:1019100093E09F938F930E948A068EEC93E00E943F
:10192000F1058091E601282F082E000C330B3F9320
:101930008F938BEC93E09F938F930E948A0689ECA0
:1019400093E00E94F1058091E701282F082E000CFA
:10195000330B3F938F9386EC93E09F938F930E947A
:101960008A0684EC93E00E94F1058091E801282F1B
:10197000082E000C330B3F938F9381EC93E09F93E1
:101980008F930E948A068FEB93E00E94F10580916D
:10199000E901282F082E000C330B3F938F938CEB1B
:1019A00093E09F938F930E948A0689EB93E00E94B5
:1019B000F1058091E2011F928F9386EB93E09F9354
:1019C0008F930E948A0684EB93E00E94F105809138
:1019D000E3011F928F9381EB93E09F938F930E947B
:1019E0008A068EEA93E00E94F1058DB79EB74C9669
:1019F0000FB6F8949EBF0FBE8DBF0E94D3272091D3
:101A0000E601211104C02091E701222321F09093E7
:101A1000E0018093DF012091E801211104C02091B1
:101A2000E901222321F09093DE018093DD0184EE11
:101A300091E00C94F019EF92FF920F931F93CF93C4
:101A4000DF9300D000D000D0CDB7DEB786E0E4EE63
:101A5000F1E0DE01119601900D928A95E1F7E09098
:101A6000E601F090E7010091E8011091E901109280
:101A7000E6011092E7011092E8011092E901E110ED
:101A800003C0FF2009F45DC08091DF019091E00167
:101A90000E94EB27AC019091E201992339F020914B
:101AA0000A0130E02417350758F04BC020910B0194
:101AB0008AE0289F900111242417350718F041C0AF
:101AC0009F3F19F09F5F9093E201EE2061F00E942A
:101AD000270B1E1414F09FEF01C091E0989F902DEA
:101AE00011249093E601FF2061F00E94270B1F1440
:101AF00014F09FEF01C091E0989F902D11249093D6
:101B0000E7013091E6013323E1F02091E701222340
:101B1000C1F045EB3403C0011124992319F09093CF
:101B2000E60103C081E08093E60135EB2303C001A9
:101B30001124992319F09093E70103C081E0809369
:101B4000E701011103C0112309F45DC08091DD019B
:101B50009091DE010E94EB27AC019091E101992365
:101B600039F02091060130E02417350758F04BC0BA
:101B7000209107018AE0289F90011124241735073E
:101B800018F041C09F3F19F09F5F9093E10100233F
:101B900061F00E94700B101614F09FEF01C091E0ED
:101BA000989F902D11249093E801112361F00E94D9
:101BB000700B111614F09FEF01C091E0989F902DCB
:101BC00011249093E9013091E8013323E1F0209151
:101BD000E9012223C1F045EB3403C001112499230C
:101BE00019F09093E80103C081E08093E80135EBA0
:101BF0002303C0011124992319F09093E90103C034
:101C000081E08093E9018091E60181110BC0809110
:101C1000E701811107C08091E801811103C0809123
:101C2000E90181110E947B0CEB82FC820D831E83F3
:101C300086E0FE013196A4EEB1E001900D928A9506
:101C4000E1F726960FB6F894DEBF0FBECDBFDF9149
:101C5000CF911F910F91FF90EF900895E4EEF1E086
:101C600086E0DF011D928A95E9F71092E201109259
:101C7000E1011092E3010895EF92FF920F931F93F9
:101C8000CF93DF938B01682F11110AC0442329F0F1
:101C9000E82FF0E0E051F84F6491762F862F75C061
:101CA000212F30E0E82FF0E0442321F0E051F84FFD
:101CB000E491F0E046E0049FC0011124CFEFD0E0B2
:101CC000BE010E9416304BEA4603C001479F900DAB
:101CD0001124800F911D800F911D982F990F890F4E
:101CE000AE01421B530B4E9FD0014F9FB00D5E9F24
:101CF000B00D11249B2F189FA0011124452F5527AB
:101D00008E01041B150B0E9FA0010F9F500D1E9FEF
:101D1000500D11247E01E81AF108E29E8001E39E35
:101D2000100DF29E100D1124212F3327C21BD30B4F
:101D3000CE9F9001CF9F300DDE9F300D1124623079
:101D40007105A9F048F46115710569F061307105FC
:101D5000C9F48B2F752F0DC06430710581F058F0D8
:101D60006630710579F47E2F8B2F932F0DC0832F52
:101D70007B2F9E2F09C08E2F7B2F952F05C08E2F76
:101D8000732F02C07E2F852F692FDF91CF911F9176
:101D90000F91FF90EF90089541E00E943C0E08954E
:101DA00008950E94CC0E0895CF93DF93762FE9011A
:101DB000682F842F0E94D10E798368838A83DF91F4
:101DC000CF91089580911203282F269530E0211598
:101DD000310519F48170826005C02B32310524F081
:101DE0008170846580931203089588E090E00C94DC
:101DF0000831CF92DF92EF92FF926B017C010E943B
:101E0000E20EB701A60188E090E0FF90EF90DF902E
:101E1000CF900C942631E2E1F3E083E080831182DD
:101E20008FEF8283838314826081718182819381A9
:101E30000C94F90E8091DB0280FF08C08DEB96E0D8
:101E40009F938F930E948A060F900F908091DB02E0
:101E500080FF0FC08091120381701F928F9380EAE0
:101E600096E09F938F930E948A060F900F900F9099
:101E70000F908091DB0280FF0FC080911203869546
:101E80001F928F9385E896E09F938F930E948A0616
:101E90000F900F900F900F908091DB0280FF0EC08B
:101EA000809113031F928F938BE696E09F938F93FD
:101EB0000E948A060F900F900F900F908091DB0286
:101EC00080FF0EC0809114031F928F9381E596E0EE
:101ED0009F938F930E948A060F900F900F900F9000
:101EE0008091DB0280FF0EC0809115031F928F93BB
:101EF00087E396E09F938F930E948A060F900F903E
:101F00000F900F908091DB0280FF0EC0809116032E
:101F10001F928F938BE196E09F938F930E948A0686
:101F20000F900F900F900F9008958091120380FFF3
:101F300002C08695089580E008959091160393302D
:101F400018F49F5F90931603882351F06091120359
:101F50007091130380911403909115030C94F90E62
:101F6000089581E00C949D0F90911603992319F028
:101F7000915090931603882351F060911203709151
:101F8000130380911403909115030C94F90E089596
:101F900081E00C94B40F70E00C943E176091100136
:101FA0008091120380FF0AC080910F0123E0829F7D
:101FB000C0011124895E9C4F0C94CB0F80911101BC
:101FC00090911201891780F7E82FF0E09F01220F0E
:101FD000331FE20FF31FE95EFC4F11821082128261
:101FE0008F5FF0CF9091120390FF16C09091110176
:101FF00020911201921770F4E92FF0E0DF01AA0F8F
:10200000BB1FEA0FFB1FE95EFC4F818360834283A5
:102010009F5FF0CF0C94CE0F0895CF93DF9300D045
:102020001F92CDB7DEB79091120390FF0AC09E01B8
:102030002F5F3F4F0E94D40E4B8169818A810E949D
:10204000F20F0F900F900F90DF91CF910895CF93E3
:10205000DF93EC01EC81F0E0E551F94F4491E2E1CE
:10206000F3E0628181810E940D108C818F5F8C83EF
:10207000DF91CF910895CF93DF93EC01E2E1F3E09C
:10208000438162818C810E940D108C818F5F8C83D3
:10209000DF91CF9108950F931F93CF93DF9300D0DB
:1020A0001F92CDB7DEB78C018091EA0181110AC081
:1020B0009E012F5F3F4F4FEF6FEF0E94D40E8A813A
:1020C0008093EA01F8018481813051F028F0823058
:1020D00061F44091EA010AC08091EA0140E007C042
:1020E0006091EA0140E080E003C040E080E060E011
:1020F0000E94F20FF801848190E0019663E070E0A5
:102100000E942A3084830F900F900F90DF91CF911F
:102110001F910F9108954F925F926F927F928F92CD
:102120009F92AF92BF92CF92DF92EF92FF920F9366
:102130001F93CF93DF9300D01F92CDB7DEB7F82E59
:10214000B62EE42E622E9091120390FFB4C0E92FB8
:10215000E695AE2FB0E0A359BE4F8C9180933A0222
:102160009E7F923061F49E012F5F3F4F8F2D0E9422
:10217000D40E4B8169818A810E94F20F62C0823045
:1021800019F4E09015035DC0863019F4F090130344
:1021900058C08930D9F3893109F053C0E9518E2FE5
:1021A0008170782E81E0A72CA826E695F0E0E55115
:1021B000F84FC590D490412CDD2496E7892E94E009
:1021C000992E609113014616D0F5042D10E00C9D58
:1021D000C0010D9D900D1C9D900D112470E00E947A
:1021E00016305F2C711002C0560E01C0561A809135
:1021F000DB0280FF11C0DF92CF921F92AF921F923D
:102200005F921F924F929F928F920E948A060FB602
:10221000F894DEBF0FBECDBF80911101080F111DD4
:102220009801220F331F020F131F9801295E3C4FA4
:102230004E2D6B2D852D0E94D40E4394C2CF0E944B
:10224000CE0FF0921303B0921403E09215036620B0
:10225000E9F060911203709113038091140390913F
:1022600015030E94F90E8091DB0280FF24C080914B
:1022700015031F928F93809114031F928F93809167
:1022800013031F928F9381E594E00CC08091DB02D1
:1022900080FF11C01F92EF921F92BF921F92FF9278
:1022A0008AE294E09F938F930E948A060FB6F89477
:1022B000DEBF0FBECDBF0F900F900F90DF91CF917B
:1022C0001F910F91FF90EF90DF90CF90BF90AF9054
:1022D0009F908F907F906F905F904F900895E2E174
:1022E000F3E09181282F4381628188E0890F0C946B
:1022F0008B1081E00C946F11E2E1F3E09181282FC3
:102300004381628188EF890F0C948B1081E00C94DB
:102310007C11E2E1F3E0628128E0620F08F46FEFE4
:10232000282F438181810C948B1081E00C948911BA
:10233000E2E1F3E0628128E0621B08F460E0282F0C
:10234000438181810C948B1081E00C949811E2E11F
:10235000F3E0438128E0420F08F44FEF282F628119
:1023600081810C948B1081E00C94A711E2E1F3E0E1
:10237000438128E0421B08F440E0282F62818181DC
:102380000C948B1081E00C94B61120E00C948B100F
:10239000FF920F931F93CF93DF93EC01F12C0FEF7C
:1023A00010E060911301F616F0F4809111012F2DC9
:1023B00030E0280F311DC901880F991F280F391FE0
:1023C000295E3C4F70E0C8010E942A30962F8C8114
:1023D0004091150360911403F99E800D11240E9411
:1023E000D40EF394DECF0E94CE0F9A818C8190FFA1
:1023F00002C08F5F01C081508C83DF91CF911F910C
:102400000F91FF900895AF92BF92CF92DF92EF921B
:10241000FF920F931F93CF93DF93FC01828180FF84
:1024200002C00FEF01C001E010E04EE0A42E809149
:102430001301181708F043C080911101C12ED12C4F
:10244000E601C80FD11DCE01880F991FC80FD91FF3
:10245000C95EDC4F198218821A8234E0E32EF12C17
:10246000B12C8091EC018B0D8F302CF06A2D0E94E5
:102470000830892F05C087FF03C090911301890F91
:10248000082E000C990BC816D90691F480911503FB
:102490008E9DA0018F9D500D112455954795559502
:1024A00047959E0160911403809113030E94D40EFE
:1024B000B00EF1E0EF1AF108A1F61F5FB8CF0E944D
:1024C000CE0F8091EC01013031F4811102C0809176
:1024D0001301815007C090E001966091130170E0F4
:1024E0000E942A308093EC01DF91CF911F910F91D0
:1024F000FF90EF90DF90CF90BF90AF900895CF9373
:102500008091110190911201891770F4E82FF0E089
:102510009F01220F331FE20FF31FE95EFC4F118270
:10252000108212828F5FF0CFC0E060911301C61756
:10253000C0F5EC2FF0E070E0CF010E942A3020912E
:102540001101820F2091EB01022E000C330B90E061
:10255000E217F307CCF020910E01022E000C330B92
:102560002E173F078CF09C01220F331F820F931F01
:102570009C01295E3C4F40911503609114038091AA
:1025800013030E94D40E0BC0FC01EE0FFF1F8E0F31
:102590009F1FFC01E95EFC4F118210821282CF5F07
:1025A000C4CF0E94CE0F20910D018091EB01820FCC
:1025B0008093EB0190910E01920F90930E011916EA
:1025C0005CF4082E000C990B4091130150E041502F
:1025D0005109841795071CF0219520930D01CF9187
:1025E00008958F929F92AF92BF92CF92DF92EF9217
:1025F000FF920F931F93CF93DF938C01FC014481D3
:10260000C42FD0E09E01DE010E946E309B01AC0120
:102610000E9484306B017C01E0E2F0E0EC1BFD0BDA
:10262000A5E5B0E09B01AC010E9484304B015C0148
:102630009F01DF010E9466309B01AC010E948F3038
:102640009B01AC012C0D3D1D4E1D5F1DC501B4014C
:102650000E943E30C22FD22F2A3228F4F3E02F9F5F
:10266000900111240DC025E530E02C1B3109C90172
:10267000880F991F280F391F37FF02C02F5F3F4F68
:1026800035952795C22FC095F12C85E5E82EED1ADA
:1026900080911301F816C8F4F1FC02C08E2D01C020
:1026A0008D2F909111012F2D30E0290F311DA9019F
:1026B000440F551F240F351F295E3C4F4C2F60914E
:1026C00014030E94D40EF394E3CF0E94CE0FF801BE
:1026D0008481811102C091E003C0803219F49FEF20
:1026E00090930C0190910C01890FF8018483DF9184
:1026F000CF911F910F91FF90EF90DF90CF90BF90FF
:10270000AF909F908F9008950F931F93CF93DF9377
:10271000EC0100E010E080911301282F30E0021757
:10272000130724F5909111019801290F311DA9017A
:10273000440F551F240F351F295E3C4F869590E0AE
:102740004C81081719071CF4442331F002C04111D1
:1027500003C04091150301C040E0609114038091D3
:1027600013030E94D40E0F5F1F4FD5CF0E94CE0FD0
:102770008C8190E00196817099278C83DF91CF91B5
:102780001F910F9108957F928F929F92AF92BF9267
:10279000CF92DF92EF92FF920F931F93CF93DF932D
:1027A000FC018280748081E08483EBEEF6E09490FB
:1027B000EAE6F7E0E491A12CF5E0BF2ECC24CA9420
:1027C000D12CE9190E2F10E080911301A81608F002
:1027D000A2C0EA2CF12C22E0281568F0BE9CF00182
:1027E000BF9CF00D1124E351FE4F809113038083B1
:1027F00080911403818371100AC0BE9CF001BF9CBC
:10280000F00D1124E351FE4F138212826AC0BE9C68
:10281000E001BF9CD00D1124C351DE4F8B81882372
:10282000F9F081508B832FEF829FC00111246C81BE
:1028300070E00E941630FB01FF27E551F94F8491AB
:10284000E82FE9192FEFE29FC0011124B8010E947F
:10285000163080911503689FB00111247A8341C01E
:102860000E94E330209115032695215830E0A901FC
:10287000440F551F322F2227240F351F232F3327B4
:102880008217930774F582E0881588F40E94E3307C
:10289000B6010E942A3088830E94E33020911403FD
:1028A0002695622F70E00E942A30280F2983BE9C53
:1028B000F001BF9CF00D1124E351FE4F1282809174
:1028C0001503843120F0893C18F088EC01C084E1C4
:1028D000BE9CF001BF9CF00D1124E351FE4F848398
:1028E0008383809111019701280F311DC901880F41
:1028F000991F280F391F295E3C4FBE9CF001BF9CD9
:10290000F00D1124E351FE4F4281618180810E94CC
:10291000D40EA39459CFDF91CF911F910F91FF90C7
:10292000EF90DF90CF90BF90AF909F908F907F906F
:102930000C94CE0F60911203669570E04BE050E06E
:1029400084E191E00E94F330892B19F481E08093B7
:102950003B020E94D32790933402809333028091EC
:10296000DB0280FF08C081E194E09F938F930E9477
:102970008A060F900F90089510923B028091DB021F
:1029800080FF08C088EF93E09F938F930E948A0690
:102990000F900F9008959091120390FF54C0917082
:1029A000811102C0926006C08B3210F0946502C0A3
:1029B000880F982B909312036623B1F06091120355
:1029C0007091130380911403909115030E94F90EE6
:1029D0008091DB0280FF1BC08091120386951F92BD
:1029E0008F9381E695E00BC08091DB0280FF0FC0E2
:1029F0008091120386951F928F9383E495E09F93B5
:102A00008F930E948A060F900F900F900F90609105
:102A10001203669570E04BE050E084E191E00E9483
:102A2000F330892B19F00E94BC1402C00E949A1442
:102A300081E08093360240911503609114038091E8
:102A400013030C94C5110895682F90911203969565
:102A500081E0890F8B3208F081E00C94CB1481E087
:102A60000C942415682F9091120396958FEF890F7F
:102A700009F48AE20C94CB1481E00C94321561E0E5
:102A80000C94CB1480911203816080931203809187
:102A9000DB0280FF0DC01F9281E08F9385ED94E0F3
:102AA0009F938F930E948A060F900F900F900F9024
:102AB0008091120386950C943F1560E00C94CB1422
:102AC00080913902811160C08091DB0280FF08C0D3
:102AD00084E096E09F938F930E948A060F900F9058
:102AE0008091DB0280FF08C08EEE95E09F938F936C
:102AF0000E948A060F900F900E94BD25811110C080
:102B00008091DB0280FF08C086EC95E09F938F9355
:102B10000E948A060F900F900E9464260E940B0F5D
:102B20000E94F50E609312037093130380931403B5
:102B3000909315036E7FC1F48091DB0280FF08C083
:102B40008DE795E09F938F930E948A060F900F90D8
:102B50000E940B0F0E94F50E6093120370931303F3
:102B600080931403909315030E94E20E0E941A0FA3
:102B700010923B028091120380FF03C086950E9451
:102B80005D1581E0809339020895809112038E7F54
:102B900080931203609112037091130380911403C8
:102BA000909115030E94F90E8091DB0280FF0FC007
:102BB0008091120381701F928F938DE994E09F930F
:102BC0008F930E948A060F900F900F900F900E9493
:102BD000BC142FEF80E792E0215080409040E1F755
:102BE00000C000000C94CE0F8091DB0280FF10C06B
:102BF00080911203809581701F928F938CE095E0F5
:102C00009F938F930E948A060F900F900F900F90C2
:102C10008091120380FD0C94C5150C9442150F93FE
:102C20001F93CF93DF9380913B02882309F495C0D3
:102C300080913A02E0911203E695E81BE093350299
:102C4000823049F4F0E0E951F94FE491CE2FD0E021
:102C500007E210E159C0863049F4F0E0EC51F94F39
:102C6000E491CE2FD0E00BE310E14EC0893051F457
:102C7000E695F0E0EF51F94FE491CE2FD0E008EC6B
:102C800011E142C08F3051F4E695F0E0E252F94F85
:102C9000E491CE2FD0E003E012E136C0853149F453
:102CA000F0E0E552F94FE491CE2FD0E00FE712E1CA
:102CB0002BC08831D9F0833239F4E9EDF6E0C591C3
:102CC000D4910BE410E120C08432A9F08532C1F424
:102CD0008E2F63E00E94FC2FE92FF0E0EA52F94FBB
:102CE000E491CE2FD0E003EC13E10EC0C8E2D0E0B7
:102CF00001EF12E109C0C4EFD1E004E813E104C020
:102D0000C0EDD7E000ED1EE080913602882361F02F
:102D1000109236020E94D32790933402809333029C
:102D200010923802109237020E94D327E0913302AA
:102D3000F09134028E1B9F0B8F3F9F4770F4EC0F76
:102D4000FD1FF0933402E093330283E392E0F80135
:102D5000DF91CF911F910F910994DF91CF911F9136
:102D60000F910895882311F0FA0101C0FB01099425
:102D7000CF93DF93C82FD62F0E94950F8C1740F06A
:102D80000E94950F8D1720F4DF91CF910C942F1591
:102D90008C2FDF91CF910C943F150F931F93CF93FE
:102DA000FB01C281CC2309F463C08C010E940C2575
:102DB0008272F801E35CFC45E431F10508F059C08A
:102DC000EA5AFF4F0C9460300E94F41506C04CE3A1
:102DD00055E16FE275E10E94B216C0E04AC04FE2D1
:102DE00055E16CE375E1F7CF46E851E169E771E140
:102DF000F2CF49E751E166E871E1EDCF44EA51E1F4
:102E000065E971E1E8CF45E951E164EA71E1E3CFB9
:102E100042EC51E163EB71E1DECF43EB51E162EC57
:102E200071E1D9CF48EC5FE061EB7FE0D4CF41EBBB
:102E30005FE068EC7FE0CFCF81E017C065E082E023
:102E400010C068E086E00DC06EE089E00AC064E171
:102E50008FE007C067E185E104C088E106C062E257
:102E600089E10E94B816B9CF83E20E943F15B5CF21
:102E7000C1E08C2FCF911F910F9108956A9A2EB1C6
:102E80002B7F3EB134604FB7F894FC01CB01880F23
:102E9000991F680F791F6E0F7F1FE617F70789F0DC
:102EA000819198E03EB9000000C087FF2EB9880FDD
:102EB000000000C000C000C02EB900C09A9591F774
:102EC000ECCF4FBF8FE594E00197F1F700C0000011
:102ED00008950F931F93CF93DF93C42FD22FFC013C
:102EE00082818823C9F040933E020E94D3279093A9
:102EF0003D0280933C0280E28C0F883008F057C07E
:102F0000C77081E001C0880FCA95EAF7DF91CF91C1
:102F10001F910F910C94B91C80913E02481330C050
:102F200080913C0290913D020E94EB27883C9105E4
:102F300038F510E21D0FCD17B9F080E28C0F883004
:102F400040F4C77081E001C0880FCA95EAF70E947B
:102F5000C01C183028F581E09D2F977001C0880FA4
:102F60009A95EAF70E94B91C802F0E94B01C183075
:102F7000F0F4D77081E001C0880FDA95EAF70AC053
:102F800080E28C0F883098F4C77081E001C0880F10
:102F9000CA95EAF7DF91CF911F910F910C94C01C55
:102FA000802FDF91CF911F910F910C94B01CDF9176
:102FB000CF911F910F9108950F939C01CB01243F56
:102FC0004CE5340731F188F4293DFCE53F07D9F0A1
:102FD0002A3D4CE5340779F1283D3C45A9F506E248
:102FE00021EE41EE68ED7CE52BC0263FFCE53F0776
:102FF000E1F0A8F0273F3C4539F507E225EE46EE23
:1030000067EF7CE51DC007E225EE45EE69ED7CE546
:1030100017C006E221EE40EE64EF7CE511C007E246
:1030200025EE44EE65EF7CE50BC006E221EE42EEB4
:1030300066EF7CE505C008E221E045EE6AED7CE53F
:103040000E94691780E008C0FC018281882319F082
:1030500010923E0201C081E00F910895CF93DF935B
:10306000EC01FB018281882309F41FC1C230FCE519
:10307000DF0708F41BC1C6319CE5D90738F09E0173
:103080002B5F3C452930310508F010C10E94D02546
:103090009093460380934503C031ECE5DE0709F4C5
:1030A000C3C008F041C0C8308CE5D80709F49AC005
:1030B000F0F4C430ECE5DE0709F487C068F4C230F0
:1030C0008CE5D80709F477C0C330DC4509F0E3C0CC
:1030D00080914503826076C0C630ECE5DE0709F4D6
:1030E0006EC008F07BC08091450388606BC0CC3017
:1030F0008CE5D80709F485C068F4CA30ECE5DE0732
:1031000009F474C008F079C00E94401F8091450303
:10311000806858C0CE308CE5D80709F476C008F036
:103120007FC0809145038BC0CC3FECE5DE0709F4FE
:103130004FC018F5C3318CE5D80709F47DC078F489
:10314000C131ECE5DE0709F473C0C231DC4509F09A
:10315000A2C00E94401F809145038F7733C0C531C4
:103160008CE5D80709F472C008F486C0CB3FDC4573
:1031700009F091C0809146033EC0C115FDE5DF070F
:1031800009F45FC058F4CE3F9CE5D90709F444C068
:1031900008F43FC08091460382602DC0C230FDE537
:1031A000DF0709F475C008F45DC0C330DD4509F0E0
:1031B00072C080E06EC080914503816003C0809141
:1031C000450380618093450366C08091450311C02B
:1031D000809146038260809346035DC080914503E1
:1031E0008062F0CF809145038064ECCF80914503ED
:1031F00088608460E7CF8160EECF809145038E7F49
:10320000E1CF809145038D7FDDCF80914503877F9E
:10321000D9CF8091460318C0809146038D7FDBCFC4
:10322000809145038F7ECECF809145038F7DCACF9D
:10323000809145038F7BC6CF80914503877F8B7F2D
:10324000C1CF809146038D7F8E7FC5CF809145038E
:1032500082FB222720F991E0922790FB82F990FBD4
:1032600083F9B0CF80914603982F909591708E7F0F
:10327000892B90FB81F9AFCF0E94401F80914503BD
:1032800087FB222720F991E0922790FB87F99ACFBC
:1032900081E00E94662680914503909146030E943A
:1032A000E1250E94401F80E001C081E0DF91CF91C5
:1032B0000895CF93DF9386319C4541F5EB010E9441
:1032C0000C25982F8A8120911F013091200188239D
:1032D00079F09A7A81E009F480E080933F029111BD
:1032E00002C069E201C065E3C9010E9423270AC048
:1032F00080913F02811102C069E201C065E3C9010A
:103300000E942E270E945A2580E001C081E0DF91B3
:10331000CF91089590934502809344020895E091DF
:103320004402F0914502309721F00190F081E02DA8
:10333000099480E00895EF92FF921F93CF93DF935B
:10334000FC01A0914402B0914502109709F442C0DB
:1033500080912B01882341F08091450387FF04C0B1
:103360008081818385E08083EF011296ED91FC914D
:103370001397CE0109958091DB0282FF2BC080FF5D
:1033800004C088EF98E00E94F10518E082EFE82E73
:1033900088E0F82E8091DB0280FF0BC088811F92AD
:1033A0008F93FF92EF920E948A060F900F900F90DA
:1033B0000F90115021961111EDCF8091DB0280FF0B
:1033C00009C080EF98E0DF91CF911F91FF90EF90BF
:1033D0000C94F105DF91CF911F91FF90EF9008952C
:1033E000E0914402F0914502309739F022E0DC018F
:1033F0002C930480F581E02D0994089520914202D8
:10340000309143022817390771F09093430280935B
:103410004202E0914402F0914502309721F006808B
:10342000F781E02D099408952091400230914102E6
:103430002817390771F09093410280934002E09180
:103440004402F0914502309721F00084F185E02D8F
:10345000099408950E94DF276093530270935402E9
:10346000809355029093560260934F0270935002DE
:103470008093510290935202089585B7806885BF6A
:1034800085B7806885BF089581E008950C94441A3B
:1034900008950C94481A0C94481A0C944B1A0C94E6
:1034A000481A0C944F1A0C94481A0E943D1A8BE348
:1034B0009AE20E9444280E94531A0C94511A0E94C6
:1034C000CA270E94160A0E9449280E9460150C947F
:1034D0004D1ACF93C82F8091DB0282FF1EC080FF60
:1034E00004C081E199E00E94F1058091DB0280FF38
:1034F0000CC01F92CF938CE099E09F938F930E9412
:103500008A060F900F900F900F908091DB0280FF42
:1035100004C08AE099E00E94F1058C2FCF910C94B1
:103520008E076F927F928F929F92AF92BF92CF92AF
:10353000DF92EF92FF920F931F93CF93DF93CDB75C
:10354000DEB72A970FB6F894DEBF0FBECDBF0E943C
:10355000491A0E94481A0E94590A81110E942A1A87
:1035600037E4832E32E0932E00E010E0C02E802F4F
:103570000E94A5095C01F401619071904F016826D9
:10358000792661147104B1F40F5F1F4F04301105E7
:1035900069F78FEF89838A831B820E94D32781601A
:1035A000782F9D838C8349815A816B818D810E9404
:1035B0004D1B3AC08091DB0281FD0E94AE09D12CE7
:1035C000EE24E394F12CC3018E219F21892B29F154
:1035D0000E94461A8823A9F0DE82CF82AE20BF2047
:1035E00081E0AB2809F480E088870E94D3278160BE
:1035F000782F9A8789874E815F8168858A850E94A6
:103600004D1B000F111FF801E95BFD4F8081918177
:10361000E826F926F182E08207C0D394EE0CFF1C65
:10362000FCE0DF12D0CFB0CF0E940F160E941B0D1E
:103630000E948F19909146028917D1F00E948F192C
:10364000809346022A960FB6F894DEBF0FBECDBF18
:10365000DF91CF911F910F91FF90EF90DF90CF906E
:10366000BF90AF909F908F907F906F900C94691A4D
:103670002A960FB6F894DEBF0FBECDBFDF91CF9173
:103680001F910F91FF90EF90DF90CF90BF90AF9080
:103690009F908F907F906F900895DF92EF92FF92AE
:1036A0000F931F93CF93DF93CDB7DEB72B970FB652
:1036B000F894DEBF0FBECDBFF42E052F162FE72ED8
:1036C000D82E61110E942C25FE01319686E0DF0183
:1036D0001D928A95E9F77E2D4F2D502F612F8D2D4C
:1036E0009E810E94F9212B960FB6F894DEBF0FBE83
:1036F000CDBFDF91CF911F910F91FF90EF90DF90A1
:103700000895FC01808191810E94CD240895CF937A
:10371000882309F4A4C0C82F8238C1F40E948F19ED
:1037200081FD9DC069E380911F01909120010E945D
:1037300023270E945A252FEF81EE94E021508040EC
:103740009040E1F700C0000069E319C0833801F53B
:103750000E948F1980FD83C063E580911F019091C5
:1037600020010E9423270E945A252FEF81EE94E02A
:10377000215080409040E1F700C0000063E5809157
:103780001F01909120010E942E27CF910C945A2561
:103790008438C1F40E948F1982FD61C067E4809172
:1037A0001F01909120010E9423270E945A252FEF8C
:1037B00081EE94E0215080409040E1F700C000008D
:1037C00067E4DDCF8CEF8C0F813AD0F46C2F8091C1
:1037D0001F01909120010E948126882349F06C2FBF
:1037E00080911F01909120010E942E270E945A254E
:1037F0006C2F80911F01909120010E942327C5CF3B
:1038000080E28C0F883048F4C77081E001C0880FD7
:10381000CA95EAF70E940F25B8CFEBE5EC0FE3302D
:1038200040F4F0E0EA53FE4F808190E0CF910C9499
:10383000FE19E8E5EC0FE73150F4F0E0EE0FFF1F62
:10384000E856FE4F80819181CF910C94141ACD3EA1
:1038500030F08C2F0E94A90BCF910C947B0CCF9150
:103860000895882309F464C0823879F40E948F197E
:1038700081FF5EC069E380911F01909120010E9449
:1038800023270E945A2569E310C08338B1F40E94AF
:103890008F1980FF4DC063E580911F019091200139
:1038A0000E9423270E945A2563E580911F01909171
:1038B00020010E942E270C945A25843879F40E9406
:1038C0008F1982FF35C067E480911F01909120011C
:1038D0000E9423270E945A2567E4E7CF9CEF980FA8
:1038E000913A10F4682FE1CF90E2980F983050F49D
:1038F000877091E001C0990F8A95EAF7892F0E949D
:103900001525D9CF9BE5980F933020F480E090E007
:103910000C94FE1998E5980F973120F480E090E020
:103920000C94141A8D3E20F00E94040C0C947B0C15
:1039300008951F93CF93DF93182FEB010E94871BED
:10394000209741F08FE99FE00197F1F700C0000058
:103950002197F6CF812FDF91CF911F910C94311CCD
:10396000893319F060E070E002C060E570E00C940B
:10397000991C882321F00E940F250C945A25089544
:10398000882321F00E9415250C945A250895CF9282
:10399000DF92EF92FF920F931F93CF93DF937C01FF
:1039A000062FC72FFC01D281158112951F700E942E
:1039B0000525882399F0DD2389F08C2F807F8034C2
:1039C00021F080E2800F883048F082E00E94A42538
:1039D0000E94052591E0D82ED92601C0D12CCC2EED
:1039E000C2948FE0C8228C2D90E0FC01E659FF4F75
:1039F0000C9460308C2F807FCF70882311F0C2959B
:103A0000C07FDD2399F0CC2309F487C180E2800FC9
:103A1000883010F0011104C08C2F0E940F2503C0C4
:103A20008C2F0E941F250E945A2577C1802F0E944B
:103A3000311CCC2309F496C180E2800F883010F04D
:103A4000011104C08C2F0E94152503C08C2F0E94E9
:103A500025250E945A2586C18C2F807FCF70803209
:103A600011F0C295C07F002319F00130C9F025C0C4
:103A7000DD2371F0112341F0113031F40E943F2514
:103A80008C2B0E9447256EC10E943F258C2B0EC0B7
:103A9000112319F0113009F465C10E9450251FC08F
:103AA000DD2339F0163008F05DC18C2F0E94B91C5F
:103AB00059C1153008F056C112C0DD2319F0112389
:103AC000A1F32BC1112359F0093309F037C1FFEFDE
:103AD00027EE83E0F15020408040E1F72DC18C2F8C
:103AE0000E94C01C3FC18C2F86958695837019F06B
:103AF000813061F037C1DD2321F0802F9C2F93703E
:103B000002C080E090E00E94FE1934C1DD2321F064
:103B1000802F9C2F937002C080E090E00E94141AC6
:103B200029C1802FDD2319F00E94A90B02C00E9439
:103B3000040C0E947B0C1EC18C2F837009F045C0C1
:103B4000D11114C1402F429546954770440F440F40
:103B5000602F6F70862F90E0A0E0B0E0042E04C0CC
:103B6000880F991FAA1FBB1F0A94D2F704FF10C029
:103B70000FE010E020E030E004C0000F111F221F12
:103B8000331F4A95D2F7009510952095309503C0C4
:103B900000E010E09801C695C695C370BC01CD0148
:103BA000602B712B822B932BC23049F058F4C1301B
:103BB00019F00E944A23DAC00E943823D7C00E941D
:103BC0005C23D4C00E943623D1C0DD2319F08C2F92
:103BD000817001C08695882309F4C8C0402F4295A2
:103BE00046954770440F440F602F6F70862F90E00A
:103BF000A0E0B0E0042E04C0880F991FAA1FBB1FCD
:103C00000A94D2F704FF10C00FE010E020E030E08B
:103C100004C0000F111F221F331F4A95D2F70095D1
:103C200010952095309503C000E010E09801C695EE
:103C3000C695C370BC01CD01602B712B822B932BD9
:103C4000C23049F058F4C13019F00E940F248EC0E0
:103C50000E94FD238BC00E94212488C00E947023F3
:103C600085C0CF70DD2339F08C2F0E949623802FE2
:103C70000E94B91C7BC0802F0E94C01C8C2F0E9408
:103C8000B72374C0023F01F128F4003F41F0013F27
:103C9000A1F03FC0033FF9F0043F39F13AC0DD2302
:103CA00041F0153008F05EC08C2F8F710E94DC232C
:103CB00059C0163008F056C0F7CFDD2339F08C2FED
:103CC0008F710E9496234EC0DD23C9F38C2F8F7114
:103CD0000E94B72347C0DD2329F08C2F8F710E94EB
:103CE000812340C00E947C233DC0DD2349F0CF7179
:103CF0008C2F0E94962363E08C2F0E948F2532C068
:103D000081E00E94A425123068F182E00E94A4257F
:103D100029C0DD2331F0112391F2802F0E94871BEF
:103D200021C0112399F2093349F49FEFE7EEF3E044
:103D30009150E040F040E1F700C00000802F0E9469
:103D4000311C10C04C2F4F70602FC7010E94970785
:103D50000E94A7220FC04C2F4F70602FC7010E94F6
:103D60009A0708C088EF8C0D843020F40E948F19C8
:103D70000E948E07DD20C9F00E94012580FD15C03C
:103D8000F70112820E94FB240E949623C7010E9421
:103D9000F61E0E94FB24DF91CF911F910F91FF909F
:103DA000EF90DF90CF900C94B723DF91CF911F91CC
:103DB0000F91FF90EF90DF90CF9008950F931F9396
:103DC000CF93DF93EC01688179818A810E94D824A6
:103DD0008C010E9433240E942423B801CE010E944A
:103DE000C71CDF91CF911F910F910895CF93DF935F
:103DF000EC01988189812B813C81232B31F08F3F0D
:103E000031F481E09F3F19F403C081E001C080E0FC
:103E100080FD19C0CE010E94040781110CC00E94D0
:103E20000525882381F08A81882369F082E0DF916B
:103E3000CF910C94A425CE010E94DE1ECE01DF910D
:103E4000CF910C94DF06DF91CF91089580E090E050
:103E50000E94FE1980E090E00E94141A0E942C2516
:103E60000E943C250E945A250E942E0E0C947B0C29
:103E700080911F01909120010E9439270C94261FE8
:103E80000E941C250C94381FE92FE295EF704E2FED
:103E900050E0FA013297EE30F105B0F4E658FF4FEA
:103EA0000C946030803F91F018F4883E68F40EC0A6
:103EB000843F51F40BC0883E48F0813F29F406C08E
:103EC00093FB882780F9089580E0089581E00895A4
:103ED0000E94CD240E94441F0895CF93DF9300D009
:103EE00000D01F92CDB7DEB70F900F900F900F90BC
:103EF0000F90DF91CF910895CF93DF9300D000D042
:103F000000D0CDB7DEB726960FB6F894DEBF0FBE51
:103F1000CDBFDF91CF9108951F93CF93DF93C091D1
:103F2000580216E080915902C81799F0D0E01C9F02
:103F3000F0011D9FF00D1124E65AFD4F4081518183
:103F400062817381848195810E947C1F2196C77054
:103F5000E9CFDF91CF911F91089540918A0250914E
:103F60008B0260918C0270918D0280918E029091F3
:103F70008F020C947C1F0F931F93CF93DF9380913C
:103F80008F0282958F7009F05DC080918C0288232A
:103F900009F458C0809158021091590260918A0228
:103FA00070918B02C0918D02D0918E0291E06F3F93
:103FB00009F090E0292F06E0811709F443C020970B
:103FC00021F07F3F21F030E003C031E001C0322F0B
:103FD00090E030FD34C0089FF001099FF00D1124DE
:103FE000DF01A65ABD4F11963C911197371327C098
:103FF0003C91361324C012963C91129731111FC088
:1040000013964D915C9114974C1B5D0B483C5105E8
:10401000B0F480918F028F70806180938F02E15A9B
:10402000FD4F80818F70806180838AE892E00E94DA
:10403000F61EDF91CF911F910F910C948C1F01966A
:104040008770BACFDF91CF911F910F9108959F9202
:10405000AF92BF92CF92DF92EF92FF920F931F9396
:10406000CF93DF93CDB7DEB761970FB6F894DEBF7D
:104070000FBECDBF8C0185E0F801DE011D960190D9
:104080000D928A95E1F7F80140815181E28090918B
:104090008A0260918B0220918D0230918E0221154F
:1040A000310531F06F3F31F481E09F3F19F403C0D7
:1040B00081E001C080E0F82FF1709F2E80FD46C1A5
:1040C000F801A380B4808AE8C82E82E0D82EF09050
:1040D0008C02F501E21BF30BFF2009F4DFC0809195
:1040E0008F02E83CF10508F09BC0282F207F09F0E3
:1040F00052C0561313C0491311C0FE2CE1100EC05C
:104100008F70806180938F020E94AD1FC6010E9454
:10411000F61E80918F02F801858358C1AB2831F0DB
:104120005F3F31F481E04F3F19F403C081E001C0EB
:1041300080E080FD03C081E08E2502C080E090E039
:10414000F82FF170FF2E80FF1CC080915802209143
:10415000590236E0821709F417C190E0389FF00148
:10416000399FF00D1124E65AFD4F6181561306C0A8
:104170006081461303C06281E61203C00196877016
:10418000E9CFFE2CEE2009F421C180918F028160DD
:1041900080938F025AC0561306C0491304C0E11021
:1041A00002C0F8019FC04D875E878D859E850E9465
:1041B000681F882379F1EE2069F120918F02822F08
:1041C00082958F7090E0029774F080918A029091AE
:1041D0008B0298878F831986BB86AA862C87CE018F
:1041E00007960E94F61E86E0F801AAE8B2E0019068
:1041F0000D928A95E1F70E94BB1F0E94AD1F0DC072
:10420000561729F14D875E878D859E850E94681F10
:1042100081112CC0C8010E94F61EFF24F394D6C061
:10422000282F207F69F77A2DB98AA88A6E2D89896F
:104230000E946D1F8AE892E00E94F61E86E0F60159
:1042400011928A95E9F70E94AD1FF12CBFC0491366
:10425000D9CFE110D7CFF8018583C8010E94F61E9F
:1042600086E0F60111928A95E9F7B0C0EE2091F24E
:1042700020918F02822F82958F7090E002970CF42C
:10428000B2CF80918A0290918B029A8389831B829C
:10429000BD82AC822E83CE010196A3CFE83CF1050E
:1042A00008F047C0FE2CEE2009F4B4CF561330C0FE
:1042B00049132EC020918F0220FD21C0822F8295AC
:1042C0008F70482F50E041155105C9F0F801258342
:1042D0004F30510541F08F5F982F9295907F822F3C
:1042E0008F70892B8583C8010E94F61E86E0F80135
:1042F000AAE8B2E001900D928A95E1F742C086E00B
:10430000F801AAE8B2E001900D928A95E1F75EC04B
:104310004D875E878D859E850E94681F811163CFC2
:1043200080918F02816080938F02C8010E94F61EE7
:104330004DC07A2DB98AA88A6E2D89890E946D1F79
:1043400086E0F60111928A95E9F71BC0EE2009F488
:1043500061CF4D875E878D859E850E94681FF82EF0
:10436000882309F457CF86E0F801AAE8B2E001906B
:104370000D928A95E1F78AE892E00E94811B0E94E3
:10438000BB1F0E94AD1F22C04D875E878D859E8515
:104390000E94CD24292F22952F70223028F49F705F
:1043A00039F0811105C00BC0243028F49F7049F406
:1043B000805E883020F0C8010E94F61E9F2CF92CE8
:1043C00005C0F8019581907F99F7F9CF8F2D6196FF
:1043D0000FB6F894DEBF0FBECDBFDF91CF911F9116
:1043E0000F91FF90EF90DF90CF90BF90AF909F9094
:1043F00008951F93CF93DF93CDB7DEB72C970FB6F9
:10440000F894DEBF0FBECDBF4F83588769877A8788
:104410008B879C87CE0107960E9427208823D1F0A6
:104420009F8188852A853B85232B31F08F3F31F48E
:1044300081E09F3F19F403C081E001C080E080FD6E
:1044400047C04F81588569857A858B859C850E94F8
:104450007C1F3EC086E0FE013796DE01119601907A
:104460000D928A95E1F7FF81E8856A857B85611564
:10447000710531F0EF3F31F481E0FF3F19F403C0E3
:1044800081E001C080E080FD23C02091590230E02E
:10449000C9010196877099274091580250E084170E
:1044A0009507F1F1F983EA837D836C8396E0929F0F
:1044B000D001939FB00D1124A65ABD4FFE01319635
:1044C00001900D929A95E1F7809359020E948C1FFA
:1044D00016E08091580290915902891771F1189F46
:1044E000C0011124865A9D4F0E942720882329F15C
:1044F000E09158021E9FF0011124E65AFD4F4081C1
:10450000518162817381848195810E947C1F809199
:10451000580290E001968770992780935802D9CF6E
:104520000E94401F1092590210925802EAE8F2E0ED
:1045300086E0DF011D928A95E9F72C960FB6F89474
:10454000DEBF0FBECDBFDF91CF911F910895EF92D7
:10455000FF920F931F93CF93DF938C01892B09F464
:104560006CC0F12CEE24E394E8012196F8018491CB
:10457000843740F4843008F051C0813081F08230BB
:1045800019F15BC0853709F444C0A8F19CE7980F86
:10459000903708F052C08F770E94311C41C00E5FE7
:1045A0001F4FFE01849190E2980F983050F487706D
:1045B000FE2D01C0FF0F8A95EAF78F2F0E942F254D
:1045C00014C00E94871B2DC00E5F1F4FFE018491F7
:1045D00090E2980F983060F48770FE2D01C0FF0FB5
:1045E0008A95EAF78F2F0E9435250E945A2519C017
:1045F0000E94311C16C00E5F1F4FFE01C491CC23D8
:1046000081F08FE99FE00197F1F700C00000C150F1
:10461000F6CF0E5F1F4FFE01F49003C00E94871B70
:104620008E018F2D882309F49FCFEFE9FFE03197AA
:10463000F1F700C000008150F5CFDF91CF911F91BD
:104640000F91FF90EF900895089508950C942523FD
:104650000C9426230E9428236093B2027093B30225
:104660008093B4029093B5020C94261F0C942A23D5
:104670000F931F930091B2021091B3022091B402E4
:104680003091B502602B712B822B932B1F910F91D0
:104690000C942A230F931F930091B2021091B3023E
:1046A0002091B4023091B5026023712382239323B9
:1046B0001F910F910C942A230F931F930091B20224
:1046C0001091B3022091B4023091B5026027712796
:1046D000822793271F910F910C942A230C94252352
:1046E0000E946E236093AE027093AF028093B0027B
:1046F0009093B1020C94261F60E070E0CB010C9403
:1047000070230F931F9341E050E060E070E08A0156
:104710009B0104C0000F111F221F331F8A95D2F77F
:10472000C901B8011F910F910C9470230F931F932F
:1047300041E050E060E070E004C0440F551F661F88
:10474000771F8A95D2F78091AE029091AF02A09127
:10475000B002B091B1028A019B01082B192B2A2BC0
:104760003B2BC901B8011F910F910C9470230F933B
:104770001F9341E050E060E070E004C0440F551F1B
:10478000661F771F8A95D2F7409550956095709572
:104790008091AE029091AF02A091B002B091B102AF
:1047A0008A019B01082319232A233B23C901B8014D
:1047B0001F910F910C9470230F931F9341E050E0D1
:1047C00060E070E004C0440F551F661F771F8A9594
:1047D000D2F78091AE029091AF02A091B002B09159
:1047E000B1028A019B01082719272A273B27C90103
:1047F000B8011F910F910C9470230F931F93009198
:10480000AE021091AF022091B0023091B102602B44
:10481000712B822B932B1F910F910C9470230F936C
:104820001F930091AE021091AF022091B00230911F
:10483000B10260237123822393231F910F910C9463
:1048400070230F931F930091AE021091AF0220913D
:10485000B0023091B10260277127822793271F9100
:104860000F910C94702308952CE0929F800D1124D9
:10487000E82FE695E695E695877051E001C0550F63
:104880008A95EAF785E0E89FF0011124E057FD4F93
:1048900020E030E070E04081CB01022E02C096950E
:1048A00087950A94E2F78170819584278523842770
:1048B00081932F5F3F4F2530310569F708952CE034
:1048C000929F800D1124682F669566956695982FA6
:1048D000977085E0689FB001112440E050E080E0CF
:1048E000FB01E40FF51FE057FD4F208130E0092E5A
:1048F00002C0369527950A94E2F721703327042EDB
:1049000001C0220F0A94EAF7822B4F5F5F4F4530B8
:10491000510531F70895BF92CF92DF92EF92FF9247
:104920000F931F93CF93DF938C01C090AE02D09072
:10493000AF02E090B002F090B1028091B20290918B
:10494000B302A091B402B091B502C82AD92AEA2ACA
:10495000FB2ACFE1D0E0D701C6010C2E04C0B695EA
:10496000A795979587950A94D2F780FD04C0219763
:1049700090F7B12C07C0BC2EB8018C2F0E94B6074F
:104980000197A9F38B2DDF91CF911F910F91FF908C
:10499000EF90DF90CF90BF900895CF93DF93EC011D
:1049A0000E948B24BE010E94B607DF91CF9108952B
:1049B0001F93CF93DF93EB0190915702992321F03E
:1049C000CB010E94CD2413C0882349F0CB010E9463
:1049D0008B24182F682FCE010E94342404C0CB01F1
:1049E0000E945F24182FBE01812F0E94B607DF911D
:1049F000CF911F9108958091B602859585958595F3
:104A000008958091B602877008959091B6029770CC
:104A100081E009F480E008958091DA020895909190
:104A2000DA02892B8093DA02089580959091DA0258
:104A300089238093DA0208951092DA020895909102
:104A4000D902892B8093D902089580959091D9023B
:104A500089238093D90208951092D90208959091E4
:104A6000D802892B8093D802089580959091D8021E
:104A700089238093D80208951092D80208958091D6
:104A8000B702089508950C9442250C944325909103
:104A9000B702981721F08093B7020C94452508952A
:104AA0008091B702882329F01092B70280E00C941D
:104AB00045250895E0911F01F09120018091DA02CF
:104AC0008083E0911F01F091200190818091D902B3
:104AD000892B8083E0911F01F091200190818091CA
:104AE000D802892B80838091B702882381F0E091DE
:104AF0001F01F09120019081892B808380911F01FB
:104B0000909120010E946B2681110E945025809176
:104B10001F01909120010C949B190C94422598E060
:104B2000899F90011124262B2093B6020E94962380
:104B30008091B6028595859585950C948D2510926A
:104B4000B60280E00C948D252091B60280958223D8
:104B50008093B602982F977079F430E0482F082E92
:104B6000000C550B2417350739F0859585958595EB
:104B70000E94B7230C949F25089580E090E00E9446
:104B80000E3121E08B3E9E4F09F020E0822F0895E8
:104B900082E090E00C94003183E090E00C940031CE
:104BA000CF9384E090E00E940031C82F81E290E032
:104BB0000E9400312C2F30E0A901582BCA01CF915F
:104BC0000895CF93C92F682F84E090E00E9414319C
:104BD0006C2F81E290E0CF910C941431AB01BC01B9
:104BE0008FE090E00C942631AB01BC0183E190E0B2
:104BF0000C94263160E070E0CB010C94F42560E069
:104C000070E0CB010E94EE250C94FA256BEE7EEF4E
:104C100080E090E00E94323160E082E090E00E940B
:104C2000143160E083E090E00E9414311092B202EF
:104C30001092B3021092B4021092B50260E084E0C8
:104C400090E00E94143160E081E290E00E94143113
:104C500060E085E090E00E94143160E086E090E042
:104C60000E9414316FEF87E090E00E94143140E021
:104C700050E0BA0188E090E00E94263160E08DE0CB
:104C800090E00E94143140E050E0BA0188E190E0E9
:104C90000E94263160E087E190E00E94143140E0FC
:104CA00050E0BA018CE190E00E94263160E080E2A1
:104CB00090E00E94143140E050E0BA0188E190E0B9
:104CC0000E9426310C94FF250C940626682F8EE056
:104CD00090E00C941431FC01329680912B018823D2
:104CE00031F08091450387FF02C09EE101C096E04C
:104CF00080E0915028F021912223D9F38F5FF9CFE2
:104D00000895662351F120912B012223E9F020918F
:104D1000450327FF19C0462F4695469546954E31C7
:104D2000E0F4677021E030E002C0220F331F6A9583
:104D3000E2F7FC01E40FF11D828190E02823392382
:104D400081E0232B69F409C0FC0132960896219179
:104D5000621729F0E817F907D1F780E0089581E09C
:104D600008959C01FC0132969FEF80E04191461727
:104D700089F09F3F19F4411101C0982F8F5F863051
:104D8000A9F79F3F39F0F901E90FF11D97FDFA9559
:104D90006283089508959C012A5F3F4FFC01428180
:104DA000461301C01282019682179307B9F708953E
:104DB000262F2695269526952E3170F4FC01E20FBC
:104DC000F11D677021E030E001C0220F6A95EAF71B
:104DD0008281282B228308958091DB0280FF0CC002
:104DE0001F926F9382E499E09F938F930E948A06AB
:104DF0000F900F900F900F900895262F26952695CF
:104E000026952E3178F4FC01E20FF11D677021E048
:104E100030E001C0220F6A95EAF7209582812823AD
:104E2000228308958091DB0280FF0CC01F926F9354
:104E300084E299E09F938F930E948A060F900F90CF
:104E40000F900F90089520912B01222329F020919B
:104E5000450327FD0C94D8260C94B12620912B01F4
:104E6000222329F02091450327FD0C94FD260C9464
:104E7000CB2620912B01FC013296222331F0809128
:104E8000450387FF02C08EE101C086E0DF011D926D
:104E90008A95E9F7089508950C944B270C944B27B5
:104EA000CF930E944E270E94590A0E944C27C0E0CF
:104EB0008C2F0E94A509892B29F4CF5FC430C1F73C
:104EC00080E001C081E0CF9108950C944B270C94B1
:104ED000652780914B03843049F10E94672780E069
:104EE0000E948E071092DC0220E488E190E00FB669
:104EF000F894A895809360000FBE2093600083B75C
:104F0000817F846083BF83B7816083BF78948895F5
:104F100083B78E7F83BF0FB6F894A8958091600009
:104F2000886180936000109260000FBE08950C9419
:104F30004B270E94401F0E948F190E948E070C94DD
:104F400097271F920F920FB60F9211248F939F9362
:104F5000AF93BF938091DC02811113C08091410314
:104F600090914203A0914303B09144034196A11D47
:104F7000B11D8093410390934203A0934303B093E8
:104F80004403BF91AF919F918F910F900FBE0F90EF
:104F90001F90189582E084BD93E095BD9AEF97BD70
:104FA00080936E0008952FB7F894809141039091FB
:104FB0004203A0914303B09144032FBF08952FB73C
:104FC000F894609141037091420380914303909162
:104FD00044032FBF08959C014FB7F894809141037B
:104FE00090914203A0914303B09144034FBF821BB1
:104FF000930B089578941F920F920FB60F9211247D
:105000008F939F93AF93BF938091410390914203FD
:10501000A0914303B09144030196A11DB11D80935B
:10502000410390934203A0934303B0934403BF9181
:10503000AF919F918F910F900FBE0F901F90189579
:1050400081E08093E00080E28093D8001092C90054
:105050008FE19EE40197F1F700C0000087E090EB3C
:10506000DC018093540390935503A0935603B093AF
:1050700057039CE088E10FB6F894A89580936000F0
:105080000FBE90936000FFCF9093D9018093D80119
:1050900008950E94BD25811102C00E9464260E94CD
:1050A000C8258093DB020E94D0259093460380930D
:1050B00045030E94CC25682F70E080E090E00E94BC
:1050C00036236091AE027091AF028091B002909150
:1050D000B1020C946E23809100030895CF93DF9367
:1050E00000D01F92CDB7DEB790914B03943019F5E5
:1050F00089837B836A8382E08093E9008FEF9091BC
:10510000E800815095FD06C095ED9A95F1F70000F5
:105110008111F5CF8091E80085FF0DC040E050E09F
:1051200063E070E0CE0101960E945F2B8091E80061
:105130008E778093E8000F900F900F90DF91CF91C2
:105140000895BC0184E00C946E28BC0183E00C94AB
:105150006E2822E02093E9002FEF3091E8002150E3
:1051600035FD06C035ED3A95F1F700002111F5CF78
:105170002091E80025FF0BC040E050E066E070E0C1
:105180000E945F2B8091E8008E778093E80008955D
:10519000CF93DF9320912B01222339F020914503F7
:1051A00027FF03C060E222E002C068E021E0209314
:1051B000E9002FEF3091E800215035FD06C035EDB4
:1051C0003A95F1F700002111F5CF2091E80025FF75
:1051D0001DC0EC0180912B01811105C040E050E021
:1051E00068E070E003C070E040E050E0CE010E9453
:1051F0005F2B8091E8008E778093E80080E2FE01CB
:10520000A0EEB2E001900D928A95E1F7DF91CF9187
:10521000089585E899E00E94F10580914A03811183
:1052200009C00E94F02C0E944D2D8091E200846004
:105230008093E200089581E899E00E94F1051092C0
:105240004A0308958DE799E00C94F10589E799E008
:105250000C94F10585E799E00C94F1052091DE02AC
:105260002F5F822F62E30E94FC2F992319F0209375
:10527000DE0208951092DE028091DF02882371F130
:1052800080914B03843041F58091E9008F7020912B
:10529000EC00922F917020FD90E8892B93E0909381
:1052A000E9009091EB0090FF14C09091EE0097FF01
:1052B00010C09091E80095FF03C01092F100F9CF63
:1052C0009091E80090FF05C09091E8009E77909340
:1052D000E8008F708093E9001092DF02089542E0A9
:1052E00061EC81E00E94692C42E261EC82E00E9464
:1052F000692C42E261EC83E00C94692C80914D03AF
:10530000833009F460C030F4813071F0823009F4E8
:1053100099C008958A3009F485C08B3009F46BC0B8
:10532000893009F0A7C020C080914C03813A09F070
:10533000A1C08091E800877F8093E80080915003AE
:1053400090915103892B21F460E280EE92E003C03A
:1053500060E080E090E070E00E94AA2B8091E8007D
:105360008B778093E800089580914C03813209F097
:1053700081C08091500390915103029708F07AC048
:105380008091E800877F8093E8008091E80082FDAB
:1053900005C080914B038111F8CF6CC02091F300C0
:1053A0008091F20090E0922B029729F48091F10015
:1053B0008B7F813021F48091F100809300038091F4
:1053C000E8008B7753C080914C03813A09F052C0BA
:1053D0008091500390915103892B09F04BC080912B
:1053E000E800877F8093E8008091E80080FFFCCF91
:1053F00080912B0136C080914C038132D9F5809188
:10540000500390915103892BA9F58091E800877F83
:105410008093E8000E949E2C80914E0380932B0184
:105420000C94401F80914C03813221F58091E8005B
:10543000877F8093E8000E949E2C80914F03809389
:105440000103089580914C03813AA1F48091E80012
:10545000877F8093E8008091E80080FFFCCF8091F7
:1054600001038093F1008091E8008E778093E8003B
:105470000C949E2C08959FB7F8941092DF029FBF62
:1054800090914B03943009F057C09091E9009F70C0
:105490003091EC00232F217030FD20E8922B23E087
:1054A0002093E9002091EB0020FF43C02091EE0003
:1054B00027FF3FC02091DD02222321F02091E80048
:1054C00025FF37C01092DD0226E03091E80035FD5F
:1054D00015C030914B03343061F53091EB0035FD50
:1054E00028C0215021F481E08093DD0222C0EFE941
:1054F000FFE03197F1F700C00000E7CF8093F100A3
:105500008091E80085FD0AC08091E80080FFFCCF13
:105510008091E8008E778093E80006C08FB7F894FA
:1055200021E02093DF028FBF9F709093E90080E01D
:1055300008959F709093E9008FEF089584B7877F57
:1055400084BF0FB6F894A89580916000886180931D
:105550006000109260000FBE90E080E80FB6F894F3
:1055600080936100909361000FBE0E94551A0E94C3
:10557000F02C0E944D2D8091E20084608093E20027
:1055800078940E94E12F0E945F1A81E291E00E94CC
:105590008A1984E699E00E94F10580914B038530D9
:1055A000C9F480E699E00E94F10580914B038530B3
:1055B00079F40E946927809149038823B1F30E94FE
:1055C0005027882391F30E94492B0E94401FEDCF62
:1055D0000E9499270E94911A0E94491A0E94481A13
:1055E000DCCF0C94F32A292F332723303105C9F05F
:1055F00060F42130310581F02230310509F041C0DD
:105600008BE590E023EB39E040C021323105E1F039
:105610002232310531F135C082E190E02EE03AE0EE
:1056200034C099278130910549F028F0029749F557
:10563000E9E8F9E005C0EFEAF9E002C0EDE9F9E0D8
:10564000849190E09F0121C063307105D0F4660F12
:10565000771FFB01EE52FE4F2081318189E090E0FF
:1056600014C06330710568F4FB01EE0FFF1FE453B3
:10567000FE4F20813181FB01E753FE4F808190E096
:1056800004C080E090E020E030E0FA013183208324
:10569000089580E189BD82E189BD09B400FEFDCF96
:1056A0008091D8008F7D8093D8008091E000826047
:1056B0008093E0008091E00081FDFCCF0895CF92BF
:1056C000DF92EF92FF920F931F93CF93DF93EC0142
:1056D0008B017A010E94BD2C811133C0E114F104C9
:1056E00039F0F70180819181081B190BC80FD91F70
:1056F000C12CD12C0115110519F18091E80085FD0F
:1057000016C08091E8008E778093E800E114F104E0
:1057100049F0F70180819181C80ED91ED182C082E3
:1057200085E00FC00E94BD2C882321F30AC0899117
:105730008093F10001501109FFEFCF1ADF0ADACF91
:1057400080E0DF91CF911F910F91FF90EF90DF905C
:10575000CF900895209152033091530326173707B5
:1057600048F06115710539F42091E8002E772093F7
:10577000E80001C0B901FC0120E06115710579F173
:1057800080914B038823F1F18530F1F18091E8009D
:1057900083FD3CC08091E80082FD2EC08091E8002E
:1057A00080FFEBCF2091F3008091F20090E0922BEC
:1057B0006115710551F08830910538F421912093DD
:1057C000F100615071090196F3CF21E0089709F0CB
:1057D00020E08091E8008E778093E800CECF211101
:1057E000CFCF0AC080914B03882361F0853061F0F0
:1057F0008091E80083FD0AC08091E80082FFF2CF2B
:1058000080E0089582E0089583E0089581E008959E
:1058100020915203309153032617370748F0611542
:10582000710539F42091E8002E772093E80001C03B
:10583000B901FC0120E06115710591F180914B03E4
:10584000882309F440C0853009F43FC08091E80006
:1058500083FD3DC08091E80082FD2FC08091E8006B
:1058600080FFE9CF2091F3008091F20090E0922B2D
:105870006115710559F08830910540F42491209309
:10588000F1003196615071090196F2CF21E008973D
:1058900009F020E08091E8008E778093E800CBCF7C
:1058A0002111CCCF0AC080914B03882361F0853051
:1058B00061F08091E80083FD0AC08091E80082FFDA
:1058C000F2CF80E0089582E0089583E0089581E0BA
:1058D0000895982F973068F59093E900981739F05C
:1058E0007091EC002091ED005091F00003C0242F46
:1058F000762F50E021FD02C09F5FECCF3091EB008E
:105900003E7F3093EB003091ED003D7F3093ED0012
:105910003091EB0031603093EB007093EC002093FA
:10592000ED005093F0002091EE0027FDE5CF80E0E0
:1059300008958F708093E90081E0089580914C0371
:1059400087FF11C08091E80082FD05C080914B0364
:105950008111F8CF11C08091E8008B770BC0809146
:105960004B03882349F08091E80080FFF8CF8091B5
:10597000E8008E778093E80008952091E40030914C
:10598000E50095E64091EC00842F817040FF23C034
:105990008091E80080FD1DC080914B03882399F021
:1059A000853099F08091EB0085FD11C04091E400B5
:1059B0005091E5002417350729F3915011F09A0111
:1059C000E1CF84E0089582E0089583E0089581E0C6
:1059D000089580E008954091E80042FFDDCF0895EA
:1059E0000E945E2D0E94662DE0EEF0E080818160D5
:1059F0008083E8EDF0E080818F77808319BCA7ED8C
:105A0000B0E08C918E7F8C9380818F7E808310920A
:105A10004A0308950F931F93CF93DF930E945E2D47
:105A20000E94662DC8EDD0E088818F7788838881B9
:105A30008068888388818F7D888319BC10924B038E
:105A400010924703109249031092480300EE10E0B1
:105A5000F80180818B7F808388818160888342E028
:105A600060E080E00E94692CE1EEF0E080818E7FB2
:105A70008083E2EEF0E080818160808380818860B5
:105A80008083F80180818E7F808388818061888314
:105A9000DF91CF911F910F910895E8EDF0E08081A3
:105AA0008F7E8083E7EDF0E080818160808384E0F9
:105AB00082BF81E080934A030C940A2DE8EDF0E068
:105AC00080818E7F80831092E20008951092DA0028
:105AD0001092E10008951F920F920FB60F921124B9
