:100000000C9459030C9491030C9491030C94910358
:100010000C9491030C9491030C9491030C94910310
:100020000C9491030C9491030C9460260C9431274A
:100030000C9491030C9491030C9491030C949103F0
:100040000C9491030C94D31C0C9491030C94910385
:100050000C9491030C94F2210C9491030C94910351
:100060000C9491030C9491030C9491030C949103C0
:100070000C9491030C9491030C9491030C949103B0
:100080000C9491030C9491030C9491030C949103A0
:100090000C9491030C9491030C9491030C94910390
:1000A0000C9491030C9491030C9491032900140077
:1000B0001A000800150017001C0018000C001200A0
:1000C00013002A002B0004001645074409430A00C8
:1000D0000B000D430E440F4534002800E1001D00C5
:1000E0001B00060019000500050011001000360075
:1000F00037003800E000E20000004C242A222921C9
:100100002B342C3128380000E70061520000000039
:1001100000000000000000000000000000000000DF
:1001200000000000000000000000000000000000CF
:1001300000000000000000000000000000000000BF
:1001400000000000000000000000000000000000AF
:10015000000000000000000000000000000000009F
:10016000000000000000000000000000000000008F
:10017000000000000000000000000000000000007F
:10018000000000000000000000000000000000006F
:10019000000000000000000000000000000000005F
:1001A000000000000000000000000000000000004F
:1001B000000000000000000000000000000000003F
:1001C00000000000000000000000000035002F00CB
:1001D000610060005F0030004B004A0052004D009B
:1001E00049004C00530033005E005D005C002E00AF
:1001F0004E00500051004F003400000001002D005F
:100200005B005A00590031000000000000000000AF
:100210000000000001000100000063006200000017
:1002200001000100010000000000E60035022F027D
:100230002602250224023002D900D100CD00D200CE
:10024000D400D300390033022302220221022E02FD
:10025000DA00CF00CE00D000D500000001002D0252
:1002600020021F021E0231020000DB00DD00DE0062
:10027000DF00DC0001000000000026022702000071
:10028000010001000100000000000000007C4300AC
:10029000420041004000460027782278A9002178DA
:1002A00000002078000044003F003E003D00470071
:1002B0002878AC00AA00AB00000000000100450057
:1002C0003C003B003A004800000000000000000035
:1002D000000000000000000000000000000000001E
:1002E000A800AE00AD000000000000001E0F0500D9
:1002F000047F3F1F643214643214783C1E1E140ABB
:10030000052223252628292A2C2D2F303233353655
:10031000383A3B3D3E4042434547494A4C4E505196
:10032000535557595A5C5E6062646668696B6D6FBD
:1003300071737577797B7D7F81838587898A8C8EC0
:1003400090929496989A9C9E9FA1A3A5A7A8AAACC8
:10035000AEAFB1B3B4B6B8B9BBBCBEBFC1C2C3C502
:10036000C6C7C9CACBCCCDCED0D1D2D2D3D4D5D6A4
:10037000D7D7D8D9D9DADADBDBDBDCDCDCDCDCDDD7
:10038000DDDDDDDCDCDCDCDCDBDBDBDADAD9D9D8BB
:10039000D7D7D6D5D4D3D2D2D1D0CECDCCCBCAC953
:1003A000C7C6C5C3C2C1BFBEBCBBB9B8B6B4B3B182
:1003B000AFAEACAAA8A7A5A3A19F9E9C9A9896941D
:1003C00092908E8C8A89878583817F7D7B797775F2
:1003D00073716F6D6B6968666462605E5C5A5957D1
:1003E000555351504E4C4A4947454342403E3D3B90
:1003F0003A3836353332302F2D2C2A29282625231A
:1004000022FFAA7F5540000000000000000000000D
:1004100000010204060A0F17202C3A4A5D71879DDD
:10042000B3C7DAE9F5FCFFFCF5E9DAC7B39D8771DC
:100430005D4A3A2C20170F0A060402010000000052
:1004400000000000000000010101010101010101A3
:100450000202020202020202020303030303030375
:100460000304040404040404050505050506060642
:100470000606070707070708080808090909090AFF
:100480000A0A0B0B0B0C0C0C0D0D0D0E0E0E0F0FA4
:100490000F10101111111212131314141515161632
:1004A0001717181819191A1A1B1B1C1D1D1E1E1FA1
:1004B0002020212222232424252626272829292AF0
:1004C0002B2C2D2D2E2F3031323233343536373818
:1004D000393A3B3C3D3E3F40414243444546474814
:1004E000494A4C4D4E4F50515354555658595A5BEA
:1004F0005D5E5F616264656668696B6C6D6F70728A
:10050000737577787A7B7D7E8082838587888A8CF5
:100510008E8F91939596989A9C9EA0A2A3A5A7A929
:10052000ABADAFB1B3B5B7BABCBEC0C2C4C6C9CB20
:10053000CDCFD1D4D6D8DBDDDFE2E4E7E9EBEEF0D6
:10054000F3F5F8FAFDFF0E0361006C006900780016
:100550003400300000001203710075006100640077
:1005600063007500620065000000040309040902CD
:100570003B00020100A0FA09040000010301010090
:100580000921110100012240000705810308000133
:1005900009040100010300000009211101000122EA
:1005A000B6000705820320000112010002000000CE
:1005B000084351344101000102000105010902A173
:1005C0000185020901A10005091901290815002565
:1005D0000195087501810205010930093115812550
:1005E0007F95027508810609381581257F9501756B
:1005F000088106050C0A38021581257F95017508CA
:100600008106C0C005010980A101850319012AB72F
:1006100000150126B700950175108100C0050C0971
:1006200001A101850419012AA002150126A0029545
:100630000175108100C005010906A10185060507A5
:1006400019E029E7150025019508750181020507C4
:10065000190029EF1500250195F0750181020508A3
:1006600019012905950575019102950175039101FF
:10067000C005010906A101050719E029E7150025B4
:100680000195087501810295017508810105071919
:100690000029FF150026FF00950675088100050852
:1006A00019012905950575019102950175039101BF
:1006B000C00011241FBECFEFDAE0DEBFCDBF04B60D
:1006C00003FE18C080915A0390915B03A0915C03D4
:1006D000B0915D038730904BA740B04B59F4109216
:1006E0005A0310925B0310925C0310925D03E0E0EA
:1006F000F8E3099511E0A0E0B1E0EAE4F6E502C014
:1007000005900D92A03DB107D9F723E0A0EDB1E02F
:1007100001C01D92AA35B207E1F70E94D0120C94D5
:10072000902A0C9400008630B8F46430A8F44C3061
:1007300098F450E09CE0699F400D511D1124FA018E
:1007400090E3899FE00DF11D1124EE0FFF1FE4558A
:10075000FF4F85919491089580E090E008950E9464
:100760009303089581E0089581E008950E94B40301
:10077000089508950E94B9030895A5E0B0E0E3EC60
:10078000F3E00C94822949835A833091D7018981FF
:100790009A81311119C0662399F0222389F00E94B1
:1007A000CB09182F682F89819A810E94A709698136
:1007B0007A81812F0E9432102596E3E00C949E29C5
:1007C0000E94B909182FF3CF0E94CB0969817A8161
:1007D000F1CFFC01262F4081518162817381848198
:1007E0000E94BD03089581E00895CF93DF93EC014B
:1007F00060E00E94E903BE010E94BA03DF91CF913D
:1008000008950E94631108950E9467110895089544
:100810000E9476080E9407042FE78AE196E02150A3
:1008200080409040E1F700C0000008950E94080455
:100830000E94162208950E9408040E943A220895F8
:100840000F931F93CF93DF938C0161E00E94E90324
:10085000EC01B8010E94B603811106C080E0DF916F
:10086000CF911F910F910895B801CE010E94D71F1B
:100870008823A1F3B801CE010E94391D882371F3AA
:10088000B801CE010E94491F882341F3B801CE016F
:100890000E943C1C882311F3F8018281882361F0B7
:1008A000C330FCE7DF07E9F058F4C115ECE7DE07D9
:1008B000A9F0C130DC47B9F0C8010E94B203CFCF24
:1008C000CB358CE7D807A9F0CC35ECE7DE0771F023
:1008D000CA35DC4789F70E94CD0DEECF0E94160481
:1008E000BDCF0E94D50D0E941B04B8CF0E94C30D3E
:1008F000E3CF0E94D10DE0CF0E94922108950E9483
:10090000A4040E949721089508950E9484040895E4
:1009100081E008950895CF93DF93D82F0E94880433
:10092000C82F882319F08D2F0E948A048C2FDF9105
:10093000CF9108950895CF93C82F0E9485048C2FDE
:100940000E948B04CF9108950E9425200E949B0451
:100950000895CF930E942520C82F8091D2018C1733
:1009600079F0C093D2010E94D7216093D301709394
:10097000D4018093D5019093D6018C2F0E949B04C3
:10098000CF910895ABE0B0E0E8ECF4E00C9483295B
:100990004F83588769877A878B8761110E940E0D74
:1009A0001E821D8285E0FE013796DE0111960190C0
:1009B0000D928A95E1F78C819D81892B61F44981A3
:1009C0005A816B817C818D819E810E94370C2B9690
:1009D000E2E00C949F2989819A8189238F3F79F3E2
:1009E000CE0101960E94F3038111E9CFF0CFFC0103
:1009F000808191810E94FD090895662329F00E945B
:100A000054130E94271408950E94AE13FACFCF9377
:100A1000C82F8823C9F08238C9F40E94252081FD9F
:100A200013C089E30E94C60C0E942F0D2FEF83EFA5
:100A300091E0215080409040E1F700C0000089E340
:100A40000E94CE0C0E942F0DCF9108958338A1F4FF
:100A50000E94252080FDF8CF83E50E94C60C0E94ED
:100A60002F0D2FEF80E792E0215080409040E1F77A
:100A700000C0000083E5E4CF8438A1F40E94252063
:100A800082FDE2CF87E40E94C60C0E942F0D2FEF5B
:100A900080E792E0215080409040E1F700C00000E4
:100AA00087E4CECF8CEF8C0F813AB8F48C2F0E9464
:100AB0008E1E8111C9CF6C2F809104019091050188
:100AC0000E94B820882329F08C2F0E94CE0C0E940F
:100AD0002F0D8C2F0E94C60CB5CF80E28C0F883072
:100AE00048F4C77081E001C0880FCA95EAF70E94F8
:100AF000F10CA8CFEBE5EC0FE33040F4F0E0E45A62
:100B0000FE4F808190E00E945A209ECFE8E5EC0FD6
:100B1000E93150F4F0E0EE0FFF1FE65DFE4F8081FB
:100B200091810E947F2090CF83E38C0F833108F066
:100B30008BCF61E08C2F0E94FD0486CF882309F4BF
:100B400056C0823879F40E94252081FF50C089E385
:100B50000E94C60C0E942F0D89E30E94CE0C0E94B9
:100B60002F0D0895833859F40E94252080FF3FC03F
:100B700083E50E94C60C0E942F0D83E5EECF8438DA
:100B800059F40E94252082FF32C087E40E94C60CDF
:100B90000E942F0D87E4E1CF9CEF980F913AE8F285
:100BA00090E2980F983050F4877091E001C0990F4F
:100BB0008A95EAF7892F0E94F70CD1CF9BE5980F11
:100BC000933028F490E080E00E945A20089598E540
:100BD000980F993128F490E080E00E947F200895DA
:100BE00093E3980F933118F460E00E94FD04089598
:100BF0001F93CF93DF93182FEB010E9407052097D7
:100C000039F4812F0E949E05DF91CF911F910895A5
:100C10008FEC97E00197F1F700C000002197EFCF2C
:100C200070E060E0893311F460E570E00E94F8053F
:100C30000895882321F00E94F10C0E942F0D089541
:100C4000882321F00E94F70C0E942F0D0895B0E038
:100C5000A0E0EDE2F6E00C947C296C01D62FC72FC2
:100C6000FC011281058102950F700E94E70CE82EAD
:100C70008823B9F0E12E1123A1F08C2F807F8034DE
:100C800021F080E28D0F8830C8F080910F0382FF41
:100C900015C082E00E94920D0E94E70C91E0E82EC0
:100CA000E926BC2EB2949FE0B922FBE0FB15B8F117
:100CB000EB2DF0E0EE56F54D0C943C29E12CF1CFF4
:100CC0000C2F0F70C07F11F00295007F112399F057
:100CD000002359F080E28D0F883010F0D11107C049
:100CE000802F0E94F10C0E942F0D8D2F5CC0802F51
:100CF0000E94010DF8CF8D2F0E949E05002379F0F0
:100D000080E28D0F883010F0D11104C0802F0E9436
:100D1000F70C03C0802F0E94070D0E942F0DEB2DB2
:100D2000E850FF0B349720F40E9425200E949B047A
:100D3000EE2089F00E94E30C80FD0DC0F6011282C6
:100D40000E94DD0C0E940509C6010E9436080E941F
:100D5000DD0C0E941509CDB7DEB7E9E00C949829A7
:100D60002C2F2F70F22EC07FC03219F0F29480EF3A
:100D7000F822DD2351F0D13009F443C0112309F4E6
:100D80004BC0002309F442C0B0CF80910F0382FD15
:100D900015C0112359F0FF2029F08F2D0E94F10C6E
:100DA0000E942F0D80E00E940705B9CF80E00E94CD
:100DB0009E05FF2009F4B3CF8F2DA9CF112381F019
:100DC000011106C00E94110D8F290E941906A7CF9C
:100DD0000130C1F70E94110D8F290E94180D9FCF7D
:100DE000011106C00E94250D8F2D0E94200697CF6D
:100DF000013009F494CF8F2D0E9420060E94250D0A
:100E00008ECF112329F0063008F089CF8F2DDDCF4A
:100E1000053008F084CFE8CF002331F3D93349F40B
:100E20003FEF83EF91E0315080409040E1F700C008
:100E300000008D2F0E949E0572CF8C2F869586957F
:100E4000837069F0813009F06ACF8D2F9C2F9370E9
:100E5000111102C080E090E00E947F2060CF8D2FB2
:100E60009C2F9370111102C080E090E00E945A20E4
:100E700056CF612F8D2F0E94FD0451CF8C2F837090
:100E8000A1F511114CCF4D2F429546954770440F57
:100E9000440F2D2F2F7030E0042E02C0220F331F7D
:100EA0000A94E2F790E080E0D4FF09C08FE090E080
:100EB00002C0880F991F4A95E2F780959095C695D4
:100EC000C695C370822B932BC23049F058F4C130C1
:100ED00019F00E94D50823CF0E94CC0820CF0E9491
:100EE000DE081DCF0E94C9081ACF8695112311F084
:100EF0008C2F8170882309F412CF4D2F429546958F
:100F00004770440F440F2D2F2F7030E0042E02C085
:100F1000220F331F0A94E2F790E080E0D4FF09C06B
:100F20008FE090E002C0880F991F4A95E2F7809504
:100F30009095C695C695C370822B932BC23049F00D
:100F400058F4C13019F00E944009E9CE0E943709D7
:100F5000E6CE0E944909E3CE0E94ED08E0CECF70B4
:100F6000112329F08C2F0E9405098D2F2ECF8D2F54
:100F70000E9420068C2F0E941509D1CED23F41F14C
:100F800060F4D03FB9F0D13F81F0112309F446C09D
:100F90000111ABCE8C2F8F711FC0D33F01F1D43F15
:100FA000A1F780910F0382FD24C08C2F8F71112334
:100FB00011F312C0112341F0053008F0B0CE8C2F90
:100FC0008F710E942709ABCE063008F0A8CEF7CF6C
:100FD0008C2F8F711111CFCF0E940509A0CE112344
:100FE00029F08C2F8F710E94F90899CE0E94F40885
:100FF00096CE112349F0CF718C2F0E94050963E032
:101000008C2F0E94740D8BCE81E00E94920D0230D5
:1010100008F485CE82E00E94920D81CE002359F023
:10102000D93309F006CFEFEFF3EF21E0E150F040C4
:101030002040E1F7FCCE8C2F8F719DCF0F931F9333
:10104000CF93DF93EC01688179818A810E94080A3D
:101050008C010E9452090E94C808B801CE010E946A
:101060002706DF91CF911F910F910895CF93DF93C2
:10107000EC018B819C81892B29F0888199818923BE
:101080008F3F51F4DF91CF910895CE010E941E0849
:10109000CE010E94F503F6CFCE010E9420048111FB
:1010A000F4CF0E94E70C882369F38A81882351F3E7
:1010B00080910F0382FFE6CF82E00E94920DE2CF83
:1010C00090E080E00E945A2090E080E00E947F2023
:1010D0000E940E0D0E942F0D0E9443140E9427149F
:1010E00008950E94D60C0E94600808950E94FE0C8C
:1010F0000E947108089592959F70963091F058F46F
:10110000925F9F70923058F4803F19F030F4883E1F
:1011100030F481E008959A5FF4CF843FD1F380E00A
:101120000895883EB0F3813FD1F7F3CFFC0183816E
:101130009481892B29F08081918189238F3F11F43B
:1011400080E00895808191810E94FD090E947B08C2
:101150000895A5E0B0E0EFEAF8E00C948329259625
:10116000E2E00C949F29A6E0B0E0E9EBF8E00C94F3
:1011700083292696E2E00C949F2908950E94BD08D9
:1011800008950E94BE089093F3018093F2010895A0
:1011900008950E94C10808952091F2013091F30151
:1011A000822B932B0E94C10808952091F201309167
:1011B000F301822393230E94C10808952091F20134
:1011C0003091F301822793270E94C10808950E945D
:1011D000BD0808950E94E70808950E94EA089093C8
:1011E000F1018093F001089590E080E00E94ED0805
:1011F000089521E030E0A90102C0440F551F8A95EF
:10120000E2F7CA010E94ED08089521E030E002C033
:10121000220F331F8A95E2F78091F0019091F1013E
:10122000822B932B0E94ED08089521E030E002C04C
:10123000220F331F8A95E2F7209530958091F001B7
:101240009091F101822393230E94ED08089521E0FB
:1012500030E002C0220F331F8A95E2F78091F0013F
:101260009091F101822793270E94ED080895209123
:10127000F0013091F101822B932B0E94ED0808952B
:101280002091F0013091F101822393230E94ED0817
:1012900008952091F0013091F101822793270E9457
:1012A000ED0808950895262F277091E001C0990F49
:1012B0002A95EAF723E0769567952A95E1F7660F78
:1012C000771F660F771FFA01E60FF71F50E040E027
:1012D000682F70E08191DF0111979B01042E02C0FD
:1012E000369527950A94E2F721702195282729231E
:1012F00028272C934F5F5F4F4430510559F70895CD
:10130000A82FA77023E0969587952A95E1F7880F77
:10131000991F880F991FFB01E80FF91F50E040E06B
:1013200080E0219130E00A2E02C0369527950A947C
:10133000E2F721703327042E01C0220F0A94EAF746
:10134000822B4F5F5F4F4430510559F70895262F88
:10135000943070F48C3060F4682F70E08CE0989FCB
:10136000600D711D112448ED51E0822F0E94530938
:101370000895292F943068F48C3058F490E068ED8B
:1013800071E03CE0239F800D911D11240E94800993
:10139000089580E00895B0E0A0E0E1EDF9E00C945C
:1013A0007C297C010091F0011091F1018091F20102
:1013B0009091F301082B192BCFE0D0E0CC24C394FB
:1013C000D12CBC2EC6010C2E02C0880F991F0A9486
:1013D000E2F780239123892B49F4219790F7B12CD0
:1013E0008B2DCDB7DEB7E9E00C949829B7018C2F8F
:1013F0000E943E10019789F3F3CFCF93DF93EC0166
:101400000E94CB09BE010E943E10DF91CF9108954A
:101410001F93CF93DF93EB019091D701992339F07C
:10142000CB010E94FD09DF91CF911F910895882380
:1014300069F0CB010E94CB09182F682FCE010E94C2
:10144000A709BE01812F0E943E10EDCFCB010E9463
:10145000B909182FF6CF1F93CF93DF93C091F401F2
:1014600016E08091F5018C1304C0DF91CF911F919C
:101470000895D0E01C9FF0011D9FF00D1124EA504B
:10148000FE4F4081518162817381848195810E94E8
:10149000B3082196C770E5CF4091260250912702EC
:1014A000609128027091290280912A0290912B026A
:1014B0000E94B30808951F93CF93DF9380912B026E
:1014C000807F09F049C080912802882309F444C034
:1014D0008091F401C091F50160912602709127027C
:1014E000A0912902B0912A02D62FD72316E0C8175F
:1014F00099F190E0109711F0DF3F19F40196877091
:10150000F6CF189F9001199F300D1124F901EA5070
:10151000FE4F41814713F2CF40814613EFCF428106
:101520004111ECCF438154814A1B5B0B483C510570
:1015300028F780912B028F70806180932B02F90134
:10154000E550FE4F80818F708061808386E292E05B
:101550000E9436080E942B0ADF91CF911F910895B7
:10156000A1E1B0E0E6EBFAE00C947B298C0185E088
:10157000F801DE011D9601900D928A95E1F7F801C0
:10158000E28086E2C82E82E0D82E60912902709116
:101590002A026115710509F44EC19091260220912D
:1015A0002702892F82238F3F09F445C14081518151
:1015B000A380B480F0902802F501E61BF70BFF2012
:1015C00009F4EAC080912B02382F307FE83CF10506
:1015D00008F0A3C031116DC0FE2C251316C0941362
:1015E00014C0E11012C08F70806180932B020E94A2
:1015F0004C0AC6010E94360880912B02F8018583AF
:101600008F2D6196EAE00C949729A114B10429F07A
:10161000842F85238F3F09F027C180E0F82FF170D8
:10162000DF2E80FF3CC08091F4012091F50136E06F
:10163000821315C04D875E878D859E850E94FD09AA
:10164000292F22952F702230F0F0243018F59F704A
:10165000F1F0F8019581907FD1F4D12C1EC090E07B
:10166000389FF001399FF00D1124EA50FE4F61813F
:10167000651306C06081641303C06281E6120FC067
:1016800001968770D5CF9F7011F0882331F3805E6B
:10169000883018F3C8010E943608FD2CB1CFEE2027
:1016A00009F4AECF80912B02816080932B02F12C44
:1016B000A7CF251306C0941304C0F801EE2009F447
:1016C00087C0C8010E949608882319F1EE2009F10D
:1016D00080912B02803270F02091260230912702F7
:1016E00038872F831986BB86AA868C87CE010796FA
:1016F0000E94360886E0F801A6E2B2E001900D9261
:101700008A95E1F70E945B0A0E944C0AFF24F39439
:1017100077CFC8010E943608F9CF311113C07A2D56
:10172000B98AA88A6E2D89890E94A90886E292E06A
:101730000E94360886E0F60111928A95E9F70E9428
:101740004C0AB5CF25130FC094130DC0E1100BC088
:10175000F8018583C8010E94360886E0F6011192DF
:101760008A95E9F74DCFC8010E949608882389F22F
:10177000EE2079F280912B02803208F4BBCF2091C9
:101780002602309127023A8329831B82BD82AC82D4
:101790008E83CE010196ACCFE83CF10508F03EC047
:1017A000FE2CEE2009F4B5CF25132AC0941328C0CF
:1017B00080912B0280FD1BC0982F907FC1F0F80113
:1017C0008583903F31F0982F907F905F8F70892BA9
:1017D0008583C8010E94360886E0F801A6E2B2E0DF
:1017E00001900D928A95E1F70E944C0A09CF86E09C
:1017F000F801A6E2B2E001900D928A95E1F700CFE0
:10180000C8010E949608811175CF80912B028160DA
:1018100080932B02C8010E943608F2CE7A2DB98A35
:10182000A88A6E2D89890E94A90886E0F601119286
:101830008A95E9F7D9CFEE2009F46BCFC8010E9451
:101840009608F82E882309F464CF86E0F801A6E212
:10185000B2E001900D928A95E1F786E292E00E9453
:10186000F7040E945B0AC0CF81E08E25D7CEACE0A2
:10187000B0E0EDE3FCE00C9482294F835887698740
:101880007A878B879C87CE0107960E94B00A8823AF
:1018900069F08A859B85892B39F04F815885842F83
:1018A00085238F3F09F06BC016E05FC086E0FE0124
:1018B0003796DE01119601900D928A95E1F78A859F
:1018C0009B85892B89F38F81988589238F3F61F3CD
:1018D0002091F50130E0C901019687709927409168
:1018E000F4014817190671F40E9476081092F50168
:1018F0001092F40186E0E6E2F2E0DF011D928A95A3
:10190000E9F7D2CF96E0929FD001939FB00D1124BA
:10191000AA50BE4FFE01319601900D929A95E1F7C3
:101920008093F5010E942B0ABFCF819FC001112433
:101930008A509E4F0E94B00A8823E9F0E091F4019A
:101940001E9FF0011124EA50FE4F408151816281B7
:101950007381848195810E94B3088091F40190E0A5
:101960000196877099278093F4018091F4019091FA
:10197000F5018913DACF2C96E3E00C949E29698552
:101980007A858B859C850E94B3088ECF682F8091C5
:101990000401909105010E9438210895682F8091DB
:1019A0000401909105010E9446210895809104014F
:1019B000909105010E945421089580914C028595D3
:1019C00085958595089580914C0287700895909132
:1019D0004C02977081E009F480E0089580916F02D5
:1019E000089590916F02892B80936F0208958095DE
:1019F00090916F02982390936F02089510926F0256
:101A0000089590916E02892B80936E0208958095BF
:101A100090916E02982390936E02089510926E0238
:101A2000089580914D02089508950E94140D08951F
:101A300090910F0392FF08C090914D02981721F0EA
:101A400080934D020E94150D089580914D028823C8
:101A500029F010924D0280E00E94150D0895CF9359
:101A6000DF93E0910401F091050180916F02808382
:101A7000E0910401F0910501808190916E02892B23
:101A8000808390914D02992381F0E0910401F091BF
:101A900005018081892B808380910401909105014B
:101AA0000E94A42081110E94250DC0910401D091B3
:101AB000050140E250E06CE272E0CE010E94132A80
:101AC000892B59F080E2FE01ACE2B2E001900D9268
:101AD0008A95E1F7CE010E943220DF91CF910895DF
:101AE00008950E94700D089590910F0392FF11C008
:101AF00098E0899F90011124622B60934C020E9410
:101B0000050980914C028595859585950E94710DFA
:101B100008950E940509089510924C0280E00E94E9
:101B2000710D089590914C028095892380934C0209
:101B3000282F277091F4282F082E000C330B9217B2
:101B4000130659F090910F0392FF07C08595859574
:101B500085950E9415090E948C0D089590910F03A0
:101B600092FB222720F9281769F080FB92F99093C5
:101B70000F0380910E0390910F030E94F60D82E0F7
:101B80000E94920D089580910F0382FB882780F9AF
:101B900091E089270E94AE0D089581E00E94AE0D6C
:101BA000089580E00E94AE0D08956FEF7FEF90E002
:101BB00080E00E945B2A089590E080E00E94372A2E
:101BC00021E0873E9E4F09F020E0822F089582E0B9
:101BD00090E00E94292A089583E090E00E94292A3B
:101BE000089584E090E00E94372A0895BC0184E0C3
:101BF00090E00E945B2A0895AB01BC018FE090E069
:101C00000E944F2A0895AB01BC0183E190E00E943D
:101C10004F2A089560E070E0CB010E94030E089502
:101C200060E070E0CB010E94FC0D0E940A0E089556
:101C300067EE7EEF90E080E00E945B2A60E082E049
:101C400090E00E943D2A60E083E090E00E943D2AFF
:101C50001092F3011092F20160E074E184E090E0F0
:101C60000E945B2A60E086E090E00E943D2A6FEFD0
:101C700087E090E00E943D2A40E050E0BA0188E011
:101C800090E00E944F2A60E08DE090E00E943D2AA3
:101C900040E050E0BA0188E190E00E944F2A60E005
:101CA00087E190E00E943D2A40E050E0BA018CE1DB
:101CB00090E00E944F2A70E060E080E290E00E9495
:101CC0005B2A40E050E0BA0188E190E00E944F2A90
:101CD0000E94100E08950E94180E0895682F8EE03D
:101CE00090E00E943D2A08950E94D72160937E02D1
:101CF00070937F02809380029093810260937A02B6
:101D000070937B0280937C0290937D0208950895E6
:101D100008950E94880E089508950E948C0E0895DB
:101D200088E291E10E941B200E94870E0E94890E8A
:101D3000089581E008950E94990E089508950895E8
:101D40000E949E0E0E949F0E08950E9444110E94C0
:101D50009A0408950E94C2210E9418120E94A50EA2
:101D60000E94501B0E94AE1C0E948D0E0895AAE096
:101D7000B0E0EDEBFEE00C9478290E942E1222E7F1
:101D8000822E22E0922E640110E0F601E190F190A3
:101D90006F01812F0E946A111F5F143009F449C03E
:101DA000E816F90691F38091820281FD0E94731179
:101DB0000E949B0E782E10E0812F0E946A117C01F8
:101DC000F401A190B1904F018A159B0561F1A826FD
:101DD000BF2400E0CC24C394D12CC5018C219D21CB
:101DE000892BC1F07720B1F00E831F8321E0C7015A
:101DF0008C219D21892B09F420E028870E94CB218A
:101E00008160782F9A8789874E815F8168858A856E
:101E10000E94C2040F5FCC0CDD1C0C30F1F6F40103
:101E20003297F182E0821F5F143031F60E94740E07
:101E300022C0E816F90609F0B6CF0E94CB218C012A
:101E4000809170029091710208171907A1F08FEF2D
:101E500089838A831B820E94CB218160782F9D8396
:101E60008C8349815A816B818D810E94C2041093B9
:101E70007102009370020E94831B0E9465140E94ED
:101E8000A9042A96EDE00C949429CF93DF930E9445
:101E90004310EC01811520E59207D0F5811530E45F
:101EA000930708F086C0803E910518F58D3C91059A
:101EB00008F07DC0883A910570F4853A910508F0E4
:101EC0006EC08130910501F10097F1F00497E0F4C4
:101ED000D0E0C0E019C0813C9105D0F7C85AD0E0ED
:101EE000CC0FDD1FC15ADE4F0990D881C02DD464BC
:101EF0000BC08115904208F0A8C0C11581E0D80739
:101F000018F4C83ED10520F7CE01DF91CF91089596
:101F1000803622E5920710F5803432E5930708F009
:101F200052C08032924508F047C0C11582E5D807FB
:101F300008F47DC02C2F2695269540E2249F900121
:101F400011248C2F8370C1E0D0E002C0CC0FDD1FC4
:101F50008A95E2F7C22BD32BDD68D6CF803A22E5F3
:101F6000920760F4803832E5930708F441C0CF71DE
:101F7000D0E0DC2FCC27C46FD06AC6CF803C42E5CE
:101F8000940708F449C0C03E82E5D80708F0A0CF06
:101F9000DC2FCC27CC27DF71C06FD06AB5CFC55AF4
:101FA000D0E0CF56DE4FC881D0E0D064ADCFD06551
:101FB000ABCFDF70D06AA8CFCF71D0E0DC2FCC27B9
:101FC000C16FD06AA1CF282F26952695277080E271
:101FD000289F900111248C2F8370C1E0D0E002C0B3
:101FE000CC0FDD1F8A95E2F7C22BD32BDC688CCF98
:101FF000282F26952695277040E2249F90011124D2
:102000008370C1E0D0E002C0CC0FDD1F8A95E2F7FB
:10201000C22BD32BDA6878CF8F710E94E510C82FBE
:10202000D0E0DC2FCC27CC27DF71D0626DCF8C2F96
:102030008F710E94E51035E0D695C7953A95E1F786
:10204000CF709C2FEC01D0695FCF8D2F8F710E94D4
:10205000E51090E0982F882788279F719C012C2BF2
:10206000E901E3CF462F743030F46C3020F4672F51
:102070000E94AF03089590E080E008950E9432101E
:102080000E94450F089582389105B9F1B0F481336B
:10209000910509F47DC048F48932910509F46DC0B9
:1020A0008A32910509F47BC008958533910509F4BE
:1020B0005FC08933910509F10895833E9105D9F1F7
:1020C00038F4803E910529F1823E910579F1089519
:1020D000863E9105D9F1873E910509F43EC0843EC4
:1020E000910541F520910F0321FF24C080910E033B
:1020F00084FD19C087EE90E0089520910E032370AF
:1021000009F05AC020910F0323FF14C089E290E028
:10211000089520910E0320FD38C030910F0330FF49
:1021200009C024FF43C090E080E0089520910E0391
:1021300022FDF7CF089520910E0322FD3AC0309181
:102140000F0330FD39C024FFF5CFEDCF20910E03F2
:1021500023FFF0CF24FDE7CFCDCF20910E0323FD49
:102160002EC030910F0331FFEECF84EE90E0089542
:1021700020910E0325FFDECFC9CF20910E0325FD50
:1021800021C020910F0323FFD5CF89E390E0D2CF68
:1021900020910E0326FFCECF8AE290E00895209191
:1021A0000E0326FFC7CF81E390E0089583EE90E011
:1021B000089582EE90E0089580EE90E0089586EE16
:1021C00090E0089585E390E0089590910E0392FFCA
:1021D00006C0282F28712830F9F4877F846093FF88
:1021E00006C0282F28712831F1F4877E8461209160
:1021F0000F0320FF06C0382F38713830D9F4877F9D
:10220000816021FF06C0282F28712831D1F4877EF4
:10221000816194FD877E0895282F24712430F9F67A
:102220008B7F8860DCCF282F2471243101F78B7ECF
:102230008861DDCF382F3171313019F78E7F88609A
:10224000E0CF282F2171213121F78E7E8861E1CFE7
:1022500080E008950E94D50D08950E942E128FE10E
:102260009EE40197F1F700C000000E942E1280E06A
:102270000E946A1180FF04C00E942A110E94162247
:1022800008950E942D1108950E94DC0D811102C055
:102290000E946B0E0E94E70D809382020E94F10D56
:1022A00090930F0380930E030E9441110E94EC0D46
:1022B00090E00E94C9088091F0019091F1010E9484
:1022C000EA08089508950E946211089508950E94F1
:1022D00066110895E82FF0E0EE0FFF1FE85EFC4F57
:1022E000808191810895089580E58A95F1F7089598
:1022F00000C008950E9474110895F894E82FE295A3
:10230000EF70F0E031A1282F2F7081E090E001C044
:10231000880F2A95EAF7982F9095932391A392A17D
:10232000892B82A378940895CF93DF93C4E9D1E0F9
:1023300089918F3F11F00E947D1181E0C03AD8074A
:10234000B9F787E90E947D1186E60E947D1187E634
:102350000E947D1185E30E947D11DF91CF91089548
:10236000B0E0A0E0E6EBF1E10C947B29D82EE92E59
:10237000F62E8A01C62FD0E0CE018C569E4F5C010E
:10238000EC0128812F3F09F449C0F894E22FE2952F
:10239000EF70F0E031A12F7081E090E001C0880F74
:1023A0002A95EAF7932F982B91A392A180958923E0
:1023B00082A378940E947811A0EAB1E0ED2DFE2D61
:1023C00064EA71E0E12C6801C094D0944D91808161
:1023D00091814F3F41F1242F22952F7030E0E90188
:1023E00028A130E04F7002C0359527954A95E2F755
:1023F00020FD19C0802B912B91838083EE24E394E0
:1024000032966A177B0711F7F50180818F3F11F033
:102410000E947D116E2D8F2D0E947A11CDB7DEB7EF
:10242000EAE00C9497298C219D2191838083E8CF49
:102430000E94941188E0E8E1F3E0DF01982F1D92FB
:102440009A95E9F7E0E1F3E0DF011D928A95E9F75B
:1024500084E00E9482120E9401040895CF92DF92CC
:10246000FF920F931F93CF93DF93CDB7DEB72897DB
:102470000FB6F894DEBF0FBECDBF8E010F5F1F4FAA
:1024800088E0F80111928A95E9F7F12CCC24C394E5
:10249000D12CA6016F2DC8010E94B011F394CC0C71
:1024A000DD1CFCE0FF12F5CF48E050E0B80180E110
:1024B00093E00E94132A21E0009709F420E0892B81
:1024C00041F088E0F801A0E1B3E001900D928A9517
:1024D000E1F744E068E173E080E193E00E94831259
:1024E000182F0E940404812F28960FB6F894DEBF9F
:1024F0000FBECDBFDF91CF911F910F91FF90DF9065
:10250000CF9008950895CF92DF92EF92FF921F939C
:10251000CF93DF936C017B01C42F222349F081E02C
:10252000809385020E94CB21909384028093830242
:102530001091850211110AC010E0812FDF91CF9117
:102540001F91FF90EF90DF90CF90089580918302CC
:10255000909184020E94E321059770F3D0E0CC0FA4
:10256000DD1FAE01B601C7010E94132A892B41F07D
:10257000AE01B601C7010E94202A10928502DDCF6C
:1025800010E0FBCF0E94B7230E94AA0E0E94C42332
:1025900008950E94C9230E94B70E0E94E323089564
:1025A0000E94AF210E949D230E94900E0E94C212A1
:1025B0000E94C9120E94A00EFBCF80918C0280FF66
:1025C0000DC060910B0170E0660F771F60387105D8
:1025D00070F56115710569F1862F089581FF07C0B7
:1025E00060910B0184E0689FB0011124EFCF6091EE
:1025F0000B0182FD0AC080918B028823A9F02091F3
:102600000A0160910B01821710F088E0ECCF869FE1
:10261000C001112433E0880F991F3A95E1F7622F2A
:1026200070E00E940629D2CF68E070E0D5CF8FE736
:10263000089581E0089580918C0280FF0CC0609124
:10264000070170E07595679575956795611571053A
:1026500049F1862F089581FF06C06091070170E05F
:1026600075956795F3CF6091070182FD0BC090913E
:102670008A029923A1F060910601809107019617C3
:1026800038F0682F70E06038710500F38FE7089527
:10269000899FC001112470E00E940629F4CF61E0F7
:1026A00070E0D7CF81E008958D3C31F40E94DD12B7
:1026B00081958093900208958E3C19F40E94DD125A
:1026C000F8CF8F3C31F40E94DD12819580938F0208
:1026D0000895803D19F40E94DD12F8CF893D29F458
:1026E0000E941B138093910208958A3D21F40E9459
:1026F0001B138195F7CF8B3D31F40E941B138195FD
:102700008093920208958C3D19F40E941B13F8CF18
:102710009FE2980F983070F4815D990B21E030E0D2
:1027200001C0220F8A95EAF780918E02822B809356
:102730008E0208958D3D31F480918C0281608093EA
:102740008C0208958E3D21F480918C028260F7CF37
:102750008F3DB9F780918C028460F1CF40918F0258
:102760008D3C59F48091900287FF0DC01092900229
:1027700041110BC010928B0208C08E3C81F48091F5
:10278000900218169CF3442381F08091910290915D
:102790009202892B09F05AC010928A0208958F3C48
:1027A00049F447FFF0CF10928F028091900281117F
:1027B000ECCFE0CF803D19F41416ACF3E4CF909148
:1027C0009102893D29F41916F4F610929102DBCF9B
:1027D0008A3D19F497FFD7CFF8CF909192028B3DA5
:1027E00029F497FFD0CF10929202CDCF8C3D19F4EF
:1027F0001916CCF3C8CF9FE2980F983090F4815D02
:10280000990B21E030E0B90102C0660F771F8A956D
:10281000E2F7CB01809590918E02892380938E02FE
:10282000B2CF8D3D31F480918C028E7F80938C02EB
:10283000AACF8E3D21F480918C028D7FF7CF8F3D02
:1028400009F0A1CF80918C028B7FF0CF08950E9478
:10285000CB219C0190918F0280919002982B21F0C6
:102860003093890220938802909191028091920284
:10287000982B21F030938702209386028DE892E016
:102880000E944C20089586E0EDE8F2E0DF011D9201
:102890008A95E9F710928B0210928A0210928C02AC
:1028A0000895FC01828181110EC0838181110BC0CA
:1028B0008481811108C091E08581811101C090E07F
:1028C000892F8170089581E0FCCFA6E0B0E0EBE6AF
:1028D000F4E10C94822986E0EDE8F2E0DE01119645
:1028E00001900D928A95E1F710928F02109290025A
:1028F00010929102109292028B819C81892B89F017
:1029000080918802909189020E94E321AC0190910C
:102910008B029923C9F180910C018417150608F4E4
:1029200040C08D819E81892B91F08091860290918B
:1029300087020E94E321AC0190918A02992309F455
:1029400071C0809108018417150608F479C0BE0192
:102950006F5F7F4F8DE892E00E946621811105C074
:102960008DE892E00E94511481110E94271486E0A4
:10297000FE013196ADE8B2E001900D928A95E1F743
:102980002696E3E00C949E2920910D018AE0289F71
:10299000900111242417350720F69F5F90938B0236
:1029A00002C09F3FD1F71B81112359F00E94DD1215
:1029B0009FEF11160CF491E0899F802D11248093D4
:1029C0008F021C81112359F00E94DD129FEF111616
:1029D0000CF491E0899F802D112480939002309116
:1029E0008F02332309F49DCF20919002222309F412
:1029F00098CF45EB3403C0011124992359F09093EB
:102A00008F0245EB240390011124332339F03093D6
:102A1000900287CF81E080938F02F3CF81E0809393
:102A200090027FCF209109018AE0289F9001112414
:102A30002417350708F08BCF9F5F90938A0202C05E
:102A40009F3FD1F71D81112359F00E941B139FEF67
:102A500011160CF491E0899F802D1124809391022E
:102A60001E81112359F00E941B139FEF11160CF4C5
:102A700091E0899F802D11248093920230919102E0
:102A8000332309F464CF20919202222309F45FCF0B
:102A900045EB3403C0011124992359F0909391021E
:102AA00045EB240390011124332339F03093920233
:102AB0004ECF81E080939102F3CF81E08093920228
:102AC00046CFEF92FF920F931F93CF93DF93EB01CB
:102AD000E82FD1110EC0442321F0F0E0EA5BFB4F58
:102AE000E4916E2F7E2F8E2FCDB7DEB7E6E00C94EB
:102AF0009B290D2F10E0282F30E0442329F02A5B7A
:102B00003B4FF901249130E0F6E0CF9FC001112442
:102B1000EFEFF0E0BF010E94F228AB018C2F90E0B4
:102B2000880F991FA5E5A49FB001A59F700D1124E2
:102B3000861B970B982F990F980FBF01601B710B85
:102B4000629FD001639FB00D729FB00D11248B2F37
:102B50009D9FB0011124672F7727EF01C61BD70B6C
:102B6000BE01629FE001639FD00D729FD00D1124C2
:102B70007F01E91AF108E09EB001E19E700DF09E20
:102B8000700D1124672F7727E61BF70BE29F80015A
:102B9000E39F100DF29F100D1124E12F722F423090
:102BA000510599F048F44115510569F0413051053E
:102BB00081F0EB2F8D2F07C04430510569F080F074
:102BC00046305105B1F76E2F8FCFE22F7B2F812F2B
:102BD000FACFE22F7D2FF7CFEB2F822F712FF3CF7C
:102BE0007B2F822FED2FEFCF41E00E9461150895DA
:102BF00008950E94F4150895CF93DF93762FE9018D
:102C0000682F842F0E94F915798368838A83DF9166
:102C1000CF91089580912003982F9E7F29F4817091
:102C200082608093200308958635E8F3817084657F
:102C3000F8CF88E090E00E94312A0895CF92DF9289
:102C4000EF92FF926B017C010E940A16B701A60168
:102C500088E090E00E944F2AFF90EF90DF90CF90A5
:102C60000895E0E2F3E083E0808311828FEF8283B6
:102C70008383148260817181828193810E941E16F8
:102C800008958091200380FF02C08695089580E01A
:102C9000089590912403933018F49F5F9093240338
:102CA000882351F0609120037091210380912203C9
:102CB000909123030E941E16089581E00E944916F8
:102CC000089590912403992319F09150909324032F
:102CD000882351F060912003709121038091220399
:102CE000909123030E941E16089581E00E946116B0
:102CF000089570E00E94121D089560911201809164
:102D0000200380FF0BC08091110123E0829FC0014E
:102D100011248B5D9C4F0E947916089580911301B8
:102D20009091140123E0829FF0011124EB5DFC4F90
:102D3000891748F71182108212828F5F3396F8CF7D
:102D40009091200390FF0EC09091130120911401E7
:102D500033E0939FF0011124EB5DFC4F921718F0C4
:102D60000E947D1608958183608342839F5F33961E
:102D7000F5CFA3E0B0E0EFEBF6E10C94832990915E
:102D8000200390FF0AC09E012F5F3F4F0E94FC1559
:102D90004B8169818A810E94A0162396E2E00C94FF
:102DA0009F29CF93DF93EC01EC81F0E0EF5FFC4FC4
:102DB0004491E0E2F3E0628181810E94B9168C8146
:102DC0008F5F8C83DF91CF910895CF93DF93EC01D8
:102DD000E0E2F3E0438162818C810E94B9168C812C
:102DE0008F5F8C83DF91CF910895A3E0B0E0EBEF8C
:102DF000F6E10C9481298C018091930281110AC023
:102E00009E012F5F3F4F4FEF6FEF0E94FC158A81AD
:102E100080939302F8016481613069F0809193029C
:102E200040E0662361F040E0623011F4409193028B
:102E300080E060E004C06091930240E080E00E9486
:102E4000A016F801848190E0019663E070E00E9492
:102E5000062984832396E4E00C949D29A3E0B0E046
:102E6000E4E3F7E10C947C29082FD62EE42EC22E41
:102E70009091200390FF29C0E92FE695AE2FB0E096
:102E8000AC55BE4F8C918093D9029E7F923009F54C
:102E90009E012F5F3F4F802F0E94FC154B8169815F
:102EA0008A810E94A01600932103D0922203E0920F
:102EB0002303CC2051F06091200370912103809175
:102EC0002203909123030E941E162396E9E00C949E
:102ED0009829823019F4E0902303E5CF863019F465
:102EE00000912103E0CF8930D9F38931E1F6E9512E
:102EF0006E2F6170B62EE695F0E0EF5FFB4F1491F8
:102F0000F12C60911501F61618F00E947D16CBCFBA
:102F1000F19EC001112470E00E94F228802FB110B0
:102F200014C0860F20911301622F6F0D7727771F32
:102F30009B01220F331F260F371F2B5D3C4F4E2D59
:102F40006D2D0E94FC15F394DCCF861BEBCFE0E2E5
:102F5000F3E09181282F438162818AE0890F0E94EA
:102F60002E17089581E00E94A7170895E0E2F3E08C
:102F70009181282F4381628186EF890F0E942E174D
:102F8000089581E00E94B6170895E0E2F3E06281BF
:102F90002AE0620F08F46FEF282F438181810E949D
:102FA0002E17089581E00E94C5170895E0E2F3E02E
:102FB00062812AE0621B08F460E0282F438181814E
:102FC0000E942E17089581E00E94D6170895E0E22E
:102FD000F3E043812AE0420F08F44FEF282F62818B
:102FE00081810E942E17089581E00E94E7170895BD
:102FF000E0E2F3E043812AE0421B08F440E0282F9E
:10300000628181810E942E17089581E00E94F81745
:10301000089520E00E942E170895EF92FF921F93CB
:10302000CF93DF93EC0110E0EE24EA94F12C609151
:103030001501161770F00E947D169A818C8190FF01
:1030400027C08F5F8C83DF91CF911F91FF90EF900E
:10305000089520911301422F410F5527551FCA0192
:103060009A01220F331F280F391F2B5D3C4F70E050
:10307000C7010E940629962F8C81409123036091FD
:103080002203199F800D11240E94FC151F5FCFCFD2
:103090008150D8CFB0E0A0E0E0E5F8E10C947B29C6
:1030A000FC0182810FEF80FF01E010E04CE0A42ED4
:1030B00080911501181798F00E947D168091950255
:1030C000013009F04FC0811102C08091150181507B
:1030D00080939502CDB7DEB7EAE00C949729C091B2
:1030E0001301C12ED12CCC0DDD2DD11DCE01880FA9
:1030F000991FC80FD91FCB5DDC4F198218821A8225
:1031000034E0E32EF12CB12C809195028B0D8D30A3
:103110001CF16A2D0E94E428892F082E000C990BBF
:10312000C816D90691F4809123038E9DA0018F9D2E
:10313000500D112455954795559547959E016091E1
:103140002203809121030E94FC15B00EF1E0EF1ADA
:10315000F108D1F61F5FACCF87FFDFCF909115014B
:10316000890FDBCF90E001966091150170E00E941D
:103170000629AECF0F931F93CF93DF938091130156
:103180009091140123E0829FF0011124EB5DFC4F2C
:10319000891740F1C0E0D3E060911501C61740F1F6
:1031A0000E947D1620910F0180919402820F8093DE
:1031B000940290911001920F90931001191654F4FB
:1031C000082E000C990B409115014150550B8417A6
:1031D00095071CF0219520930F01DF91CF911F914E
:1031E0000F9108951182108212828F5F3396D0CF93
:1031F0000C2F10E070E0C8010E94062920911301F5
:10320000820F482F50E020919402022E000C330BC5
:1032100002171307BCF020911001022E000C330B93
:10322000201731077CF08D9F900111242B5D3C4FBE
:103230004091230360912203809121030E94FC1599
:10324000CF5FAACFFA01EE0FFF1FE40FF51FEB5D72
:10325000FC4F118210821282F3CFB0E0A0E0E3E3D2
:10326000F9E10C947929EC014C81042F10E09801CC
:10327000D8010E944A299B01AC010E9460294B01A0
:103280005C01E0E2F0E0E01BF10BA5E5B0E0AC0191
:103290009B010E9460296B017C019F01DF010E945C
:1032A00042299B01AC010E946B299B01AC01280DB6
:1032B000391D4A1D5B1DC701B6010E941A29F22E55
:1032C000822F90E039E23F1520F143E0249F9001E6
:1032D000112435952795122F109500E085E5E82EED
:1032E000EF1880911501081718F10E947D169C8136
:1032F00081E0992319F0903219F48FEF80930E0139
:1033000080910E01890F8C83CDB7DEB7ECE00C9471
:10331000952925E530E0B901681B790B9B01220F47
:10332000331F260F371F37FFD4CF2F5F3F4FD1CF2B
:103330008E2D01FD8F2D20911301622F600F7727B5
:10334000771F9B01220F331F260F371F2B5D3C4F2A
:10335000412F609122030E94FC150F5FC2CF0F9393
:103360001F93CF93DF93EC0110E000E090911501E3
:103370009017110609F06CF40E947D168C8190E084
:103380000196817099278C83DF91CF911F910F91C6
:10339000089520911301A801420F511D9A01220F97
:1033A000331F240F351F2B5D3C4F4C81609122034E
:1033B0008091210396959017110651F04CF044230B
:1033C00049F0409123030E94FC150F5F1F4FCECFA1
:1033D0004423B9F340E0F7CFB0E0A0E0E2EFF9E139
:1033E0000C947529FC016280448081E08483E1E0D3
:1033F000F3E07490E0E8F3E0E491C0912303C69514
:10340000C158D0E0CC0FDD1FCD2FDD27812C75E01A
:10341000972EAA24AA94B12C55245A94E719EE2E7B
:10342000F12C80911501881638F00E947D16CDB7D9
:10343000DEB7E0E10C949129C82CD12C82E08615EE
:1034400068F09C9CF0019D9CF00D1124EA56FD4F04
:10345000809121038083809122038183411023C0C6
:103460009C9CF0019D9CF00D1124EA56FD4F1382A7
:10347000128220911301C601820F911D9C01220F1F
:10348000331F280F391F2B5D3C4F9C9CF0019D9CE6
:10349000F00D1124EA56FD4F4281618180810E9426
:1034A000FC158394BECF9C9C80019D9C100D112423
:1034B0000A561D4FF80183818823F1F081508383E0
:1034C000859DC0011124648170E00E94F228FB01F7
:1034D000FF27EF5FFC4F8491E82FE719E59DC001BE
:1034E0001124B7010E94F22880912303689FB00144
:1034F0001124F8017283BDCF0E94F629B5010E9404
:1035000006298C179D070CF0B4CFF2E0F61598F45D
:103510000E94F629B5010E940629F80180830E94C5
:10352000F629209122032695622F70E00E94062939
:10353000280FF80121839C9CF0019D9CF00D112423
:10354000EA56FD4F128280912303893C58F088ECA3
:103550009C9CF0019D9CF00D1124EA56FD4F848344
:10356000838387CF8431A0F784E1F2CFE0E2F3E0F8
:1035700080818E7F808360817181828193810E94AE
:103580001E161092DA020E947D16089560912003A3
:10359000669570E04BE050E086E191E00E94062ADB
:1035A000892B19F481E08093DA020E94CB21909359
:1035B000D3028093D20208959091200390FF2BC0F4
:1035C0009170811129C0926090932003662351F07D
:1035D0006091200370912103809122039091230335
:1035E0000E941E1660912003669570E04BE050E04B
:1035F00086E191E00E94062A892BA9F01092DA0256
:1036000081E08093D5024091230360912203809151
:1036100021030E94091808958B3210F09465D4CFCD
:10362000880F982BD1CF0E94C61AEACF682F9091AD
:103630002003969581E0890F8B3208F081E00E948B
:10364000DC1A089581E00E94161B0895682F90915E
:10365000200396958FEF890F09F48AE20E94DC1A05
:10366000089581E00E94261B089561E00E94DC1A03
:103670000895E0E2F3E080818160808386950E9476
:10368000351B08958091200380FF03C00E94B61A65
:1036900008950E94391B089560E00E94DC1A089585
:1036A0008091D80281112EC00E94DC0D811104C0CE
:1036B0000E946B0E0E9431160E941916609320031F
:1036C0007093210380932203909323036E7F61F410
:1036D0000E9431160E9419166093200370932103F3
:1036E00080932203909323030E940A161092DA0219
:1036F0008091200380FF03C086950E944C1B81E0CF
:103700008093D80208950F931F93CF93DF938091F6
:10371000DA028823B9F18091D902E0912003E6957D
:10372000E81BE093D402823091F5F0E0E350FD4FC6
:10373000E491CE2FD0E001ED16E18091D5028823EF
:1037400061F01092D5020E94CB219093D302809316
:10375000D2021092D7021092D6020E94CB21E091A1
:10376000D202F091D3028E1B9F0B8F3F9F4750F4E4
:10377000EC0FFD1FF093D302E093D20282ED92E0B2
:10378000F8010995DF91CF911F910F91089586302F
:1037900049F4F0E0E650FD4FE491CE2FD0E005EE85
:1037A00016E1CBCF893051F4E695F0E0E950FD4FBA
:1037B000E491CE2FD0E00DE018E1BFCF8F3051F46F
:1037C000E695F0E0EC50FD4FE491CE2FD0E00AE416
:1037D00018E1B3CF853149F4F0E0EF50FD4FE491AB
:1037E000CE2FD0E00AEB18E1A8CFC8E2D0E00DE27E
:1037F00019E1883109F4A1CF833239F4EFEEF2E018
:10380000C591D49105EF16E198CFC4EFD1E00FEA4E
:1038100019E1843209F491CFC0EDD7E008EF15E14A
:10382000853209F08ACF8E2F63E00E94D828E92FD5
:10383000F0E0E451FD4FE491CE2FD0E00CEE19E121
:103840007CCFFA01811101C0FB0109950895CF9346
:10385000DF93C82FD62F0E9441168C1748F00E9484
:1038600041168D1728F40E94221BDF91CF910895F5
:103870008C2F0E94351BF9CF1F93CF93DF93EC0160
:10388000FB011281111110C00E94EE0C8272FE0128
:10389000E052F847E531F10508F05EC0E256F54D1B
:1038A0000C943C290E94421B812FDF91CF911F91E4
:1038B000089541E35BE162E27BE10E94211CF4CFC9
:1038C00042E25BE161E37BE1F8CF41EC57E162EB7F
:1038D00077E1F3CF42EB57E161EC77E1EECF43EED6
:1038E00057E162ED77E1E9CF42ED57E163EE77E131
:1038F000E4CF45E058E164EF77E1DFCF44EF57E1F3
:1039000065E078E1DACF45E756E16DE576E1D5CFC0
:103910004DE556E165E776E1D0CF81E00E94351BA9
:10392000C3CF65E082E00E94271CBECF68E086E03E
:10393000FACF6EE089E0F7CF64E18FE0F4CF67E182
:1039400085E1F1CF88E1EACF62E289E1ECCF83E261
:10395000E5CF6AE285E2E7CF11E0A6CFE1E8F0E04B
:103960008081886080838081816080838FB7F894B4
:1039700028EE31E030938900209388008FBF0895AE
:10398000EFE6F0E08081826080830895EFE6F0E06A
:1039900080818D7F80830895EFE6F0E0808192E062
:1039A0008927808308951F920F920FB60F921124DA
:1039B0002F933F934F935F936F937F938F939F9337
:1039C000AF93BF93EF93FF938091DB029091DC0262
:1039D00001969093DC028093DB02811103C082E0A8
:1039E0000E949B04E091DC02E695E695F0E0EA5F38
:1039F000FB4FE4918091DB028E1303C080E00E94B4
:103A00009B04FF91EF91BF91AF919F918F917F9117
:103A10006F915F914F913F912F910F900FBE0F903B
:103A20001F901895209A45B14E7F55B15160EFB760
:103A3000F8949B01220F331F260F371F280F391FC1
:103A40002817390741F4EFBF8FE292E00197F1F7B1
:103A500000C000000895DC016D91CD0178E055B9FA
:103A600067FF45B9660F000000C045B97A95B9F700
:103A7000E7CFCF93DF93EC01FB018281882309F428
:103A8000D2C09E0130572332310508F0B2C00E94E7
:103A9000F10D90930F0380930E03FE01E150F04768
:103AA000E232F10520F4ED54F54D0C943C2980915F
:103AB0000E03816080930E0393C080910F03886092
:103AC00080930F038DC080910E038260F3CF8091AD
:103AD0000E038460EFCF80910E038860EBCF80915E
:103AE0000F038160EDCF80910F038260E9CF809159
:103AF0000E038061DFCF80910E038062DBCF809167
:103B00000E038064D7CF0E94760880910E038068F0
:103B1000D1CF80910E038C60CDCF80910F03836055
:103B2000CFCF80910E038E7FC5CF80910F03877F0B
:103B3000C7CF80910E038D7FBDCF80910E038B7F09
:103B4000B9CF80910E03877FB5CF80910F038E7F11
:103B5000B7CF80910F038D7FB3CF80910E038F7EFF
:103B6000A9CF80910E038F7DA5CF80910E038F7B0F
:103B7000A1CF0E94760880910E038F779BCF809112
:103B80000E03837F97CF80910F038C7F99CF809115
:103B90000E0382FB992790F921E0922790FB82F98E
:103BA00090FB83F987CF80910F03982F90959170A8
:103BB0008E7F892B90FB81F983CF90910E03892F03
:103BC0008F7B96FF806476CF0E94760890910E03DB
:103BD000892F97FB87F980586DCF81E00E946E0E88
:103BE00080910E0390910F030E94F60D0E947608BB
:103BF00080E0DF91CF91089580E0F0CF90910E03A7
:103C0000892F8F7E94FF806155CF90910E03892F6D
:103C10008E7F90FF81604ECF90910F03892F877F19
:103C200093FF88604DCF81E0E4CFEBEFE80FEF33F7
:103C300008F06DC0F0E0EB52F54D0C943C290E9469
:103C4000CC1C0E9425200E949B0481E008950E94C4
:103C50006B0EFBCF80918202807F8093820281E095
:103C60008093E00208950E941604EFCF90918202A3
:103C7000892F8E7F90FF81608093820280FDE5CF47
:103C8000817F80938202E1CF90918202892F8D7F84
:103C900091FF82608093820281FFD7CF8091820260
:103CA0008160EFCF90918202892F8B7F92FF846099
:103CB0008093820282FDF2CFC8CF90918202892F39
:103CC000877F93FF88608093820283FDE7CFBDCF1B
:103CD0000E94760890910E03892F97FB87F98058F0
:103CE00080930E03B2CF81E090E00E94C9080E9449
:103CF0007608ABCF895321E030E0A90102C0440F20
:103D0000551F8A95E2F7CA01F0CF8D51F4CF80E0BC
:103D1000089580E008950E94891E0895CF93C82FCA
:103D20008091E0028130B9F0882331F08230A1F136
:103D30001092E00280E00DC00E94EE0C8232D1F7BA
:103D40008C2F0E94891E81111BC08C2F0E94151E72
:103D50008170CF9108950E94EE0C823289F38C2FEE
:103D60000E948B1E81110AC0C43199F060F4CB30DF
:103D700029F0C03169F782E08093E00281E0E8CF6A
:103D800081E090E0E5CFC93221F0C833B9F380E09B
:103D9000DFCF1092E002FBCFC93209F440C0F0F44B
:103DA000C431E9F1A8F481E0C73099F680930D01A0
:103DB00084E180930C018AE080930B018EE1809373
:103DC0000A0188E08093070188E28093060104C01D
:103DD00082EE8C0F8A3070F181E0BBCFC03509F4E0
:103DE00050C0B8F48AE0CF34B9F7E091DD02F09129
:103DF000DE02309789F32081082E000C990B820F88
:103E0000911D8F3F910509F00CF43FC08FEF808327
:103E1000E3CFC135C1F181E0C23539F39ACF80914A
:103E2000DF028823C9F21092DF021092DE021092A4
:103E3000DD02D2CFCD51C093DF02C330C9F048F4C8
:103E4000C13099F08CE091E0C23051F01092DF0265
:103E5000C3CFC53099F078F086E091E0C630B1F775
:103E60009093DE028093DD02B7CF8DE091E0F8CF32
:103E70008BE091E0F5CF8AE091E0F2CF87E091E02E
:103E8000EFCF86EFB2CF8FEFB0CF97FFC0CF1082CA
:103E9000A3CFCF93DF93EB0186319C4711F50E94AE
:103EA000EE0C9A81992399F08A7A91E009F490E0D6
:103EB0009093E102811109C089E20E94C60C0E9420
:103EC0002F0D80E0DF91CF91089585E3F6CF8091AB
:103ED000E102811104C089E20E94CE0CF0CF85E39B
:103EE000FBCF81E0EFCF0F931F93CF93DF93C42FCE
:103EF000D22FFC0182818823C9F04093E4020E9402
:103F0000CB219093E3028093E20280E28C0F883011
:103F100040F4C77081E001C0880FCA95EAF70E949B
:103F20001906DF91CF911F910F9108951091E4022E
:103F3000141332C08091E2029091E3020E94E321C7
:103F4000883C910548F5C0E2CD0F1D17B9F080E21D
:103F5000810F883040F4177081E001C0880F1A95F6
:103F6000EAF70E942006C83048F481E09D2F977040
:103F700001C0880F9A95EAF70E941906802F0E94C7
:103F80001006C83070F6D77081E001C0880FDA954E
:103F9000EAF70E942006C5CF80E28C0F883008F631
:103FA000C77081E001C0880FCA95EAF7F2CF0F937E
:103FB000DB0188519C4787309105A0F5FC01EC5E40
:103FC000F44D0C943C2906E221EE41EE6AE17CE7D7
:103FD000CD010E94731F80E00F91089507E225EE46
:103FE00045EE6BE17CE7F4CF06E221EE40EE68E1BE
:103FF0007CE7EECF07E225EE44EE69E17CE7E8CF0F
:1040000006E221EE42EE6CE17CE7E2CF07E225EE2C
:1040100046EE6DE17CE7DCCF08E221E045EE6EE1A3
:104020007CE7D6CF12968C91882319F01092E40287
:10403000D3CF81E0D1CF9093D1018093D001089567
:104040009093EA028093E9020895E091E902F091E9
:10405000EA02309729F00190F081E02D099508954A
:1040600080E00895E091E902F091EA02309799F03A
:1040700020912901222359F020910E0327FF07C028
:10408000DC012C9111962C93119726E02C93028041
:10409000F381E02D09950895E091E902F091EA029B
:1040A000309739F022E0DC012C930480F581E02D7B
:1040B00009950895A3E0B0E0E0E6F0E20C948329CE
:1040C0002091E7023091E80228173907A1F0909378
:1040D000E8028093E702E091E902F091EA0230976A
:1040E00051F023E029839B838A830680F781E02DAA
:1040F000CE01019609952396E2E00C949F29A3E056
:10410000B0E0E5E8F0E20C9483292091E5023091DB
:10411000E60228173907A1F09093E6028093E502A2
:10412000E091E902F091EA02309751F024E029830E
:104130009B838A830680F781E02DCE010196099545
:104140002396E2E00C949F29FC013296809129018C
:10415000882321F080910E039EE187FF96E080E0A6
:10416000915008F4089521912223D1F38F5FF8CF65
:10417000662301F1209129012223F1F020910E0301
:1041800027FF1AC0462F4695469546954E3190F426
:10419000677021E030E002C0220F331F6A95E2F71A
:1041A000840F911DFC01828190E02823392381E056
:1041B000232B69F480E00895FC0132960896219142
:1041C000261721F0E817F907D1F7F4CF81E0089519
:1041D0009C01FC0132969FEF80E04191461751F01F
:1041E0009F3F19F4411101C0982F8F5F8630A9F7C6
:1041F0009F3F09F40895290F311D97FD3A95F90164
:1042000062830895FC01329608962191261303C01B
:10421000DF0111971C92E817F907B9F70895E62F07
:10422000E695E695E695EE3168F4E80FF92FF11D75
:10423000677021E030E001C0220F6A95EAF78281C1
:10424000822B82830895E62FE695E695E695EE317A
:1042500070F4E80FF92FF11D677021E030E001C024
:10426000220F6A95EAF720958281282322830895F8
:1042700020912901222339F020910E0327FF03C04A
:104280000E940F2108950E94E8200895209129019D
:10429000222339F020910E0327FF03C00E9423211F
:1042A00008950E9402210895FC013296809129010F
:1042B000882351F080910E0387FF06C08EE1DF0155
:1042C0001D928A95E9F7089586E0F9CF46E050E01F
:1042D0000E94132A21E0892B09F420E0822F0895FF
:1042E00008950E9470210895811106C081E0809395
:1042F000EB020E947121089582E0F9CF83E0809360
:10430000EB020E94712108950E947421089581E0BA
:104310008093EB020E94712108950E9487210895E5
:10432000089508950E9491210895089508950E9486
:1043300090210895CF930E9495210E942E120E94F1
:104340009621C0E08C2F0E946A11892B31F4CF5F37
:10435000C430C1F780E0CF91089581E0FCCF85B7EC
:10436000806885BF85B7806885BF089580915103B7
:10437000843011F00E947C0408950E9476080E9407
:104380007F04089582E084BD93E095BD9DE797BDCD
:1043900080936E0008952FB7F8948091490390910F
:1043A0004A03A0914B03B0914C032FBF08952FB740
:1043B000F8946091490370914A0380914B03909166
:1043C0004C032FBF08959C014FB7F8948091490387
:1043D00090914A03A0914B03B0914C034FBF821BB5
:1043E000930B089578941F921FB61F9211248F93F8
:1043F0009F93AF93BF938091490390914A03A091FB
:104400004B03B0914C030196A11DB11D809349034C
:1044100090934A03A0934B03B0934C03BF91AF9189
:104420009F918F911F901FBE1F90189581E08093E0
:10443000E00080E28093D8001092C9008FE097E2FC
:104440000197F1F700C0000087E090EBDC0180935A
:104450005A0390935B03A0935C03B0935D0388E1E0
:104460009CE00FB6F894A895809360000FBE9093DF
:104470006000FFCF88E19CE00FB6F894A895809388
:1044800060000FBE90936000FFCF80910C030895F1
:104490009B01BA01909151039430E9F48F7080939D
:1044A000E9009FEF8091E800915085FD06C08AE603
:1044B0008A95F1F700C09111F5CF8091E80085FF52
:1044C0000AC050E040E0C9010E9454248091E800F5
:1044D0008E778093E800089543E050E0BC0182E0CD
:1044E0000E944822089546E050E0BC0182E00E940C
:1044F00048220895CF93DF93EC0180912901811127
:1045000011C048E050E0BE0181E00E94482280E2F4
:10451000FE01ACEEB2E001900D928A95E1F7DF91D9
:10452000CF91089580910E0387FF05C040E282E09D
:1045300050E0BE01EACF48E081E0FACF809150031D
:10454000811109C00E94E4250E9441268091E20069
:1045500084608093E20008951092500308950E94B1
:104560008721089560914D0381E0611101C080E0D1
:104570000E947E210E94C01C08959091510381E009
:10458000943009F080E060914D030E9484210E94E4
:10459000C61C0E9425200E949B04089542E061EC05
:1045A00081E00E94602542E261EC82E00E94602589
:1045B0009091510381E0943009F080E060914D03C7
:1045C0000E947421089580915303833009F461C0DF
:1045D00030F48130D1F1823009F49EC008958A30E0
:1045E00009F48AC08B3009F46FC0893009F050C0DB
:1045F00080915203813209F04BC080915603909113
:104600005703029708F044C08091E800877F8093A9
:10461000E8008091E80082FF37C09091F30080911C
:10462000F200029731F48091F100813011F0863070
:1046300021F48091F10080930C038091E8008B7746
:104640008093E8000E94942523C080915203813A10
:10465000F9F48091E800877F8093E8008091560309
:1046600090915703892B61F460E28CEE92E070E048
:104670000E94A3248091E8008B778093E80008953E
:1046800060E090E080E0F3CF809151038111C1CFD1
:10469000089580915203813AD9F780915603909101
:1046A0005703892BA9F78091E800877F8093E80062
:1046B0008091E80080FFFCCF809129018093F10078
:1046C0008091E8008E77BCCF80915203813201F750
:1046D0008091560390915703892BD1F68091E80081
:1046E000877F8093E8000E949425809154038093F3
:1046F00029010E947608089580915203813241F683
:104700008091E800877F8093E8000E949425809143
:10471000550380930D03089580915203813A09F067
:10472000B7CF8091E800877F8093E8008091E80010
:1047300080FFFCCF80910D03C1CF84B7877F84BFFA
:104740000FB6F894A895809160008861809360000E
:10475000109260000FBE80E890E00FB6F89480934E
:104760006100909361000FBE0E948D2108950E9408
:10477000E4250E944126E2EEF0E08081846080839F
:1047800078940E94BD28089581E291E00E94202043
:10479000089580915103853031F480915103853023
:1047A00019F00E94BD2108950E94B62180914F0307
:1047B000882399F30E949A21882379F30E943F2449
:1047C0000E947608EACF08950E94E7230895292FD2
:1047D00033272330310519F168F42130310509F40C
:1047E00044C02230310509F445C090E080E030E05B
:1047F00020E025C02132310549F122323105A9F7E7
:1048000080E490E021E736E061157105C1F086EBA8
:1048100090E02BEB35E06130710589F0E6CF992708
:104820008130910581F0009729F00297F1F6E6E4D6
:10483000F5E002C0EAE6F5E0849190E09F01FA011C
:10484000318320830895E6E5F5E0F6CF89E090E036
:1048500020E835E06115710591F389E090E029E9E0
:1048600035E06130710559F3C0CF82E190E029EA6B
:1048700035E0E5CF8BE390E02EE635E0E0CF19BCE4
:1048800082E089BD09B400FEFDCF8091D8008F7D04
:104890008093D8008091E00082608093E000809156
:1048A000E00081FDFCCF0895AF92BF92CF92DF92DE
:1048B000FF920F931F93CF93DF936C01EB018A015B
:1048C0000E94B325F82E811123C00115110539F07E
:1048D000F80180819181C81BD90BC80ED91EB12C5B
:1048E000A12C2097A9F08091E80085FD22C080913D
:1048F000E8008E778093E80001151105A1F0F8011A
:1049000080819181A80EB91EB182A08285E0F82E27
:104910008F2DDF91CF911F910F91FF90DF90CF905E
:10492000BF90AF9008950E94B3258823D1F2F82E4E
:10493000EFCFF60181916F018093F1002197FFEF96
:10494000AF1ABF0ACECFFC01809158039091590352
:1049500086179707A0F06115710529F49091E8007A
:104960009E779093E80090E06115710551F49111E4
:1049700008C08091E80082FF34C080E00895BC0147
:10498000F2CF809151038823C1F18530C1F180912C
:10499000E80083FD30C08091E80082FDEACF80917D
:1049A000E80080FFE1CF8091F3002091F200382FE2
:1049B0006115710519F02830310558F091E0283063
:1049C000310509F090E02091E8002E772093E8006F
:1049D000CBCF81918093F100615071092F5F3F4FE0
:1049E000E7CF80915103882341F0853041F08091D9
:1049F000E80083FFBECF81E0089582E0089583E060
:104A00000895FC01809158039091590386179707E8
:104A1000A0F06115710529F48091E8008E778093EC
:104A2000E80090E06115710551F4911108C0809182
:104A3000E80082FF35C080E00895BC01F2CF80918C
:104A400051038823C9F18530C9F18091E80083FDC5
:104A500031C08091E80082FDEACF8091E80080FFBC
:104A6000E1CF8091F3002091F200382F611571059C
:104A700019F02830310558F091E02830310509F05F
:104A800090E08091E8008E778093E800CBCF84910E
:104A90008093F1003196615071092F5F3F4FE6CF4F
:104AA00080915103882341F0853041F08091E800E6
:104AB00083FFBDCF81E0089582E0089583E00895EB
:104AC000982F973028F08F708093E90081E0089547
:104AD0009093E900242F762F50E0981731F07091D1
:104AE000EC002091ED005091F00021FD02C09F5F8D
:104AF000E8CF3091EB003E7F3093EB003091ED003A
:104B00003D7F3093ED003091EB0031603093EB004E
:104B10007093EC002093ED005093F0002091EE0094
:104B200027FDE5CF80E008958091520387FF13C0F1
:104B30008091E80082FF06C08091E8008B77809327
:104B4000E80004C0809151038111F2CF0895809153
:104B500051038823D9F38091E80080FFF8CF80913A
:104B6000E8008E77ECCF2091E4003091E50095E6E7
:104B7000A9012091EC00822F817020FF06C0809156
:104B8000E80080FF06C080E008952091E80022FD43
:104B90001AC080915103882389F0853089F0809173
:104BA000EB0085FD0FC02091E4003091E500421735
:104BB0005307F9F29150E1F684E0089582E00895F8
:104BC00083E0089581E008950E9453260E945B26A9
:104BD000E0EEF0E0808181608083E8EDF0E08081AC
:104BE0008F77808319BCA7EDB0E08C918E7F8C937A
:104BF00080818F7E80831092500308950F931F93BE
:104C0000CF93DF930E9453260E945B26C8EDD0E02D
:104C100088818F77888388818068888388818F7D69
:104C2000888319BC1092510310924D0310924F03C8
:104C300010924E0300EE10E0F80180818B7F80839C
:104C400088818160888342E060E080E00E94602586
:104C5000E1EEF0E080818E7F8083E2EEF0E0808103
:104C600081608083808188608083F80180818E7F6D
:104C70008083888180618883DF91CF911F910F911C
:104C80000895E8EDF0E080818F7E8083E7EDF0E02D
:104C900080818160808384E082BF81E080935003C3
:104CA0000E94FE250895E8EDF0E080818E7F8083EC
:104CB0001092E20008951092DA001092E100089537
:104CC0001F920F920FB60F9211242F933F934F9381
:104CD0005F936F937F938F939F93AF93BF93EF9364
:104CE000FF938091E10082FF0BC08091E20082FF80
:104CF00007C08091E1008B7F8093E1000E94BC2877
:104D00008091DA0080FF18C08091D80080FF14C025
:104D10008091DA008E7F8093DA008091D90019BCEF
:104D200080FF93C082E089BD09B400FEFDCF81E021
:104D3000809351030E949E228091E10080FF19C060
:104D40008091E20080FF15C08091E2008E7F809309
:104D5000E2008091E20080618093E2008091D800BF
:104D600080628093D80019BC85E0809351030E9433
:104D7000B2228091E10084FF2AC08091E20084FF8A
:104D800026C019BC82E089BD89B5982F917080FF3B
:104D9000FBCF8091D8008F7D8093D8008091E10077
:104DA0008F7E8093E1008091E2008F7E8093E2000D
:104DB0008091E20081608093E20080914D0388231E
:104DC00009F448C084E0809351030E94BD22809181
:104DD000E10083FF29C08091E20083FF25C080911C
:104DE000E100877F8093E10082E08093510310927D
:104DF0004D038091E1008E7F8093E1008091E2007D
:104E00008E7F8093E2008091E20080618093E200D7
:104E100042E060E080E00E9460258091F0008860C0
:104E20008093F0000E94AF22FF91EF91BF91AF916C
:104E30009F918F917F916F915F914F913F912F91B2
:104E40000F900FBE0F901F901895109251030E9463
:104E5000AC2272CF8091E30087FD93E090935103E1
:104E6000B4CF1F920F920FB60F9211242F933F933E
:104E70004F935F936F937F938F939F93AF93BF9362
:104E8000CF93DF93EF93FF93D091E900DF70809190
:104E9000EC00C82FC17080FDC0E81092E90080913D
:104EA000F000877F8093F00078940E94752710921D
:104EB000E9008091F00088608093F000CD2BCF70E6
:104EC000C093E900FF91EF91DF91CF91BF91AF9136
:104ED0009F918F917F916F915F914F913F912F9112
:104EE0000F900FBE0F901F901895AAE2B0E0EBE76D
:104EF000F7E20C94822982E593E02091F100FC0115
:104F00002193CF01F3E08A359F07B9F70E94E3228E
:104F10008091E80083FF1EC180915203909153035A
:104F20009A3008F017C1E92FF0E0E55EF44D0C94DB
:104F30003C29803899F0823809F00CC180915603E1
:104F40008F70873008F006C18093E9008091EB00F4
:104F500085FB882780F91092E90006C080914E03F6
:104F600090914F03911182609091E800977F909308
:104F7000E8008093F1001092F1008091E8008E77B4
:104F8000E5C0882309F4D3C0823009F0E3C08091E2
:104F900054038111D6C0809156038F702FEF280FD4
:104FA000263008F0D7C08093E9002091EB0020FF65
:104FB000C8C0933031F48091EB0080628093EB00A5
:104FC000C0C09091EB0090619093EB0021E030E045
:104FD00001C0220F8A95EAF72093EA001092EA00B6
:104FE0008091EB008860EACF8111B4C01091540326
:104FF0001F778091E3008078812B8093E30080917C
:10500000E800877F8093E8000E9494258091E80063
:1050100080FFFCCF8091E30080688093E30082E012
:10502000111183E08093510395C08058823008F0BD
:1050300091C080915403909155038C3D23E09207D9
:10504000A1F583E08A838AE289834FB7F894DE0171
:10505000139620E03EE051E2E32FF0E0509357003A
:10506000E49120FF03C0E295EF703F5FEF708E2F59
:1050700090E0EA30C0F0C7968D939D932F5F243166
:1050800059F74FBF8091E800877F8093E8006AE27C
:1050900070E0CE0101960E94A3248091E8008B77F6
:1050A0008093E80057C0C096E7CF60915603709197
:1050B0005703AE014F5F5F4F0E94E423BC01892B71
:1050C00009F448C09091E800977F9093E8008981A7
:1050D0009A810E940125E1CF8038E1F58091E800B6
:1050E000877F8093E80080914D038093F10045CF46
:1050F000811130C090915403923060F58091E800A6
:10510000877F8093E80090934D030E9494258091BF
:105110004D03882311F084E005C08091E30087FDF2
:10512000FACF81E0809351030E94CE2213C0809178
:105130005403813079F481E0933009F080E080936A
:105140004F031092E9008091E800877F8093E80088
:105150000E9494258091E80083FF0AC08091E800B6
:10516000877F8093E8008091EB0080628093EB0062
:10517000AA96E3E00C949E290895CF938091510361
:105180008823A1F0C091E900CF709091EC00892FA5
:10519000817090FD80E8C82B1092E9008091E800B2
:1051A00083FD0E947527CF70C093E900CF910895C9
:1051B000991B79E004C0991F961708F0961B881F69
:1051C0007A95C9F78095089587FB082E062687FDF6
:1051D000819567FD61950E94D8280EF4919507FC92
:1051E00081950895AA1BBB1B51E107C0AA1FBB1FD5
:1051F000A617B70710F0A61BB70B881F991F5A9563
:10520000A9F780959095BC01CD01089597FB072ED5
:1052100016F4009407D077FD09D00E94F22807FC0D
:1052200005D03EF4909581959F4F089570956195B6
:105230007F4F0895A1E21A2EAA1BBB1BFD010DC0D2
:10524000AA1FBB1FEE1FFF1FA217B307E407F50736
:1052500020F0A21BB30BE40BF50B661F771F881F12
:10526000991F1A9469F760957095809590959B01A8
:10527000AC01BD01CF010895EE0FFF1F0590F49121
:10528000E02D09940E944A29332312F48A1B9B0BB8
:105290000C945B29A29FB001B39FC001A39F700D26
:1052A000811D1124911DB29F700D811D1124911D2E
:1052B00008950E944A29B7FF0895821B930B089511
:1052C0000E944A29A59F900DB49F900DA49F800D28
:1052D000911D11240895B7FF0C9460290E94602944
:1052E000821B930B08952F923F924F925F926F9281
:1052F0007F928F929F92AF92BF92CF92DF92EF9266
:10530000FF920F931F93CF93DF93CDB7DEB7CA1BE6
:10531000DB0B0FB6F894DEBF0FBECDBF09942A8811
:10532000398848885F846E847D848C849B84AA84B9
:10533000B984C884DF80EE80FD800C811B81AA8146
:10534000B981CE0FD11D0FB6F894DEBF0FBECDBF11
:10535000ED0108958F929F92AF92BF92CF92DF920C
:10536000EF92FF92CF93DF93EC01688179818A817C
:105370009B81611571058105910521F464E279ED48
:105380008BE597E02DE133EF41E050E00E94712A78
:1053900049015A019B01AC01A7EAB1E40E946029CE
:1053A0006B017C01ACEEB4EFA50194010E946E2963
:1053B000DC01CB018C0D9D1DAE1DBF1DB7FF03C0D1
:1053C0000197A109B04888839983AA83BB839F77FB
:1053D000DF91CF91FF90EF90DF90CF90BF90AF9093
:1053E0009F908F9008950E94AA29089580E091E0EF
:1053F0000E94AA290895B0E0A0E080930001909354
:105400000101A0930201B09303010895FC014150F2
:10541000504030F001900616D1F73197CF01089532
:10542000882799270895FB01DC0104C08D91019024
:10543000801921F441505040C8F7881B990B0895FA
:10544000FB01DC0102C001900D9241505040D8F7A1
:105450000895F999FECF92BD81BDF89A992780B53C
:105460000895A6E1B0E044E050E00C94632AA8E17E
:10547000B0E042E050E00C94632A262FF999FECF69
:1054800092BD81BDF89A019700B4021639F01FBA97
:1054900020BD0FB6F894FA9AF99A0FBE08950396B4
:1054A000272F0E943E2A0E943D2A252F0E943E2A35
:1054B000242F0C943E2A0196272F0E943E2A0C94FA
:1054C0003D2ADC01CB01FC01F999FECF06C0F2BDFB
:1054D000E1BDF89A319600B40D9241505040B8F7B2
:1054E0000895052E97FB1EF400940E94882A57FD0C
:1054F00007D00E941A2907FC03D04EF40C94882A86
:1055000050954095309521953F4F4F4F5F4F0895EF
:1055100090958095709561957F4F8F4F9F4F08951F
:10552000F894FFCF60066006B006B0061D07390785
:105530008F068F063E07AF07BE07BE07521C591CD9
:10554000601C651C6A1C6F1C741C791C7E1C831CEF
:10555000881C8D1C911C961C991C9C1C9F1CA21CB9
:10556000A41CA71CA91C911D051E991D631D671D68
:105570009D1D6B1DA11DAD1D771DFE1D7B1DB11D4C
:105580007F1DB51DDD1D831DB91DE41D891DBF1DBA
:10559000C71D6F1DA51D731DA91D8D1DC31DD31D09
:1055A000ED1DFC1D5D1D951D0C1E331E2A1E361E95
:1055B000251E871E871E251E871E871E521E871EBC
:1055C0005D1E681E871E871E871E871E251E871E5E
:1055D000871E251E871E441E871E1F1E851E851EB4
:1055E000851E851E851E851E851E851E851E731EB5
:1055F000871E331E271E871E871E871E871E871E37
:10560000871E871E871E871E871E731E871E871E86
:10561000251E871E7A1E7A1E7A1E7A1E7A1E7A1E12
:105620007A1E7A1E7A1E731EF41FFA1FE31FEE1FE6
:10563000002006200C209927C127AA28C127AA28C4
:0A564000F4271528AA286C28782802
:10564A00010000004E02280850011E0A140101013F
:10565A0002000C000C0C01191A1B1C1D1E1F202114
:10566A002245227A2273226C2201E200E900EA0032
:10567A00B500B600B700CD008301CC008A019201C3
:10568A0094012102230224022502260227022A0269
:10569A00B300B4006F0070009F01CB01818283E2E6
:1056AA0000E900EA00B500B600B700CD008301CCDE
:1056BA00008A019201940121022302240225022672
:1056CA000227022A02B300B4006F0070009F01CBC8
:1056DA0001818283F7F6F5F4F1F090919293959611
:1056EA0097666735000102020202060606090909E1
:1056FA000909090F0F0F0F0F0F1515151819191989
:10570A0019191919191919232425252525252500BB
:00000001FF
