:100000000C944A040C949C040C949C040C949C0442
:100010000C949C040C949C040C949C040C949C04E0
:100020000C949C040C949C040C9435290C94042A84
:100030000C949C040C949C040C949C040C949C04C0
:100040000C949C040C94BD240C949C040C949C046F
:100050000C949C040C9411240C949C040C949C040B
:100060000C949C040C949C040C949C040C949C0490
:100070000C949C040C949C040C949C040C949C0480
:100080000C949C040C949C040C949C040C949C0470
:100090000C949C040C949C040C949C040C949C0460
:1000A0000C949C040C949C040C949C04C609BC09FC
:1000B000C909050A070A070A050A070A070AEA0919
:1000C000070AF409070A070A070A070A070A050ABE
:1000D000070A070A050A070AD709070AB209000A28
:1000E000000A000A000A000A000A000A000A000AC0
:1000F000020A070AC609B909070A070A070A070A0E
:10010000070A070A070A070A070A070A020A070A6C
:10011000070A050A070AFE09FE09FE09FE09FE098B
:10012000FE09FE09FE09FE09020A6C146F14771419
:100130007C14811486148B14901495149A149F14B3
:10014000A414A614A914AC14AF14B214B514B714A3
:10015000BC14101A101A421A421A891AA71AC81B7C
:10016000C81BB21A471B581B581BB81BC81BC81BFF
:10017000C11B681C681C7A1C7A1C711C7A1C7A1CB6
:100180007A1C681C681C761C7A1C7A1C761C712AE6
:10019000982A902B982A902BE42A072B902B5E2BE1
:1001A0006D2B290014001A000800150017001C0010
:1001B00018000C00120013004C002B000400164520
:1001C000074409430A000B000D430E440F45340059
:1001D0002800E1001D001B000600190005000500B5
:1001E00011001000360037003800E000E200000087
:1001F0004C642A6229612B742C7128780000E70076
:100200000153010001000100010001000100010093
:1002100001000100010001000100010001001600C1
:1002200007000900010001000D000E000F00010091
:1002300001000100010001000100010001000100B6
:1002400001000100010001000100010001000000A7
:100250002C00010000422B742C7128780000010052
:10026000010001001E0052001F00200001000100DB
:1002700001000100010001000100010050005100D7
:100280004F002100010001000100010001000100F8
:1002900001000100220023002400250001000100CC
:1002A0000100010001000100010001000100000047
:1002B0000100010001000100010001000000010037
:1002C0000100005C2F00610060005F0030004B0007
:1002D0004A0052004D0049002A00530033005E00DE
:1002E0005D005C002E004E00500051004F004C009D
:1002F0000000000035005B005A005900310000008A
:1003000000000000000000000000000000000000ED
:10031000630062002D0001000100010000000000E8
:10032000000000002F022602250224023002F900FC
:10033000F100ED00F200F400000039003302230266
:10034000220221022E02FA00EF00EE00F000F5007A
:1003500000000000350220021F021E0231020000D0
:10036000FB00FD00FE00FF00FC000000000000009C
:10037000260227022D0201000100010000000000FA
:100380000000000043004200410040004600CA5CFB
:10039000C45CA900C55C00000000000044003F00F0
:1003A0003E003D004700CB5CAC00AA00AB00000063
:1003B0000000000045003C003B003A0048000000FF
:1003C000000000000000000000000000000000002D
:1003D000000000000000A800AE00AD00000000001A
:1003E000C35C1E0F0500047F3F1F64321464321487
:1003F000783C1E1E140A052223252628292A2C2D86
:100400002F3032333536383A3B3D3E404243454744
:10041000494A4C4E5051535557595A5C5E6062647C
:100420006668696B6D6F71737577797B7D7F81838A
:100430008587898A8C8E90929496989A9C9E9FA18B
:10044000A3A5A7A8AAACAEAFB1B3B4B6B8B9BBBCAC
:10045000BEBFC1C2C3C5C6C7C9CACBCCCDCED0D121
:10046000D2D2D3D4D5D6D7D7D8D9D9DADADBDBDB19
:10047000DCDCDCDCDCDDDDDDDDDCDCDCDCDCDBDBBA
:10048000DBDADAD9D9D8D7D7D6D5D4D3D2D2D1D00E
:10049000CECDCCCBCAC9C7C6C5C3C2C1BFBEBCBB0B
:1004A000B9B8B6B4B3B1AFAEACAAA8A7A5A3A19F83
:1004B0009E9C9A98969492908E8C8A898785838147
:1004C0007F7D7B79777573716F6D6B696866646228
:1004D000605E5C5A5957555351504E4C4A494745F6
:1004E0004342403E3D3B3A3836353332302F2D2C97
:1004F0002A292826252322FFAA7F55400001010131
:1005000001010101010102020202020202020203D0
:1005100003030303030303040404040404040505A0
:100520000505050606060606070707070708080863
:1005300008090909090A0A0A0B0B0B0C0C0C0D0D12
:100540000D0E0E0E0F0F0F101011111112121313AA
:100550001414151516161717181819191A1A1B1B23
:100560001C1D1D1E1E1F202021222223242425267F
:1005700026272829292A2B2C2D2D2E2F30313232B7
:10058000333435363738393A3B3C3D3E3F404142C3
:10059000434445464748494A4C4D4E4F50515354A9
:1005A000555658595A5B5D5E5F616264656668695D
:1005B0006B6C6D6F7072737577787A7B7D7E8082DD
:1005C000838587888A8C8E8F91939596989A9C9E26
:1005D000A0A2A3A5A7A9ABADAFB1B3B5B7BABCBE36
:1005E000C0C2C4C6C9CBCDCFD1D4D6D8DBDDDFE203
:1005F000E4E7E9EBEEF0F3F5F8FAFDFF00000000A8
:1006000000000000000000010204060A0F17202C61
:100610003A4A5D71879DB3C7DAE9F5FCFFFCF5E95D
:10062000DAC7B39D87715D4A3A2C20170F0A06047A
:100630000201000000000000000000000E03610045
:100640006C00690078003400300000001203710073
:1006500075006100640063007500620065000000C1
:100660000403090409023B00020100A0FA09040086
:1006700000010301010009211101000122400007CE
:1006800005810308000A09040100010300000009B4
:100690002111010001227B000705820320000A12BC
:1006A0000110010000000843513441010001020023
:1006B0000105010902A10185020901A1000509192D
:1006C0000129081500250195087501810205010918
:1006D0003009311581257F95027508810609381585
:1006E00081257F950175088106050C0A3802158160
:1006F000257F950175088106C0C005010980A1010B
:10070000850319012AB700150126B7009501751058
:100710008100C0050C0901A101850419012AA0026C
:10072000150126A002950175108100C0050109067A
:10073000A101050719E029E71500250195087501B4
:1007400081029501750881010507190029FF15002F
:1007500026FF0095067508810005081901290595F1
:100760000575019102950175039101C041542B4219
:100770004C454849444D4F555345425554544F4EAE
:100780003D0041542B424C454849444D4F5553453B
:100790004D4F56453D25642C25642C25642C25643D
:1007A0000041542B424C45484944434F4E54524F0C
:1007B0004C4B45593D3078253034780041542B421C
:1007C0004C454B4559424F415244434F44453D25CA
:1007D0003032782D30302D253032782D253032785A
:1007E0002D253032782D253032782D253032782D58
:1007F000253032780041542B474150474554434FF0
:100800004E4E0041542B4556454E54454E41424CA8
:10081000453D3078320041542B4556454E54454EA7
:1008200041424C453D307831004F4B004154453DED
:10083000300041542B4741504445564E414D453DB3
:10084000616C697834300041542B424C454849442E
:10085000454E3D310041542B474150494E5445527D
:1008600056414C533D31302C33302C2C0041545ADE
:100870000041542B424C45504F5745524C4556452C
:100880004C3D2D3132002C085508320847087108BC
:100890006D08683211241FBECFEFDAE0DEBFCDBF96
:1008A00004B603FE27C08091D5049091D604A09190
:1008B000D704B091D8048730904BA740B04BD1F407
:1008C0001092D5041092D6041092D7041092D80436
:1008D00014BE84B7877F84BF0FB6F894A895809123
:1008E0006000886180936000109260000FBEE0E0BD
:1008F000F8E3099511E0A0E0B1E0EAE7FEE602C006
:1009000005900D92A23FB107D9F724E0A2EFB1E024
:1009100001C01D92A53DB207E1F714E0CAE4D4E09E
:1009200004C02197FE010E94D532C934D107C9F70E
:100930000E9498260C943B370C94000081E00895A7
:1009400081E008950C94A00408950C94A4041F93CE
:10095000CF93DF9300D000D01F92CDB7DEB749838D
:100960005A836B833091690289819A81311114C055
:10097000662359F0222349F00E94A121182F682FE5
:1009800089819A810E944A2103C00E947521182FF3
:1009900069817A81812F04C00E94A12169817A81B5
:1009A0000F900F900F900F900F90DF91CF911F91AC
:1009B0000C947705FC01262F40815181628173815F
:1009C00084810C94A704CF93DF93EC0160E00E9434
:1009D000DA04BE01DF91CF910C94A5040E94622439
:1009E0000E94DB22811102C00E9482230C949A078C
:1009F0000C94960708950E94561C0E94FA042FE753
:100A00008AE196E0215080409040E1F700C000006C
:100A10000C9437240F931F93CF93DF938C0161E0E5
:100A20000E94DA04EC01B8010E94A204882309F4B0
:100A300044C0B801CE010E945F158823F1F1B801CE
:100A4000CE010E94B1158823C1F1B801CE010E94E8
:100A5000DC16882391F1B801CE010E945514882339
:100A600061F1F8018281882309F1CE3D8CE5D80738
:100A7000B9F048F4C115FCE5DF0779F0CD3DDC4560
:100A8000A9F480E00EC0CF3DECE5DE0769F0C03E82
:100A9000DC4561F40E94822310C00E94FB040DC05B
:100AA00082E00E94292D09C083E0FBCFC801DF91BD
:100AB000CF911F910F910C949E0480E0DF91CF9114
:100AC0001F910F91089508950C94630581E0089596
:100AD0000C946605CF93C82F0E9464058C2F0E944A
:100AE0006805CF91089580E090E00895089520E38F
:100AF000829FC0011124FC012CE0729FE00DF11DCA
:100B00001124E60FF11DEE0FFF1FEE55FE4F8591EC
:100B100094910895880F991FFC01EE51FC4F859127
:100B200094910895CF93DF930E9477050E94AA06BF
:100B3000EC018115904508F041C0C11580E4D8074B
:100B400008F0D1C0C83ED10510F5C03ED10508F06F
:100B5000FDC0C83AD10578F4C53AD10508F0A2C065
:100B6000C130D10509F4F2C008F4EEC0C430D1059B
:100B700008F0ECC0E9C0CF3BD10508F49BC0C03CF5
:100B8000D10508F4E1C0CE01805C91099EC0C11579
:100B900090E2D90758F4C11521E0D20708F0D6C079
:100BA000CD3ED10508F4D0C0D065D0C0C11580E3DA
:100BB000D80708F08EC0CE019F7087C0C11595E59B
:100BC000D90708F043C0C11524E5D20708F0A2C038
:100BD000C11582E5D80708F5C11591E5D90708F0D8
:100BE00085C0CE0174E0969587957A95E1F783707C
:100BF0009C2F937021E030E002C0220F331F9A95A2
:100C0000E2F73C68382BCF70C695C69580E2C89F46
:100C1000E0011124C22BD32B99C09E0123703327EE
:100C20008C2F86958695C115D34508F064C0C1E028
:100C3000D0E002C0CC0FDD1F2A95E2F720E2829FB0
:100C4000C0011124C82BD92BDC6880C0C11529E54F
:100C5000D207A0F4C11588E5D80708F060C0C11517
:100C600096E5D90708F070C08C2F0E943E078F715F
:100C7000C82FD0E0DC2FCC27D06268C0C1152AE590
:100C8000D20708F451C0CE0190568115904208F069
:100C90005BC08D2F8F710E943E07DD27D0628F7160
:100CA000D82B54C0C55AD0E0C45ADE4FC881D0E01A
:100CB000D0644CC0C85AD0E0CC0FDD1FC25DDE4FFF
:100CC0000990D881C02DD46441C00E948A05EC01EE
:100CD0003DC0CE019927D3FF03C0EC01D86C36C0CC
:100CE000EC01D06C33C0DF70D06A30C0DC2FCC2771
:100CF000C16FD06A2BC0C1E0D0E002C0CC0FDD1FB5
:100D00002A95E2F720E2829FC0011124C82BD92B3B
:100D1000DA681CC0DC2FCC27C46FD06A17C0DC2F68
:100D2000CC27C06FD06A12C08C2F8F700E943E07F4
:100D300094E0D695C7959A95E1F7CF70D0E0DC2F77
:100D4000CC27D069C82B02C0C0E0D0E0CE01DF9133
:100D5000CF9108958238910569F1B0F481339105FE
:100D600009F46DC048F48932910509F463C08A32F0
:100D7000910509F469C008958533910509F455C0BA
:100D800089339105B9F00895833E910569F138F4EE
:100D9000803E9105B1F0823E910509F10895863EAD
:100DA0009105A9F1873E9105B9F1843E910509F0BD
:100DB00064C023C02091C60420FD4FC021FD4DC05A
:100DC00008958091C60480FD44C08091C70480FFCF
:100DD00044C08091C60484FD42C083EE4DC0809122
:100DE000C60482FF38C0F5CF8091C60482FD33C0AF
:100DF0008091C70480FD31C0ECCF8091C70481FF92
:100E000032C08091C60484FD2AC087EE35C080912F
:100E1000C60483FF26C0F5CF8091C60483FD21C0A0
:100E20008091C70481FD1FC0ECCF8091C60485FD71
:100E30001CC01DC08091C60485FD19C016C08091DC
:100E4000C60486FD16C017C08091C60486FD13C077
:100E500010C089E311C082EE0FC080EE0DC080E0AB
:100E60000BC086EE09C084EE07C089E205C085E3A9
:100E700003C08AE201C081E390E008959091C60426
:100E800092FF0DC0282F2871283019F4877F8460C5
:100E900006C0282F2471243011F48B7F886093FFC3
:100EA0000DC0282F2871283119F4877E846106C06F
:100EB000282F2471243111F48B7E88612091C7047E
:100EC00020FF0DC0382F3871383019F4877F8160CA
:100ED00006C0382F3171313011F48E7F886021FFC8
:100EE0000DC0282F2871283119F4877E816106C032
:100EF000282F2171213111F48E7E886194FD877E27
:100F00000895E82FF0E0EE0FFF1FEF56FB4F8081B2
:100F100091810895089580E58A95F1F7089500C0BC
:100F200008950C948B0708950C9493070C949407E0
:100F30000C9493070C949807F894E82FE295EF70BF
:100F4000F0E031A1282F2F7081E090E001C0880FE0
:100F50002A95EAF7982F9095932391A392A1892B34
:100F600082A378940895CF93DF93CFE5D1E0899160
:100F70000E949C0781E0CB36D807C9F787E90E9419
:100F80009C0786E60E949C0787E60E949C0785E3F3
:100F90000E949C0710928A04109289041092920475
:100FA0001092910410928C0410928B04109294046D
:100FB0001092930410928E0410928D041092960455
:100FC000109295041092900410928F04109298043D
:100FD0001092970484E00E948E08DF91CF910C94C8
:100FE000EE044F925F927F928F929F92AF92BF9248
:100FF000CF92DF92EF92FF920F931F93CF93DF93E5
:101000009FE5E92E91E0F92EC0E0D0E010E0CC247D
:10101000C394D12C31E9832E34E0932E5701D701AC
:101020008C91F894E82FE295EF70F0E021A18F7099
:10103000A60102C0440F551F8A95E2F7CA01922FFC
:10104000982B91A392A18095892382A378940E94E2
:101050008F07A6010C2E02C0440F551F0A94E2F719
:10106000BA0160957095E9E8F4E08BE6482E81E0DE
:10107000582E00E020813181D2017D902D01872DF5
:1010800082958F7090E0DC0190968C9190E0B72D66
:10109000BF7002C095958795BA95E2F780FD04C0B0
:1010A000C901842B952B03C0C901862397232817D8
:1010B000390719F09183808301E032968E169F06DE
:1010C000C9F6EFEFEE1AFE0AD5018C910E949C073B
:1010D000CB30D10511F00E949107102B2196CC3016
:1010E000D10509F09BCF212F44E061E974E089E844
:1010F00094E00E948F080E94F804812FDF91CF9125
:101100001F910F91FF90EF90DF90CF90BF90AF9025
:101110009F908F907F905F904F9008950895FF92D9
:101120000F931F93CF93DF93F82E092F162FD72FEE
:10113000C42F222349F081E08093F6010E94EA2324
:101140009093F5018093F4018091F6018823D9F002
:101150008091F4019091F5010E940224069798F085
:10116000EF2DF02FA12FBD2F80E090E04C2F50E00D
:101170008417950734F4219131912D933D93019675
:10118000F7CF1092F601DF91CF911F910F91FF9051
:101190000895833081F128F4813059F08230D1F004
:1011A0000895853009F449C0B8F1863009F456C075
:1011B000089580910B01262F30E0280F311D2F3F1D
:1011C000310524F4680F60930B0108958FEF80932D
:1011D0000B01089580910A01262F30E0280F311D60
:1011E0002F3F310524F4680F60930A0108958FEFB3
:1011F00080930A01089580910901262F30E0280F7D
:10120000311D2F3F310524F4680F609309010895C3
:101210008FEF80930901089580910801262F30E017
:10122000280F311D2F3F310524F4680F609308010A
:1012300008958FEF80930801089580910501262F6E
:1012400030E0280F311D2F3F310524F4680F6093E3
:10125000050108958FEF80930501089580910401A1
:10126000262F30E0280F311D2F3F310524F4680F61
:101270006093040108958FEF8093040108958330F3
:1012800011F128F4813049F0823091F008958530D1
:1012900081F120F18630C1F1089580910B0168172A
:1012A00020F4861B80930B01089510920B01089582
:1012B00080910A01681720F4861B80930A01089523
:1012C00010920A01089580910901681720F4861B85
:1012D00080930901089510920901089580910801F1
:1012E000681720F4861B8093080108951092080166
:1012F000089580910501681720F4861B80930501ED
:10130000089510920501089580910401681720F452
:10131000861B8093040108951092040108950F9391
:101320001F9341E050E060E070E08A019B0104C03F
:10133000000F111F221F331F8A95D2F7C901B80170
:101340000E944C201F910F910C94561C482F50E086
:10135000FA013597EF33F10508F059C0EA5AFF4F0B
:101360000C94D5320E94B6240E9412170E946A057E
:101370004CC00E94822349C08091D502817F8E7F1C
:101380008093D50281E08093F80108950E94FB04C8
:101390003CC08091D502982F9095917090FB80F978
:1013A0008093D502911131C0897F877F10C08091D1
:1013B000D50281FB222720F991E0922790FB81F949
:1013C0008093D502992309F18091D50281608093A1
:1013D000D5021BC08091D50282FB222720F991E023
:1013E000922790FB82F9ECCF8091D50283FB2227D4
:1013F00020F991E0922790FB83F9E2CF895303C053
:101400008D5101C080E00E948F0981E0089580E045
:10141000089580E008950C94090A8E518A3030F4C2
:10142000E82FF0E0E159FE4F8081089580E00895B3
:10143000CF93C82F8091F801813051F018F082309D
:1014400099F17DC00E942222823209F07AC004C044
:101450000E942222823261F48C2F0E940B0A811199
:1014600004C08C2F0E94A6091DC081E090E01AC024
:101470008C2F0E94090A811114C0C43179F048F4FC
:10148000CB3079F0C03109F060C082E08093F80180
:1014900008C0C93219F0C83321F057C01092F801C2
:1014A00054C081E0817053C0C93289F118F5C4314C
:1014B00071F1B0F4C73009F046C08EE180930B01A2
:1014C00082E380930A018AE08093090184E180939A
:1014D000080188E08093050188E28093040133C00D
:1014E00082EE8C0F863078F58C2F0E940D0A809347
:1014F000F70129C0CE34E9F020F4CB3421F56AE0BD
:1015000013C0C13579F0C235F1F461E00DC08091AE
:10151000F701882319F01092F70115C081E080933C
:10152000F80115C061E006C08091F7010E94C9086A
:101530000AC06AE08091F7010E943F0904C010923E
:10154000F80180E004C081E002C080E0ABCFCF9121
:1015500008958091FF0180FF0BC06091090185E033
:10156000689FB001112475956795759567952BC097
:1015700081FF09C06091090185E0689FB0011124D5
:101580007595679520C082FF07C06091090185E0CD
:10159000689FB001112417C09091FE019923D1F0EA
:1015A00060910801961788F72091090185E0289F2E
:1015B00090011124929FA001939F500D112470E07F
:1015C000CA010E949F326038710540F461157105AF
:1015D00019F406C065E070E0862F08958FE708953E
:1015E00081E008958091FF0180FF08C060910501AE
:1015F00070E0759567957595679521C081FF06C068
:101600006091050170E07595679519C082FF04C06F
:101610006091050170E010C09091FD01992399F04F
:10162000609104019617A0F780910501899FC00180
:10163000112470E00E949F326038710540F46115FA
:10164000710519F406C061E070E0862F08958FE7F8
:10165000089581E008958D3E21F40E94A90A8195A4
:1016600004C08E3E29F40E94A90A809303020895C3
:101670008F3E21F40E94A90A819504C0803F29F47D
:101680000E94A90A809302020895893F19F40E94DA
:10169000F20A05C08A3F31F40E94F20A81958093D4
:1016A000040208958B3F21F40E94F20A819504C040
:1016B0008C3F29F40E94F20A8093050208959FE06E
:1016C000980F983078F421E030E0A90102C0440F6F
:1016D000551F9A95E2F7CA0190910102892B8093D8
:1016E000010208958D3F21F48091FF0181600BC0BC
:1016F0008E3F21F48091FF01826005C08F3F29F465
:101700008091FF0184608093FF0108958D3E39F43C
:101710009091030297FF35C01092030259C08E3E8C
:1017200029F4909103021916BCF32BC09091020288
:101730008F3E29F497FF25C01092020249C0803FD6
:1017400019F41916CCF31DC090910402893F29F4B5
:101750001916BCF4109204023BC08A3F19F497FF9B
:1017600010C0F8CF8B3F39F49091050297FF09C064
:10177000109205022DC08C3F21F49091050219169C
:10178000BCF39FE0980F983080F421E030E0A9018D
:1017900002C0440F551F9A95E2F7CA0180959091B7
:1017A000010289238093010213C08D3F21F48091AF
:1017B000FF018E7F0BC08E3F21F48091FF018D7F52
:1017C00005C08F3F29F48091FF018B7F8093FF013B
:1017D00080910202811106C080910302811102C032
:1017E0001092FE0180910402811106C080910502D1
:1017F000811102C01092FD0108950E94EA232091F8
:101800000202211104C020910302222321F09093AF
:10181000FC018093FB0120910402211104C020915E
:101820000502222321F09093FA018093F90180E0D0
:1018300092E00C942917EF92FF920F931F93CF938E
:10184000DF9300D000D000D0CDB7DEB786E0E0E077
:10185000F2E0DE01119601900D928A95E1F7E09099
:101860000202F0900302009104021091050210920E
:101870000202109203021092040210920502E1107B
:1018800003C0FF2009F45DC08091FB019091FC0131
:101890000E940224AC019091FE01992339F020911D
:1018A0000A0130E02417350758F04BC020910B0196
:1018B0008AE0289F900111242417350718F041C0B1
:1018C0009F3F19F09F5F9093FE01EE2061F00E9410
:1018D000A90A1E1414F09FEF01C091E0989F902D6B
:1018E000112490930202FF2061F00E94A90A1F14A4
:1018F00014F09FEF01C091E0989F902D11249093D8
:101900000302309102023323E1F0209103022223EB
:10191000C1F045EB3403C0011124992319F09093D1
:10192000020203C081E08093020235EB2303C00171
:101930001124992319F09093030203C081E080934E
:101940000302011103C0112309F45DC08091F90164
:101950009091FA010E940224AC019091FD0199231B
:1019600039F02091060130E02417350758F04BC0BC
:10197000209107018AE0289F900111242417350740
:1019800018F041C09F3F19F09F5F9093FD01002325
:1019900061F00E94F20A101614F09FEF01C091E06E
:1019A000989F902D112490930402112361F00E94BE
:1019B000F20A111614F09FEF01C091E0989F902D4C
:1019C000112490930502309104023323E1F0209119
:1019D00005022223C1F045EB3403C00111249923F1
:1019E00019F09093040203C081E08093040235EB68
:1019F0002303C0011124992319F09093050203C019
:101A000081E0809305028091020281110BC08091D8
:101A10000302811107C080910402811103C08091EB
:101A2000050281110E94FD0BEB82FC820D831E8357
:101A300086E0FE013196A0E0B2E001900D928A9519
:101A4000E1F726960FB6F894DEBF0FBECDBFDF914B
:101A5000CF911F910F91FF90EF900895E0E0F2E099
:101A600086E0DF011D928A95E9F71092FE0110923F
:101A7000FD011092FF010895EF92FF920F931F93C3
:101A8000CF93DF938B01682F11110AC0442329F0F3
:101A9000E82FF0E0E450FB4F6491762F862F75C05D
:101AA000212F30E0E82FF0E0442321F0E450FB4FF9
:101AB000E491F0E046E0049FC0011124CFEFD0E0B4
:101AC000BE010E948B324BEA4603C001479F900D36
:101AD0001124800F911D800F911D982F990F890F50
:101AE000AE01421B530B4E9FD0014F9FB00D5E9F26
:101AF000B00D11249B2F189FA0011124452F5527AD
:101B00008E01041B150B0E9FA0010F9F500D1E9FF1
:101B1000500D11247E01E81AF108E29E8001E39E37
:101B2000100DF29E100D1124212F3327C21BD30B51
:101B3000CE9F9001CF9F300DDE9F300D112462307B
:101B40007105A9F048F46115710569F061307105FE
:101B5000C9F48B2F752F0DC06430710581F058F0DA
:101B60006630710579F47E2F8B2F932F0DC0832F54
:101B70007B2F9E2F09C08E2F7B2F952F05C08E2F78
:101B8000732F02C07E2F852F692FDF91CF911F9178
:101B90000F91FF90EF90089541E00E943C0D089551
:101BA00008950E94CC0D0895CF93DF93762FE9011D
:101BB000682F842F0E94D10D798368838A83DF91F7
:101BC000CF91089580919904282F269530E0211512
:101BD000310519F48170826005C02B32310524F083
:101BE0008170846580939904089588E090E00C9456
:101BF000A536CF92DF92EF92FF926B017C010E949B
:101C0000E20DB701A60188E090E0FF90EF90DF9031
:101C1000CF900C94C336E9E9F4E083E0808311822D
:101C20008FEF8283838314826081718182819381AB
:101C30000C94F90D8091990480FF02C08695089557
:101C400080E0089590919D04933018F49F5F9093E5
:101C50009D04882351F06091990470919A048091B9
:101C60009B0490919C040C94F90D089581E00C94D0
:101C7000220E90919D04992319F0915090939D0408
:101C8000882351F06091990470919A0480919B048B
:101C900090919C040C94F90D089581E00C94390EF8
:101CA00070E00C94C614609110018091990480FF3B
:101CB0000AC080910F0123E0829FC0011124825647
:101CC0009B4F0C94500E8091110190911201891735
:101CD00080F7E82FF0E09F01220F331FE20FF31F80
:101CE000E256FB4F1182108212828F5FF0CF9091EB
:101CF000990490FF16C09091110120911201921742
:101D000070F4E92FF0E0DF01AA0FBB1FEA0FFB1F01
:101D1000E256FB4F8183608342839F5FF0CF0C9438
:101D2000530E0895CF93DF9300D01F92CDB7DEB747
:101D30009091990490FF0AC09E012F5F3F4F0E942F
:101D4000D40D4B8169818A810E94770E0F900F908C
:101D50000F90DF91CF910895CF93DF93EC01EC8149
:101D6000F0E0E950FC4F4491E9E9F4E062818181BF
:101D70000E94920E8C818F5F8C83DF91CF910895AA
:101D8000CF93DF93EC01E9E9F4E0438162818C8138
:101D90000E94920E8C818F5F8C83DF91CF9108958A
:101DA0000F931F93CF93DF9300D01F92CDB7DEB771
:101DB0008C018091060281110AC09E012F5F3F4F66
:101DC0004FEF6FEF0E94D40D8A8180930602F801D5
:101DD0008481813051F028F0823061F44091060214
:101DE0000AC08091060240E007C06091060240E010
:101DF00080E003C040E080E060E00E94770EF801E0
:101E0000848190E0019663E070E00E949F328483B9
:101E10000F900F900F90DF91CF911F910F91089528
:101E2000AF92BF92CF92DF92EF92FF920F931F93E8
:101E3000CF93DF9300D01F92CDB7DEB7182FF62EC9
:101E4000042FE22E9091990490FF6DC0E92FE69542
:101E5000AE2FB0E0A758BE4F8C9180934C029E7F6E
:101E6000923061F49E012F5F3F4F812F0E94D40D6D
:101E70004B8169818A810E94770E43C0823019F4B8
:101E800000919C043EC0863019F410919A0439C028
:101E90008930D9F38931A9F5E9518E2F8170D82E77
:101EA000E695F0E0E950FB4FA590B490C12CBB241F
:101EB00060911301C61618F52C2D30E0A29EC001CA
:101EC000A39E900DB29E900D112470E00E948B3263
:101ED000812FD11002C0860F01C0861B9091110185
:101EE000290F311DA901440F551F240F351F2256FC
:101EF0003B4F402F6F2D0E94D40DC394D9CF0E9429
:101F0000530E10939A04F0929B0400939C04EE20CD
:101F100051F06091990470919A0480919B04909182
:101F20009C040E94F90D0F900F900F90DF91CF91BC
:101F30001F910F91FF90EF90DF90CF90BF90AF90E7
:101F40000895E9E9F4E09181282F438162818AE0D4
:101F5000890F0C94100F81E00C94A10FE9E9F4E0D3
:101F60009181282F4381628186EF890F0C94100F95
:101F700081E00C94AE0FE9E9F4E062812AE0620F9F
:101F800008F46FEF282F438181810C94100F81E0BA
:101F90000C94BB0FE9E9F4E062812AE0621B08F4CB
:101FA00060E0282F438181810C94100F81E00C9414
:101FB000CA0FE9E9F4E043812AE0420F08F44FEF49
:101FC000282F628181810C94100F81E00C94D90F2D
:101FD000E9E9F4E043812AE0421B08F440E0282FBD
:101FE000628181810C94100F81E00C94E80F20E055
:101FF0000C94100FFF920F931F93CF93DF93EC017C
:10200000F12C0FEF10E060911301F616F0F48091BF
:1020100011012F2D30E0280F311DC901880F991FA4
:10202000280F391F22563B4F70E0C8010E949F3293
:10203000962F8C8140919C0460919B04F99E800DA9
:1020400011240E94D40DF394DECF0E94530E9A8186
:102050008C8190FF02C08F5F01C081508C83DF9123
:10206000CF911F910F91FF900895AF92BF92CF92A1
:10207000DF92EF92FF920F931F93CF93DF93FC01B8
:10208000828180FF02C00FEF01C001E010E04CE050
:10209000A42E80911301181708F043C080911101FC
:1020A000C12ED12CE601C80FD11DCE01880F991F7A
:1020B000C80FD91FC256DB4F198218821A8234E02A
:1020C000E32EF12CB12C809108028B0D8D302CF079
:1020D0006A2D0E947D32892F05C087FF03C0909131
:1020E0001301890F082E000C990BC816D90691F41C
:1020F00080919C048E9DA0018F9D500D11245595BB
:102100004795559547959E0160919B0480919A044F
:102110000E94D40DB00EF1E0EF1AF108A1F61F5F96
:10212000B8CF0E94530E80910802013031F4811122
:1021300002C080911301815007C090E00196609128
:10214000130170E00E949F3280930802DF91CF91CB
:102150001F910F91FF90EF90DF90CF90BF90AF90C5
:102160000895CF938091110190911201891770F415
:10217000E82FF0E09F01220F331FE20FF31FE2561A
:10218000FB4F1182108212828F5FF0CFC0E060910E
:102190001301C617C0F5EC2FF0E070E0CF010E94EC
:1021A0009F3220911101820F20910702022E000C14
:1021B000330B90E0E217F307CCF020910E01022ED2
:1021C000000C330B2E173F078CF09C01220F331F9E
:1021D000820F931F9C0122563B4F40919C046091BB
:1021E0009B0480919A040E94D40D0BC0FC01EE0F59
:1021F000FF1F8E0F9F1FFC01E256FB4F11821082C2
:102200001282CF5FC4CF0E94530E20910D018091A6
:102210000702820F8093070290910E01920F909314
:102220000E0119165CF4082E000C990B4091130155
:1022300050E041505109841795071CF021952093D7
:102240000D01CF9108958F929F92AF92BF92CF923E
:10225000DF92EF92FF920F931F93CF93DF938C0146
:10226000FC014481C42FD0E09E01DE010E94E332D4
:102270009B01AC010E94F9326B017C01E0E2F0E0CD
:10228000EC1BFD0BA5E5B0E09B01AC010E94F9320F
:102290004B015C019F01DF010E94DB329B01AC011D
:1022A0000E9404339B01AC012C0D3D1D4E1D5F1D92
:1022B000C501B4010E94B332C22FD22F2A3228F4B2
:1022C000F3E02F9F900111240DC025E530E02C1B79
:1022D0003109C901880F991F280F391F37FF02C024
:1022E0002F5F3F4F35952795C22FC095F12C85E57F
:1022F000E82EED1A80911301F816C8F4F1FC02C023
:102300008E2D01C08D2F909111012F2D30E0290FBE
:10231000311DA901440F551F240F351F22563B4F75
:102320004C2F60919B040E94D40DF394E3CF0E9444
:10233000530EF8018481811102C091E003C0803204
:1023400019F49FEF90930C0190910C01890FF80103
:102350008483DF91CF911F910F91FF90EF90DF90D9
:10236000CF90BF90AF909F908F9008950F931F9341
:10237000CF93DF93EC0100E010E080911301282F50
:1023800030E00217130724F5909111019801290FED
:10239000311DA901440F551F240F351F22563B4FF5
:1023A000869590E04C81081719071CF4442331F0FE
:1023B00002C0411103C040919C0401C040E0609103
:1023C0009B0480919A040E94D40D0F5F1F4FD5CFBC
:1023D0000E94530E8C8190E00196817099278C8326
:1023E000DF91CF911F910F9108957F928F929F92CD
:1023F000AF92BF92CF92DF92EF92FF920F931F9313
:10240000CF93DF93FC018280748081E08483E7EFC7
:10241000F3E09490E6E7F4E0E491A12CF5E0BF2E20
:10242000CC24CA94D12CE9190E2F10E0809113010D
:10243000A81608F0A2C0EA2CF12C22E0281568F0BA
:10244000BE9CF001BF9CF00D1124E75FFD4F809111
:102450009A04808380919B04818371100AC0BE9C82
:10246000F001BF9CF00D1124E75FFD4F1382128233
:102470006AC0BE9CE001BF9CD00D1124C75FDD4F38
:102480008B818823F9F081508B832FEF829FC001CD
:1024900011246C8170E00E948B32FB01FF27E95010
:1024A000FC4F8491E82FE9192FEFE29FC00111241E
:1024B000B8010E948B3280919C04689FB001112466
:1024C0007A8341C00E94583320919C04269521585C
:1024D00030E0A901440F551F322F2227240F351F4A
:1024E000232F33278217930774F582E0881588F429
:1024F0000E945833B6010E949F3288830E9458334D
:1025000020919B042695622F70E00E949F32280F35
:102510002983BE9CF001BF9CF00D1124E75FFD4FA5
:10252000128280919C04843120F0893C18F088EC60
:1025300001C084E1BE9CF001BF9CF00D1124E75F57
:10254000FD4F84838383809111019701280F311DF2
:10255000C901880F991F280F391F22563B4FBE9C77
:10256000F001BF9CF00D1124E75FFD4F42816181B6
:1025700080810E94D40DA39459CFDF91CF911F91F8
:102580000F91FF90EF90DF90CF90BF90AF909F9012
:102590008F907F900C94530EE9E9F4E080818E7F58
:1025A000808360817181828193810E94F90D1092F4
:1025B0004D022FE788E391E0215080409040E1F701
:1025C00000C000000C94530E60919904669570E071
:1025D0004BE050E084E191E00E94A833892B19F48C
:1025E00081E080934D020E94EA23909346028093FB
:1025F000450208959091990490FF35C09170811122
:1026000002C0926006C08B3210F0946502C0880F41
:10261000982B90939904662351F0609199047091DE
:102620009A0480919B0490919C040E94F90D609102
:102630009904669570E04BE050E084E191E00E94DF
:10264000A833892B19F010924D0202C00E94E412A7
:1026500081E08093480240919C0460919B048091AA
:102660009A040C94F70F0895682F90919904969509
:1026700081E0890F8B3208F081E00C94FA1281E03E
:102680000C943413682F9091990496958FEF890FCD
:1026900009F48AE20C94FA1281E00C94421361E08E
:1026A0000C94FA12E9E9F4E08081816080838695D8
:1026B0000C944F138091990480FD0C94CC120C94CF
:1026C000521360E00C94FA1280914B0281112EC0DB
:1026D0000E94DB22811104C00E9482230E940B0E03
:1026E0000E94F50D6093990470939A0480939B0463
:1026F00090939C046E7F61F40E940B0E0E94F50D76
:102700006093990470939A0480939B0490939C0423
:102710000E94E20D10924D028091990480FF03C047
:1027200086950E94611381E080934B0208950F9378
:102730001F93CF93DF9380914D02882309F495C0B6
:1027400080914C02E0919904E695E81BE0934702E2
:10275000823049F4F0E0ED50FC4FE491CE2FD0E010
:102760000CEA1EE059C0863049F4F0E0E051FC4F1D
:10277000E491CE2FD0E000EC1EE04EC0893051F441
:10278000E695F0E0E351FC4FE491CE2FD0E00AEF64
:102790001FE042C08F3051F4E695F0E0E651FC4F67
:1027A000E491CE2FD0E005E310E136C0853149F445
:1027B000F0E0E951FC4FE491CE2FD0E001EB10E1C5
:1027C0002BC08831D9F0833239F4E5EEF3E0C591BE
:1027D000D49100ED1EE020C08432A9F08532C1F40E
:1027E0008E2F63E00E947132E92FF0E0EE51FC4F32
:1027F000E491CE2FD0E005EF11E10EC0C8E2D0E0A9
:1028000003E211E109C0C4EFD1E006EB11E104C01D
:10281000C0EDD7E000ED1DE080914802882361F013
:10282000109248020E94EA23909346028093450248
:1028300010924A02109249020E94EA23E091450256
:10284000F09146028E1B9F0B8F3F9F4770F4EC0F59
:10285000FD1FF0934602E093450285E492E0F80103
:10286000DF91CF911F910F910994DF91CF911F912B
:102870000F910895882311F0FA0101C0FB0109941A
:10288000CF93DF93C82FD62F0E941A0E8C1740F0DB
:102890000E941A0E8D1720F4DF91CF910C943F13F4
:1028A0008C2FDF91CF910C944F130F931F93CF93E5
:1028B000FB01C281CC2309F463C08C010E94222257
:1028C0008272F801E35CFC45E431F10508F059C07F
:1028D000EB56FF4F0C94D5320E945A1306C04CE4BD
:1028E00053E16FE373E10E943A14C0E04AC04FE342
:1028F00053E16CE473E1F7CF48EB5FE06BEA7FE014
:10290000F2CF4BEA5FE068EB7FE0EDCF46ED5FE0B2
:1029100067EC7FE0E8CF47EC5FE066ED7FE0E3CF78
:1029200044EF5FE065EE7FE0DECF45EE5FE064EF11
:102930007FE0D9CF4DE45EE066E37EE0D4CF46E3AE
:102940005EE06DE47EE0CFCF81E017C065E082E01D
:1029500010C068E086E00DC06EE089E00AC064E166
:102960008FE007C067E185E104C088E106C062E24C
:1029700089E10E944014B9CF83E20E944F13B5CF82
:10298000C1E08C2FCF911F910F910895209A25B10E
:102990002E7F35B131604FB7F894FC01CB01880F21
:1029A000991F680F791F6E0F7F1FE617F70761F0F9
:1029B000819198E035B987FF25B9880F000000C0E4
:1029C00025B99A95B9F7F1CF4FBF8FE292E0019701
:1029D000F1F700C0000008950F931F93CF93DF938A
:1029E000C42FD22FFC0182818823C9F0409350026A
:1029F0000E94EA2390934F0280934E0280E28C0F54
:102A0000883008F057C0C77081E001C0880FCA95B0
:102A1000EAF7DF91CF911F910F910C94CF1980911C
:102A20005002481330C080914E0290914F020E9494
:102A30000224883C910538F510E21D0FCD17B9F03E
:102A400080E28C0F883040F4C77081E001C0880FAD
:102A5000CA95EAF70E94D619183028F581E09D2F13
:102A6000977001C0880F9A95EAF70E94CF19802FBE
:102A70000E94C6191830F0F4D77081E001C0880FA9
:102A8000DA95EAF70AC080E28C0F883098F4C770B4
:102A900081E001C0880FCA95EAF7DF91CF911F91BD
:102AA0000F910C94D619802FDF91CF911F910F9128
:102AB0000C94C619DF91CF911F910F9108950F9338
:102AC0009C01CB01253F4CE5340731F188F4293DC9
:102AD000FCE53F07D9F02A3D4CE5340779F1283D64
:102AE0003C45A9F506E221EE41EE68ED7CE52BC000
:102AF000273FFCE53F07E1F0A8F0283F3C4539F5CA
:102B000007E225EE46EE68EF7CE51DC007E225EE04
:102B100045EE69ED7CE517C006E221EE40EE65EF7B
:102B20007CE511C007E225EE44EE66EF7CE50BC0C4
:102B300006E221EE42EE67EF7CE505C008E221E007
:102B400045EE6AED7CE50E94EC1480E008C0FC01D3
:102B50008281882319F01092500201C081E00F9108
:102B60000895CF93DF93EC01FB018281882309F460
:102B70001FC1C230FCE5DF0708F41BC1C6319CE56C
:102B8000D90738F09E012C5F3C452930310508F00B
:102B900010C10E94EE229093C7048093C604C031F6
:102BA000ECE5DE0709F4C3C008F041C0C8308CE58D
:102BB000D80709F49AC0F0F4C430ECE5DE0709F454
:102BC00087C068F4C2308CE5D80709F477C0C330F9
:102BD000DC4509F0E3C08091C604826076C0C6304F
:102BE000ECE5DE0709F46EC008F07BC08091C604F6
:102BF00088606BC0CC308CE5D80709F485C068F4D8
:102C0000CA30ECE5DE0709F474C008F079C00E9410
:102C1000561C8091C604806858C0CE308CE5D80719
:102C200009F476C008F07FC08091C6048BC0CD3F08
:102C3000ECE5DE0709F44FC018F5C3318CE5D80781
:102C400009F47DC078F4C131ECE5DE0709F473C006
:102C5000C231DC4509F0A2C00E94561C8091C60416
:102C60008F7733C0C5318CE5D80709F472C008F4FA
:102C700086C0CC3FDC4509F091C08091C7043EC0BE
:102C8000C130FDE5DF0709F45FC058F4CF3F9CE594
:102C9000D90709F444C008F43FC08091C70482609A
:102CA0002DC0C330FDE5DF0709F475C008F45DC031
:102CB000C430DD4509F072C080E06EC08091C6046A
:102CC000816003C08091C60480618093C60466C0A1
:102CD0008091C60411C08091C70482608093C704AC
:102CE0005DC08091C6048062F0CF8091C60480648C
:102CF000ECCF8091C60488608460E7CF8160EECF1E
:102D00008091C6048E7FE1CF8091C6048D7FDDCF98
:102D10008091C604877FD9CF8091C70418C0809165
:102D2000C7048D7FDBCF8091C6048F7ECECF80918C
:102D3000C6048F7DCACF8091C6048F7BC6CF809199
:102D4000C604877F8B7FC1CF8091C7048D7F8E7F24
:102D5000C5CF8091C60482FB222720F991E09227FB
:102D600090FB82F990FB83F9B0CF8091C704982F34
:102D7000909591708E7F892B90FB81F9AFCF0E9447
:102D8000561C8091C60487FB222720F991E09227E8
:102D900090FB87F99ACF81E00E9484238091C6043A
:102DA0009091C7040E94FF220E94561C80E001C03F
:102DB00081E0DF91CF910895CF93DF9386319C45D9
:102DC00041F5EB010E942222982F8A8120911F0158
:102DD00030912001882379F09A7A81E009F480E02B
:102DE00080935102911102C069E201C065E3C901FB
:102DF0000E94CB230AC080915102811102C069E276
:102E000001C065E3C9010E94CD230E94702280E0C9
:102E100001C081E0DF91CF91089590935702809394
:102E200056020895E0915602F0915702309721F032
:102E30000190F081E02D099480E00895E091560220
:102E4000F0915702309721F00280F381E02D099430
:102E50000895E0915602F0915702309739F022E040
:102E6000DC012C930480F581E02D099408952091D4
:102E70005402309155022817390771F0909355028A
:102E800080935402E0915602F0915702309721F05E
:102E90000680F781E02D0994089520915202309127
:102EA00053022817390771F090935302809352020E
:102EB000E0915602F0915702309721F00084F1859D
:102EC000E02D099408950E94F623609365027093A3
:102ED0006602809367029093680260936102709328
:102EE00062028093630290936402089585B78068BC
:102EF00085BF85B7806885BF089581E008950C94EB
:102F00007D1708950C9481170C9481170C948417E5
:102F10000C9481170C9488170C9481170E947617D3
:102F200083ED92E20E945B240E948C170C948A1716
:102F30000E94E1230E94B3070E9476240E9464133A
:102F40000C9486176F927F928F929F92AF92BF924E
:102F5000CF92DF92EF92FF920F931F93CF93DF9365
:102F6000CDB7DEB72A970FB6F894DEBF0FBECDBF40
:102F70000E9482170E9481170E94F10781110E940E
:102F8000631739E5832E32E0932E00E010E0C02E67
:102F9000802F0E9481075C01F401619071904F01C4
:102FA0006826792661147104B1F40F5F1F4F043055
:102FB000110569F78FEF89838A831B820E94EA23B8
:102FC0008160782F9D838C8349815A816B818D81AB
:102FD0000E945E183AC08091D50281FD0E948A0746
:102FE000D12CEE24E394F12CC3018E219F21892B57
:102FF00029F10E947F178823A9F0DE82CF82AE20BC
:10300000BF2081E0AB2809F480E088870E94EA2392
:103010008160782F9A8789874E815F8168858A854C
:103020000E945E18000F111FF801E75AFD4F8081C2
:103030009181E826F926F182E08207C0D394EE0C54
:10304000FF1CFCE0DF12D0CFB0CF0E9497130E948C
:103050001B0C0E941217909158028917D1F00E9400
:103060001217809358022A960FB6F894DEBF0FBE4F
:10307000CDBFDF91CF911F910F91FF90EF90DF9027
:10308000CF90BF90AF909F908F907F906F900C9457
:103090006A052A960FB6F894DEBF0FBECDBFDF914A
:1030A000CF911F910F91FF90EF90DF90CF90BF9045
:1030B000AF909F908F907F906F900895DF92EF92E6
:1030C000FF920F931F93CF93DF93CDB7DEB72B976C
:1030D0000FB6F894DEBF0FBECDBFF42E052F162F0E
:1030E000E72ED82E61110E944222FE01319686E021
:1030F000DF011D928A95E9F77E2D4F2D502F612F0C
:103100008D2D9E810E940F1F2B960FB6F894DEBF67
:103110000FBECDBFDF91CF911F910F91FF90EF9028
:10312000DF900895FC01808191810E94E321089540
:10313000CF93882309F4A9C0C82F8238C1F40E9414
:10314000121781FDA2C069E380911F0190912001B7
:103150000E94CB230E9470222FEF80E792E0215043
:1031600080409040E1F700C0000069E319C0833857
:1031700001F50E94121780FD88C063E580911F0150
:10318000909120010E94CB230E9470222FEF80E7B4
:1031900092E0215080409040E1F700C0000063E5DC
:1031A00080911F01909120010E94CD23CF910C941A
:1031B00070228438C1F40E94121782FD66C067E451
:1031C00080911F01909120010E94CB230E947022C8
:1031D0002FEF80E792E0215080409040E1F700C05F
:1031E000000067E4DDCF8CEF8C0F813AF8F48C2F70
:1031F0000E94180A811149C06C2F80911F01909183
:1032000020010E949523882349F06C2F80911F0193
:10321000909120010E94CD230E9470226C2F8091FA
:103220001F01909120010E94CB23C0CF80E28C0F20
:10323000883048F4C77081E001C0880FCA95EAF76A
:103240000E942522B3CFEBE5EC0FE33040F4F0E031
:10325000EE52FE4F808190E0CF910C943717E8E555
:10326000EC0FE73150F4F0E0EE0FFF1FEC55FE4F8E
:1032700080819181CF910C944D17CD3E30F08C2FF1
:103280000E942B0BCF910C94FD0BCF9108958823B6
:1032900009F464C0823879F40E94121781FF5EC07D
:1032A00069E380911F01909120010E94CB230E942D
:1032B000702269E310C08338B1F40E94121780FFB6
:1032C0004DC063E580911F01909120010E94CB23A6
:1032D0000E94702263E580911F01909120010E945D
:1032E000CD230C947022843879F40E94121782FF47
:1032F00035C067E480911F01909120010E94CB238B
:103300000E94702267E4E7CF9CEF980F913A10F487
:10331000682FE1CF90E2980F983050F4877091E0D9
:1033200001C0990F8A95EAF7892F0E942B22D9CFE5
:103330009BE5980F933020F480E090E00C943717D1
:1033400098E5980F973120F480E090E00C944D17A9
:103350008D3E20F00E94860B0C94FD0B08951F9368
:10336000CF93DF93182FEB010E949818209741F01C
:103370008FEC97E00197F1F700C000002197F6CF9E
:10338000812FDF91CF911F910C944719893319F048
:1033900060E070E002C060E570E00C94AF19882333
:1033A00021F00E9425220C9470220895882321F098
:1033B0000E942B220C9470220895CF92DF92EF92FC
:1033C000FF920F931F93CF93DF937C01062FC72F9C
:1033D000FC01D281158112951F700E941B22882347
:1033E00099F0DD2389F08C2F807F803421F080E2FA
:1033F000800F883048F082E00E94BA220E941B228F
:1034000091E0D82ED92601C0D12CCC2EC2948FE0C9
:10341000C8228C2D90E0FC01E755FF4F0C94D5326B
:103420008C2F807FCF70882311F0C295C07FDD2361
:1034300099F0CC2309F487C180E2800F883010F026
:10344000011104C08C2F0E94252203C08C2F0E94E2
:1034500035220E94702277C1802F0E944719CC2309
:1034600009F496C180E2800F883010F0011104C089
:103470008C2F0E942B2203C08C2F0E943B220E9483
:10348000702286C18C2F807FCF70803211F0C29560
:10349000C07F002319F00130C9F025C0DD2371F091
:1034A000112341F0113031F40E9455228C2B0E94DF
:1034B0005D226EC10E9455228C2B0EC0112319F083
:1034C000113009F465C10E9466221FC0DD2339F066
:1034D000163008F05DC18C2F0E94CF1959C11530EC
:1034E00008F056C112C0DD2319F01123A1F32BC13E
:1034F000112359F0093309F037C1FFEF23EF81E0C1
:10350000F15020408040E1F72DC18C2F0E94D61948
:103510003FC18C2F86958695837019F0813061F0BC
:1035200037C1DD2321F0802F9C2F937002C080E0F3
:1035300090E00E94371734C1DD2321F0802F9C2FAB
:10354000937002C080E090E00E944D1729C1802F47
:10355000DD2319F00E942B0B02C00E94860B0E94F3
:10356000FD0B1EC18C2F837009F045C0D11114C111
:10357000402F429546954770440F440F602F6F705F
:10358000862F90E0A0E0B0E0042E04C0880F991FC1
:10359000AA1FBB1F0A94D2F704FF10C00FE010E06F
:1035A00020E030E004C0000F111F221F331F4A9596
:1035B000D2F7009510952095309503C000E010E0FB
:1035C0009801C695C695C370BC01CD01602B712BC7
:1035D000822B932BC23049F058F4C13019F00E946D
:1035E0006020DAC00E944E20D7C00E947220D4C052
:1035F0000E944C20D1C0DD2319F08C2F817001C0B6
:103600008695882309F4C8C0402F42954695477097
:10361000440F440F602F6F70862F90E0A0E0B0E061
:10362000042E04C0880F991FAA1FBB1F0A94D2F74B
:1036300004FF10C00FE010E020E030E004C0000FF5
:10364000111F221F331F4A95D2F700951095209520
:10365000309503C000E010E09801C695C695C37090
:10366000BC01CD01602B712B822B932BC23049F012
:1036700058F4C13019F00E9425218EC00E941321F8
:103680008BC00E94372188C00E94862085C0CF70E1
:10369000DD2339F08C2F0E94AC20802F0E94CF199F
:1036A0007BC0802F0E94D6198C2F0E94CD2074C021
:1036B000023F01F128F4003F41F0013FA1F03FC07B
:1036C000033FF9F0043F39F13AC0DD2341F01530F2
:1036D00008F05EC08C2F8F710E94F22059C0163006
:1036E00008F056C0F7CFDD2339F08C2F8F710E9480
:1036F000AC204EC0DD23C9F38C2F8F710E94CD20EA
:1037000047C0DD2329F08C2F8F710E94972040C085
:103710000E9492203DC0DD2349F0CF718C2F0E9482
:10372000AC2063E08C2F0E94A52232C081E00E9471
:10373000BA22123068F182E00E94BA2229C0DD2349
:1037400031F0112391F2802F0E94981821C011238B
:1037500099F2093349F49FEFE3EFF1E09150E04033
:10376000F040E1F700C00000802F0E94471910C010
:103770004C2F4F70602FC7010E9473050E94BD1F20
:103780000FC04C2F4F70602FC7010E94760508C0F4
:1037900088EF8C0D843020F40E9412170E946A0575
:1037A000DD20C9F00E94172280FD15C0F7011282AA
:1037B0000E9411220E94AC20C7010E940C1C0E9492
:1037C0001122DF91CF911F910F91FF90EF90DF9029
:1037D000CF900C94CD20DF91CF911F910F91FF904E
:1037E000EF90DF90CF9008950F931F93CF93DF93C7
:1037F000EC01688179818A810E94EE218C010E940E
:1038000049210E943A20B801CE010E94DD19DF91C2
:10381000CF911F910F910895CF93DF93EC01988181
:1038200089812B813C81232B31F08F3F31F481E062
:103830009F3F19F403C081E001C080E080FD19C002
:10384000CE010E940A0581110CC00E941B22882310
:1038500081F08A81882369F082E0DF91CF910C9416
:10386000BA22CE010E94F41BCE01DF91CF910C94BD
:10387000E304DF91CF91089580E090E00E94371734
:1038800080E090E00E944D170E9442220E94522246
:103890000E9470220E942E0D0C94FD0B80911F013E
:1038A000909120010E94CF230C943C1C0E94322254
:1038B0000C944E1CE92FE295EF704E2F50E0FA0168
:1038C0003297EE30F105B0F4E754FF4F0C94D53247
:1038D000803F91F018F4883E68F40EC0843F51F4A4
:1038E0000BC0883E48F0813F29F406C093FB88272F
:1038F00080F9089580E0089581E008950E94E32111
:103900000E945A1C0895CF93DF9300D000D01F92DD
:10391000CDB7DEB70F900F900F900F900F90DF9103
:10392000CF910895CF93DF9300D000D000D0CDB7D2
:10393000DEB726960FB6F894DEBF0FBECDBFDF917F
:10394000CF9108951F93CF93DF93C0916A0216E041
:1039500080916B02C81799F0D0E01C9FF0011D9F69
:10396000F00D1124E459FD4F408151816281738132
:10397000848195810E94921C2196C770E9CFDF91C6
:10398000CF911F91089540919C0250919D026091AA
:103990009E0270919F028091A0029091A1020C94CE
:1039A000921C0F931F93CF93DF938091A102829576
:1039B0008F7009F05DC080919E02882309F458C081
:1039C00080916A0210916B0260919C0270919D023D
:1039D000C0919F02D091A00291E06F3F09F090E06A
:1039E000292F06E0811709F443C0209721F07F3F7B
:1039F00021F030E003C031E001C0322F90E030FD13
:103A000034C0089FF001099FF00D1124DF01A45973
:103A1000BD4F11963C911197371327C03C91361337
:103A200024C012963C91129731111FC013964D91EC
:103A30005C9114974C1B5D0B483C5105B0F4809190
:103A4000A1028F7080618093A102EF58FD4F8081A9
:103A50008F70806180838CE992E00E940C1CDF9162
:103A6000CF911F910F910C94A21C01968770BACF31
:103A7000DF91CF911F910F9108959F92AF92BF92C6
:103A8000CF92DF92EF92FF920F931F93CF93DF932A
:103A9000CDB7DEB761970FB6F894DEBF0FBECDBFCE
:103AA0008C0185E0F801DE011D9601900D928A954A
:103AB000E1F7F80140815181E28090919C02609190
:103AC0009D0220919F023091A0022115310531F015
:103AD0006F3F31F481E09F3F19F403C081E001C0E2
:103AE00080E0F82FF1709F2E80FD46C1F801A38081
:103AF000B4808CE9C82E82E0D82EF0909E02F501A9
:103B0000E21BF30BFF2009F4DFC08091A102E83C27
:103B1000F10508F09BC0282F207F09F052C05613F2
:103B200013C0491311C0FE2CE1100EC08F708061CC
:103B30008093A1020E94C31CC6010E940C1C8091AC
:103B4000A102F801858358C1AB2831F05F3F31F401
:103B500081E04F3F19F403C081E001C080E080FDA7
:103B600003C081E08E2502C080E090E0F82FF17064
:103B7000FF2E80FF1CC080916A0220916B0236E00C
:103B8000821709F417C190E0389FF001399FF00DBA
:103B90001124E459FD4F6181561306C0608146131C
:103BA00003C06281E61203C001968770E9CFFE2C44
:103BB000EE2009F421C18091A10281608093A102CD
:103BC0005AC0561306C0491304C0E11002C0F801E0
:103BD0009FC04D875E878D859E850E947E1C8823B1
:103BE00079F1EE2069F12091A102822F82958F70E8
:103BF00090E0029774F080919C0290919D029887CA
:103C00008F831986BB86AA862C87CE0107960E94D1
:103C10000C1C86E0F801ACE9B2E001900D928A95A7
:103C2000E1F70E94D11C0E94C31C0DC0561729F158
:103C30004D875E878D859E850E947E1C81112CC0DC
:103C4000C8010E940C1CFF24F394D6C0282F207FAB
:103C500069F77A2DB98AA88A6E2D89890E94831CFA
:103C60008CE992E00E940C1C86E0F60111928A9584
:103C7000E9F70E94C31CF12CBFC04913D9CFE11052
:103C8000D7CFF8018583C8010E940C1C86E0F6019D
:103C900011928A95E9F7B0C0EE2091F22091A1022D
:103CA000822F82958F7090E002970CF4B2CF8091B2
:103CB0009C0290919D029A8389831B82BD82AC8273
:103CC0002E83CE010196A3CFE83CF10508F047C052
:103CD000FE2CEE2009F4B4CF561330C049132EC089
:103CE0002091A10220FD21C0822F82958F70482F44
:103CF00050E041155105C9F0F80125834F305105B9
:103D000041F08F5F982F9295907F822F8F70892B33
:103D10008583C8010E940C1C86E0F801ACE9B2E082
:103D200001900D928A95E1F742C086E0F801ACE976
:103D3000B2E001900D928A95E1F75EC04D875E87F3
:103D40008D859E850E947E1C811163CF8091A1028A
:103D500081608093A102C8010E940C1C4DC07A2D85
:103D6000B98AA88A6E2D89890E94831C86E0F60193
:103D700011928A95E9F71BC0EE2009F461CF4D87B7
:103D80005E878D859E850E947E1CF82E882309F40F
:103D900057CF86E0F801ACE9B2E001900D928A9528
:103DA000E1F78CE992E00E9492180E94D11C0E94D7
:103DB000C31C22C04D875E878D859E850E94E321AE
:103DC000292F22952F70223028F49F7039F081110D
:103DD00005C00BC0243028F49F7049F4805E883001
:103DE00020F0C8010E940C1C9F2CF92C05C0F80182
:103DF0009581907F99F7F9CF8F2D61960FB6F89442
:103E0000DEBF0FBECDBFDF91CF911F910F91FF900D
:103E1000EF90DF90CF90BF90AF909F9008951F9349
:103E2000CF93DF93CDB7DEB72C970FB6F894DEBFF4
:103E30000FBECDBF4F83588769877A878B879C8752
:103E4000CE0107960E943D1D8823D1F09F81888571
:103E50002A853B85232B31F08F3F31F481E09F3F52
:103E600019F403C081E001C080E080FD47C04F81AC
:103E7000588569857A858B859C850E94921C3EC0F9
:103E800086E0FE013796DE01119601900D928A952B
:103E9000E1F7FF81E8856A857B856115710531F061
:103EA000EF3F31F481E0FF3F19F403C081E001C02E
:103EB00080E080FD23C020916B0230E0C9010196B3
:103EC0008770992740916A0250E084179507F1F1B5
:103ED000F983EA837D836C8396E0929FD001939F60
:103EE000B00D1124A459BD4FFE01319601900D92E1
:103EF0009A95E1F780936B020E94A21C16E08091D4
:103F00006A0290916B02891771F1189FC001112408
:103F100084599D4F0E943D1D882329F1E0916A023A
:103F20001E9FF0011124E459FD4F408151816281AF
:103F30007381848195810E94921C80916A0290E035
:103F400001968770992780936A02D9CF0E94561CE8
:103F500010926B0210926A02ECE9F2E086E0DF0157
:103F60001D928A95E9F72C960FB6F894DEBF0FBE26
:103F7000CDBFDF91CF911F910895EF92FF920F93E4
:103F80001F93CF93DF938C01892B09F46CC0F12C24
:103F9000EE24E394E8012196F8018491843740F4FB
:103FA000843008F051C0813081F0823019F15BC05B
:103FB000853709F444C0A8F19CE7980F903708F0C2
:103FC00052C08F770E94471941C00E5F1F4FFE01FC
:103FD000849190E2980F983050F48770FE2D01C0C4
:103FE000FF0F8A95EAF78F2F0E94452214C00E9486
:103FF00098182DC00E5F1F4FFE01849190E2980F1C
:10400000983060F48770FE2D01C0FF0F8A95EAF7A3
:104010008F2F0E944B220E94702219C00E944719C4
:1040200016C00E5F1F4FFE01C491CC2381F08FECB0
:1040300097E00197F1F700C00000C150F6CF0E5F86
:104040001F4FFE01F49003C00E9498188E018F2D1F
:10405000882309F49FCFEFECF7E03197F1F700C028
:1040600000008150F5CFDF91CF911F910F91FF900C
:10407000EF900895089508950C943B200C943C20F3
:104080000E943E206093C4027093C5028093C602D2
:104090009093C7020C943C1C0C9440200F931F93E8
:1040A0000091C4021091C5022091C6023091C7024E
:1040B000602B712B822B932B1F910F910C9440201E
:1040C0000F931F930091C4021091C5022091C60264
:1040D0003091C70260237123822393231F910F9194
:1040E0000C9440200F931F930091C4021091C502BD
:1040F0002091C6023091C70260277127822793273B
:104100001F910F910C9440200C943B200E9484201E
:104110006093C0027093C1028093C2029093C30265
:104120000C943C1C60E070E0CB010C9486200F9353
:104130001F9341E050E060E070E08A019B0104C001
:10414000000F111F221F331F8A95D2F7C901B80132
:104150001F910F910C9486200F931F9341E050E024
:1041600060E070E004C0440F551F661F771F8A95FA
:10417000D2F78091C0029091C102A091C202B09189
:10418000C3028A019B01082B192B2A2B3B2BC90147
:10419000B8011F910F910C9486200F931F9341E05B
:1041A00050E060E070E004C0440F551F661F771FA9
:1041B0008A95D2F740955095609570958091C00290
:1041C0009091C102A091C202B091C3028A019B01E9
:1041D000082319232A233B23C901B8011F910F91FA
:1041E0000C9486200F931F9341E050E060E070E054
:1041F00004C0440F551F661F771F8A95D2F7809120
:10420000C0029091C102A091C202B091C3028A0182
:104210009B01082719272A273B27C901B8011F91AD
:104220000F910C9486200F931F930091C002109160
:10423000C1022091C2023091C302602B712B822BEC
:10424000932B1F910F910C9486200F931F93009135
:10425000C0021091C1022091C2023091C3026023BA
:104260007123822393231F910F910C9486200F9327
:104270001F930091C0021091C1022091C20230919F
:10428000C30260277127822793271F910F910C94F7
:10429000862008952CE0929F800D1124E82FE6954A
:1042A000E695E695877051E001C0550F8A95EAF7CB
:1042B00085E0E89FF0011124EE55FD4F20E030E04D
:1042C00070E04081CB01022E02C0969587950A943A
:1042D000E2F78170819584278523842781932F5F5E
:1042E0003F4F2530310569F708952CE0929F800DEE
:1042F0001124682F669566956695982F977085E0CE
:10430000689FB001112440E050E080E0FB01E40F21
:10431000F51FEE55FD4F208130E0092E02C0369585
:1043200027950A94E2F721703327042E01C0220F4B
:104330000A94EAF7822B4F5F5F4F4530510531F702
:104340000895BF92CF92DF92EF92FF920F931F9347
:10435000CF93DF938C01C090C002D090C102E09057
:10436000C202F090C3028091C4029091C502A09154
:10437000C602B091C702C82AD92AEA2AFB2ACFE18D
:10438000D0E0D701C6010C2E04C0B695A79597952D
:1043900087950A94D2F780FD04C0219790F7B12C3D
:1043A00007C0BC2EB8018C2F0E9492050197A9F37B
:1043B0008B2DDF91CF911F910F91FF90EF90DF90A8
:1043C000CF90BF900895CF93DF93EC010E94A1217D
:1043D000BE010E949205DF91CF9108951F93CF9364
:1043E000DF93EB0190916902992321F0CB010E94A8
:1043F000E32113C0882349F0CB010E94A121182F8B
:10440000682FCE010E944A2104C0CB010E94752171
:10441000182FBE01812F0E949205DF91CF911F912D
:1044200008958091C8028595859585950895809118
:10443000C802877008959091C802977081E009F4CE
:1044400080E008958091D40208959091D402892B40
:104450008093D402089580959091D402892380930B
:10446000D40208951092D40208959091D302892B1A
:104470008093D302089580959091D30289238093ED
:10448000D30208951092D30208959091D202892BFD
:104490008093D202089580959091D20289238093CF
:1044A000D20208951092D20208958091C90208950F
:1044B00008950C9458220C9459229091C90298178F
:1044C00021F08093C9020C945B2208958091C90267
:1044D000882329F01092C90280E00C945B22089591
:1044E000E0911F01F09120018091D4028083E0913E
:1044F0001F01F091200190818091D302892B80834C
:10450000E0911F01F091200190818091D202892BCE
:1045100080838091C902882381F0E0911F01F0918E
:1045200020019081892B808380911F01909120012F
:104530000E94892381110E94662280911F0190911F
:1045400020010C941E170C94582298E0899F90012A
:104550001124262B2093C8020E94AC208091C8020F
:104560008595859585950C94A3221092C80280E0CC
:104570000C94A3222091C802809582238093C802C4
:10458000982F977079F430E0482F082E000C550BC7
:104590002417350739F08595859585950E94CD209E
:1045A0000C94B522089580E008956FEF7FEF80E0CE
:1045B00090E00C94CF3680E090E00E94AB3621E092
:1045C0008B3E9E4F09F020E0822F089582E090E01C
:1045D0000C949D3683E090E00C949D36CF9384E05C
:1045E00090E00E949D36C82F81E290E00E949D36A7
:1045F0002C2F30E0A901582BCA01CF910895CF93F9
:10460000C92F682F84E090E00E94B1366C2F81E2C0
:1046100090E0CF910C94B136AB01BC018FE090E0FB
:104620000C94C336AB01BC0183E190E00C94C3361B
:1046300060E070E0CB010C94122360E070E0CB01ED
:104640000E940C230C9418236BEE7EEF80E090E028
:104650000E94CF3660E082E090E00E94B13660E0D8
:1046600083E090E00E94B1361092C4021092C5021D
:104670001092C6021092C70260E084E090E00E94AF
:10468000B13660E081E290E00E94B13660E085E002
:1046900090E00E94B13660E086E090E00E94B13682
:1046A0006FEF87E090E00E94B13640E050E0BA0141
:1046B00088E090E00E94C33660E08DE090E00E94C8
:1046C000B13640E050E0BA0188E190E00E94C33684
:1046D00060E087E190E00E94B13640E050E0BA012E
:1046E0008CE190E00E94C33660E080E290E00E949E
:1046F000B13640E050E0BA0188E190E00E94C33654
:104700000C941D230C942423682F8EE090E00C94CD
:10471000B136FC01329697E080E0915029F021916A
:104720002223D9F38F5FF9CF0895662349F0FC0166
:10473000329608962191621729F0E817F907D1F708
:1047400080E0089581E008959C01FC0132969FEF7E
:1047500080E04191461789F09F3F19F4411101C053
:10476000982F8F5F8630A9F79F3F39F0F901E90F45
:10477000F11D97FDFA956283089508959C012A5FC3
:104780003F4FFC014281461301C0128201968217FD
:104790009307B9F708950C94A4230C94BE230296B2
:1047A00026E0FC0111922A95E9F7089508950C94EA
:1047B000D6230E94561C0E9412170E946A050C9470
:1047C000D72382E084BD93E095BD9DE797BD80939C
:1047D0006E0008952FB7F8948091C2049091C3049D
:1047E000A091C404B091C5042FBF08952FB7F894C9
:1047F0006091C2047091C3048091C4049091C50477
:104800002FBF08959C014FB7F8948091C2049091F6
:10481000C304A091C404B091C5044FBF821B930B85
:10482000089578941F920F920FB60F9211248F93D0
:104830009F93AF93BF938091C2049091C304A091C2
:10484000C404B091C5040196A11DB11D8093C2049A
:104850009093C304A093C404B093C504BF91AF91D7
:104860009F918F910F900FBE0F901F90189581E030
:104870008093E00080E28093D8001092C9008FE01E
:1048800097E20197F1F700C0000087E090EBDC01B0
:104890008093D5049093D604A093D704B093D80402
:1048A0009CE088E10FB6F894A895809360000FBE55
:1048B00090936000FFCF9093F3018093F2010895ED
:1048C0000C94D5220E94F1078FE19EE40197F1F745
:1048D00000C000000E94F10780E00E94810780FF75
:1048E00004C00E9460240C94372408950E94DB22A7
:1048F000811102C00E9482230E94E6228093D50289
:104900000E94EE229093C7048093C6040E94EA227C
:10491000682F70E080E090E00E944C206091C0021F
:104920007091C1028091C2029091C3020C948420C4
:10493000E1E8F0E08081886080838081816080830D
:104940008FB7F89428EE31E03093890020938800E7
:104950008FBF0895EFE6F0E0808182608083089544
:10496000EFE6F0E080818D7F80830895EFE6F0E050
:10497000908182E08927808308951F920F920FB65D
:104980000F9211242F933F934F935F936F937F93D5
:104990008F939F93AF93BF93EF93FF938091D60232
:1049A0009091D70201969093D7028093D6028111FD
:1049B00003C082E00E946A05E091D702E695E69581
:1049C000F0E0E450FA4FE4918091D6028E1303C0D8
:1049D00080E00E946A05FF91EF91BF91AF919F9196
:1049E0008F917F916F915F914F913F912F910F9098
:1049F0000FBE0F901F9018958091E0020895CF93FD
:104A0000DF9300D01F92CDB7DEB79091CC049430E5
:104A100019F589837B836A8382E08093E9008FEFB5
:104A20009091E800815095FD06C09AE69A95F1F7BD
:104A300000C08111F5CF8091E80085FF0DC040E0F6
:104A400050E063E070E0CE0101960E94292780913A
:104A5000E8008E778093E8000F900F900F90DF9121
:104A6000CF910895CF93DF93EC010E943B2D8330CB
:104A700029F4CE01DF91CF910C941932BE0184E06C
:104A8000DF91CF910C94FF24BC0183E00C94FF24B0
:104A90000F93CF93DF93EC010E943B2D833041F4C1
:104AA00009812D814C816B818A810E943E321FC019
:104AB00082E08093E9008FEF9091E800815095FDAE
:104AC00006C09AE69A95F1F700C08111F5CF809162
:104AD000E80085FF0CC040E050E066E070E0CE01E9
:104AE0000E9429278091E8008E778093E800DF916B
:104AF000CF910F910895CF93DF93EC010E943B2D4E
:104B0000833049F4BE016E5F7F4F46E08881DF91BC
:104B1000CF910C94B93181E08093E9008FEF9091AF
:104B2000E800815095FD06C09AE69A95F1F700C01D
:104B30008111F5CF8091E80085FF14C040E050E07E
:104B400068E070E0CE010E9429278091E8008E770E
:104B50008093E80088E0FE01A8EDB2E001900D929C
:104B60008A95E1F7DF91CF9108958091CB0481116F
:104B700009C00E94BA280E9417298091E20084602F
:104B80008093E20008951092CB04089508950C9448
:104B9000AA240E94D9230E94B0240E9412170C94C8
:104BA0006A0542E061EC81E00E94332842E261EC58
:104BB00082E00C9433288091CE04833009F460C0E5
:104BC00030F4813071F0823009F499C008958A3050
:104BD00009F485C08B3009F46BC0893009F0A7C097
:104BE00020C08091CD04813A09F0A1C08091E800F5
:104BF000877F8093E8008091D1049091D204892B23
:104C000021F468E088ED92E003C060E080E090E08D
:104C100070E00E9474278091E8008B778093E80011
:104C200008958091CD04813209F081C08091D10432
:104C30009091D204029708F07AC08091E800877FB3
:104C40008093E8008091E80082FD05C08091CC044B
:104C50008111F8CF6CC02091F3008091F20090E0B8
:104C6000922B029729F48091F1008B7F813021F4FF
:104C70008091F1008093E0028091E8008B7753C02F
:104C80008091CD04813A09F052C08091D104909175
:104C9000D204892B09F04BC08091E800877F809374
:104CA000E8008091E80080FFFCCF80912B0136C0A6
:104CB0008091CD048132D9F58091D1049091D204B4
:104CC000892BA9F58091E800877F8093E8000E94F6
:104CD00068288091CF0480932B010C94561C8091FE
:104CE000CD04813221F58091E800877F8093E80030
:104CF0000E9468288091D0048093E10208958091F9
:104D0000CD04813AA1F48091E800877F8093E80088
:104D10008091E80080FFFCCF8091E1028093F10058
:104D20008091E8008E778093E8000C9468280895BD
:104D300084B7877F84BF0FB6F894A89580916000F0
:104D4000886180936000109260000FBE90E080E860
:104D50000FB6F89480936100909361000FBE0E949B
:104D60008E170E94BA280E9417298091E200846061
:104D70008093E20078940E94A92B0E94981781E208
:104D800091E00E940D170E9498240E94A2170E9491
:104D900002310E9482170E948117F7CF0C94D0260F
:104DA000292F332723303105C9F060F42130310534
:104DB00081F02230310509F044C08BE390E024E615
:104DC00036E043C021323105E1F02232310549F1AC
:104DD00038C082E190E02FE936E037C09927813072
:104DE000910549F028F0029761F5ECE3F6E005C083
:104DF000E0E6F6E002C0ECE4F6E0849190E09F018A
:104E000024C06115710541F061307105D1F489E06C
:104E100090E02FE836E019C089E090E026E736E020
:104E200014C06115710541F06130710551F48BE7D3
:104E300090E021EB36E009C080E490E02CE237E01E
:104E400004C080E090E020E030E0FA01318320836C
:104E50000895CF92DF92EF92FF920F931F93CF931B
:104E6000DF93EC018B017A010E948728811133C006
:104E7000E114F10439F0F70180819181081B190BCD
:104E8000C80FD91FC12CD12C0115110519F1809122
:104E9000E80085FD16C08091E8008E778093E800D9
:104EA000E114F10449F0F70180819181C80ED91E07
:104EB000D182C08285E00FC00E948728882321F319
:104EC0000AC089918093F10001501109FFEFCF1AB8
:104ED000DF0ADACF80E0DF91CF911F910F91FF9031
:104EE000EF90DF90CF9008952091D3043091D404B7
:104EF0002617370748F06115710539F42091E8004D
:104F00002E772093E80001C0B901FC0120E0611573
:104F1000710579F18091CC048823F1F18530F1F1AC
:104F20008091E80083FD3CC08091E80082FD2EC0A6
:104F30008091E80080FFEBCF2091F3008091F20098
:104F400090E0922B6115710551F08830910538F48D
:104F500021912093F100615071090196F3CF21E076
:104F6000089709F020E08091E8008E778093E800B0
:104F7000CECF2111CFCF0AC08091CC04882361F01D
:104F8000853061F08091E80083FD0AC08091E800DF
:104F900082FFF2CF80E0089582E0089583E00895D3
:104FA00081E008952091D3043091D4042617370767
:104FB00048F06115710539F42091E8002E772093AF
:104FC000E80001C0B901FC0120E06115710591F113
:104FD0008091CC04882309F440C0853009F43FC097
:104FE0008091E80083FD3DC08091E80082FD2FC0E4
:104FF0008091E80080FFE9CF2091F3008091F200DA
:1050000090E0922B6115710559F08830910540F4BC
:1050100024912093F1003196615071090196F2CFED
:1050200021E0089709F020E08091E8008E778093D6
:10503000E800CBCF2111CCCF0AC08091CC048823CB
:1050400061F0853061F08091E80083FD0AC08091B5
:10505000E80082FFF2CF80E0089582E0089583E0C7
:10506000089581E00895982F973068F59093E900AE
:10507000981739F07091EC002091ED005091F000FC
:1050800003C0242F762F50E021FD02C09F5FECCF9C
:105090003091EB003E7F3093EB003091ED003D7F8F
:1050A0003093ED003091EB0031603093EB00709362
:1050B000EC002093ED005093F0002091EE0027FDCE
:1050C000E5CF80E008958F708093E90081E0089536
:1050D0008091CD0487FF11C08091E80082FD05C05A
:1050E0008091CC048111F8CF11C08091E8008B77BA
:1050F0000BC08091CC04882349F08091E80080FFA8
:10510000F8CF8091E8008E778093E8000895209191
:10511000E4003091E50095E64091EC00842F817029
:1051200040FF23C08091E80080FD1DC08091CC0429
:10513000882399F0853099F08091EB0085FD11C0AE
:105140004091E4005091E5002417350729F3915070
:1051500011F09A01E1CF84E0089582E0089583E0A0
:10516000089581E0089580E008954091E80042FFAD
:10517000DDCF08950E9428290E943029E0EEF0E05A
:10518000808181608083E8EDF0E080818F7780838B
:1051900019BCA7EDB0E08C918E7F8C9380818F7EBF
:1051A00080831092CB0408950F931F93CF93DF93C6
:1051B0000E9428290E943029C8EDD0E088818F778D
:1051C000888388818068888388818F7D888319BCE3
:1051D0001092CC041092C8041092CA041092C90410
:1051E00000EE10E0F80180818B7F808388818160F0
:1051F000888342E060E080E00E943328E1EEF0E046
:1052000080818E7F8083E2EEF0E080818160808308
:10521000808188608083F80180818E7F808388818F
:1052200080618883DF91CF911F910F910895E8ED00
:10523000F0E080818F7E8083E7EDF0E08081816007
:10524000808384E082BF81E08093CB040C94D428D7
:10525000E8EDF0E080818E7F80831092E200089577
:105260001092DA001092E10008951F920F920FB68B
:105270000F9211242F933F934F935F936F937F93DC
:105280008F939F93AF93BF93EF93FF938091E10030
:1052900082FF0BC08091E20082FF07C08091E10095
:1052A0008B7F8093E1000E94A82B8091DA0080FF21
:1052B0001DC08091D80080FF19C08091DA008E7FD8
:1052C0008093DA008091D90019BC80FF0BC082E086
:1052D00089BD09B400FEFDCF81E08093CC040E941B
:1052E000B52504C01092CC040E94C3258091E10032
:1052F00080FF19C08091E20080FF15C08091E2001C
:105300008E7F8093E2008091E20080618093E200D2
:105310008091D80080628093D80019BC85E080938A
:10532000CC040E94C7258091E10084FF2FC08091AA
:10533000E20084FF2BC019BC82E089BD09B400FEE5
:10534000FDCF8091D8008F7D8093D8008091E100BF
:105350008F7E8093E1008091E2008F7E8093E20057
:105360008091E20081608093E2008091C8048823EC
:1053700011F084E007C08091E30087FD02C081E066
:1053800001C083E08093CC040E94C9258091E10094
:1053900083FF29C08091E20083FF25C08091E10056
:1053A000877F8093E10082E08093CC041092C80450
:1053B0008091E1008E7F8093E1008091E2008E7FFA
:1053C0008093E2008091E20080618093E20042E0FD
:1053D00060E080E00E9433288091F0008860809334
:1053E000F0000E94C625FF91EF91BF91AF919F9170
:1053F0008F917F916F915F914F913F912F910F907E
:105400000FBE0F901F9018951F920F920FB60F921C
:1054100011242F933F934F935F936F937F938F93B9
:105420009F93AF93BF93CF93DF93EF93FF93C0917D
:10543000E900CF708091EC00D82FD17080FDD0E8CA
:105440001092E9008091F000877F8093F0007894BB
:105450000E94482A1092E9008091F00088608093B1
:10546000F000CD2BCF70C093E900FF91EF91DF9159
:10547000CF91BF91AF919F918F917F916F915F91EC
:105480004F913F912F910F900FBE0F901F90189545
:105490001F93CF93DF93CDB7DEB7AA970FB6F894DB
:1054A000DEBF0FBECDBFEDECF4E08091F100819343
:1054B00024E0E53DF207C9F70E94DB258091E80072
:1054C00083FF2EC18091CD049091CE04492F50E0EE
:1054D0004A30510508F024C1FA01E953FF4F0C94FA
:1054E000D532803821F0823809F01AC108C0809185
:1054F000C9049091CA04992389F082600FC08091F9
:10550000D1048F70873008F00BC18093E90080913F
:10551000EB0085FB882780F91092E9009091E80064
:10552000977F9093E8008093F1001092F100D1C032
:10553000282F2D7F09F0F4C0882319F0823061F004
:10554000EFC08091CF04813009F0EAC0933009F0B8
:1055500080E08093CA042EC08091CF0481112AC0BC
:105560008091D1048F702FEF280F263008F0D8C01B
:105570008093E9002091EB0020FF1CC0933021F4C0
:105580008091EB00806214C09091EB009061909349
:10559000EB0021E030E0A90102C0440F551F8A95BD
:1055A000E2F74093EA001092EA008091EB008860F5
:1055B0008093EB001092E9008091E800877F809350
:1055C000E8000E946828ACC08111AAC01091CF04E5
:1055D0001F778091E3008078812B8093E300809196
:1055E000E800877F8093E8000E9468288091E800A7
:1055F00080FFFCCF8091E30080688093E30011116D
:1056000002C082E001C083E08093CC0489C080584E
:10561000823008F085C08091CF049091D0048C3DF9
:1056200053E0950779F583E08A838AE289834FB74F
:10563000F894DE01139620E03EE051E2E32FF0E023
:1056400050935700E49120FF03C0E295EF703F5F55
:10565000EF708E2F90E0EA3010F0C79601C0C09630
:105660008D939D932F5F243149F74FBF8091E800C0
:10567000877F8093E8006AE270E0CE0101960E9485
:10568000742716C06091D1047091D204AE014F5FAF
:105690005F4F0E94CE26BC01892B09F441C0909136
:1056A000E800977F9093E80089819A810E94D22731
:1056B0008091E8008B778093E80032C0803881F5D4
:1056C0008091E800877F8093E8008091C8048093F0
:1056D000F1008091E8008E7772CF811121C0809116
:1056E000CF049091D00499270297D4F48091E800D8
:1056F000877F8093E8008091CF048093C8040E9444
:1057000068288091C804811106C08091E30087FD5C
:1057100002C081E001C084E08093CC040E94D125C6
:105720008091E80083FF0AC08091E800877F809322
:10573000E8008091EB0080628093EB00AA960FB6A0
:10574000F894DEBF0FBECDBFDF91CF911F910895BA
:105750000895CF938091CC048823A1F0C091E900F3
:10576000CF709091EC00892F817090FD80E8C82B5C
:105770001092E9008091E80083FD0E94482ACF70D2
:10578000C093E900CF910895289A219A229A2398EC
:105790002B9880E58CBD089590912C019F3F09F0D6
:1057A00072C08F3F09F46FC0611103C01092E30211
:1057B00003C090E29093E302423041F0433051F055
:1057C000413069F49091E302946007C09091E30244
:1057D000986003C09091E3029C609093E30241E0E3
:1057E00050E04217530718F4440F551FFACF909119
:1057F000E30240315105F1F050F442305105B1F06F
:1058000048305105E1F421E02093E20213C0403416
:10581000510591F04038510539F04032510579F485
:1058200021E02093E20208C0936007C091E09093CA
:10583000E20205C0916001C092609093E3022CB532
:105840009091E302922B9CBD9091E202992319F072
:105850009DB591609DBD80932C01E82FE295EF707E
:10586000F0E031A1282F2F7081E090E001C0880F77
:105870002A95EAF7932F982B91A392A180958923DB
:1058800082A381E0089580E00895CF93DF938EBDD9
:105890000E94EA23EC010DB407FC0AC00E94EA232F
:1058A0008C1B9D0B84369105B0F38EEF9FEF02C0E9
:1058B0008EB590E0DF91CF910895CF93DF931EBC1A
:1058C0000E94EA23EC010DB407FC0AC00E94EA23FF
:1058D0008C1B9D0B84369105B0F38EEF9FEF02C0B9
:1058E0008EB590E0DF91CF9108950F931F93CF93E2
:1058F000DF93EC018C01060F171FC017D10731F0A1
:1059000089910E94452C97FD03C0F7CF80E090E07D
:10591000DF91CF911F910F9108950F931F93CF9314
:10592000DF93EC018C01060F171FC017D10731F070
:105930000E945D2C97FD04C08993F7CF80E090E032
:10594000DF91CF911F910F91089580912C018F3F8E
:1059500019F1E82FE295EF70F0E031A1282F2F70B8
:1059600081E090E001C0880F2A95EAF7932F982BE9
:1059700091A392A1892B82A38FEF80932C018DB5E7
:105980008E7F8DBD9CB58091E302809589238CBD6F
:105990001092E3021092E2020895873941F178F4FF
:1059A000863349F130F4843321F1853331F584E2D3
:1059B00008958439D1F0863901F581E20895843F54
:1059C00071F030F4803FD9F0813FB9F481E008955F
:1059D000863F49F030F0873F81F487E0089584E006
:1059E000089585E0089586E0089580E2089582E2B2
:1059F000089583E2089585E208958FE1089580E097
:105A0000089595E890937A00982F907290689093FB
:105A10007B008F7190912D01892B80937C00809168
:105A20007A00806480937A0080917A0086FDFCCFB2
:105A3000809178002091790090917A009F779093DF
:105A40007A0090E0922B08950E94CD2C0C94012DA9
:105A50000895CF93C82F0E94282DC093E402CF91C0
:105A600008958091CC04843021F00E94983083E026
:105A7000089582E008958091E402811102C00C949F
:105A8000312D0895EF92FF920F931F93CF93DF93E1
:105A9000EC018B0122E030E040E060E084E30E9412
:105AA000CC2B0E94EA237C0188810E94452C8E3FEA
:105AB0009105A9F40E94A52C82E48A95F1F700C013
:105AC00022E030E040E060E084E30E94CC2BC7019C
:105AD0000E9402248017910738F3C0E00AC06B814E
